:020000040001F9
:10900000B02F0020C1930100C9930100CB93010050
:10901000CD930100CF930100D19301000000000027
:10902000000000000000000000000000D3930100D9
:10903000D593010000000000D7930100D9930100EF
:10904000319C0100DB930100F9A10100DB930100D9
:10905000DB93010000000000B19A0100919C010027
:10906000DB930100DB930100DB930100DB93010044
:10907000DB930100DB930100DB930100DB93010034
:10908000DB930100819C0100DB930100DB93010075
:10909000DB930100DB9301004DA00100DB93010095
:1090A000DB930100DB9301000000000000000000E2
:1090B000DB930100DB9301000000000000000000D2
:1090C00000000000000000000000000000000000A0
:1090D0000000000000000000000000000000000090
:1090E0000000000000000000000000000000000080
:1090F0000000000000000000000000000000000070
:10910000000000000000000000000000000000005F
:10911000000000000000000000000000000000004F
:10912000000000000000000000000000000000003F
:10913000000000000000000000000000000000002F
:10914000000000000000000000000000000000001F
:10915000000000000000000000000000000000000F
:1091600000000000000000000000000000000000FF
:1091700000000000000000000000000000000000EF
:1091800000000000000000000000000000000000DF
:1091900000000000000000000000000000000000CF
:1091A00000000000000000000000000000000000BF
:1091B00000000000000000000000000000000000AF
:1091C000000000000000000000000000000000009F
:1091D000000000000000000000000000000000008F
:1091E000000000000000000000000000000000007F
:1091F000000000000000000000000000000000006F
:10920000DFF80CD000F026F900480047FDB501005A
:10921000B02F002030B450E8012F93B2C48923440A
:109220008489A34228BF1B1B0489A34202BFBFF34A
:109230002F8F002007E0C3EA020340E80134002C2E
:10924000E9D14FF001000A6030BC704750E8012FAF
:10925000C2EA024240E801210029F7D1704730B448
:1092600050E8022F1FFAA2F3C488A34202BFBFF343
:109270002F8F00200DE0C48923448489A34228BF96
:109280001B1BC2EA034340E80234002CE8D14FF034
:1092900001000A6030BC704750E8022FC2EA224247
:1092A00040E802210029F7D17047034653E8022F16
:1092B000D988B2EB324F4FF0000017BF92B241EAAB
:1092C000014142EA014104E05A68B2EB324F08BF63
:1092D000012043E80212002AE8D1704730B4044666
:1092E00054E8000F0D4644E80053002BF8D11560F8
:1092F00030BC704730B4044654E8000F40EA010522
:1093000044E80053002BF7D1156030BC704730B4EF
:10931000044654E8000F00EA010544E80053002B1E
:10932000F7D1156030BC704730B4044654E8000FE4
:1093300080EA010544E80053002BF7D1156030BCEA
:10934000704730B4044654E8000F00EB010544E8D0
:109350000053002BF7D1156030BC704730B4044681
:1093600054E8000FA0EB010544E80053002BF7D1AF
:10937000156030BC704770B404464FF0000054E8EC
:10938000006F0D68AE4207BF44E80023012044E8A7
:1093900000630E60002B1CBF0020F0E770BC70471C
:1093A00030B4044654E8000F88422CBF451A0546E5
:1093B00044E80053002BF5D1156030BC7047000025
:1093C0000648804706480047FEE7FEE7FEE7FEE75F
:1093D000FEE7FEE7FEE7FEE7FEE7FEE751A001003D
:1093E0000192010000487047A8E7010040EA01032C
:1093F0009B0703D009E008C9121F08C0042AFAD24B
:1094000003E011F8013B00F8013B521EF9D270470E
:10941000D2B201E000F8012B491EFBD270470022B6
:10942000F6E710B513460A4604461946FFF7F0FF63
:10943000204610BD421C10F8011B0029FBD1801AE8
:109440007047034611F8012B00F8012B002AF9D1CF
:1094500018467047064C074D06E0E06840F00103EF
:1094600094E8070098471034AC42F6D3FFF7CCFEDF
:1094700044EE010064EE010070B58C1810F8015B39
:1094800015F0070301D110F8013B2A1106D110F89D
:10949000012B03E010F8016B01F8016B5B1EF9D1A1
:1094A0002B0705D40023521E0DD401F8013BFAE727
:1094B00010F8013BCB1A921C03E013F8015B01F892
:1094C000015B521EF9D5A142D8D3002070BD000027
:1094D00010B504460078002813D10121606803F01C
:1094E000E9FC08B100F07EFF60684FF41671008857
:1094F00010FB01F04FF4904190FBF1F001494860FE
:10950000487010BDE41A002010B50B4A01210B4829
:1095100000F07AFF08B100F065FF084800224FF420
:10952000C811006800F0AAFF002803D0BDE8104071
:1095300000F058BF10BD00006D95010034E401003B
:1095400010B503F0BBFD03F017FE06490220C1F879
:10955000080380214FF0E0220020C2F88012024967
:10956000087010BD00700040E41A00200348007825
:10957000002801D100F004B870470000E41A002070
:109580000EB5114807C88DE8070005208DF80200C8
:109590000D480E49001F03F047FD08B100F022FFFF
:1095A0006946032003F0D8FC08B100F01BFF01213D
:1095B000074803F07FFC08B100F014FF04490120C4
:1095C000891E08700EBD00003CE40100D19401002A
:1095D000E61A002010B5094C207800280DD003F0C1
:1095E000B5FD627807480649008800F00DF800F0E4
:1095F00022F8BDE81040FFF7A3BF10BDE41A002019
:10960000501C0020EE1A002007B586B0012200236E
:109610000093ADF810200193029303938DF802207C
:10962000498AADF8001008A9039104A9029169467E
:10963000AEDF09B000BD00280BD0A0F540510239C3
:1096400007D0082805D043F20141884201D000F03C
:10965000C9BE704730B53E4B04468DB00FCB08AD48
:1096600085E80F0004F11A0108A862DF00286DD117
:10967000A07E8DF8320041F23420ADF83000224651
:109680000CA90120A8DF002860D120216846FFF73F
:10969000C6FE41F23620ADF80000A07E8DF8020033
:1096A00001259DF80D00ADF8065040F012008DF830
:1096B0001150ADF804508DF80D008DF8135020882E
:1096C00004F10A02694601F06DFB00283ED1202119
:1096D0006846FFF7A4FE41F23520ADF80000A07EF9
:1096E0008DF802009DF80D00ADF8065040F0120014
:1096F0008DF81150ADF804508DF80D008DF8135011
:109700002088A21C694601F04DFB00281ED12021B3
:109710006846FFF784FE41F23820ADF80000A07ED5
:109720008DF802009DF80D00ADF8065040F01200D3
:109730008DF81150ADF804508DF80D008DF81350D0
:10974000208804F11202694601F02CFB0DB030BDF7
:1097500058E4010007B586B0012200230093ADF85C
:1097600010200193029303938DF802204988ADF8ED
:10977000001008A9039104A902916946AEDF09B05F
:1097800000BD07B586B0012200230093ADF810207C
:109790000193029303938DF802204989ADF80010DC
:1097A00008A9039104A902916946AEDF09B000BD82
:1097B00030B52449A5B009682491807E8DF89200C7
:1097C0003C216846FFF72BFE02208DF800000124A3
:1097D0008DF8024006208DF803003C210FA8FFF70A
:1097E0001EFE24A8184D1490ADF84C402A1D684662
:1097F000296800F027FF08B100F0F4FD124A0FA815
:109800000C32A96800F01EFF08B100F0EBFD182132
:109810001EA8FFF704FE00208DF88D408DF87840DB
:10982000ADF884001F908DF88C004FF4C860064995
:1098300020901EAA081F72DF002801D000F0D2FD80
:1098400025B030BD54E40100F01A00200448012185
:10985000007873DF002801D000F0C4BD704700001D
:10986000EC1A002000F0BEBD00B587B01C21684690
:10987000FFF7D5FD00204FF4A021CDE900018910AC
:10988000029103218DF80C10ADF80E008DF8100038
:109890000648059006480690684600F095FF0028A7
:1098A00001D000F09FFD07B000BD0000F19901005C
:1098B0006598010038B52B4C01886588212938D07E
:1098C0000BDC102913D011292CD013293AD10023F5
:1098D0001A46852128467FDF3AE03B293ED05229AF
:1098E00031D056292ED18088132176DF30E01E49F1
:1098F000808860800A781D49FFF786FEFFF79BFE8F
:109900001B48027819496088FFF73BFFFFF793FE79
:109910001848027815496088FFF71CFFBDE83840F9
:10992000FFF789BE4FF6FF706080BDE83840FFF753
:109930008DBF00210091808869468FDF002801D00B
:1099400000F050FD38BD00231A4619462846B1DF05
:109950000028F7D0BDE8384000F044BD80881321CE
:1099600076DFF5E7EC1A0020E51A0020501C0020F5
:10997000011B0020051B00200EB514A19DF8080056
:1099800020F00F00401C20F0F00010308DF808008F
:10999000082202A87CDF08B100F024FD002000901E
:1099A00001904FF4C871ADF80400ADF800104FF409
:1099B0007A704900ADF80600ADF8021068467ADF0B
:1099C000002801D000F00EFD0EBD00005465737438
:1099D000206C65640000000010B5002102F00EF854
:1099E000002803D0BDE8104000F0FCBC10BD000012
:1099F0000078002807D104483B21408876DF002802
:109A000001D000F0EFBC7047EC1A002000B591B017
:109A1000FFF720FE08B100F0E5FC40216846FFF7A3
:109A2000FEFC0CA1684601F0DBF80DA102A801F0D4
:109A3000D7F80FA104A801F0D3F801208DF83C005D
:109A4000684600F025FF002801D000F0CBFC11B0E3
:109A500000BD00004D616B69686F6D65000000001E
:109A60004D4B505F444F4F525F303030310000005B
:109A7000444F4F525F3030303030303031000000D2
:109A800008B502F0B3FF08B100F0ACFC0020009074
:109A90006946012002F068FE08B100F0A3FC6846A8
:109AA00002F0DEFE002801D000F09CFC08BD0000A2
:109AB0002DE9F04700268AB0DFF85091B0464FF408
:109AC0008075012437460696284602F047FA38B1D9
:109AD000D9F80403204203D0284602F035FA264381
:109AE0002D1D64007F1CADB2082FEDD34FF4BE7462
:109AF000204602F033FA48B1204602F025FA46F03B
:109B0000004606AA0121002002F00AFA404D16F094
:109B1000FF0F15D00127002437420DD009EB840137
:109B2000D1F81005D1F81015C0F3042055F8242001
:109B3000C1F3014102B190477F00641C082CEBD3B4
:109B4000002E5FDA4FF0FF30CDF8108054E0281976
:109B500010F8507F90F9000027F0C008401C3BD05F
:109B600007A9404601F038FF10B34FEA9719404665
:109B700001F0E0F855F820701FB1B9F1030F03D0E0
:109B800006E0B9F1030F27D104A9404601F02CFFEC
:109B90004FF0A04101EB8800D0F8000706A9C0F300
:109BA000014A404601F018FF18B1BAF1020F03D084
:109BB00012E0BAF1030F0FD1B9F1030F08D1BAF1D6
:109BC000020F1DD00221404602F090F9761CF6B239
:109BD00017B149464046B847641C042CB7D3002E41
:109BE00010D06A460121002002F09AF906990098E7
:109BF000884207D006900498002634460790A6E7CE
:109C00000321E0E70AB0BDE8F087000000600040F3
:109C1000D01D0020054A03214FF0A040C2F80017D4
:109C20004FF48011C0F80C15704700005000005030
:109C300070B54FF48076304601F06CFF0F4DB405DF
:109C400040B1304601F06DFF0120C4F808032968D7
:109C5000002088474FF48276304601F05BFF0028F1
:109C60000AD0304601F05DFF0220C4F808032968DD
:109C7000BDE870400120084770BD0000781B00203F
:109C800002490248091F096800680847B01B002004
:109C90002DE9FE434FF48278404602F041FD4C4FDF
:109CA00000254C4C012600B3404602F041FD94F8DB
:109CB0002E0010B194F82F10D1B18DF800506168CA
:109CC00001912189ADF80810E26832B1218B6183DE
:109CD00062602181E56010B102E0257400E03E6021
:109CE00021686846884784F82F5094F82E0060B3A6
:109CF0004FF48077384602F013FD30B3384602F057
:109D000017FD628B94F82D108A420AD9A2EB01004C
:109D100080B260832289A2EB0000626802EB4000FF
:109D200005E007D1E06828B184F82F60658302F070
:109D3000E5FC04E08A4202D184F82F606583404646
:109D400002F0F6FC2248001D06604FF48877384682
:109D500002F0E6FC48B1384602F0EAFC2574022025
:109D60008DF800002168684688474FF48A773846A6
:109D700002F0D6FC28B1384602F0DAFC2574BDE8C2
:109D8000FE834FF000484FF48C7967691DE000BFF7
:109D9000B7FA87F028FA00F109EB80058F432846CF
:109DA00002F0BEFC88B1284602F0C2FCA5F58C7515
:109DB000E8088DF8040045F38000401C8DF8006031
:109DC0008DF80500216868468847002FE0D1D6E766
:109DD000007000407C1E002000F014BA70B50E46E2
:109DE000144900EB400001EBC0051446E86A183541
:109DF00020B101280FD0022805D113E0284600F039
:109E000035FAA04201D2002411E02246314628460C
:109E100000F064FA0BE0284600F028FAA042F4D2E1
:109E20000446F2E73146284600F02BFA0446204665
:109E300070BD00002825002010B50B4A01210B48F9
:109E400000F0E2FA08B100F0CDFA0848002240F232
:109E50006661006800F012FB002803D0BDE81040E6
:109E600000F0C0BA10BD00003DA0010068E4010090
:109E700010B502F0BBFF00F027F800F093F8BDE842
:109E8000104000F0A9B8000010B5042002F03FF81F
:109E900018B100200249487110BD0120FAE7000006
:109EA000001B002070B5074C012525706069E0603B
:109EB000042002F02CF810B10020607170BD6571B3
:109EC00070BD0000001B002008B503208DF80100C4
:109ED0008DF800009DF80200064A20F003008DF87E
:109EE00002006946042002F019FF0121042002F05B
:109EF000C3FE08BDA59E01002DE9F0412248234A7A
:109F00001F4C801AC00821781E4E032202EB004528
:109F1000C1B1D4E90301411A032913D9A1786279A7
:109F200091420FD02061627919493088FFF712FC05
:109F30000746284617A102F02DFA3846FFF77BFBAB
:109F40006079A070A0786179884215D0D4E90410B6
:109F5000401A082810D9E068206162790C493088DD
:109F6000FFF7F8FB064628460CA102F013FA30462C
:109F7000FFF761FB6079A07000202070BDE8F081E0
:109F8000001B0020EE1A0020E4EE010084EE010028
:109F9000501C00204E6F7469667931004E6F7469F1
:109FA0006679320008B501208DF8010003208DF894
:109FB00000009DF80200074A20F003008DF802001F
:109FC0006946092002F0AAFE0121092002F054FE90
:109FD00008BD00000DA0010008B501208DF80100AA
:109FE00003208DF800009DF80200074A20F00300CE
:109FF0008DF8020069460A2002F090FE01210A2035
:10A0000002F03AFE08BD000025A0010010B50920AD
:10A0100001F07DFF024900B10120C87010BD0000B1
:10A02000001B002010B50A2001F071FF024900B1A9
:10A030000120C87010BD0000001B002002484169CB
:10A04000491C416170470000001B002002F008BD60
:10A0500070B54FF08051D1F84422D1F830015A4BFD
:10A06000C2F342321A6000238A00C2F80C31C2F8EF
:10A070001031554A121F1360544A1268544C226022
:10A08000524A121D1268241D2260504A083212687A
:10A09000241D22604D4A0C321268241D22604B4A56
:10A0A00010321268241D2260484A14321268241D9E
:10A0B0002260464A18321268454C20342260434AD6
:10A0C0001C321268241D2260404A20321268241D6E
:10A0D00022603E4A24321268241D22603B4A283204
:10A0E0001268241D2260394A2C321268241D226015
:10A0F000364A30321268364C40342260334A3432A9
:10A100001268241D2260314A38321268241D2260F0
:10A110002E4A3C321268241D22602C4A40321268BA
:10A12000241D226001242B4A082802D1D1F8345181
:10A1300015B1082804D00CE0274EFB25356002E05D
:10A14000D1F834512DB991F85852116865F30301D3
:10A15000116022490D68ED0702D06FF001050D6016
:10A16000106840F00F0010604FF01021D1F800028D
:10A17000002803DBD1F80402002821DA184A146011
:10A1800018480468002CFCD01224C1F8004205686D
:10A19000002DFCD0C1F8044201680029FCD01360F6
:10A1A00001680029FCD0BFF34F8F0F4801680F4AA8
:10A1B00001F4E06111430160BFF34F8F00BFFDE781
:10A1C0000C490B48086070BD3C05004004040010B9
:10A1D00020C50040E40E004018F500400004004097
:10A1E00004E5014000E401400CED00E00400FA0544
:10A1F0000090D003E01A00200148006800470000EA
:10A20000801B002010B5124C02202061606111A05B
:10A21000A06104F17800E0614FF40070206200203A
:10A22000A06260620BA1A164E06204F51E71E164AA
:10A230001021A065C4E91410E06509A1E01DFFF735
:10A2400000F908A12046FFF7FCF82020A07110BDFE
:10A25000282500205465726D696E616C0000000055
:10A260005254540053454747455200000269C168A3
:10A270008A4203D88068401A104400E0501A401EF9
:10A2800070472DE9F047C4681746894606464FF0E7
:10A2900000083069A04201D9051B02E0B168201A0C
:10A2A0000D1AB0686D1E001BA84200D80546BD42BD
:10A2B00000D33D4670682A4620444946FFF796F889
:10A2C000B0687F1B2C44A844A944A04200D10024BC
:10A2D000F460002FDDD14046BDE8F0872DE9F04164
:10A2E00004468846D4E90207C51BE1686068164643
:10A2F0000844B54206D94146FFF778F8B819E0603E
:10A30000BDE8F0812A464146FFF770F8761B08EB5E
:10A31000050132466068FFF769F8E660F0E702E0A1
:10A3200008C8121F08C1002AFAD1704770470020E0
:10A3300001E001C1121F002AFBD170470121202832
:10A3400003DA81400548014003E0402802DA203862
:10A35000814009B10120704700207047FC06FFBD15
:10A3600072B602F0B9F800BF01F0FAFE0028FBD186
:10A3700011481249401AC408012000EB044010A102
:10A3800002F008F811480068C00700D000BE0220A3
:10A3900000EB04400EA101F0FDFFBFF34F8F0B480F
:10A3A000E43801680E4A01F4E06111430160BFF333
:10A3B0004F8F00BFFDE70000E4EE010084EE0100D6
:10A3C000466174616C206572726F7200F0ED00E09E
:10A3D00053797374656D20726573657400000000B5
:10A3E0000400FA050EB500210091CDE901106A467E
:10A3F00044F20100FFF7B4FF0EBD0000014800F079
:10A4000092BE0000901B00203AB100680129426111
:10A4100000D0002101610020704707207047000034
:10A4200038B5114808235822416800910F49006847
:10A4300001F0F9F9002815D10D4A69460D4800F0E0
:10A4400077FE04000ED101210A4800F0E8FE012346
:10A45000094A1946074800F03EFE0649012008391E
:10A460000870204638BD000098E40100BC1E0020A2
:10A4700005D90100901B0020FFFF7F0070B5044646
:10A48000007F0D4608B1002070BDA26100F05EFFA4
:10A49000401941F10001C4E90201206900B12561C0
:10A4A0002146BDE87040002003F006BD01460020B3
:10A4B0000877012003F000BD30B5EFF3108172B6CC
:10A4C0000D4A9468012324B10370002900D162B6BB
:10A4D00030BD93604FF0E023D3F88051074C254006
:10A4E0001560C3F88041D3F8844154605A17C3F80B
:10A4F000842100220270E8E7141F0020FC06FFBD43
:10A500000B498A68002A11D000280FD1EFF3108080
:10A5100072B60B684FF0E022C2F800314B68C2F807
:10A52000043100228A60002800D162B67047000022
:10A53000141F00202DE9F041064608680C46411C16
:10A540004FF0A0474FF0010506D005FA00F1C7F81B
:10A550000815206801F0B6FC6068411C02D000219B
:10A5600001F09EFC3168A069C1F82405607D227D60
:10A5700031681043C1F86C05D4E900123068C0F8A6
:10A580001425C0F80C15207D012815D1A068411CA8
:10A5900002D0002101F084FCE068411C05D0854018
:10A5A000C7F80855E06801F08DFCD4E90212306864
:10A5B000C0F80825C0F81015BDE8F0812DE9F0417C
:10A5C000064608680C46411C4FF0A0474FF00105B5
:10A5D00006D005FA00F1C7F80815206801F07CFCE8
:10A5E0006068411C02D0002101F063FC3168A06961
:10A5F000C1F82405607D217D32680843C2F86C05EE
:10A60000D4E900123068C0F80C15C0F81425207D7C
:10A61000012815D1A068411C02D0002101F049FC9D
:10A62000E068411C05D08540C7F80855E06801F096
:10A6300053FCD4E902123068C0F80825C0F81015A0
:10A64000BDE8F0812DE9FC470025178806461580F6
:10A6500090F82D001446894630B13A4621464846C6
:10A6600000F0E6F8051E09D1B0784FF00C0A18B3D7
:10A670002088C846001DB84202D95046BDE8FC8774
:10A68000684679DF0028F9D12088032108F80010F6
:10A6900020881921401C80B2208008F800102088F2
:10A6A000401C80B2208000EB0801BDF8000003F0E0
:10A6B000C6FD218808442080F0780222C8B1218894
:10A6C00096F9033001F1030C4846BC45D5D84254F5
:10A6D00021884FF0010C491C89B2218000F801C08B
:10A6E0002188491C89B2218009F801302088401C4A
:10A6F00020807068B8B1218890F9003001F1030C16
:10A700004846BC45B9D8425421880A22491C89B21E
:10A71000218042542188491C89B2218009F80130E6
:10A720002088401C2080308950B1CDE900474B463D
:10A730000622022106F1080003F014FE051E9DD139
:10A74000308A50B1CDE900474B460722032106F17C
:10A75000100003F007FE051E90D1308B50B1CDE9FB
:10A7600000474B461522142106F1180003F0FAFDAC
:10A77000051E83D1306A30B13B462246494600F07F
:10A7800026FC051EDBD1706A30B13B4622464946A5
:10A7900000F06CFF051ED2D196F82C0038B13B4674
:10A7A00022464946304603F01DFA051EC7D13078CF
:10A7B00038B13B4622464946304600F0E1FF051ECF
:10A7C000BDD128465AE7000070B5040012D00146FA
:10A7D0001C221448FEF70AFE1248134D056020683B
:10A7E00050B17ADF002806D12068016829604068EE
:10A7F000686005E00E2070BD0B487BDF0028FAD1B1
:10A8000008484FF6FF711438084A20F8041B054920
:10A81000343901600021FFF7F7FD0028EBD0032059
:10A8200070BD0000241D0020181B0020FDE2010067
:10A830007CB5054608880C460930904201D90C20A9
:10A840007CBD68466DDF0028FAD121880820685455
:10A8500020881B21401C80B2208029542088401C65
:10A8600080B220802844DDF801100160BDF8051099
:10A8700081802088801D80B220809DF800104908CA
:10A8800000D0012129542088401C208000207CBD5C
:10A890001FB5044601208DF8060041F60A00ADF808
:10A8A0000400494A01A90120A8DF00287DD122889F
:10A8B0005AB14548801C009094F83C3042F629205B
:10A8C000616800F03FFA00287BD122895AB13E48E6
:10A8D0000A30009094F83C3042F62420E16800F001
:10A8E00031FA00286DD1228A5AB1374812300090CF
:10A8F00094F83C3042F62520616900F023FA0028E4
:10A900005FD1228B5AB130481A30009094F83C3015
:10A9100042F62720E16900F015FA002851D1228C77
:10A920005AB129482230009094F83C3042F6262053
:10A93000616A00F007FA002843D1228D5AB12248FB
:10A940002A30009094F83C3042F62820E16A00F06A
:10A95000F9F9002835D1216B79B102A803F022FA68
:10A96000194808223230009094F83C3002A942F68F
:10A97000232000F0E7F9002823D1606B60B1124971
:10A980003A3100910279016894F83C3042F62A206D
:10A9900000F0D8F9002814D1A16B89B102A802F007
:10A9A00017FF09484230009000E00AE094F83C307C
:10A9B000072202A942F6502000F0C4F9002800D175
:10A9C000002004B010BD0000201B00202DE9F0473E
:10A9D00001883B4E40F2F3194FF6FF7510291BD04A
:10A9E00011293ED0122954D0502946D1C188F2896C
:10A9F000841D914241D1618902293ED18688304629
:10AA000000F0BEFC050038D004F10C0000F0F1F8B5
:10AA1000A8B3294630464EE0C17B87880446012909
:10AA20002BD1A846284600F0ABFC050017D02F809C
:10AA300000202872234843464A460168C5F80A1098
:10AA40004068C5F80E0004F1100105F10A0000F09D
:10AA500051FD6872F08900280FD129462AE00420B0
:10AA600013E0808800F08CFC040006D06068FFF7DB
:10AA70001DFD08B103F066F82580BDE8F087FFE70B
:10AA80006868FFF713FD0028F7D0BDE8F04703F032
:10AA900059B887880646384600F072FC0400ECD0AE
:10AAA0002B464A4606F1080104F10A0000F022FD97
:10AAB000607221463846BDE8F04700F0CDBA00008C
:10AAC000241D0020181B00202DE9F04F0446868825
:10AAD0000188424897B0834610290CD0112950D0E4
:10AAE000103019296AD01A2974D1217A0C09042C42
:10AAF0004DD301224CE0394D083DA868C0430B906E
:10AB000069680BA800F0FAFE0B990CA800F040FA57
:10AB10002C220CA96846FEF769FC0027E946A846E6
:10AB200010E000BF09EB47005FF00005B0F804A09B
:10AB300008EB85005146001D00F0B4FE6D1C1E2D73
:10AB4000F6D37F1C0098B842ECD8142E05D317B06A
:10AB50000420BDE8F04FFFF745BC3146584600F0F1
:10AB6000B7FE314608F1040000F0B2FEE07B012898
:10AB700030D017B03146BDE8F04F1848001D00F046
:10AB8000A7BE17B03146BDE8F04F00F08BBE0022E3
:10AB9000314600F0D6FB032C01D3012200E0002255
:10ABA0000E4831460C3000F0CCFB022C01D30122C0
:10ABB00000E0002209483146083006E0217A0029E9
:10ABC00008D1617AC1F3C002314617B0BDE8F04F39
:10ABD00000F0B7BB17B0BDE8F08F0000481D0020A3
:10ABE00070B504460D460846FEF724FC20806560DB
:10ABF00070BD007800F00100704700002DE9F843B7
:10AC00000546861C00208DF8000090460F464FF048
:10AC100001096846FFF750FC1B4C20683860D4E9F6
:10AC20000001401AA16804F21C47081A0EE0012135
:10AC3000384600F05DFE00F093FC0146384600F017
:10AC400057FED4E90001401AA168081A401C864248
:10AC5000EDD8B8F1000F03D0052065F3891002E0AC
:10AC6000062065F39F50A2682168114004EB810122
:10AC7000C8602068304420609DF80000FFF740FC69
:10AC80004846BDE8F88300000421002070B50D4659
:10AC900004460A2902D10D21FFF7F8FFA0682268B7
:10ACA000411CA1601554D4E90101814204D320461E
:10ACB000BDE8704000F0B3BF70BD0000034803C89A
:10ACC000814201D1012070470020704704210020FB
:10ACD00005494FF0FF32082841F8202002D30844EC
:10ACE00080F8482070470000D01D0020F0B54FF0DC
:10ACF000FF3512B10023082601E008230C260C4C76
:10AD000005E000BF54F823707F1C04D05B1CB342E5
:10AD1000F8D32846F0BD26185DB286F8305044F8C6
:10AD20002310002AF5D1E11881F84800F1E700006E
:10AD3000D01D00200249084490F9300070470000FF
:10AD4000D01D00202DE9F04188B01E46DDF8388086
:10AD500014460D00074602D10020FFF743FB14B94B
:10AD60000020FFF73FFB20216846FEF758FB9DF8C7
:10AD70000D00ADF8044040F002008DF80D000848C9
:10AD8000ADF80070ADF8064002958DF811604246AE
:10AD90006946008800F006F808B0BDE8F0810000C0
:10ADA000201B00202DE9F0438146887891B0904621
:10ADB0000C4600B901208DF83E002088ADF83C001B
:10ADC00000250095607C694602F050FF6E46A07C2D
:10ADD000711C02F04BFFE07B00289DF8020002D0BE
:10ADE00040F0080001E020F008008DF80200217C0E
:10ADF00011B140F0100001E020F010008DF80200C9
:10AE0000217B11B140F0010001E020F001008DF83C
:10AE10000200217D09B1022100E0012161F342001D
:10AE20008DF802001C2102A8FEF7F9FA607BC1062A
:10AE300001D4800617D50E950EAFE07C791C02F088
:10AE400015FF9DF83800079720F00F00401C20F0F8
:10AE5000F00010308DF838009DF83A0020F0060020
:10AE6000801C8DF83A00607B8DF80800A07B8DF87F
:10AE70000900142109A8FEF7D2FA0FA8CDE90906A6
:10AE8000A088ADF83000A06820B1E088ADF82C00B3
:10AE9000A0680D90A06998B301950088ADF81000E6
:10AEA000A06901AD01A94088ADF81200A069406811
:10AEB00006950390A069007B02F0D8FEA069691C8A
:10AEC000407B02F0D3FEA069807A00289DF806003E
:10AED00002D040F0080001E020F008008DF80600E4
:10AEE000A169C97A11B140F0100001E020F0100012
:10AEF0008DF80600A169097A19B140F0010002E05D
:10AF00000DE020F001008DF80600A169897B09B1F0
:10AF1000022100E0012161F342008DF80600E069A2
:10AF200000B10590434609AA02A94846AADF11B01C
:10AF3000BDE8F08370B5084C050009D010342168D5
:10AF4000002907D008682060496828468847F6E746
:10AF50000834F4E770BD0000BC1D0020054A012143
:10AF600020B1012805D19170FFF7E4BF5170002096
:10AF7000FAE77047BC1D002010B5D0E90234D1E9D2
:10AF80000220D11AA04101D3012010BD002010BD24
:10AF900073B58CB00646002000900D9880B1002457
:10AFA0006D4621460DA800F088FC30B1009805EBF5
:10AFB000400084800098401C0090641C142CF0D346
:10AFC0002C2269463046FEF711FA0EB070BD2DE90D
:10AFD000F04117880646B81D14460D46984202D91E
:10AFE0000C20BDE8F0813188072206290AD34FF4EE
:10AFF000486C4FF6FF73614501D9994202D17088C0
:10B00000062801D21046ECE7604501D99842F9D1F3
:10B01000994203D0984201D08142F3D80520E855E7
:10B0200020881221401C80B2208029542088401C96
:10B0300080B220804119308803F001F9218808444A
:10B0400080B220804119708803F0F9F82188084403
:10B0500020800020C5E7000038B54A7A0F4B62B166
:10B0600000220A725969002906D001228DF80020B9
:10B07000ADF802006846884738BD0A7A62B19B681D
:10B080004C68024619462046FFF7F8F90028F3D02D
:10B09000BDE8384002F056BD5B68F1E7241D002092
:10B0A00010B50021024800F034FC80F3100010BD00
:10B0B000202500204FF480328A400168C1F84823DF
:10B0C0000068C0F8082370474FF4A07202EB8101BA
:10B0D00089B200F02CB92DE9F04105460E464FF437
:10B0E000A07000EB860081B228684FF48034B44031
:10B0F000984622F07F47C0F808432868C0F84843C4
:10B10000286801F0F5FA286800EB8600C0F8407561
:10B110002868C0F84443B8F1000F02D02868C0F88E
:10B120000443BDE8F0810068D0F8040570470000D2
:10B1300070B54379224C44F823204279241D04EB56
:10B14000C202204B1579204A9A1AD3082DB108243F
:10B15000022000EB03401DA12EE002680D88C2F81A
:10B16000085590F904208978002A4FEA411106DA3F
:10B1700002F00F0202F1E02282F8141D03E002F156
:10B18000E02282F8001490F90410012201F01F055A
:10B1900002FA05F54909890001F1E021C1F80051E1
:10B1A000417904EBC1010A71417944F8310003206F
:10B1B000002400EB03400EA101F0ECF8204670BD26
:10B1C000AC1B0020CCEE010084EE01005254432061
:10B1D000696E7374616E636520616C726561647918
:10B1E00020696E697469616C697A65642E0000007B
:10B1F0005254433A20696E697469616C697A656476
:10B200002E00000090F90400012100F01F0291407F
:10B210004009800000F1E020C0F8001270470A46A3
:10B22000022100F07BB84FF4827100F080B8006812
:10B2300001210160704700680121416070472DE9DC
:10B24000F05F07460C464FF4A07000EB84001FFA35
:10B2500080FA38684FF48036A6409B4622F07F453E
:10B26000C0F848633868C0F808633868D0F80485C7
:10B2700000EB8402D2F84095C2F840855146386808
:10B2800001F036FAA9EB080020F07F40012806D132
:10B29000102001F0E9FC5146386801F029FA3868BD
:10B2A000D0F80485C0F84463A5EB080121F07F4184
:10B2B0003868012900EB840010D0C0F84055386888
:10B2C000D0F804156FF07F4C6A1A521E22F07F42AC
:10B2D000ACEB0B03934217D362B118E06D1CC0F8BE
:10B2E0004055102001F0C0FC3868D0F804054045F6
:10B2F0000AD10CE000EB84006D1CC0F840553868A2
:10B30000D0F80405884202D00D20BDE8F09F01224C
:10B310003146384600F002F80020F6E70368C3F82B
:10B320004413002A02D00068C0F80413704710B517
:10B33000006842581AB101F0DBF9012010BD00206D
:10B3400010BD0AB100F0C4BA00F0ACBA10B50B4899
:10B35000FFF7E9FE094A083AD2E90434C018D2E9F5
:10B36000063244F10001C31A71EB020204D24FF01D
:10B370008072801841F1000110BD0000901B002078
:10B380000146034802888A4200D00020704700002E
:10B39000101D00202DE9FC5F0E008346DDE90C47FF
:10B3A000C6F1000098469246814600D40846012521
:10B3B00003E000BF90FBFAF06D1C5045FADAA84597
:10B3C00000D9454624B1002E01DB780700D5641E64
:10B3D000B80702D5B8F1000F0AD0F80708D13CB180
:10B3E000A54205D220215846641EFFF74FFCF6E720
:10B3F000002E02DA4E462D2102E0780703D52B21DC
:10B400005846FFF743FC07F0030002280BD1B8F1C0
:10B41000000F08D13CB1A54205D230215846641E28
:10B42000FFF734FCF6E7CDE9004743465246314684
:10B43000584602F009FFBDE8FC9F000070B50D46BC
:10B44000044600684FF4887101F0CEFB4FF4907110
:10B45000206801F0C9FB4FF49271206801F0C4FB31
:10B460004FF4A271206801F0BFFB4FF4AC7120686B
:10B4700001F0BAFB20681149C0F80413206869077D
:10B4800040F30730090E002806DA00F00F0000F143
:10B49000E02080F8141D03E000F1E02080F80014A3
:10B4A0002068012140F3073000F01F02914040095D
:10B4B000800000F1E020C0F8001170BD10034200D0
:10B4C000024600201268530713D502F0030001283A
:10B4D00002D002280CD105E0C2F383100B68801C57
:10B4E000184404E00223086803EB925210440860F9
:10B4F00001207047F0B58488A518944200D82246F0
:10B50000A41AC288D6189A4200D81346D21A4B8879
:10B510000788BB420CD34088834209D88888A04260
:10B5200006D3A84204D8C888904201D3B04201D9BA
:10B530000020F0BD0120F0BD1721018041800021D5
:10B5400001714171704710B54FF48041002000F047
:10B550008DFF08B1FEF746FFBDE8104000F0E6BDE4
:10B560002DE9FF410026234800F0BFF92148001FC4
:10B57000074600F0BAF9204C60680090A56800E02A
:10B5800000986946284004EB80000C30FFF798FFD4
:10B590000028F5D101AA009901EA050304EB830311
:10B5A000491CDB6842F82030401C00910228F2D38D
:10B5B000019800F0030001280BD0022810D1019857
:10B5C000032101EB90500099BDF80A6001EB900057
:10B5D00005E00198BDF80A60C0F3831008440090AC
:10B5E000384600F07FF908B10098606004B030463A
:10B5F000BDE8F0811C25002004210020FFF7A3FFF7
:10B60000FEF70EFF08B1FEF7EDFEFDF77DFFFEF73A
:10B6100013FC02F015F9FEF72BFCFEF735FCFDF7E5
:10B62000AFFFFEF72DFAFEF7A7F90F48FEF7D4F9A2
:10B630000D481030FEF7EAF90B481030FEF7B8F865
:10B64000FEF712F9FEF702F9FEF7E4FA01F07EFDCB
:10B65000FEF752FCFDF7BEFF00F082FD0028FBD193
:10B6600001F02EF8F4E70000401C002070B51446ED
:10B6700082880E4605462088111D0144921C99427D
:10B6800001D8FE2A01D90C2070BD521C32542088EA
:10B69000FF21401C80B2208031542088401C80B2A1
:10B6A00020808119288802F0CAFD2188084480B2D0
:10B6B0002080AA8842B1A96841B13044FDF796FEC6
:10B6C0002088A98808442080002070BD072070BD14
:10B6D0002DE9F047C5881E1DB6FBF5F78946B6FB78
:10B6E000F5F1044605FB176C407916686843DDF8F0
:10B6F00020A0F718001F874200D9C61A166001E083
:10B700002468491E0029FBD1A5EB0C078846B742E7
:10B7100016D818E004EB0C00001D09EB0803BAF181
:10B72000000F3A4602D00146184600E01946FDF7E0
:10B730005DFE2468F61B4FF0000CB844B54201D9F9
:10B74000374600E02F46002EE4D1BDE8F087000028
:10B7500030B5024651B100F0A7FE0021074C08E0C9
:10B7600034F821301568AB4202D11160002030BDA1
:10B77000491C8142F4D3052030BD000000000000C8
:10B78000F8B50F46017814460546012901D16878BD
:10B7900030B12088821C9A4232D8012902D006E0BA
:10B7A0000720F8BD69780144891C994228D8181AE5
:10B7B000801E86B2ADF800602188B81C0844694636
:10B7C0007DDF0028EDD12978022904D06878BDF802
:10B7D0000020904205D3BDF80000B04201D80920F6
:10B7E0000AE00820012905D16978B14202D8ADF8F4
:10B7F000001001E0ADF80060BDF80010FE2901D98D
:10B800000C20F8BD2288491CB9542188491C89B2F2
:10B81000218078542088401C2080BDF80010084406
:10B8200020800020F8BD10B531B1B2FBF3F403FB6A
:10B8300014241CB1092010BD0E2010BD0160002190
:10B84000416081608281C381084610BD70B50C469D
:10B850000546FDF7DFFC002802D02188286808444F
:10B8600070BD10B50A8849888A4203D1FDF714FDDE
:10B87000012010BD002010BD70B50C460546FDF737
:10B88000EEFC002802D061882868084470BD10B51D
:10B890000A8849888A4203D1FDF7D8FC012010BDEF
:10B8A000002010BD01F01F0301229A40D243490934
:10B8B00000EB8100114600F021B84A0950F822003F
:10B8C00001F01F0201219140084000D00120704783
:10B8D00001F01F0301229A40490900EB8100114643
:10B8E00000F01CB8002100F00FB8012100F016B8DC
:10B8F00008B56A46FDF725FD009808BD08B56A46FB
:10B90000FDF705FD009808BD08B56A46FDF7FFFC88
:10B9100008BD08B56A46FDF7E1FC08BD08B56A46F2
:10B92000FDF7E8FC009808BD08B56A46FDF716FD6E
:10B93000009808BD38B5044600258DF800506846CB
:10B94000FEF7BAFD21686268086890420ED9401E71
:10B9500008600178238AE26801FB0325227A2168C6
:10B96000101AC0B20A79824200D208719DF8000014
:10B97000FEF7C6FD284638BD38B5054600208DF8CF
:10B9800000000C466846FEF797FDE868298A201AF1
:10B99000B0FBF1F12A681068431C136001709DF838
:10B9A0000000FEF7ADFD38BD10B530B1017A426838
:10B9B0000368891AC9B21A6006E00E2010BD036838
:10B9C0001A68541C1C601170491EC9B2F7D2006875
:10B9D00000210171084610BDC20800F007030120D4
:10B9E000895C98400840704710B5C20800F0070312
:10B9F000885C01249C402043885410BD10B560B180
:10BA0000C160172120F8021B20F8021B1B2100F83F
:10BA1000021BFFF791FD002010BD0E2010BD00009D
:10BA20007CB50C468188002933D102880025102A74
:10BA300006D0112A09D03A2A0BD0552A2ED129E056
:10BA40000146204601F00EFE28E0A01DFFF774FD20
:10BA500024E02246408934F8063F834200D8184645
:10BA60006080172800D217206080D06878B1607994
:10BA700068B1184BD3E90003CDE90003ADF802101B
:10BA80006088ADF80400D368694610469847657130
:10BA900025717CBD0146204601F02AFEA07A0028CF
:10BAA000F7D02846E188A5DF012680B11128F0D023
:10BAB00001F07AF802460848084902B0401AC00866
:10BAC00006EB0040BDE8704005A100F067BCA57220
:10BAD000E6727CBD6CE4010084EE010084EE01009E
:10BAE00073645F626C655F67617474635F657863DC
:10BAF00068616E67655F6D74755F7265717565739A
:10BB00007428292072657475726E65642025732E01
:10BB10000000000000F180400068002800D00120F3
:10BB2000704708B500F18040002101600068009076
:10BB300008BD000070B50B4C207808B185250FE0DA
:10BB40000020A06060602061E060074801F068F8B4
:10BB5000054600F097FF08B901F04CF8012020706D
:10BB6000284670BDBC1D00205DAF010038B5002522
:10BB70008DF800506846FEF79FFC074CE068401EB9
:10BB8000E060E06810B901F059F8A5709DF8000078
:10BB9000FEF7B6FC38BD0000BC1D0020F0B5054620
:10BBA0000478154889B0164640F82420124A0869DE
:10BBB000121DA2F1080742F82400487F38552022C0
:10BBC0006846FDF713FC04942878385C48B10EB140
:10BBD0000A4A00E000226946281D01F039FC09B03C
:10BBE000F0BD0EB1064A00E00022694605F10C00E6
:10BBF00001F000FBF3E70000701B0020FDE00100F6
:10BC000045DF01000FB408B50399002904D004AA48
:10BC100000926A4600F00FF801B05DF814FB10B511
:10BC200082680446002A05D0D4E9040321689847B5
:10BC30000020A06010BD2DE9FC4791460C00804615
:10BC400076D014F8011B39B125290ED04046FFF7F4
:10BC50001DF820780028F4D198F80C00002867D04F
:10BC60004046BDE8FC47FFF7DABF002001222178FB
:10BC70002B291BD02D2902D0302908D102E040F019
:10BC8000010001E040F00200641C002AEFD1002511
:10BC90002A290ED02178A1F130020A2A11D205EB0F
:10BCA000850201EB4205641C303DF1E740F00400E1
:10BCB000EAE7D9F800100B1DC9F800300968641CC8
:10BCC0000D44217800232E290BD114F8011FA1F176
:10BCD00030020A2A05D203EB830201EB4203303B18
:10BCE000F3E76C290DD068290BD0692921D00BDC32
:10BCF000252918D0582931D063290ED0642915D1AF
:10BD000017E014F8011FECE7702969D0732932D0CD
:10BD100075291BD0782909D120E0D9F80000011D30
:10BD2000C9F8001001784046FEF7B0FF641C90E7A8
:10BD30006CE0D9F800100A1DC9F800200968CDE9A7
:10BD400000500A224046FFF725FBEFE7D9F8001024
:10BD50000A1DC9F8002009680A2206E0D9F8001077
:10BD60000A1DC9F8002009681022CDE9005040469C
:10BD700002F06AFADAE7D9F8001000270A1DC9F8BC
:10BD800000200E68C00705D112E04046761C7F1CDB
:10BD9000FEF77CFF31780029F7D104E020214046EE
:10BDA0006D1EFEF773FFBD42C0D9002DF6D1BDE771
:10BDB0004EB13046FDF73EFB074604E020214046E9
:10BDC0006D1EFEF763FFBD4206D9002DF6D103E0DC
:10BDD0004046761CFEF75AFF31780029F8D1A5E7D6
:10BDE000D9F80000011DC9F800100568302140464F
:10BDF000FEF74CFF78214046FEF748FF082000215F
:10BE0000CDE90001034610222946B0E7BDE8FC87D2
:10BE100070B541EA4201DDE904564FF0A04441EA21
:10BE2000830141EA052104EB800041EA0641C0F8A4
:10BE3000001770BD70B541EA4201DDE904564FF0CC
:10BE4000A04441EA830141EA052104EB800041EA74
:10BE50000641C0F8001770BD70B541EA4201DDE946
:10BE600004564FF0A04441EA830141EA052104EB66
:10BE7000800041EA0641C0F8001770BD1CB50021E2
:10BE800000910B4601220191FFF7D4FF1CBD1CB5A8
:10BE9000002100910B4601220191FFF7DDFF1CBD3F
:10BEA0001CB500220B46009211460192FFF7C2FF1B
:10BEB0001CBD1CB500220B46009211460192FFF7F3
:10BEC000CBFF1CBD1CB5002100910B460122019146
:10BED0001146FFF7AFFF1CBD1CB5002100910B46BA
:10BEE000012201911146FFF7B7FF1CBD4FF0A042A0
:10BEF00002EB8000D0F8002722F44032C0F800277F
:10BF0000D0F8002742EA0141C0F8001770474FF00F
:10BF1000A041D1F81015C14001F0010070470000A8
:10BF200018B5084B6C4601441B68009306E000BF3F
:10BF300054F82030D3F81035401C08C28142F7D89D
:10BF400018BD00007CE40100034908B50844002145
:10BF500001600068009008BD006000400249405840
:10BF6000012800D0002070470060004030B5154A1D
:10BF700001460020D2F8104423460AE0DB681D7910
:10BF8000854205D1401C0A28F6DB4FF0FF3030BD5A
:10BF90001B68002BF2D1431CF9D0CB681871D2F882
:10BFA000103443B1DB68CC681B682360D2F81024DE
:10BFB000D268116030BDC2F81014C96800220A604E
:10BFC00030BD0000042100207047FDF705BF704719
:10BFD00008B5034A00924023024A00F005F808BD64
:10BFE00055DB01002C1F0020F0B595B01C4615460E
:10BFF0000F4608461A9E00F029FB182109A8FDF7F4
:10C000000EFA0E96CDE909540023082203A93846FA
:10C0100000F031FB05980690BDF81000ADF81C004B
:10C02000BDF81200ADF81E0000208DF82100039825
:10C03000082600F00300012802D0022818D032E0C0
:10C0400003983346850AC0F3C2008DF82000039898
:10C050000FA9C0F38314A200384600F00CFB09A816
:10C06000009006AB22460FA9284600F04BFA1AE0D2
:10C070000398840DC0F3C2008DF82000082C01D273
:10C08000254600E0082533462A460FA9384600F029
:10C09000F2FA2E44641B09AB06AA29460FA800F049
:10C0A0008DF9002CEAD1384600F0D6FA15B0F0BD73
:10C0B0007047012001F064BF084810B50178084AB4
:10C0C000515C19B1001D01F05DFA02E00C3001F085
:10C0D0005DF9BDE81040002001F052BFC81B0020F0
:10C0E0006C1B002008B5034A00924023024AFFF768
:10C0F0007BFF08BDA5DB01006C1F00200A4A012957
:10C1000002EBC00007D0022907D0032907D0042979
:10C1100007D0002070470220704704207047007944
:10C12000704740797047000084EE010010B5FFF7BA
:10C130004CFF04210948FFF719FF08480124C06893
:10C140004471FFF7B6FF054804211030FFF70EFFDA
:10C1500002481030C068447110BD000064EE010058
:10C160002DE9F04F8DB0FEF7A9FD18B100200DB0FC
:10C17000BDE8F08F7E4C4FF0000BC4F818B4BFF34D
:10C180004F8F60680290A568D846284004EB800075
:10C190000CE000BFD4F8180470B9216802988142FD
:10C1A00001D86160E2E7284004EB80000C3002A96E
:10C1B000FFF786F90028EDD1002005AA029901EACF
:10C1C000050304EB8303491CDB6842F82030401C64
:10C1D00002910228F2D3059800F00300022802D051
:10C1E00001284DD0AAE005985022810D8946B2EB76
:10C1F000905F00D850210E4666F39F50059008319D
:10C200005C4800F0DAF9070078D000F01FFA4346E6
:10C21000082205A9384600F036FA029908F1080A02
:10C220002940681A8000001D864222D9504D0C35E5
:10C2300030B1C2B204EB8101301A90460C3104E0F7
:10C240002946F2B2002590462846C6B253463846E3
:10C2500000F019FA0AEB080325B1324629463846A0
:10C2600000F011FA029909F1030001EB900002902D
:10C270003BE004EB81015346324638460C31EFE790
:10C280000598C0F38310062800D30620059960F3B3
:10C290008911C1F38310801C05918100354800F09D
:10C2A0008CF907004AD000F0D1F94346082205A9CD
:10C2B000384600F0E8F908F1080800260FE0029877
:10C2C000434600EA0501401C04EB81010290042270
:10C2D00038460C3100F0D7F908F10408761C0598AF
:10C2E000C0F38310B042EAD847B1D4F81054D4F860
:10C2F000180478B1384600F0AFF934E01EE0E86881
:10C300004079012804D12A682846394612689047A6
:10C31000E8680568002DF2D1384600F09DF98DF8E7
:10C3200000B06846FEF7C8F8D4F8180408B90298B7
:10C3300060609DF80000FEF7E3F814E0D4F81044C4
:10C3400005E02168204689688847E0680468002C79
:10C35000F7D109480949401AC008022101EB004001
:10C3600007A100F017F8FEF7A9FC80F00100FEE637
:10C370000421002004EF0100E4EE010084EE01003E
:10C380004261636B656E647320666C757368656487
:10C390000000000000231A4601F0BEBC08B50123CE
:10C3A00000926A4601F0B8FC08BD1CB5CDE9002337
:10C3B00002236A4601F0B0FC1CBD00002DE9F047E5
:10C3C0000E4680461C469246082940D894F80C90A8
:10C3D000002020731946104601F03CFA0025B542B2
:10C3E00006D218F805201BA12046FFF70BFC03E03E
:10C3F0001AA12046FFF706FC6D1C082DEFD318A1EB
:10C400002046FFF7FFFB0025B54212D218F8057051
:10C410007E2F08D8FCF7E6FF0068C05D10F03E0FE5
:10C4200001D03A4600E02E220EA12046FFF7EAFB9B
:10C4300003E00DA12046FFF7E5FB6D1C082DE3D3BB
:10C4400001222146504601F0DDF984F80C90BDE848
:10C45000F0870000202530327800000020202000E6
:10C460007C00000025630000200000000B4810B590
:10C47000FF218160002101604160C0F81814C0F8FC
:10C48000141480F82014064800F0E4F8002803D1C2
:10C49000044800F01FF9002010BD00000421002016
:10C4A00004EF010074E6010002480349401AC00885
:10C4B0007047000004EF010084EE010013B56846E8
:10C4C000FFF746F908B100201CBD0248009950F85A
:10C4D00031001CBD84EE010070B509480125D0F87B
:10C4E000104480F8205407E0E06845712168204638
:10C4F00049688847E0680468002CF5D170BD0000E9
:10C50000042100202DE9FF4781460C9D00200C46A8
:10C510002F7B2873984616462946184601F09AF94B
:10C52000072E42D2DFE806F004090F161F2A360054
:10C5300049462846FFF766FB37E049462846226809
:10C54000FFF760FB31E0D4E9002349462846FFF7B6
:10C5500059FB2AE0A0680090D4E900234946284608
:10C56000FFF750FB21E0D4E90201CDE90001D4E955
:10C57000002349462846FFF745FB16E004F1080072
:10C5800007C88DE80700D4E9002349462846FFF78D
:10C5900039FB0AE004F108000FC88DE80F00D4E968
:10C5A000002349462846FFF72DFB00222946404636
:10C5B00001F028F92F73BDE8FF872DE9F041058AC6
:10C5C00080462D1F4819C01CB0FBF5F0C6B240468E
:10C5D000FFF7B0F9041E19D000202071012060710E
:10C5E000E58000272546761EC4F800800BE0404613
:10C5F000FFF7A0F960B16179491C617128600546B7
:10C600007F1CC0F80080B742F1D32046BDE8F0811E
:10C61000204600F002F80020F8E72DE9F0414579C6
:10C6200001466B1E002201E00968521C9A42FBD3AE
:10C630000F680146002605E038460C68FFF79CF9B4
:10C640002146761CAE42F7D3BDE8F0810121001DE2
:10C65000FFF74EB9FFF7A8B910B504460121001D38
:10C66000FFF762F910F0FF0F04D12046BDE810403B
:10C67000FFF7D3BF10BD1CB501920122009201AAA1
:10C68000FFF726F81CBD1CB501920022009201AAFA
:10C69000FFF71EF81CBD0000064910B500204870C9
:10C6A000091D0860BFF35F8F0349044800F00EFACC
:10C6B000002010BDB81B0020E0E40100201F002076
:10C6C00010B500F0DFF908B141DF10BD20BF40BF59
:10C6D00020BF10BD8268002191608268116182686C
:10C6E00051618268D16082685160806801607047E2
:10C6F00008B5002242504058009008BD024A106020
:10C70000101D0160704700002C76004003010348B3
:10C710001844C0F81425C0F8101570470070004088
:10C7200002494058002800D00120704700700040A6
:10C73000034908B50844002202600068009008BD63
:10C7400000700040024619B14020510088407047F7
:10C750008020FAE720B10349096801600020704792
:10C760000E207047F8E60100FEB502460D46084669
:10C77000FFF7F0FF002864D10026009601960127FC
:10C7800006208DF80020ADF8040002968DF80270A6
:10C79000694620202A6869DF2A492B4A891AC90874
:10C7A000012202EB014430B100F0FEF902462046BE
:10C7B0002649FFF7F3FD0096019602968DF8017069
:10C7C000694640202A6869DF30B100F0EDF9024681
:10C7D00020461F49FFF7E2FD00960A208DF8000071
:10C7E00001960296694601202A6869DF30B100F09F
:10C7F000DBF9024620461749FFF7D0FD4FF4B06041
:10C800000090019602966946A1202A6869DF30B13E
:10C8100000F0CAF9024620460F49FFF7BFFD009617
:10C82000019602968DF800606946A0202A6869DFAB
:10C8300030B100F0B9F9024620460849FFF7AEFDD5
:10C840000020FEBDF4EE010084EE0100F4EC0100D6
:10C850003CED010054EC0100A0EC010000EC0100F3
:10C860002DE9F0410546076860DF804619491A48FE
:10C870002A68081AC608BA4219D9022000EB0644F1
:10C8800016A12046FFF786FD20463A461FA12B68D9
:10C89000FFF78BFD4FF08050D0F80C012968800223
:10C8A00000F10050421A204625A1FFF777FDB8F1AC
:10C8B00000004FF001040AD000F076F9024604EBC4
:10C8C00006402AA1FFF76AFD4046BDE8F0812F48E7
:10C8D0000470F9E7F4EE010084EE0100496E73750F
:10C8E0006666696369656E742052414D20616C6CA7
:10C8F0006F636174656420666F722074686520538D
:10C900006F66744465766963652E00004368616EE6
:10C910006765207468652052414D2073746172749C
:10C92000206C6F636174696F6E2066726F6D20306A
:10C9300078257820746F20307825782E000000004C
:10C940004D6178696D756D2052414D2073697A652E
:10C9500020666F72206170706C69636174696F6EBC
:10C9600020697320307825782E00000073645F62A0
:10C970006C655F656E61626C6528292072657475EF
:10C98000726E65642025732E000000003F1C00209D
:10C9900030B5144891B00078002820D05FF03405FD
:10C9A000ADF8405010A903A861DF30B1052816D0BA
:10C9B00011B0BDE83040FDF715BD03AC0A4968462B
:10C9C00000F084F807E000BFD0E90021204690473E
:10C9D000684600F092F802980028E1D0F4E711B020
:10C9E00030BD00003F1C0020FCE601007CB5194C66
:10C9F000207808B108207CBD0120A070002001F043
:10CA000073F8112819D0002001F086F8124800268A
:10CA1000006801908DF800606846FDF74DFD0F49F4
:10CA200001A810DF05000AD0002020709DF800004A
:10CA3000FDF766FD2DB128467CBD00207CBD0120A0
:10CA4000F3E7A670667001F035F9012001F064F893
:10CA5000F3E700003C1C002090E6010061A3010008
:10CA60000EB50749684600F031F805E0D0E900103E
:10CA70008847684600F041F802980028F6D10EBDBC
:10CA8000ACE6010001480078704700003C1C002023
:10CA90001FB568464BDF30B1052814D004B0BDE89F
:10CAA0001040FDF79FBC084901A800F00FF806E010
:10CAB000D0E900210098904701A800F01EF80398E3
:10CAC0000028E6D0F4E71FBD18E7010001600968FF
:10CAD0004160AFF3008010B5D0E90021536899425E
:10CAE00001D1002104E0D1E90034A34202D019466B
:10CAF000816010BD08314160F0E7816800290BD0EA
:10CB0000026892680A44826041684B689A4203D185
:10CB100008314160FFF7DFBF704770B50D4606462C
:10CB2000446804E0B2682946904718B12468206838
:10CB30000028F7D120682860256070BD4068006833
:10CB4000704741680868002801D002680A60704791
:10CB500002460020526806E08B4203D1086810604C
:10CB6000012070471A461368002BF5D1704700006A
:10CB70000C4A10B502F594730EE0991AC91001EB36
:10CB8000D171491002EBC1010C68844201D90B46F6
:10CB900002E005D201F108029A42EED3002010BD56
:10CBA000486810BD00E5010000B5FFF7E1FF00286F
:10CBB00000D1014800BD0000ECE40100405800280D
:10CBC00000D00120704708B5002242504058009024
:10CBD00008BDD0F80403084000D001207047405839
:10CBE000002800D00120704708B50022425040586C
:10CBF000009008BD08480068012110F0010F06D11F
:10CC00004FF0E020C02280F80024C0F80011034952
:10CC1000012008607047000000E100E018050040B6
:10CC20000549024600200B790BB1852070470A6048
:10CC300001220A7170470000781B0020044901207E
:10CC4000086004480168C1F300410029FAD1704727
:10CC50000C00004018040040002802D00149800167
:10CC60000847704791E40100002802D00149800183
:10CC700008477047B1E401002DE9F04188460546B8
:10CC800000F08EFD234E002828461AD0FEF752F8F9
:10CC9000304490F848008009032802D001280ED0C3
:10CCA00007E04FF0A040D0F81005E84010F0010F69
:10CCB00005D003212846BDE8F041FFF717B902214E
:10CCC000F8E700F079FD002822D02846FEF732F878
:10CCD00004464FF4807000EB84000F4F81B207EBE5
:10CCE0008400D0F8102542F00102C0F81025084653
:10CCF000FFF72AF9B8F1000F0AD02846FEF71AF814
:10CD000056F82000002803D00120A040C7F80403F3
:10CD1000BDE8F081D01D0020006000402DE9FC41FD
:10CD2000DFF8BC80044608EB0400002790F93000CF
:10CD30001346C0170E46401C01D008274CE0B078BF
:10CD40001946C0F340022046FDF7D0FF0546401CBF
:10CD500041D0B078410719D4C0070AD04FF0A040A5
:10CD600000EB8401D1F8000720F00200C1F80007B1
:10CD700007E000217378204600910A460191FFF7F1
:10CD800047F8174920465431FEF72EFEB078800749
:10CD900018D51448317800EB8500D0F81025124BD7
:10CDA0001A40C0F810254FF4F8524FF4403302EA0D
:10CDB000042203EA01410A43D0F810150A43C0F8DF
:10CDC000102509E008EB0500327810F8481F41EA09
:10CDD0008211017000E004273846BDE8FC810000A4
:10CDE000D01D002000600040FFE0FCFF70B5174D33
:10CDF00095F8580008B1082070BD0020411E2A187F
:10CE0000401CC0B282F830102028F8D300242046FD
:10CE1000FDF75EFF641CE4B20C2CF8D300240C492F
:10CE2000C0206C6581F8000401264020891FC1F8EC
:10CE300000014FF4BE70FFF787F80649F007C1F80C
:10CE4000040385F85860204670BD0000D01D002006
:10CE500006E000E0006000400121B1EB507F01D10D
:10CE6000012070470020704738B50D4600F03EFDA8
:10CE7000040014D000208DF800006846FDF71CFB6C
:10CE8000207928B19DF80000FDF73AFB112038BD4C
:10CE90000120256020719DF80000FDF731FB002086
:10CEA00038BD10B500F022FD002802D0002101603D
:10CEB000017110BD2DE9F041254C064612200D46AA
:10CEC000C4F808032348017C022918D0027C0146DB
:10CED0004FF4807891F82E10012A12D00222C4F863
:10CEE000042301270774466005810022C26021B334
:10CEF000458390F82D103046FFF700FC25E0122006
:10CF000002E0C2682AB10220C4F804031120BDE87F
:10CF1000F081C660058361B947463846FFF700FCDB
:10CF20000028FAD03846FFF703FC29463046FFF7C1
:10CF3000E5FB0220C4F8040307E029463046FFF76A
:10CF4000DDFB4046FFF7F4FB27600020DFE7000031
:10CF5000007000407C1E0020204A10B5137C0BB1ED
:10CF6000112010BD02EB40031C7F1CB912F82D4F9D
:10CF7000641C1470CA791A770A7A5A770A784B783F
:10CF8000302402F0030204EA03131A438B784FF4AF
:10CF9000E06404EA03231A43CB784FF4805404EA94
:10CFA00003331A430B794FF4E02404EA03431A4392
:10CFB0004B794FF4801404EA03531A438B7924010C
:10CFC00004EA0363064C1A4304EB0013C3F8182564
:10CFD0000A7AC979FFF79AFB002010BD7C1E002059
:10CFE0000070004070B505460E48017C09B1112063
:10CFF00070BD00EB45010A7F1AB110F82D2F521EAB
:10D00000027000240C774C77224621462846FFF711
:10D010007DFB40F2FF72D143284600F057F82046CE
:10D0200070BD00007C1E00202DE9F0411F4C05461C
:10D0300094F82C0010B10820BDE8F08144F8101BD2
:10D040001B4928780860091D68780860E878A0778F
:10D05000012727770020207060776060154EE07709
:10D060006FF00040C6F808034FF48270FFF760FBD2
:10D07000B015FFF75DFB4FF48A70FFF759FBA878F6
:10D080000D49400181F800048020C91FC1F800014A
:10D090000220C6F80403A07F10B10120C6F80403E3
:10D0A0000348F03807600020C6E700007C1E00201F
:10D0B000F07500400070004007E000E00248007C8E
:10D0C000002800D0012070477C1E00202DE9F0418F
:10D0D00017460C460546C1EA07401A4E06EB0511F5
:10D0E000C1F81C0500212846FFF72CFB234601212F
:10D0F00001EB4502144CC907D140626913F5006F7A
:10D100001BD00A436261C6F8040301212846FFF7D9
:10D1100019FB6A004FF00041D140A7F5E063626956
:10D12000FF3B05D00A436261C6F80403BDE8F08105
:10D130008A436261C6F80803F8E78A436261C6F869
:10D140000803E2E7007000407C1E00200849002030
:10D150000A7C012A01D00820704791F82E30054A38
:10D1600001210BB111607047024A121DFAE700005D
:10D170007C1E00200070004070B517496FF0004021
:10D18000C1F8080380214FF0E02201200025C2F8F9
:10D19000801111490831086042F210744FF48A7608
:10D1A0003046FFF7BDFA20B90020FFF755FD641E99
:10D1B000F6D10A4805600A4E3574002406EB440097
:10D1C000007F10B1E0B2FFF70DFF641C082CF5D30F
:10D1D00086F82C5070BD00000070004000750040C3
:10D1E0007C1E00200149024800F0F2BE2C1E0020E7
:10D1F000002000402DE9F0410546007916460F4613
:10D2000000EB40012C4A01EBC00102EB810494F8D1
:10D210002A1011B10820BDE8F081284951F82010EA
:10D220002868FFF721FE08B11120F4E739462846A7
:10D23000FDF780F966603869206030004FF0010624
:10D240002DD03F7F4FF48E712868FFF7BCFC4FF460
:10D25000A2712868FFF7B7FC28681949C0F80413C1
:10D2600028684FEA471140F30730002806DA00F03B
:10D270000F0000F1E02080F8141D03E000F1E02031
:10D2800080F80014286840F3073000F01F0106FA08
:10D2900001F14009800000F1E020C0F80011286889
:10D2A0000421C0F800150020A061E06184F8290085
:10D2B00044F8140FA675AEE72C1E002080E4010090
:10D2C000800002002DE9F05F054600790B4600EB77
:10D2D000400101EBC000244901EB8004284600F026
:10D2E00045F810B11120BDE8F09F62614FF00009D0
:10D2F000C4F82090A36084F828904FF48E784E46AE
:10D3000041462868FFF75FFC28684FF0010AC0F823
:10D3100008A02146286800F0EBFD606808BBD5F83E
:10D3200000B067690FE000BF94F8280008B10F262D
:10D3300015E041465846FFF741FC0028F4D021464D
:10D34000584600F0D5FD206AB842F2D35746414610
:10D350002868FFF733FC0028F9D02868C760C4F8B4
:10D3600014903046BFE700002C1E0020007900EB2F
:10D37000400101EBC000044901EB80004069002836
:10D3800000D00120704700002C1E00202DE9F0473E
:10D39000044600794FF0000900EB400101EBC000AA
:10D3A000254901EB80072068C0F80095786880B1B6
:10D3B00020682249C0F808132068012140F3073093
:10D3C00000F01F0291404009800000F1E020C0F809
:10D3D00080112068D0F80C25D0F81485D0F80865A5
:10D3E000D0F810554FF0FF31C0F81415C0F80C15E7
:10D3F0002068C0F80815C0F81015501C02D010465F
:10D40000FEF73CFDB8F1FF3F02D04046FEF736FD87
:10D41000681C02D02846FEF731FD701C02D0304651
:10D42000FEF72CFD2068FFF73CFD87F82A90C7F82F
:10D430000490BDE8F08700002C1E0020840202004A
:10D440000149024800F072BE581E00200020004032
:10D450002DE9F0410546164600790F46154A00EBC6
:10D46000C00102EB810494F8201011B10820BDE83E
:10D47000F081114951F820102868FFF7F5FC08B138
:10D480001120F4E739462846FDF798F866603869B8
:10D4900020601EB1397F2846FDF7D0FF286808219B
:10D4A000C0F800150020A061E0616061012184F8EE
:10D4B0002010DCE7581E002084E401002DE9F0472D
:10D4C00004460E460079274900EBC00001EB8005B9
:10D4D00017463046FFF7C0FC30B1204600F044F854
:10D4E00020B11120BDE8F0871020FBE76F61AE602E
:10D4F0004FF490774FF0000839462068FFF774FB2F
:10D500004FF4AC7631462068FFF76EFB2068AA68BE
:10D510006969C0F84425C0F8481520684FF0010932
:10D52000C0F808906868D0B9BA4651462068FFF73D
:10D5300056FB074631462068FFF751FB0743F4D0FE
:10D5400010B14FF00F0808E02068C0F80C90314689
:10D550002068FFF744FB0028F9D0002068614046AE
:10D56000C0E70000581E00200079054900EBC0000C
:10D5700001EB80004069002800D0012070470000C6
:10D58000581E00202DE9F04704460079334900EB8E
:10D59000C00001EB80070125786880B12068304920
:10D5A000C0F80813206840F3073000F01F0105FAA7
:10D5B00001F14009800000F1E020C0F880112068EE
:10D5C000D0F8001221F02001C0F800122068456058
:10D5D0004FF4AC7631462068FFF706FB2068C56043
:10D5E00031462068FFF7FBFA0028F9D020684FF099
:10D5F0000009C0F800952068D0F80C25D0F81485F3
:10D60000D0F80865D0F810554FF0FF31C0F80C1570
:10D61000C0F814152068C0F80815C0F81015501C83
:10D6200002D01046FEF733FCB8F1FF3F02D040466F
:10D63000FEF72DFC681C02D02846FEF728FC701C63
:10D6400002D03046FEF723FC2068FFF72AFC87F85B
:10D650002090C7F80490BDE8F0870000581E002015
:10D660001003420070B502468888C97B00EB400376
:10D6700002EB4304A41D012901D1118821802188D6
:10D680006288914213D9A5DF012578B111280FD006
:10D69000FFF78AFA024607480749401AC00805EB17
:10D6A0000040BDE8704005A1FEF778BE657170BD11
:10D6B000257170BD84EE010084EE010073645F6229
:10D6C0006C655F67617474635F65786368616E67DA
:10D6D000655F6D74755F7265717565737428292057
:10D6E00072657475726E65642025732E00000000EB
:10D6F0007CB506468D88C88805EB450106EB4104DC
:10D70000A41D172800D217202188814200D808467E
:10D7100060800020207121882846B5DF60B1FFF7C6
:10D7200043FA02460F481049401AC008012101EB94
:10D7300000400EA1FEF732FE6079002810D1F0689B
:10D7400000280DD01549D1E90201CDE90001ADF85D
:10D7500002506088ADF80400F26869463046904790
:10D760007CBD000084EE010084EE010073645F6202
:10D770006C655F67617474735F65786368616E6719
:10D78000655F6D74755F7265706C792829207265AC
:10D790007475726E65642025732E00006CE40100C0
:10D7A0000449084490F93000082801DB0120704743
:10D7B00000207047D01D00200449084490F9300033
:10D7C000082801D20120704700207047D01D00209A
:10D7D00070B50D00044602D10020FCF703FE14B919
:10D7E0000020FCF7FFFD2878207069886170090A25
:10D7F000A170A988E170090A2171E8886071000AA6
:10D80000A07170BD10B50C46017A052908D0407A88
:10D8100038B1084808A102682046FEF7F3F900E095
:10D820001AB106A12046FEF7EDF92046BDE81040EA
:10D83000FEF7F5B9181C0020257300000D0A000042
:10D8400010B5FEF729FF002803D0BDE81040FCF713
:10D85000C9BD10BD38B5C3880D46044633B114A008
:10D86000009015A216A12846FEF7CCF9217A0529C9
:10D870001CD0607A48B1A088FEF740FC164951F8E8
:10D88000202016A12846FEF7BDF9A0880021FEF74A
:10D8900015FE03461049207A143951F8202001B0B2
:10D8A0002846BDE830400EA1FEF7ACB938BD0000F7
:10D8B0001B5B306D000000001B5B313B33316D00A2
:10D8C00025734C6F67732064726F707065642028D5
:10D8D00025642925730D0A00181C002025730000FB
:10D8E0003C25733E2025733A2000000003498842FE
:10D8F00001D103487047002070470000002000401D
:10D90000801B002070B50546FDF78DFC134C40B11F
:10D91000D4E904024FF08071411842F10000C4E9DB
:10D92000041000212846FDF7CFFB30B1606820B11C
:10D93000606800F059FA0020606001212846FDF778
:10D94000C3FB18B1FDF702FDC4E90601284600F04B
:10D9500077FA2846BDE8704000F034B8881B0020F4
:10D9600070B5054600200C460870FDF7EFFCD5E9C0
:10D970000223101A63EB010300263146361A99413F
:10D9800012DAB0F5350F03D3FCF738FD0B49421816
:10D990004FF4960300210A48FDF751FC10B10D2801
:10D9A00006D009E0012070BD00210548FDF782FB8B
:10D9B000284600F019FA2070002070BDFFFFB40067
:10D9C000901B0020F8B51A4C074600261948FFF7AF
:10D9D000B5F8D0B1616871B1D0E902106268D2E9DE
:10D9E0000232C91A904120D26068007F18B1616884
:10D9F0001048FFF792F800F089F905466946FFF7ED
:10DA0000AFFF98B1606840B10AE0606800280CD1AF
:10DA10003846BDE8F840FDF70EBC3846FDF707FC78
:10DA200065609DF800000028D0D1F8BD6660CDE7A4
:10DA3000881B0020A0E4010070B5054688690C46EB
:10DA400000284FF4847128460AD0FFF7BCF8D5F8B7
:10DA50001805626AE1688854606A401C606270BDA3
:10DA6000FFF7B1F8D5F8180570BD1FB501238DF883
:10DA70000030CDE90121D0E90012684690471FBD72
:10DA80001FB501238DF80030CDE90121D0E9001246
:10DA9000684690471FBD000038B50021012548B1F8
:10DAA00001280CD0032809D1FFF7A4F8BDE83840BD
:10DAB000FEF75CB84FF0E020C0F8805138BD8DF81B
:10DAC00000106846FCF7F8FC064C207808B9FEF711
:10DAD00031F8E068401CE060A5709DF80000FCF79C
:10DAE0000FFD38BDBC1D00203EB5044609496846FF
:10DAF000FEF7ECFF08E000BFD0E900212046904788
:10DB000030B16846FEF7F9FF02980028F4D13EBD17
:10DB100011203EBD94E601003EB504460849684622
:10DB2000FEF7D4FF07E000BFD0E900212046904770
:10DB30006846FEF7E2FF02980028F5D13EBD0000DE
:10DB4000A0E6010002498969002900D00847704712
:10DB5000241D00202DE9F0411400884618D000252E
:10DB60000E4F032608EB050122460020FCF736F98C
:10DB70000544241A40B93878002809D008494FF4E0
:10DB80007A408847761E05D001203870002CE9D1F4
:10DB9000BDE8F08100203870FAE70000C01B0020CB
:10DBA00041E6010070B50D4C0020D2B22070201D5E
:10DBB0000B4D0378EB5C1BB1001DFFF77FFC02E00F
:10DBC0000C30FFF77FFB08B1FCF70CFC60780028F5
:10DBD00002D021780029FAD070BD0000C41B0020BB
:10DBE0006C1B00202DE9F0410746806A14468846E8
:10DBF000C8B3002531E000BFB96A05EB450001EB71
:10DC00008006B088801CFE2802D90C20BDE8F08177
:10DC10002288401C08F8020020881622401C80B28E
:10DC2000208008F800202088401C80B2208000EB73
:10DC30000801308800F003FB2188084480B220806E
:10DC4000B28842B1B16871B14044FBF7CFFB208884
:10DC5000B188084420806D1CEDB297F82C00A842D2
:10DC6000CAD80020D2E7FFE70720CFE70A780628C6
:10DC700022F0FF020A7010D2DFE800F00305070966
:10DC80000B0D002008E0112006E0212004E03120E7
:10DC900002E0122000E0222008707047002805D121
:10DCA0000349012048700020FDF744B97047000087
:10DCB000BC1D002010B51620FCF740FBA0B1114898
:10DCC00090F800044009082811D20121814011F088
:10DCD000EC0F0CD00C4882684FF480016AB10168E7
:10DCE00041F48001016010BD42F2010001E042F206
:10DCF0000200BDE81040FCF775BB4FF0E020C0F813
:10DD0000001110BD16E000E0141F00200148FEF7CE
:10DD100018BF0000A0E401002DE9F84F204D924605
:10DD2000894606469846012269461846AF68FCF7C0
:10DD300065FF58B3009800210446801C09E000BF2D
:10DD400000EA07035AF8212005EB8303401C491C15
:10DD5000DA604145F4D34FEA164AFDF7A1F94AEAE1
:10DD60000041601C384005EB80003C4005EB84021C
:10DD7000C160D06866F3C50068F3891069F39F201D
:10DD800020F00300401C20F00400D06095F820042F
:10DD900002E000BFFEF7E4F90028FBD1BDE8F88FF0
:10DDA0000421002070B50C00054602D10020FCF7CC
:10DDB00019FB15B90020FCF715FB20782870208886
:10DDC000000A68702068000CA8702068000EE870D7
:10DDD00020792871207A68712089000AA871A068CA
:10DDE000000CE87170BD000070B5044612480025B3
:10DDF0000078F8B1F4B1207FE0B1FDF7A7FAD4E9DB
:10DE00000223801A994110D32069002600B9267791
:10DE1000D4E905108847206960B1217F51B1D4E968
:10DE2000022110187141C4E9020121460348FEF79E
:10DE300074FE0125284670BD881B0020A0E4010067
:10DE4000F8B51B4C69462068FDF716FD0026012732
:10DE5000184D29E0017821B101290CD002291BD1EC
:10DE600014E041680A7FBAB90F774168104808305A
:10DE7000FEF753FE10E041686868814201D16E6090
:10DE80000AE00B480830FEF763FE05E0FFF73EFFAF
:10DE900008B10677FAE72F7069462068FDF7E1FCC4
:10DEA00069462068FDF7E8FC0028D3D1F8BD0000E2
:10DEB00098E40100881B0020F8B50B4C0D4606467F
:10DEC00069462068FDF7C2FC58B106704560694696
:10DED0002068FDF7DCFC10B10448FDF793F9002041
:10DEE000F8BD0420F8BD000098E40100901B00205C
:10DEF00070B50C4605464FF48E71FEF764FE216A3C
:10DF0000A068415C206A401C2062C5F81C1570BDE9
:10DF10001FB500228DF800200291816801914261B5
:10DF2000D0E90012684690471FBD1FB500228DF84A
:10DF300000200291816801914261D0E90012684697
:10DF400090471FBD1FB50A4601788DF80010416843
:10DF50000191017A8DF80810C0680390044850F8C8
:10DF60002210001F50F82220684690471FBD000075
:10DF7000741B00200149012008707047C41B002059
:10DF800010B588B0044620220E496846FBF72EFAE9
:10DF90000C2000904FF0FF300190029003904FF062
:10DFA000EB7006900CB1084A00E000226946074871
:10DFB000FDF7F4FD08B1FCF715FA0448001F4470A2
:10DFC00008B010BD54E6010075DF0100C81B002039
:10DFD0002DE9FF470C4605464FF40071FEF7F9FDA9
:10DFE00001274FF40178002618B34FF4927949467F
:10DFF0002846FEF7E3FDE0B149462846FEF7E3FD7B
:10E00000C5F8088394F8290000B96F6002208DF8E4
:10E010000000D5F88004C5F880040390A069029040
:10E02000E0680190A661E661D4E900126846904775
:10E0300028E004212846FEF7CCFD18B34FF4847184
:10E040002846FEF7BBFDE8B121462846FFF7F4FC61
:10E05000616AA069884215D1E06938B1E268616AF5
:10E06000A0612069E6616662E06008E094F829003A
:10E0700000B96F60C5F80883A661E268616A20464E
:10E08000FFF7F3FC4FF48E7841462846FEF796FDE5
:10E0900080B16069216A814202D294F8280028B3D5
:10E0A00041462846FEF78FFD606918B16169204638
:10E0B000FFF72EFF4FF4A27841462846FEF77EFD7B
:10E0C000002818D041462846FEF77DFD94F8290027
:10E0D00000B12F60A06900280DD0A661E268616AD6
:10E0E00004B02046BDE8F047FFF7BFBC21462846F4
:10E0F000FFF7FEFEDEE7BDE8FF8700001FB50A461A
:10E1000001788DF8001041680191017A8DF80810AE
:10E11000C0680390044850F82210001F50F82220D5
:10E12000684690471FBD0000741B00202DE9FF4189
:10E130000C464FF4927705463946FEF750FD00260F
:10E14000B8B139462846FEF74FFD02208DF8000091
:10E15000D5F88004C5F880040390D5F83C050290FA
:10E16000E0680190A661E661D4E900126846904734
:10E1700023E04FF4887739462846FEF730FDE0B1BA
:10E1800039462846FEF730FDD5F83C15A06988428F
:10E1900013D1E06960B1E268D5F8000220F02000F8
:10E1A000C5F80002E069A0612069E661E06001E075
:10E1B000A661E2682046FFF763FC4FF4A277394678
:10E1C0002846FEF70CFD68B139462846FEF70CFDDF
:10E1D000A06938B1A661E661D5F83C152046E26831
:10E1E000FFF74EFC4FF4907631462846FEF7F7FCD9
:10E1F00060B131462846FEF7F7FC0120E86060690F
:10E2000020B1D5F84C152046FFF78FFE4FF4AC76C1
:10E2100031462846FEF7E3FC00280ED0314628465A
:10E22000FEF7E2FC6069002807D0D5F84C1504B071
:10E230002046BDE8F041FFF778BEBDE8FF810870D9
:10E24000000A4870022070472DE9F05F8346DDE93F
:10E250000A4A994690460D460846012703E000BF4A
:10E26000B0FBF8F07F1C4045FAD2B94500D94F46C3
:10E270005FEACA7012D18CB15FEA8A7002D5B9F137
:10E28000000F01D0202607E0302605E03146584631
:10E29000641EFCF7FBFC0CB1A742F7D35FF001064C
:10E2A000B9F1010F02D9A9F1010903E0B5FBF6F0BC
:10E2B000404502D306FB08F6F2E7DFF83C9000BFCA
:10E2C000B5FBF6F000FB165519F800105846FCF7A0
:10E2D000DDFCB6FBF8F6002EF2D15FEACA7009D079
:10E2E000002C07D0A74205D220215846641EFCF717
:10E2F000CDFCF5E7BDE8F09FB6E40100F8B50546B2
:10E3000080B2FDF73DF8040013D0154E207A0027A7
:10E31000317B88420ED2A8B204F10A0175DF28B120
:10E32000112806D0BDE8F840FFF70CBC207A401C4D
:10E330002072F8BD2772307C38B1A8B23B2176DF5D
:10E3400018B1082801D0FFF7FDFB71690029F0D052
:10E350008DF80070ADF8025068468847F8BD00009F
:10E36000241D00202DE9FC411646DDE90854CDE9C5
:10E3700000541F468046022200F00CF8002807D106
:10E38000CDE900543B4610223146404600F002F8E9
:10E39000BDE8FC812DE9FC5F0026DDE90C4B9946C8
:10E3A00092468E4680462788354630E0D8F80400ED
:10E3B000002200EB850069460068019001A864DF37
:10E3C000002830D19DF8000050451FD10EB100212A
:10E3D00000E00221228808441118594522D846B984
:10E3E000521C90B2208009F800E02088401C208058
:10E3F0000126218801A801EB0902694664DF002893
:10E4000011D120889DF80010084420806D1CB8F8B8
:10E410000000A842CADC56B12088C01B401E80B252
:10E42000FF2802D90C20BDE8FC9F09F80700002056
:10E43000F9E70000701C0020010006010000000048
:10E4400002000004000000000000000002000001C3
:10E450000000000034120000FB349B5F800000804D
:10E460000010000034120000D01C0020770A0000C9
:10E4700000000000770A00000000000000000050CB
:10E48000E5D1010041D401000000000000000000BF
:10E490000338FDD870470000AC1E002001000600C4
:10E4A00000000000A81B002079AF01000000000060
:10E4B0000338FDD870473031323334353637383988
:10E4C00041424344454600000000000000000000B7
:10E4D000000000000000000000000000000000003C
:10E4E000C8E40100E0E4010004000000556E6B6E1A
:10E4F0006F776E206572726F7220636F64650000C3
:10E500000000000024EB010001000000D0E9010040
:10E5100002000000C4E701000300000044EA01001B
:10E520000400000098EA01000500000078E90100FD
:10E530000600000014E901000700000080EA010065
:10E54000080000008CE9010009000000F0E901006A
:10E550000A0000000CEB01000B000000ACE701001A
:10E560000C000000A4E901000D00000074EB0100A4
:10E570000E00000070EA01000F000000ACEA01008C
:10E5800010000000E0EA01001100000088EB01002B
:10E59000120000005CEB010013000000F8EA01002B
:10E5A000800000002CE901008100000068E8010003
:10E5B0008200000028E801008300000008E8010054
:10E5C0008400000044E801008500000050E90100DB
:10E5D0008600000058EA010090000000F4E8010005
:10E5E00091000000E8E7010092000000B8E9010096
:10E5F00000820000C0EA0100018200000CEA010074
:10E600000282000028EA01000084000084E8010082
:10E610000184000030EB010002840000CCE801001E
:10E6200003840000A8E80100D1BF0100CFBF0100B2
:10E63000C9BF010000000000000000000000000051
:10E640000338FDD870470000E5C00100B9C00100E3
:10E65000B1C00100FFFFFFFFFFFFFFFFFFFFFFFF54
:10E66000FFFFFFFF00000000000000000000D601D7
:10E67000060100006C2000207F000000EC2000203C
:10E68000000000000000000000000000000000008A
:10E690000100000780E6010090E60100080000008C
:10E6A000B8E60100C8E6010008000000C8E6010065
:10E6B000D8E601000800000050EF010058EF01000B
:10E6C000000000000000000040EF010050EF0100DA
:10E6D000000000000000000018EF010020EF010022
:10E6E00020EF010030EF01000000000000000000FA
:10E6F00030EF010038EF0100E01A0020D8E60100F9
:10E70000F8E601000800000038EF010040EF0100CA
:10E71000000000000000000008E7010018E7010009
:10E72000080000000040404040404040404041411F
:10E7300041414140404040404040404040404040D6
:10E740004040404040050202020202020202020270
:10E75000020202020220202020202020202020026D
:10E7600002020202020290909090909010101010FD
:10E770001010101010101010101010101010101099
:10E78000020202020202888888888888080808082D
:10E7900008080808080808080808080808080808F9
:10E7A000020202024000000025E701004E52465FCF
:10E7B0004552524F525F494E56414C49445F444185
:10E7C000544100004E52465F4552524F525F534FE4
:10E7D00046544445564943455F4E4F545F454E416C
:10E7E000424C4544000000004E52465F4552524F95
:10E7F000525F464541545552455F4E4F545F454E1A
:10E8000041424C45440000004E52465F4552524F33
:10E81000525F4D555445585F554E4C4F434B5F46E4
:10E8200041494C45440000004E52465F4552524F0C
:10E83000525F4D555445585F4C4F434B5F464149DD
:10E840004C4544004E52465F4552524F525F4D5523
:10E850005445585F434F4E445F494E49545F4641CB
:10E86000494C4544000000004E52465F4552524F0D
:10E87000525F4D555445585F494E49545F46414992
:10E880004C4544004E52465F4552524F525F424CF7
:10E89000455F495053505F52585F504B545F54523C
:10E8A000554E4341544544004E52465F4552524FE7
:10E8B000525F424C455F495053505F504545525F4F
:10E8C00052454A4543544544000000004E52465FBD
:10E8D0004552524F525F424C455F495053505F4C36
:10E8E000494E4B5F444953434F4E4E454354454474
:10E8F000000000004E52465F4552524F525F415059
:10E90000495F4E4F545F494D504C454D454E54451F
:10E91000440000004E52465F4552524F525F4E4FE8
:10E92000545F535550504F52544544004E52465F29
:10E930004552524F525F4D4F44554C455F4E4F54D8
:10E940005F494E495449414C495A45440000000032
:10E950004E52465F4552524F525F4D4F44554C45C3
:10E960005F414C52454144595F494E495449414CDD
:10E97000495A4544000000004E52465F4552524FEE
:10E98000525F4E4F545F464F554E44004E52465FC5
:10E990004552524F525F494E56414C49445F535481
:10E9A000415445004E52465F4552524F525F4441DA
:10E9B00054415F53495A45004E52465F4552524FAB
:10E9C000525F494F5F50454E44494E47000000009A
:10E9D0004E52465F4552524F525F5356435F484135
:10E9E0004E444C45525F4D495353494E4700000039
:10E9F0004E52465F4552524F525F494E56414C4926
:10EA0000445F4C454E475448000000004E52465F5C
:10EA10004552524F525F4452565F5457495F4552D8
:10EA2000525F414E41434B004E52465F4552524F5A
:10EA3000525F4452565F5457495F4552525F444EAD
:10EA400041434B004E52465F4552524F525F494E32
:10EA50005445524E414C00004E52465F4552524F73
:10EA6000525F53544F524147455F46554C4C00004E
:10EA70004E52465F4552524F525F4E554C4C00002D
:10EA80004E52465F4552524F525F494E56414C4995
:10EA9000445F504152414D004E52465F4552524FE5
:10EAA000525F4E4F5F4D454D000000004E52465F95
:10EAB0004552524F525F464F5242494444454E00E0
:10EAC0004E52465F4552524F525F4452565F545722
:10EAD000495F4552525F4F56455252554E00000015
