:020000040001F9
:10900000D82F0020C1930100C9930100CB93010028
:10901000CD930100CF930100D19301000000000027
:10902000000000000000000000000000D3930100D9
:10903000D593010000000000D7930100D9930100EF
:10904000519D0100DB9301009DA20100DB93010013
:10905000DB93010000000000CD9B0100B19D0100E9
:10906000DB930100DB930100DB930100DB93010044
:10907000DB930100DB930100DB930100DB93010034
:10908000DB930100A19D0100DB930100DB93010054
:10909000DB930100DB930100F1A00100DB930100F1
:1090A000DB930100DB9301000000000000000000E2
:1090B000DB930100DB9301000000000000000000D2
:1090C00000000000000000000000000000000000A0
:1090D0000000000000000000000000000000000090
:1090E0000000000000000000000000000000000080
:1090F0000000000000000000000000000000000070
:10910000000000000000000000000000000000005F
:10911000000000000000000000000000000000004F
:10912000000000000000000000000000000000003F
:10913000000000000000000000000000000000002F
:10914000000000000000000000000000000000001F
:10915000000000000000000000000000000000000F
:1091600000000000000000000000000000000000FF
:1091700000000000000000000000000000000000EF
:1091800000000000000000000000000000000000DF
:1091900000000000000000000000000000000000CF
:1091A00000000000000000000000000000000000BF
:1091B00000000000000000000000000000000000AF
:1091C000000000000000000000000000000000009F
:1091D000000000000000000000000000000000008F
:1091E000000000000000000000000000000000007F
:1091F000000000000000000000000000000000006F
:10920000DFF80CD000F026F900480047A1B60100B5
:10921000D82F002030B450E8012F93B2C4892344E2
:109220008489A34228BF1B1B0489A34202BFBFF34A
:109230002F8F002007E0C3EA020340E80134002C2E
:10924000E9D14FF001000A6030BC704750E8012FAF
:10925000C2EA024240E801210029F7D1704730B448
:1092600050E8022F1FFAA2F3C488A34202BFBFF343
:109270002F8F00200DE0C48923448489A34228BF96
:109280001B1BC2EA034340E80234002CE8D14FF034
:1092900001000A6030BC704750E8022FC2EA224247
:1092A00040E802210029F7D17047034653E8022F16
:1092B000D988B2EB324F4FF0000017BF92B241EAAB
:1092C000014142EA014104E05A68B2EB324F08BF63
:1092D000012043E80212002AE8D1704730B4044666
:1092E00054E8000F0D4644E80053002BF8D11560F8
:1092F00030BC704730B4044654E8000F40EA010522
:1093000044E80053002BF7D1156030BC704730B4EF
:10931000044654E8000F00EA010544E80053002B1E
:10932000F7D1156030BC704730B4044654E8000FE4
:1093300080EA010544E80053002BF7D1156030BCEA
:10934000704730B4044654E8000F00EB010544E8D0
:109350000053002BF7D1156030BC704730B4044681
:1093600054E8000FA0EB010544E80053002BF7D1AF
:10937000156030BC704770B404464FF0000054E8EC
:10938000006F0D68AE4207BF44E80023012044E8A7
:1093900000630E60002B1CBF0020F0E770BC70471C
:1093A00030B4044654E8000F88422CBF451A0546E5
:1093B00044E80053002BF5D1156030BC7047000025
:1093C0000648804706480047FEE7FEE7FEE7FEE75F
:1093D000FEE7FEE7FEE7FEE7FEE7FEE7F5A0010099
:1093E000019201000048704788E8010040EA01034B
:1093F0009B0703D009E008C9121F08C0042AFAD24B
:1094000003E011F8013B00F8013B521EF9D270470E
:10941000D2B201E000F8012B491EFBD270470022B6
:10942000F6E710B513460A4604461946FFF7F0FF63
:10943000204610BD421C10F8011B0029FBD1801AE8
:109440007047034611F8012B00F8012B002AF9D1CF
:1094500018467047064C074D06E0E06840F00103EF
:1094600094E8070098471034AC42F6D3FFF7CCFEDF
:1094700024EF010044EF010070B58C1810F8015B77
:1094800015F0070301D110F8013B2A1106D110F89D
:10949000012B03E010F8016B01F8016B5B1EF9D1A1
:1094A0002B0705D40023521E0DD401F8013BFAE727
:1094B00010F8013BCB1A921C03E013F8015B01F892
:1094C000015B521EF9D5A142D8D3002070BD000027
:1094D00010B504460078002818D10221606803F016
:1094E00057FD08B100F0D0FF62684FF41661508854
:1094F00010FB01F0064990FBF1F1064881604170D4
:1095000011884FF6FF7202EA8101418010BD000010
:10951000EE1F0100E81A002010B50B4A01210B488C
:1095200000F0C4FF08B100F0AFFF084800224FF47C
:109530008051006800F0F4FF002803D0BDE810401F
:1095400000F0A2BF10BD00007D9501002CE50100D8
:1095500010B503F021FE03F07DFE06490220C1F89C
:10956000080380214FF0E0220020C2F88012024957
:10957000087010BD00700040E81A00200348007811
:10958000002801D100F004B870470000E81A00205C
:1095900030B587B002258DF8185000248DF8194099
:1095A00006208DF81A0006A8254903F0ABFD08B186
:1095B00000F06AFF8DF804508DF803408DF80540E7
:1095C00004208DF802508DF807008DF800408DF8CA
:1095D00008408DF801408DF806406946032003F0ED
:1095E00029FD08B100F050FF8DF810508DF80F40A4
:1095F0008DF8114005208DF80E508DF813008DF870
:109600000C408DF814408DF80D408DF8124003A9E0
:10961000042003F00FFD08B100F036FF02210948D5
:1096200003F0B6FC08B100F02FFF03F0FDFD08B118
:1096300000F02AFF03490120091F087007B030BD60
:10964000D1940100EC1A002070B50F4C207800284E
:1096500018D062780E480D49008800F025F80546BC
:109660000C480D496288401AC008032101EB0040F4
:109670000AA102F001FF284600F02DF8BDE8704075
:10968000FFF766BF70BD0000E81A0020681C0020CC
:10969000F61A0020C4EF010064EF0100616463204A
:1096A0003D2025640000000007B586B0012200239C
:1096B0000093ADF810200193029303938DF80220DC
:1096C000498AADF8001008A9039104A902916946DE
:1096D000AEDF09B000BD00280BD0A0F54051023923
:1096E00007D0082805D043F20141884201D000F09C
:1096F000CBBE704730B5524B04468DB00FCB08AD92
:1097000085E80F0004F1280108A862DF00287CD159
:1097100094F828008DF8320041F23420ADF8300082
:1097200022460CA90120A8DF00286ED1202168461E
:10973000FFF775FE41F23520ADF8000094F82800DF
:109740008DF8020001259DF80D00ADF8065040F09F
:1097500012008DF81150ADF804508DF80D008DF801
:1097600013502088A21C694601F06EFB002865D1C9
:1097700020216846FFF753FE41F23620ADF8000085
:1097800094F828008DF802009DF80D00ADF8065001
:1097900040F012008DF81150ADF804508DF80D0016
:1097A0008DF81350208804F10A02694601F04CFB41
:1097B000002843D120216846FFF731FE41F23720CF
:1097C000ADF8000094F828008DF802009DF80D0017
:1097D000ADF8065040F00A008DF81150ADF8045075
:1097E0008DF80D008DF81250208804F11A02694698
:1097F00001F02AFB002821D120216846FFF70FFE47
:1098000041F23820ADF8000000E017E094F828009D
:109810008DF802009DF80D00ADF8065040F01200E2
:109820008DF81150ADF804508DF80D008DF81350DF
:10983000208804F11202694601F006FB0DB030BD2C
:109840003CE5010007B586B0012200230093ADF886
:1098500010200193029303938DF802204988ADF8FC
:10986000001008A9039104A902916946AEDF09B06E
:1098700000BD07B586B0012200230093ADF810208B
:109880000193029303938DF802204989ADF80010EB
:1098900008A9039104A902916946AEDF09B000BD91
:1098A00030B52949A5B00968249190F828008DF8B1
:1098B00092003C216846FFF7B2FD02208DF80000BF
:1098C00001248DF8024006208DF803003C210FA8EA
:1098D000FFF7A5FD24A81D4D1490ADF84C402A1D9E
:1098E0006846296800F000FF08B100F0CDFD174A76
:1098F0000FA80C32A96800F0F7FE08B100F0C4FD13
:1099000018211EA8FFF78BFD00208DF88D408DF8E3
:109910007840ADF884001F908DF88C004FF4C8603B
:109920000A4920901EAA081F72DF08B100F0ACFDA2
:1099300006480422001F0178012077DF002801D0AB
:1099400000F0A2FD25B030BD34E50100F81A00207A
:1099500004480121007873DF002801D000F094BD95
:1099600070470000F41A002000F08EBD00B587B0EB
:109970001C216846FFF753FD00204FF4A021CDE9DC
:1099800000018910029103218DF80C10ADF80E0032
:109990008DF810000648059006480690684600F0CD
:1099A00065FF002801D000F06FFD07B000BD00008A
:1099B000099B01006999010038B5304C0A460188BD
:1099C00065883B2955D011DC102919D0112932D0D6
:1099D000132937D0212908D10021009180886946B8
:1099E0008FDF002801D000F04FFD38BD50292FD067
:1099F000522933D05629F8D18088132176DF32E0FE
:109A00001F49808860800A781E49FFF74DFEFFF7E6
:109A100062FE1D4802781B496088FFF72AFFFFF7A6
:109A20005AFE1A48027817496088FFF70BFFBDE815
:109A30003840FFF750BE4FF6FF706080BDE83840F9
:109A4000FFF786BF00231A46852128467FDF0AE0FC
:109A5000BDE838400146104603F010BF00231A4607
:109A600019462846B1DF0028BFD0BDE8384000F0D5
:109A70000BBD8088132176DFF5E70000F41A002083
:109A8000E91A0020681C0020091B00200D1B002083
:109A90000EB514A19DF8080020F00F00401C20F026
:109AA000F00010308DF808000A2202A87CDF08B10F
:109AB00000F0EAFC0020009001904FF4C871ADF86E
:109AC0000400ADF800104FF47A704900ADF80600BC
:109AD000ADF8021068467ADF002801D000F0D4FC0F
:109AE0000EBD0000546573742077726974650000C0
:109AF00010B5002101F0F0FF002803D0BDE81040B0
:109B000000F0C2BC10BD00000078002807D1044856
:109B10003B21408876DF002801D000F0B5BC7047BB
:109B2000F41A002000B591B00021109110A9FFF7A0
:109B3000E1FD08B100F0A8FC40216846FFF76FFC8A
:109B40000BA1684601F09EF80CA102A801F09AF85A
:109B50000EA104A801F096F801208DF83C0068469B
:109B600000F0E8FE002801D000F08EFC11B000BD2E
:109B70004D616B69686F6D65000000004D4B505F73
:109B8000444F4F525F30303031000000444F4F524D
:109B90005F303030303030303100000008B502F036
:109BA00093FF08B100F070FC00200090694601208E
:109BB00002F048FE08B100F067FC684602F0BEFE05
:109BC000002801D000F060FC08BD00002DE9F0473E
:109BD00000268AB0DFF85091B0464FF4807501241A
:109BE00037460696284602F027FA38B1D9F804031A
:109BF000204203D0284602F015FA26432D1D6400AA
:109C00007F1CADB2082FEDD34FF4BE74204602F096
:109C100013FA48B1204602F005FA46F0004606AABB
:109C20000121002002F0EAF9404D16F0FF0F15D097
:109C30000127002437420DD009EB8401D1F810052B
:109C4000D1F81015C0F3042055F82420C1F30141C8
:109C500002B190477F00641C082CEBD3002E5FDA22
:109C60004FF0FF30CDF8108054E0281910F8507FE5
:109C700090F9000027F0C008401C3BD007A94046DF
:109C800001F018FF10B34FEA9719404601F0A4F80D
:109C900055F820701FB1B9F1030F03D006E0B9F1F8
:109CA000030F27D104A9404601F00CFF4FF0A0415B
:109CB00001EB8800D0F8000706A9C0F3014A40462E
:109CC00001F0F8FE18B1BAF1020F03D012E0BAF1B8
:109CD000030F0FD1B9F1030F08D1BAF1020F1DD054
:109CE0000221404602F070F9761CF6B217B14946DF
:109CF0004046B847641C042CB7D3002E10D06A46E7
:109D00000121002002F07AF906990098884207D0D4
:109D100006900498002634460790A6E70321E0E762
:109D20000AB0BDE8F087000000600040F81D002088
:109D300002490320C1F8000700F002B86400005097
:109D40004FF0A0414FF00070C1F80C0570470000C3
:109D500070B54FF48076304601F04AFF0F4DB405E0
:109D600040B1304601F04BFF0120C4F808032968D8
:109D7000002088474FF48276304601F039FF0028F2
:109D80000AD0304601F03BFF0220C4F808032968DE
:109D9000BDE870400120084770BD00008C1B00200A
:109DA00002490248091F096800680847C81B0020CB
:109DB0002DE9FE434FF48278404602F01FFD4C4FE0
:109DC00000254C4C012600B3404602F01FFD94F8DC
:109DD0002E0010B194F82F10D1B18DF800506168A9
:109DE00001912189ADF80810E26832B1218B6183BD
:109DF00062602181E56010B102E0257400E03E6000
:109E000021686846884784F82F5094F82E0060B384
:109E10004FF48077384602F0F1FC30B3384602F058
:109E2000F5FC628B94F82D108A420AD9A2EB01004E
:109E300080B260832289A2EB0000626802EB4000DE
:109E400005E007D1E06828B184F82F60658302F04F
:109E5000C3FC04E08A4202D184F82F606583404647
:109E600002F0D4FC2248001D06604FF48877384683
:109E700002F0C4FC48B1384602F0C8FC2574022048
:109E80008DF800002168684688474FF48A77384685
:109E900002F0B4FC28B1384602F0B8FC2574BDE8E5
:109EA000FE834FF000484FF48C7967691DE000BFD6
:109EB000B7FA87F028FA00F109EB80058F432846AE
:109EC00002F09CFC88B1284602F0A0FCA5F58C7538
:109ED000E8088DF8040045F38000401C8DF8006010
:109EE0008DF80500216868468847002FE0D1D6E745
:109EF00000700040A41E002000F0D6B970B50E46D8
:109F0000144900EB400001EBC0051446E86A18351F
:109F100020B101280FD0022805D113E0284600F017
:109F2000F7F9A04201D2002411E02246314628462A
:109F300000F026FA0BE0284600F0EAF9A042F4D23D
:109F40000446F2E73146284600F0EDF90446204683
:109F500070BD00005025002010B50B4A01210B48B0
:109F600000F0A4FA08B100F08FFA0848002240F28D
:109F70006661006800F0D4FA002803D0BDE8104004
:109F800000F082BA10BD0000E1A0010038E5010038
:109F900010B502F099FFBDE8104000F025B80000B0
:109FA00010B5042002F021F818B1002002494871D0
:109FB00010BD0120FAE70000081B002070B5084C16
:109FC00001252570A0692061042002F00EF810B16F
:109FD0000020607170BD03480570657170BD0000A0
:109FE000081B0020241B002008B500208DF801006C
:109FF00003208DF800009DF80200074A20F00300BE
:10A000008DF802006946042002F0F6FE01210420CA
:10A0100002F0A0FE08BD0000BD9F0100154830B44D
:10A02000134B01789C1F1A8801EBC10000EB011053
:10A0300002EB400210480088824208D85B886FF02B
:10A04000180511FB05F103EB410181420CDA0120F7
:10A05000E0700A480A4930BC401AC008032101EBED
:10A06000004008A102F008BA0020E07030BC704740
:10A070000E1B0020E41A0020EA1A0020C4EF0100A1
:10A0800064EF01002564000010B5FFF7C7FF104C16
:10A09000E168A069411A6429E17803D919B900205F
:10A0A000607005E021B101216170E0600948017034
:10A0B00020796178884207D062780848064900888C
:10A0C000FFF7D7FBFFF707FB6078207110BD00009A
:10A0D000081B0020241B0020681C0020F61A00200A
:10A0E00002488169491C816170470000081B0020FB
:10A0F00002F024BD70B54FF08051D1F84422D1F860
:10A1000030015A4BC2F342321A6000238A00C2F86F
:10A110000C31C2F81031554A121F1360544A1268AC
:10A12000544C2260524A121D1268241D2260504A6B
:10A1300008321268241D22604D4A0C321268241D18
:10A1400022604B4A10321268241D2260484A1432A1
:10A150001268241D2260464A18321268454C203489
:10A160002260434A1C321268241D2260404A203279
:10A170001268241D22603E4A24321268241D226087
:10A180003B4A28321268241D2260394A2C32126858
:10A19000241D2260364A30321268364C4034226028
:10A1A000334A34321268241D2260314A3832126830
:10A1B000241D22602E4A3C321268241D22602C4A43
:10A1C00040321268241D226001242B4A082802D143
:10A1D000D1F8345115B1082804D00CE0274EFB25E6
:10A1E000356002E0D1F834512DB991F85852116818
:10A1F00065F30301116022490D68ED0702D06FF08D
:10A2000001050D60106840F00F0010604FF0102144
:10A21000D1F80002002803DBD1F80402002821DA7B
:10A22000184A146018480468002CFCD01224C1F8A5
:10A2300000420568002DFCD0C1F8044201680029E5
:10A24000FCD0136001680029FCD0BFF34F8F0F488A
:10A2500001680F4A01F4E06111430160BFF34F8FC1
:10A2600000BFFDE70C490B48086070BD3C0500408D
:10A270000404001020C50040E40E004018F5004022
:10A280000004004004E5014000E401400CED00E062
:10A290000400FA050090D003E01A0020014800688D
:10A2A00000470000941B002010B5124C02202061D2
:10A2B000606111A0A06104F17800E0614FF40070CA
:10A2C00020620020A06260620BA1A164E06204F53C
:10A2D0001E71E1641021A065C4E91410E06509A1B4
:10A2E000E01DFFF7AEF808A12046FFF7AAF82020EE
:10A2F000A07110BD502500205465726D696E616CAF
:10A300000000000052545400534547474552000096
:10A310000269C1688A4203D88068401A104400E08C
:10A32000501A401E70472DE9F047C4681746894609
:10A3300006464FF000083069A04201D9051B02E033
:10A34000B168201A0D1AB0686D1E001BA84200D813
:10A350000546BD4200D33D4670682A462044494622
:10A36000FFF744F8B0687F1B2C44A844A944A042DE
:10A3700000D10024F460002FDDD14046BDE8F08715
:10A380002DE9F04104468846D4E90207C51BE1687F
:10A39000606816460844B54206D94146FFF726F8DC
:10A3A000B819E060BDE8F0812A464146FFF71EF883
:10A3B000761B08EB050132466068FFF717F8E66088
:10A3C000F0E702E008C8121F08C1002AFAD170475E
:10A3D0007047002001E001C1121F002AFBD1704725
:10A3E0000121202803DA81400548014003E040288C
:10A3F00002DA2038814009B10120704700207047FF
:10A40000FC06FFBD72B602F0D5F800BF01F016FFE2
:10A410000028FBD111481249401AC408012000EB62
:10A42000044010A102F024F811480068C00700D0D1
:10A4300000BE022000EB04400EA102F019F8BFF3A9
:10A440004F8F0B48E43801680E4A01F4E061114374
:10A450000160BFF34F8F00BFFDE70000C4EF0100B4
:10A4600064EF0100466174616C206572726F720066
:10A47000F0ED00E053797374656D20726573657457
:10A48000000000000400FA050EB500210091CDE99E
:10A4900001106A4644F20100FFF7B4FF0EBD000050
:10A4A000014800F092BE0000A81B00203AB10068ED
:10A4B0000129426100D0002101610020704707207E
:10A4C0007047000038B511480823582241680091B0
:10A4D0000F49006801F015FA002815D10D4A6946A8
:10A4E0000D4800F077FE04000ED101210A4800F06B
:10A4F000E8FE0123094A1946074800F03EFE0649D6
:10A50000012008390870204638BD000078E50100B8
:10A51000E41E0020FDD90100A81B0020FFFF7F00E2
:10A5200070B50446007F0D4608B1002070BDA261E1
:10A5300000F05EFF401941F10001C4E90201206909
:10A5400000B125612146BDE87040002003F030BD18
:10A55000014600200877012003F02ABD30B5EFF353
:10A56000108172B60D4A9468012324B1037000294A
:10A5700000D162B630BD93604FF0E023D3F8805134
:10A58000074C25401560C3F88041D3F884415460DE
:10A590005A17C3F8842100220270E8E73C1F00200C
:10A5A000FC06FFBD0B498A68002A11D000280FD194
:10A5B000EFF3108072B60B684FF0E022C2F8003162
:10A5C0004B68C2F8043100228A60002800D162B6CC
:10A5D000704700003C1F00202DE9F0410646086846
:10A5E0000C46411C4FF0A0474FF0010506D005FA7C
:10A5F00000F1C7F80815206801F0D2FC6068411C22
:10A6000002D0002101F0BAFC3168A069C1F824052C
:10A61000607D227D31681043C1F86C05D4E90012D9
:10A620003068C0F81425C0F80C15207D012815D11C
:10A63000A068411C02D0002101F0A0FCE068411C90
:10A6400005D08540C7F80855E06801F0A9FCD4E9B9
:10A6500002123068C0F80825C0F81015BDE8F08176
:10A660002DE9F041064608680C46411C4FF0A04712
:10A670004FF0010506D005FA00F1C7F8081520686B
:10A6800001F098FC6068411C02D0002101F07FFCC1
:10A690003168A069C1F82405607D217D32680843D6
:10A6A000C2F86C05D4E900123068C0F80C15C0F887
:10A6B0001425207D012815D1A068411C02D000215D
:10A6C00001F065FCE068411C05D08540C7F80855DD
:10A6D000E06801F06FFCD4E902123068C0F8082588
:10A6E000C0F81015BDE8F0812DE9FC47002517885A
:10A6F0000646158090F82D001446894630B13A463A
:10A700002146484600F0E6F8051E09D1B0784FF022
:10A710000C0A18B32088C846001DB84202D950461A
:10A72000BDE8FC87684679DF0028F9D1208803213D
:10A7300008F8001020881921401C80B2208008F8F9
:10A7400000102088401C80B2208000EB0801BDF87A
:10A75000000003F0F0FD218808442080F0780222F8
:10A76000C8B1218896F9033001F1030C4846BC4575
:10A77000D5D8425421884FF0010C491C89B2218060
:10A7800000F801C02188491C89B2218009F80130F4
:10A790002088401C20807068B8B1218890F9003072
:10A7A00001F1030C4846BC45B9D8425421880A221D
:10A7B000491C89B2218042542188491C89B22180D8
:10A7C00009F801302088401C2080308950B1CDE943
:10A7D00000474B460622022106F1080003F03EFE28
:10A7E000051E9DD1308A50B1CDE900474B46072266
:10A7F000032106F1100003F031FE051E90D1308BCD
:10A8000050B1CDE900474B461522142106F118003E
:10A8100003F024FE051E83D1306A30B13B46224648
:10A82000494600F026FC051EDBD1706A30B13B467C
:10A830002246494600F088FF051ED2D196F82C002A
:10A8400038B13B4622464946304603F047FA051EDA
:10A85000C7D1307838B13B4622464946304600F0F1
:10A86000FDFF051EBDD128465AE7000070B5040063
:10A8700012D001461C221448FEF7B8FD1248134DB1
:10A880000560206850B17ADF002806D12068016891
:10A8900029604068686005E00E2070BD0B487BDFD2
:10A8A0000028FAD108484FF6FF711438084A20F8FA
:10A8B000041B0549343901600021FFF7F7FD00282A
:10A8C000EBD0032070BD00004C1D00202C1B00208D
:10A8D000F5E301007CB5054608880C460930904236
:10A8E00001D90C207CBD68466DDF0028FAD1218893
:10A8F0000820685420881B21401C80B220802954E5
:10A900002088401C80B220802844DDF801100160BE
:10A91000BDF8051081802088801D80B220809DF8C0
:10A920000010490800D0012129542088401C2080B3
:10A9300000207CBD1FB5044601208DF8060041F6BD
:10A940000A00ADF80400494A01A90120A8DF002847
:10A950007DD122885AB14548801C009094F83C3043
:10A9600042F62920616800F03FFA00287BD1228955
:10A970005AB13E480A30009094F83C3042F6242008
:10A98000E16800F031FA00286DD1228A5AB13748C7
:10A990001230009094F83C3042F62520616900F0B6
:10A9A00023FA00285FD1228B5AB130481A30009028
:10A9B00094F83C3042F62720E16900F015FA0028AF
:10A9C00051D1228C5AB129482230009094F83C3061
:10A9D00042F62620616A00F007FA002843D1228D52
:10A9E0005AB122482A30009094F83C3042F6282090
:10A9F000E16A00F0F9F9002835D1216B79B102A89C
:10AA000003F04CFA194808223230009094F83C3098
:10AA100002A942F6232000F0E7F9002823D1606B59
:10AA200060B112493A3100910279016894F83C30E2
:10AA300042F62A2000F0D8F9002814D1A16B89B180
:10AA400002A802F041FF09484230009000E00AE00D
:10AA500094F83C30072202A942F6502000F0C4F9D5
:10AA6000002800D1002004B010BD0000341B0020DD
:10AA70002DE9F04701883B4E40F2F3194FF6FF7580
:10AA800010291BD011293ED0122954D0502946D16B
:10AA9000C188F289841D914241D1618902293ED148
:10AAA0008688304600F0BEFC050038D004F10C006A
:10AAB00000F0F1F8A8B3294630464EE0C17B878804
:10AAC000044601292BD1A846284600F0ABFC05001E
:10AAD00017D02F8000202872234843464A46016839
:10AAE000C5F80A104068C5F80E0004F1100105F120
:10AAF0000A0000F051FD6872F08900280FD1294644
:10AB00002AE0042013E0808800F08CFC040006D0CA
:10AB10006068FFF71DFD08B103F090F82580BDE8DF
:10AB2000F087FFE76868FFF713FD0028F7D0BDE85E
:10AB3000F04703F083B887880646384600F072FC79
:10AB40000400ECD02B464A4606F1080104F10A0045
:10AB500000F022FD607221463846BDE8F04700F063
:10AB6000CDBA00004C1D00202C1B00202DE9F04F19
:10AB7000044686880188424897B0834610290CD045
:10AB8000112950D0103019296AD01A2974D1217A8C
:10AB90000C09042C4DD301224CE0394D083DA86826
:10ABA000C0430B9069680BA800F016FF0B990CA826
:10ABB00000F040FA2C220CA96846FEF717FC00278B
:10ABC000E946A84610E000BF09EB47005FF000052A
:10ABD000B0F804A008EB85005146001D00F0D0FE3F
:10ABE0006D1C1E2DF6D37F1C0098B842ECD8142E95
:10ABF00005D317B00420BDE8F04FFFF745BC314640
:10AC0000584600F0D3FE314608F1040000F0CEFEB5
:10AC1000E07B012830D017B03146BDE8F04F18482E
:10AC2000001D00F0C3BE17B03146BDE8F04F00F084
:10AC3000A7BE0022314600F0D6FB032C01D301222F
:10AC400000E000220E4831460C3000F0CCFB022C14
:10AC500001D3012200E0002209483146083006E015
:10AC6000217A002908D1617AC1F3C002314617B0B8
:10AC7000BDE8F04F00F0B7BB17B0BDE8F08F0000A3
:10AC8000701D002070B504460D460846FEF7D2FB45
:10AC90002080656070BD007800F001007047000002
:10ACA0002DE9F8430546861C00208DF800009046EB
:10ACB0000F464FF001096846FFF750FC1B4C206817
:10ACC0003860D4E90001401AA16804F21C47081A50
:10ACD0000EE00121384600F079FE00F093FC0146B9
:10ACE000384600F073FED4E90001401AA168081A42
:10ACF000401C8642EDD8B8F1000F03D0052065F363
:10AD0000891002E0062065F39F50A2682168114077
:10AD100004EB8101C8602068304420609DF8000089
:10AD2000FFF740FC4846BDE8F88300002C210020D6
:10AD300070B50D4604460A2902D10D21FFF7F8FF30
:10AD4000A0682268411CA1601554D4E90101814228
:10AD500004D32046BDE8704000F0CFBF70BD0000B6
:10AD6000034803C8814201D1012070470020704789
:10AD70002C21002005494FF0FF32082841F82020FF
:10AD800002D3084480F8482070470000F81D0020D6
:10AD9000F0B54FF0FF3512B10023082601E008237B
:10ADA0000C260C4C05E000BF54F823707F1C04D027
:10ADB0005B1CB342F8D32846F0BD26185DB286F876
:10ADC000305044F82310002AF5D1E11881F84800EA
:10ADD000F1E70000F81D00200249084490F9300016
:10ADE00070470000F81D00202DE9F04188B01E4694
:10ADF000DDF8388014460D00074602D10020FFF729
:10AE000043FB14B90020FFF73FFB20216846FEF703
:10AE100006FB9DF80D00ADF8044040F002008DF8EF
:10AE20000D000848ADF80070ADF8064002958DF8A9
:10AE3000116042466946008800F006F808B0BDE897
:10AE4000F0810000341B00202DE9F0438146887812
:10AE500091B090460C4600B901208DF83E00208844
:10AE6000ADF83C0000250095607C694602F07AFF51
:10AE70006E46A07C711C02F075FFE07B00289DF8F7
:10AE8000020002D040F0080001E020F008008DF838
:10AE90000200217C11B140F0100001E020F0100010
:10AEA0008DF80200217B11B140F0010001E020F09B
:10AEB00001008DF80200217D09B1022100E001218D
:10AEC00061F342008DF802001C2102A8FEF7A7FAE8
:10AED000607BC10601D4800617D50E950EAFE07CCD
:10AEE000791C02F03FFF9DF83800079720F00F0013
:10AEF000401C20F0F00010308DF838009DF83A002A
:10AF000020F00600801C8DF83A00607B8DF8080068
:10AF1000A07B8DF80900142109A8FEF780FA0FA87C
:10AF2000CDE90906A088ADF83000A06820B1E0881E
:10AF3000ADF82C00A0680D90A06998B30195008829
:10AF4000ADF81000A06901AD01A94088ADF812006C
:10AF5000A069406806950390A069007B02F002FF9B
:10AF6000A069691C407B02F0FDFEA069807A002880
:10AF70009DF8060002D040F0080001E020F0080033
:10AF80008DF80600A169C97A11B140F0100001E006
:10AF900020F010008DF80600A169097A19B140F07F
:10AFA000010002E00DE020F001008DF80600A1692B
:10AFB000897B09B1022100E0012161F342008DF893
:10AFC0000600E06900B10590434609AA02A9484677
:10AFD000AADF11B0BDE8F08370B5084C050009D0B8
:10AFE00010342168002907D0086820604968284685
:10AFF0008847F6E70834F4E770BD0000E41D002040
:10B00000054A012120B1012805D19170FFF7E4BF65
:10B0100051700020FAE77047E41D002010B5D0E918
:10B020000234D1E90220D11AA04101D3012010BD80
:10B03000002010BD73B58CB00646002000900D981E
:10B0400080B100246D4621460DA800F0A4FC30B16B
:10B05000009805EB400084800098401C0090641C20
:10B06000142CF0D32C2269463046FEF7BFF90EB0FF
:10B0700070BD2DE9F04117880646B81D14460D46EF
:10B08000984202D90C20BDE8F081318807220629B8
:10B090000AD34FF4486C4FF6FF73614501D99942CA
:10B0A00002D17088062801D21046ECE7604501D92C
:10B0B0009842F9D1994203D0984201D08142F3D805
:10B0C0000520E85520881221401C80B22080295498
:10B0D0002088401C80B220804119308803F02BF971
:10B0E0002188084480B220804119708803F023F938
:10B0F0002188084420800020C5E7000038B54A7A3E
:10B100000F4B62B100220A725969002906D0012250
:10B110008DF80020ADF802006846884738BD0A7AED
:10B1200062B19B684C68024619462046FFF7F8F961
:10B130000028F3D0BDE8384002F080BD5B68F1E73D
:10B140004C1D002010B50021024800F050FC80F397
:10B15000100010BD482500204FF480328A4001685D
:10B16000C1F848230068C0F8082370474FF4A07264
:10B1700002EB810189B200F02CB92DE9F0410546BE
:10B180000E464FF4A07000EB860081B228684FF4A1
:10B190008034B440984622F07F47C0F808432868BE
:10B1A000C0F84843286801F011FB286800EB8600CE
:10B1B000C0F840752868C0F84443B8F1000F02D0C9
:10B1C0002868C0F80443BDE8F0810068D0F80405A1
:10B1D0007047000070B54379224C44F8232042792F
:10B1E000241D04EBC202204B1579204A9A1AD30879
:10B1F0002DB10824022000EB03401DA12EE00268BF
:10B200000D88C2F8085590F904208978002A4FEA81
:10B21000411106DA02F00F0202F1E02282F8141D59
:10B2200003E002F1E02282F8001490F904100122F8
:10B2300001F01F0502FA05F54909890001F1E02135
:10B24000C1F80051417904EBC1010A71417944F818
:10B2500031000320002400EB03400EA101F008F9A7
:10B26000204670BDC41B0020ACEF010064EF01005C
:10B2700052544320696E7374616E636520616C7211
:10B280006561647920696E697469616C697A656465
:10B290002E0000005254433A20696E697469616C53
:10B2A000697A65642E00000090F90400012100F025
:10B2B0001F0291404009800000F1E020C0F8001218
:10B2C00070470A46022100F07BB84FF4827100F00B
:10B2D00080B8006801210160704700680121416069
:10B2E00070472DE9F05F07460C464FF4A07000EB65
:10B2F00084001FFA80FA38684FF48036A6409B46D7
:10B3000022F07F45C0F848633868C0F808633868A1
:10B31000D0F8048500EB8402D2F84095C2F840854D
:10B320005146386801F052FAA9EB080020F07F403E
:10B33000012806D1102001F005FD5146386801F0C2
:10B3400045FA3868D0F80485C0F84463A5EB0801D5
:10B3500021F07F413868012900EB840010D0C0F84B
:10B3600040553868D0F804156FF07F4C6A1A521EA9
:10B3700022F07F42ACEB0B03934217D362B118E08B
:10B380006D1CC0F84055102001F0DCFC3868D0F886
:10B39000040540450AD10CE000EB84006D1CC0F8A8
:10B3A00040553868D0F80405884202D00D20BDE829
:10B3B000F09F01223146384600F002F80020F6E7FF
:10B3C0000368C3F84413002A02D00068C0F80413CD
:10B3D000704710B5006842581AB101F0F7F9012022
:10B3E00010BD002010BD0AB100F0E0BA00F0C8BAEC
:10B3F00010B50B48FFF7E9FE094A083AD2E90434D0
:10B40000C018D2E9063244F10001C31A71EB0202FE
:10B4100004D24FF08072801841F1000110BD00008D
:10B42000A81B00200146034802888A4200D0002061
:10B4300070470000381D00202DE9FC5F0E00834698
:10B44000DDE90C47C6F1000098469246814600D4DB
:10B450000846012503E000BF90FBFAF06D1C504543
:10B46000FADAA84500D9454624B1002E01DB780759
:10B4700000D5641EB80702D5B8F1000F0AD0F8074E
:10B4800008D13CB1A54205D220215846641EFFF7E1
:10B490004FFCF6E7002E02DA4E462D2102E0780737
:10B4A00003D52B215846FFF743FC07F00300022881
:10B4B0000BD1B8F1000F08D13CB1A54205D2302123
:10B4C0005846641EFFF734FCF6E7CDE900474346D3
:10B4D00052463146584602F033FFBDE8FC9F00005B
:10B4E00070B50D46044600684FF4887101F0EAFB20
:10B4F0004FF49071206801F0E5FB4FF492712068E1
:10B5000001F0E0FB4FF4A271206801F0DBFB4FF487
:10B51000AC71206801F0D6FB20681149C0F8041313
:10B520002068690740F30730090E002806DA00F0AA
:10B530000F0000F1E02080F8141D03E000F1E0208E
:10B5400080F800142068012140F3073000F01F024A
:10B5500091404009800000F1E020C0F8001170BD6A
:10B5600010034200024600201268530713D502F070
:10B570000300012802D002280CD105E0C2F3831099
:10B580000B68801C184404E00223086803EB925205
:10B590001044086001207047F0B58488A5189442D3
:10B5A00000D82246A41AC288D6189A4200D8134658
:10B5B000D21A4B880788BB420CD34088834209D8F3
:10B5C0008888A04206D3A84204D8C888904201D3F4
:10B5D000B04201D90020F0BD0120F0BD172101804B
:10B5E0004180002101714171704710B54FF48041D5
:10B5F000002000F0A9FF08B1FEF746FFBDE81040AB
:10B6000000F002BE2DE9FF410026234800F0DBF9DF
:10B610002148001F074600F0D6F9204C60680090D2
:10B62000A56800E000986946284004EB80000C30D3
:10B63000FFF798FF0028F5D101AA009901EA050358
:10B6400004EB8303491CDB6842F82030401C009166
:10B650000228F2D3019800F0030001280BD0022841
:10B6600010D10198032101EB90500099BDF80A60B8
:10B6700001EB900005E00198BDF80A60C0F383106B
:10B6800008440090384600F09BF908B100986060CB
:10B6900004B03046BDE8F081442500202C21002074
:10B6A000FFF7A3FFFEF70EFF08B1FEF7EDFEFDF773
:10B6B00033FFFEF751FC02F03FF9FEF769FCFEF79D
:10B6C0006FFCFDF765FFFEF769FA01203FDFFEF72B
:10B6D000DFF91648FEF70CFA14481030FEF722FA8C
:10B6E00012481030FEF7DCF8FEF740F9FEF730F9AB
:10B6F000FEF71EFB4FF0A0414FF00070C1F80C05A3
:10B700000B480C49401AC008032101EB00400AA174
:10B7100000F0AEFEFEF7B8FCFDF796FF00F08EFDE0
:10B720000028FBD101F03AF8F4E70000581C002093
:10B73000C4EF010064EF010043424344207374618D
:10B74000727465642E00000070B5144682880E463F
:10B7500005462088111D0144921C994201D8FE2AF9
:10B7600001D90C2070BD521C32542088FF21401C8E
:10B7700080B2208031542088401C80B22080811902
:10B78000288802F0D8FD2188084480B22080AA8849
:10B7900042B1A96841B13044FDF728FE2088A9884C
:10B7A00008442080002070BD072070BD2DE9F047BF
:10B7B000C5881E1DB6FBF5F78946B6FBF5F10446B4
:10B7C00005FB176C407916686843DDF820A0F71870
:10B7D000001F874200D9C61A166001E02468491E7E
:10B7E0000029FBD1A5EB0C078846B74216D818E014
:10B7F00004EB0C00001D09EB0803BAF1000F3A46F8
:10B8000002D00146184600E01946FDF7EFFD246816
:10B81000F61B4FF0000CB844B54201D9374600E0A2
:10B820002F46002EE4D1BDE8F087000030B5024677
:10B8300051B100F0A7FE0021074C08E034F8213098
:10B840001568AB4202D11160002030BD491C814215
:10B85000F4D3052030BD000000000000F8B50F460D
:10B86000017814460546012901D1687830B1208855
:10B87000821C9A4232D8012902D006E00720F8BD86
:10B8800069780144891C994228D8181A801E86B20A
:10B89000ADF800602188B81C084469467DDF0028A7
:10B8A000EDD12978022904D06878BDF800209042B3
:10B8B00005D3BDF80000B04201D809200AE00820F5
:10B8C000012905D16978B14202D8ADF8001001E034
:10B8D000ADF80060BDF80010FE2901D90C20F8BDBC
:10B8E0002288491CB9542188491C89B22180785486
:10B8F0002088401C2080BDF80010084420800020D3
:10B90000F8BD10B531B1B2FBF3F403FB14241CB144
:10B91000092010BD0E2010BD016000214160816032
:10B920008281C381084610BD70B50C460546FDF7FF
:10B9300071FC002802D021882868084470BD10B529
:10B940000A8849888A4203D1FDF7A6FC012010BD70
:10B95000002010BD70B50C460546FDF780FC0028A0
:10B9600002D061882868084470BD10B50A884988EB
:10B970008A4203D1FDF76AFC012010BD002010BDF2
:10B9800001F01F0301229A40D243490900EB8100D4
:10B99000114600F021B84A0950F8220001F01F02B8
:10B9A00001219140084000D00120704701F01F03A1
:10B9B00001229A40490900EB8100114600F01CB8B1
:10B9C000002100F00FB8012100F016B808B56A4652
:10B9D000FDF7B7FC009808BD08B56A46FDF797FC6F
:10B9E000009808BD08B56A46FDF791FC08BD08B58A
:10B9F0006A46FDF773FC08BD08B56A46FDF77AFC98
:10BA0000009808BD08B56A46FDF7A8FC009808BD77
:10BA100038B5044600258DF800506846FEF79EFDB7
:10BA200021686268086890420ED9401E086001785B
:10BA3000238AE26801FB0325227A2168101AC0B22A
:10BA40000A79824200D208719DF80000FEF7AAFD33
:10BA5000284638BD38B5054600208DF800000C4654
:10BA60006846FEF77BFDE868298A201AB0FBF1F1F1
:10BA70002A681068431C136001709DF80000FEF7EF
:10BA800091FD38BD10B530B1017A42680368891A5A
:10BA9000C9B21A6006E00E2010BD03681A68541C73
:10BAA0001C601170491EC9B2F7D2006800210171F3
:10BAB000084610BDC20800F007030120895C9840C9
:10BAC0000840704710B5C20800F00703885C0124E5
:10BAD0009C402043885410BD10B560B1C16017214F
:10BAE00020F8021B20F8021B1B2100F8021BFFF7A5
:10BAF00075FD002010BD0E2010BD00007CB50C4669
:10BB00008188002933D102880025102A06D0112A05
:10BB100009D03A2A0BD0552A2ED129E001462046D9
:10BB200001F00EFE28E0A01DFFF758FD24E022469C
:10BB3000408934F8063F834200D8184660801728B1
:10BB400000D217206080D06878B1607968B1184B56
:10BB5000D3E90003CDE90003ADF802106088ADF829
:10BB60000400D368694610469847657125717CBD0D
:10BB70000146204601F02AFEA07A0028F7D0284688
:10BB8000E188A5DF012680B11128F0D001F07AF814
:10BB900002460848084902B0401AC00806EB0040B7
:10BBA000BDE8704005A100F067BCA572E6727CBDDF
:10BBB0004CE5010064EF010064EF010073645F6213
:10BBC0006C655F67617474635F65786368616E67F5
:10BBD000655F6D74755F7265717565737428292072
:10BBE00072657475726E65642025732E0000000006
:10BBF00000F180400068002800D00120704708B59F
:10BC000000F18040002101600068009008BD000044
:10BC100070B50B4C207808B185250FE00020A0609E
:10BC200060602061E060074801F068F8054600F0B8
:10BC300097FF08B901F04CF801202070284670BD2C
:10BC4000E41D002001B0010038B500258DF800503A
:10BC50006846FEF783FC074CE068401EE060E06841
:10BC600010B901F059F8A5709DF80000FEF79AFC94
:10BC700038BD0000E41D0020F0B5054604781548E5
:10BC800089B0164640F82420124A0869121DA2F114
:10BC9000080742F82400487F385520226846FDF7FF
:10BCA000A5FB04942878385C48B10EB10A4A00E03C
:10BCB00000226946281D01F039FC09B0F0BD0EB123
:10BCC000064A00E00022694605F10C0001F000FB85
:10BCD000F3E70000841B0020F5E101003DE00100D6
:10BCE0000FB408B50399002904D004AA00926A464B
:10BCF00000F00FF801B05DF814FB10B5826804463F
:10BD0000002A05D0D4E90403216898470020A060E8
:10BD100010BD2DE9FC4791460C00804676D014F802
:10BD2000011B39B125290ED04046FFF701F82078D4
:10BD30000028F4D198F80C00002867D04046BDE8F0
:10BD4000FC47FFF7DABF0020012221782B291BD006
:10BD50002D2902D0302908D102E040F0010001E095
:10BD600040F00200641C002AEFD100252A290ED0E1
:10BD70002178A1F130020A2A11D205EB850201EBEC
:10BD80004205641C303DF1E740F00400EAE7D9F8D1
:10BD900000100B1DC9F800300968641C0D4421789F
:10BDA00000232E290BD114F8011FA1F130020A2A19
:10BDB00005D203EB830201EB4203303BF3E76C292E
:10BDC0000DD068290BD0692921D00BDC252918D08A
:10BDD000582931D063290ED0642915D117E014F801
:10BDE000011FECE7702969D0732932D075291BD067
:10BDF000782909D120E0D9F80000011DC9F8001008
:10BE000001784046FEF794FF641C90E76CE0D9F897
:10BE100000100A1DC9F800200968CDE900500A2267
:10BE20004046FFF709FBEFE7D9F800100A1DC9F8F3
:10BE3000002009680A2206E0D9F800100A1DC9F896
:10BE4000002009681022CDE90050404602F078FA3F
:10BE5000DAE7D9F8001000270A1DC9F800200E689B
:10BE6000C00705D112E04046761C7F1CFEF760FF3C
:10BE700031780029F7D104E0202140466D1EFEF7FD
:10BE800057FFBD42C0D9002DF6D1BDE74EB13046B7
:10BE9000FDF7D0FA074604E0202140466D1EFEF76C
:10BEA00047FFBD4206D9002DF6D103E04046761C7F
:10BEB000FEF73EFF31780029F8D1A5E7D9F8000058
:10BEC000011DC9F80010056830214046FEF730FF1B
:10BED00078214046FEF72CFF08200021CDE9000123
:10BEE000034610222946B0E7BDE8FC8770B541EA59
:10BEF0004201DDE904564FF0A04441EA830141EAE2
:10BF0000052104EB800041EA0641C0F8001770BD2E
:10BF100070B541EA4201DDE904564FF0A04441EA20
:10BF2000830141EA052104EB800041EA0641C0F8A3
:10BF3000001770BD70B541EA4201DDE904564FF0CB
:10BF4000A04441EA830141EA052104EB800041EA73
:10BF50000641C0F8001770BD1CB5002100910B46CA
:10BF600001220191FFF7D4FF1CBD1CB500210091F7
:10BF70000B4601220191FFF7DDFF1CBD1CB500221D
:10BF80000B46009211460192FFF7C2FF1CBD1CB583
:10BF900000220B46009211460192FFF7CBFF1CBD19
:10BFA0001CB5002100910B46012201911146FFF7BB
:10BFB000AFFF1CBD1CB5002100910B460122019171
:10BFC0001146FFF7B7FF1CBD4FF0A04202EB800007
:10BFD000D0F8002722F44032C0F80027D0F800271C
:10BFE00042EA0141C0F8001770474FF0A041D1F874
:10BFF0001015C14001F001007047000018B5084B52
:10C000006C4601441B68009306E000BF54F82030E2
:10C01000D3F81035401C08C28142F7D818BD000083
:10C020005CE50100034908B508440021016000688F
:10C03000009008BD0060004002494058012800D02F
:10C04000002070470060004030B5154A01460020CE
:10C05000D2F8104423460AE0DB681D79854205D1F9
:10C06000401C0A28F6DB4FF0FF3030BD1B68002B68
:10C07000F2D1431CF9D0CB681871D2F8103443B117
:10C08000DB68CC681B682360D2F81024D26811608A
:10C0900030BDC2F81014C96800220A6030BD00002B
:10C0A0002C2100207047FDF727BF704708B5034AD1
:10C0B00000924023024A00F005F808BD4DDC010063
:10C0C000541F0020F0B595B01C4615460F46084693
:10C0D0001A9E00F029FB182109A8FDF7A0F90E9679
:10C0E000CDE909540023082203A9384600F031FBAA
:10C0F00005980690BDF81000ADF81C00BDF81200C0
:10C10000ADF81E0000208DF821000398082600F0ED
:10C110000300012802D0022818D032E003983346E9
:10C12000850AC0F3C2008DF8200003980FA9C0F360
:10C130008314A200384600F00CFB09A8009006AB5F
:10C1400022460FA9284600F04BFA1AE00398840D06
:10C15000C0F3C2008DF82000082C01D2254600E073
:10C16000082533462A460FA9384600F0F2FA2E4435
:10C17000641B09AB06AA29460FA800F08DF9002C14
:10C18000EAD1384600F0D6FA15B0F0BD704701206C
:10C1900001F072BF084810B50178084A515C19B126
:10C1A000001D01F05DFA02E00C3001F05DF9BDE820
:10C1B0001040002001F060BFE01B0020801B002029
:10C1C00008B5034A00924023024AFFF77BFF08BDEF
:10C1D0009DDC0100941F00200A4A012902EBC000E7
:10C1E00007D0022907D0032907D0042907D000204F
:10C1F00070470220704704207047007970474079EB
:10C200007047000064EF010010B5FFF74CFF0421F8
:10C210000948FFF719FF08480124C0684471FFF777
:10C22000B6FF054804211030FFF70EFF024810301A
:10C23000C068447110BD000044EF01002DE9F04FCB
:10C240008DB0FEF78DFD18B100200DB0BDE8F08F68
:10C250007E4C4FF0000BC4F818B4BFF34F8F6068EA
:10C260000290A568D846284004EB80000CE000BF8F
:10C27000D4F8180470B921680298814201D861602D
:10C28000E2E7284004EB80000C3002A9FFF76AF9CE
:10C290000028EDD1002005AA029901EA050304EB6C
:10C2A0008303491CDB6842F82030401C02910228BD
:10C2B000F2D3059800F00300022802D001284DD0E7
:10C2C000AAE005985022810D8946B2EB905F00D814
:10C2D00050210E4666F39F50059008315C4800F0EF
:10C2E000DAF9070078D000F01FFA4346082205A9C2
:10C2F000384600F036FA029908F1080A2940681A0F
:10C300008000001D864222D9504D0C3530B1C2B29A
:10C3100004EB8101301A90460C3104E02946F2B258
:10C32000002590462846C6B25346384600F019FA12
:10C330000AEB080325B132462946384600F011FAC7
:10C34000029909F1030001EB900002903BE004EB3D
:10C3500081015346324638460C31EFE70598C0F369
:10C360008310062800D30620059960F38911C1F3D4
:10C370008310801C05918100354800F08CF907007E
:10C380004AD000F0D1F94346082205A9384600F00A
:10C39000E8F908F1080800260FE00298434600EA91
:10C3A0000501401C04EB81010290042238460C3147
:10C3B00000F0D7F908F10408761C0598C0F3831043
:10C3C000B042EAD847B1D4F81054D4F8180478B180
:10C3D000384600F0AFF934E01EE0E8684079012803
:10C3E00004D12A682846394612689047E8680568EB
:10C3F000002DF2D1384600F09DF98DF800B0684666
:10C40000FEF7ACF8D4F8180408B9029860609DF8FB
:10C410000000FEF7C7F814E0D4F8104405E02168E6
:10C42000204689688847E0680468002CF7D10948ED
:10C430000949401AC008022101EB004007A100F0A1
:10C4400017F8FEF78DFC80F00100FEE62C2100209D
:10C45000E4EF0100C4EF010064EF01004261636B8F
:10C46000656E647320666C75736865640000000017
:10C4700000231A4601F0CCBC08B5012300926A469D
:10C4800001F0C6FC08BD1CB5CDE9002302236A46B5
:10C4900001F0BEFC1CBD00002DE9F0470E468046B1
:10C4A0001C469246082940D894F80C90002020732E
:10C4B0001946104601F04AFA0025B54206D218F88E
:10C4C00005201BA12046FFF70BFC03E01AA1204624
:10C4D000FFF706FC6D1C082DEFD318A12046FFF7CF
:10C4E000FFFB0025B54212D218F805707E2F08D840
:10C4F000FCF778FF0068C05D10F03E0F01D03A46AF
:10C5000000E02E220EA12046FFF7EAFB03E00DA17A
:10C510002046FFF7E5FB6D1C082DE3D301222146E1
:10C52000504601F0EBF984F80C90BDE8F08700006C
:10C530002025303278000000202020007C00000000
:10C5400025630000200000000B4810B5FF2181602A
:10C55000002101604160C0F81814C0F8141480F87C
:10C560002014064800F0E4F8002803D1044800F045
:10C570001FF9002010BD00002C210020E4EF010075
:10C5800054E7010002480349401AC0087047000000
:10C59000E4EF010064EF010013B56846FFF746F9C8
:10C5A00008B100201CBD0248009950F831001CBDA4
:10C5B00064EF010070B509480125D0F8104480F8F7
:10C5C000205407E0E06845712168204649688847A3
:10C5D000E0680468002CF5D170BD00002C2100201B
:10C5E0002DE9FF4781460C9D00200C462F7B2873C8
:10C5F000984616462946184601F0A8F9072E42D259
:10C60000DFE806F004090F161F2A360049462846BF
:10C61000FFF766FB37E0494628462268FFF760FBD4
:10C6200031E0D4E9002349462846FFF759FB2AE0C8
:10C63000A0680090D4E9002349462846FFF750FB44
:10C6400021E0D4E90201CDE90001D4E90023494603
:10C650002846FFF745FB16E004F1080007C88DE8FF
:10C660000700D4E9002349462846FFF739FB0AE0D2
:10C6700004F108000FC88DE80F00D4E900234946F3
:10C680002846FFF72DFB00222946404601F036F9E7
:10C690002F73BDE8FF872DE9F041058A80462D1FE5
:10C6A0004819C01CB0FBF5F0C6B24046FFF7B0F920
:10C6B000041E19D00020207101206071E580002740
:10C6C0002546761EC4F800800BE04046FFF7A0F92F
:10C6D00060B16179491C6171286005467F1CC0F812
:10C6E0000080B742F1D32046BDE8F081204600F03B
:10C6F00002F80020F8E72DE9F041457901466B1E6C
:10C70000002201E00968521C9A42FBD30F680146DF
:10C71000002605E038460C68FFF79CF92146761C98
:10C72000AE42F7D3BDE8F0810121001DFFF74EB9FD
:10C73000FFF7A8B910B504460121001DFFF762F903
:10C7400010F0FF0F04D12046BDE81040FFF7D3BF23
:10C7500010BD1CB501920122009201AAFFF726F834
:10C760001CBD1CB501920022009201AAFFF71EF821
:10C770001CBD0000064910B500204870091D086066
:10C78000BFF35F8F0349044800F00EFA002010BD8C
:10C79000D01B0020C0E50100481F002010B500F0AC
:10C7A000DFF908B141DF10BD20BF40BF20BF10BD81
:10C7B000826800219160826811618268516182689B
:10C7C000D1608268516080680160704708B50022BE
:10C7D00042504058009008BD024A1060101D016090
:10C7E000704700002C760040030103481844C0F84D
:10C7F0001425C0F8101570470070004002494058D9
:10C80000002800D00120704700700040034908B59F
:10C810000844002202600068009008BD00700040DB
:10C82000024619B140205100884070478020FAE745
:10C8300020B1034909680160002070470E2070474D
:10C84000D8E70100FEB502460D460846FFF7F0FFA7
:10C85000002864D1002600960196012706208DF855
:10C860000020ADF8040002968DF802706946202081
:10C870002A6869DF2A492B4A891AC908012202EB72
:10C88000014430B100F0FEF9024620462649FFF788
:10C89000F3FD0096019602968DF8017069464020DE
:10C8A0002A6869DF30B100F0EDF9024620461F49E1
:10C8B000FFF7E2FD00960A208DF80000019602962F
:10C8C000694601202A6869DF30B100F0DBF90246D1
:10C8D00020461749FFF7D0FD4FF4B0600090019655
:10C8E00002966946A1202A6869DF30B100F0CAF9D2
:10C8F000024620460F49FFF7BFFD009601960296BB
:10C900008DF800606946A0202A6869DF30B100F028
:10C91000B9F9024620460849FFF7AEFD0020FEBDEA
:10C92000D4EF010064EF0100D4ED01001CEE010022
:10C9300034ED010080ED0100E0EC01002DE9F04153
:10C940000546076860DF804619491A482A68081AB0
:10C95000C608BA4219D9022000EB064416A12046A7
:10C96000FFF786FD20463A461FA12B68FFF78BFD97
:10C970004FF08050D0F80C012968800200F100507F
:10C98000421A204625A1FFF777FDB8F100004FF0CD
:10C9900001040AD000F076F9024604EB06402AA111
:10C9A000FFF76AFD4046BDE8F0812F480470F9E7C3
:10C9B000D4EF010064EF0100496E73756666696328
:10C9C00069656E742052414D20616C6C6F636174B7
:10C9D000656420666F722074686520536F667444C6
:10C9E00065766963652E00004368616E6765207433
:10C9F00068652052414D207374617274206C6F63BE
:10CA00006174696F6E2066726F6D203078257820B2
:10CA1000746F20307825782E000000004D61786911
:10CA20006D756D2052414D2073697A6520666F7275
:10CA3000206170706C69636174696F6E2069732026
:10CA4000307825782E00000073645F626C655F6546
:10CA50006E61626C6528292072657475726E6564FA
:10CA60002025732E00000000571C002030B514480C
:10CA700091B00078002820D05FF03405ADF8405028
:10CA800010A903A861DF30B1052816D011B0BDE8A8
:10CA90003040FDF7F9BC03AC0A49684600F084F861
:10CAA00007E000BFD0E9002120469047684600F02B
:10CAB00092F802980028E1D0F4E711B030BD0000F0
:10CAC000571C0020DCE701007CB5194C207808B128
:10CAD00008207CBD0120A070002001F081F8112801
:10CAE00019D0002001F094F8124800260068019047
:10CAF0008DF800606846FDF731FD0F4901A810DF91
:10CB000005000AD0002020709DF80000FDF74AFDC6
:10CB10002DB128467CBD00207CBD0120F3E7A67026
:10CB2000667001F043F9012001F072F8F3E70000AC
:10CB3000541C002070E7010005A401000EB5074950
:10CB4000684600F031F805E0D0E9001088476846F3
:10CB500000F041F802980028F6D10EBD8CE70100E4
:10CB60000148007870470000541C00201FB568463B
:10CB70004BDF30B1052814D004B0BDE81040FDF7FC
:10CB800083BC084901A800F00FF806E0D0E90021B5
:10CB90000098904701A800F01EF803980028E6D0FE
:10CBA000F4E71FBDF8E70100016009684160AFF3D9
:10CBB000008010B5D0E900215368994201D10021CD
:10CBC00004E0D1E90034A34202D01946816010BDCF
:10CBD00008314160F0E7816800290BD00268926853
:10CBE0000A44826041684B689A4203D1083141602F
:10CBF000FFF7DFBF704770B50D460646446804E096
:10CC0000B2682946904718B1246820680028F7D1F7
:10CC100020682860256070BD4068006870474168E2
:10CC20000868002801D002680A60704702460020A8
:10CC3000526806E08B4203D10868106001207047FB
:10CC40001A461368002BF5D1704700000C4A10B546
:10CC500002F594730EE0991AC91001EBD1714910D5
:10CC600002EBC1010C68844201D90B4602E005D2F7
:10CC700001F108029A42EED3002010BD486810BDB1
:10CC8000E0E5010000B5FFF7E1FF002800D1014811
:10CC900000BD0000CCE501004058002800D0012074
:10CCA000704708B5002242504058009008BDD0F8A7
:10CCB0000403084000D0012070474058002800D0ED
:10CCC0000120704708B5002242504058009008BD2E
:10CCD00008480068012110F0010F06D14FF0E02054
:10CCE000C02280F80024C0F8001103490120086028
:10CCF0007047000000E100E01805004005490246C9
:10CD000000200B790BB1852070470A6001220A715F
:10CD1000704700008C1B0020044901200860044873
:10CD20000168C1F300410029FAD170470C000040AE
:10CD300018040040002802D00149800108477047CC
:10CD400071E50100002802D00149800108477047C1
:10CD500091E501002DE9F0418846054600F09CFD73
:10CD6000234E002828461AD0FEF736F8304490F8B3
:10CD700048008009032802D001280ED007E04FF0B8
:10CD8000A040D0F81005E84010F0010F05D00321B5
:10CD90002846BDE8F041FFF717B90221F8E700F097
:10CDA00087FD002822D02846FEF716F804464FF4E7
:10CDB000807000EB84000F4F81B207EB8400D0F845
:10CDC000102542F00102C0F810250846FFF72AF9A5
:10CDD000B8F1000F0AD02846FDF7FEFF56F82000F4
:10CDE000002803D00120A040C7F80403BDE8F0816B
:10CDF000F81D0020006000402DE9FC41DFF8BC80F8
:10CE0000044608EB0400002790F930001346C017D1
:10CE10000E46401C01D008274CE0B0781946C0F3FC
:10CE200040022046FDF7B4FF0546401C41D0B078D3
:10CE3000410719D4C0070AD04FF0A04000EB84018D
:10CE4000D1F8000720F00200C1F8000707E0002138
:10CE50007378204600910A460191FFF747F8174979
:10CE600020465431FEF72EFEB078800718D51448BE
:10CE7000317800EB8500D0F81025124B1A40C0F82D
:10CE800010254FF4F8524FF4403302EA042203EA2B
:10CE900001410A43D0F810150A43C0F8102509E0F3
:10CEA00008EB0500327810F8481F41EA8211017042
:10CEB00000E004273846BDE8FC810000F81D002092
:10CEC00000600040FFE0FCFF70B5174D95F858007A
:10CED00008B1082070BD0020411E2A18401CC0B2B5
:10CEE00082F830102028F8D300242046FDF742FFB6
:10CEF000641CE4B20C2CF8D300240C49C0206C65EF
:10CF000081F8000401264020891FC1F800014FF478
:10CF1000BE70FFF787F80649F007C1F8040385F8EB
:10CF20005860204670BD0000F81D002006E000E0BB
:10CF3000006000400121B1EB507F01D1012070471A
:10CF40000020704738B50D4600F04CFD040014D0A9
:10CF500000208DF800006846FDF700FB207928B11D
:10CF60009DF80000FDF71EFB112038BD0120256053
:10CF700020719DF80000FDF715FB002038BD10B5AD
:10CF800000F030FD002802D000210160017110BDC9
:10CF90002DE9F041254C064612200D46C4F8080341
:10CFA0002348017C022918D0027C01464FF4807886
:10CFB00091F82E10012A12D00222C4F8042301276E
:10CFC0000774466005810022C26021B3458390F852
:10CFD0002D103046FFF700FC25E0122002E0C26869
:10CFE0002AB10220C4F804031120BDE8F081C66014
:10CFF000058361B947463846FFF700FC0028FAD0A0
:10D000003846FFF703FC29463046FFF7E5FB0220D0
:10D01000C4F8040307E029463046FFF7DDFB40462D
:10D02000FFF7F4FB27600020DFE7000000700040FE
:10D03000A41E0020204A10B5137C0BB1112010BD96
:10D0400002EB40031C7F1CB912F82D4F641C1470B6
:10D05000CA791A770A7A5A770A784B78302402F01C
:10D06000030204EA03131A438B784FF4E06404EAE2
:10D0700003231A43CB784FF4805404EA03331A4352
:10D080000B794FF4E02404EA03431A434B794FF43D
:10D09000801404EA03531A438B79240104EA0363DE
:10D0A000064C1A4304EB0013C3F818250A7AC97911
:10D0B000FFF79AFB002010BDA41E00200070004066
:10D0C00070B505460E48017C09B1112070BD00EB1A
:10D0D00045010A7F1AB110F82D2F521E027000244C
:10D0E0000C774C77224621462846FFF77DFB40F21D
:10D0F000FF72D143284600F057F8204670BD00006B
:10D10000A41E00202DE9F0411F4C054694F82C0088
:10D1100010B10820BDE8F08144F8101B1B492878A5
:10D120000860091D68780860E878A07701272777EC
:10D130000020207060776060154EE0776FF000404F
:10D14000C6F808034FF48270FFF760FBB015FFF7D5
:10D150005DFB4FF48A70FFF759FBA8780D49400139
:10D1600081F800048020C91FC1F800010220C6F820
:10D170000403A07F10B10120C6F804030348F0386F
:10D1800007600020C6E70000A41E0020F0750040E4
:10D190000070004007E000E00248007C002800D05A
:10D1A00001207047A41E00202DE9F04117460C46CF
:10D1B0000546C1EA07401A4E06EB0511C1F81C05E9
:10D1C00000212846FFF72CFB2346012101EB4502F5
:10D1D000144CC907D140626913F5006F1BD00A4394
:10D1E0006261C6F8040301212846FFF719FB6A00B3
:10D1F0004FF00041D140A7F5E0636269FF3B05D0E5
:10D200000A436261C6F80403BDE8F0818A436261A3
:10D21000C6F80803F8E78A436261C6F80803E2E744
:10D2200000700040A41E0020084900200A7C012A4A
:10D2300001D00820704791F82E30054A01210BB12A
:10D2400011607047024A121DFAE70000A41E002078
:10D250000070004070B517496FF00040C1F8080336
:10D2600080214FF0E02201200025C2F880111149F1
:10D270000831086042F210744FF48A763046FFF7A6
:10D28000BDFA20B90020FFF755FD641EF6D10A480B
:10D2900005600A4E3574002406EB4400007F10B18F
:10D2A000E0B2FFF70DFF641C082CF5D386F82C5074
:10D2B00070BD00000070004000750040A41E0020FA
:10D2C0000149024800F000BF541E00200020004029
:10D2D0002DE9F0410546007916460F4600EB400166
:10D2E0002C4A01EBC00102EB810494F82A1011B121
:10D2F0000820BDE8F081284951F820102868FFF780
:10D3000021FE08B11120F4E739462846FDF764F9FB
:10D3100066603869206030004FF001062DD03F7FF5
:10D320004FF48E712868FFF7BCFC4FF4A271286897
:10D33000FFF7B7FC28681949C0F8041328684FEABA
:10D34000471140F30730002806DA00F00F0000F123
:10D35000E02080F8141D03E000F1E02080F80014C4
:10D36000286840F3073000F01F0106FA01F1400978
:10D37000800000F1E020C0F8001128680421C0F806
:10D3800000150020A061E06184F8290044F8140F22
:10D39000A675AEE7541E002060E501008000020083
:10D3A0002DE9F05F054600790B4600EB400101EBEB
:10D3B000C000244901EB8004284600F045F810B174
:10D3C0001120BDE8F09F62614FF00009C4F8209081
:10D3D000A36084F828904FF48E784E464146286822
:10D3E000FFF75FFC28684FF0010AC0F808A021464B
:10D3F000286800F0F9FD606808BBD5F800B06769DF
:10D400000FE000BF94F8280008B10F2615E0414650
:10D410005846FFF741FC0028F4D02146584600F05A
:10D42000E3FD206AB842F2D3574641462868FFF729
:10D4300033FC0028F9D02868C760C4F8149030463F
:10D44000BFE70000541E0020007900EB400101EB13
:10D45000C000044901EB80004069002800D0012091
:10D4600070470000541E00202DE9F0470446007963
:10D470004FF0000900EB400101EBC000254901EB32
:10D4800080072068C0F80095786880B1206822493C
:10D49000C0F808132068012140F3073000F01F0294
:10D4A00091404009800000F1E020C0F88011206820
:10D4B000D0F80C25D0F81485D0F80865D0F81055B0
:10D4C0004FF0FF31C0F81415C0F80C152068C0F8F3
:10D4D0000815C0F81015501C02D01046FEF73CFD90
:10D4E000B8F1FF3F02D04046FEF736FD681C02D07F
:10D4F0002846FEF731FD701C02D03046FEF72CFDA9
:10D500002068FFF73CFD87F82A90C7F80490BDE833
:10D51000F0870000541E00208402020001490248E6
:10D5200000F080BE801E0020002000402DE9F04168
:10D530000546164600790F46154A00EBC00102EB7E
:10D54000810494F8201011B10820BDE8F081114940
:10D5500051F820102868FFF7F5FC08B11120F4E716
:10D5600039462846FDF77CF86660386920601EB1B0
:10D57000397F2846FDF7B4FF28680821C0F8001558
:10D580000020A061E0616061012184F82010DCE7E7
:10D59000801E002064E501002DE9F04704460E4698
:10D5A0000079274900EBC00001EB800517463046A3
:10D5B000FFF7C0FC30B1204600F044F820B1112044
:10D5C000BDE8F0871020FBE76F61AE604FF4907705
:10D5D0004FF0000839462068FFF774FB4FF4AC7633
:10D5E00031462068FFF76EFB2068AA686969C0F8B9
:10D5F0004425C0F8481520684FF00109C0F808908C
:10D600006868D0B9BA4651462068FFF756FB07460E
:10D6100031462068FFF751FB0743F4D010B14FF0BB
:10D620000F0808E02068C0F80C9031462068FFF72A
:10D6300044FB0028F9D0002068614046C0E70000A4
:10D64000801E00200079054900EBC00001EB80003E
:10D650004069002800D0012070470000801E002093
:10D660002DE9F04704460079334900EBC00001EB97
:10D6700080070125786880B120683049C0F8081318
:10D68000206840F3073000F01F0105FA01F140095E
:10D69000800000F1E020C0F880112068D0F800126E
:10D6A00021F02001C0F80012206845604FF4AC76EC
:10D6B00031462068FFF706FB2068C56031462068C8
:10D6C000FFF7FBFA0028F9D020684FF00009C0F8F6
:10D6D00000952068D0F80C25D0F81485D0F808659E
:10D6E000D0F810554FF0FF31C0F80C15C0F81415E4
:10D6F0002068C0F80815C0F81015501C02D010465C
:10D70000FEF733FCB8F1FF3F02D04046FEF72DFC98
:10D71000681C02D02846FEF728FC701C02D0304658
:10D72000FEF723FC2068FFF72AFC87F82090C7F853
:10D730000490BDE8F0870000801E00201003420026
:10D7400070B502468888C97B00EB400302EB4304B6
:10D75000A41D012901D1118821802188628891426C
:10D7600013D9A5DF012578B111280FD0FFF78AFA68
:10D77000024607480749401AC00805EB0040BDE8CB
:10D78000704005A1FEF778BE657170BD257170BD52
:10D7900064EF010064EF010073645F626C655F67B2
:10D7A000617474635F65786368616E67655F6D74EB
:10D7B000755F72657175657374282920726574755B
:10D7C000726E65642025732E000000007CB506464D
:10D7D0008D88C88805EB450106EB4104A41D172878
:10D7E00000D217202188814200D80846608000209E
:10D7F000207121882846B5DF60B1FFF743FA024661
:10D800000F481049401AC008012101EB00400EA149
:10D81000FEF732FE6079002810D1F06800280DD0A4
:10D820001549D1E90201CDE90001ADF80250608847
:10D83000ADF80400F2686946304690477CBD0000B0
:10D8400064EF010064EF010073645F626C655F6701
:10D85000617474735F65786368616E67655F6D742A
:10D86000755F7265706C7928292072657475726EA7
:10D8700065642025732E00004CE50100088A891D8F
:10D88000012805D1087B411E082901D201490870F1
:10D8900070470000E41A00200449084490F9300061
:10D8A000082801DB0120704700207047F81D002088
:10D8B0000449084490F93000082801D2012070473B
:10D8C00000207047F81D002070B50D00044602D1FD
:10D8D0000020FCF7D9FD14B90020FCF7D5FD28780D
:10D8E000207069886170090AA170A988E170090A2D
:10D8F0002171E8886071000AA07170BD10B50C46F6
:10D90000017A052908D0407A38B1084808A1026890
:10D910002046FEF7E5F900E01AB106A12046FEF721
:10D92000DFF92046BDE81040FEF7E7B9301C0020C3
:10D93000257300000D0A000010B5FEF71BFF00283C
:10D9400003D0BDE81040FCF79FBD10BD38B5C388BB
:10D950000D46044633B114A0009015A216A1284626
:10D96000FEF7BEF9217A05291CD0607A48B1A0885B
:10D97000FEF732FC164951F8202016A12846FEF782
:10D98000AFF9A0880021FEF707FE03461049207A70
:10D99000143951F8202001B02846BDE830400EA1CE
:10D9A000FEF79EB938BD00001B5B306D0000000023
:10D9B0001B5B313B33316D0025734C6F6773206403
:10D9C000726F70706564202825642925730D0A0024
:10D9D000301C0020257300003C25733E2025733A3F
:10D9E000200000000349884201D10348704700200D
:10D9F0007047000000200040941B002070B50546D1
:10DA0000FDF763FC134C40B1D4E904024FF0807180
:10DA1000411842F10000C4E9041000212846FDF736
:10DA2000A5FB30B1606820B1606800F059FA0020B1
:10DA3000606001212846FDF799FB18B1FDF7D8FC7D
:10DA4000C4E90601284600F077FA2846BDE8704090
:10DA500000F034B8A01B002070B5054600200C462D
:10DA60000870FDF7C5FCD5E90223101A63EB01032A
:10DA700000263146361A994112DAB0F5350F03D334
:10DA8000FCF70EFD0B4942184FF4960300210A489B
:10DA9000FDF727FC10B10D2806D009E0012070BD6C
:10DAA00000210548FDF758FB284600F019FA2070C0
:10DAB000002070BDFFFFB400A81B0020F8B51A4C71
:10DAC000074600261948FFF7A7F8D0B1616871B181
:10DAD000D0E902106268D2E90232C91A904120D21C
:10DAE0006068007F18B161681048FFF784F800F0A3
:10DAF00089F905466946FFF7AFFF98B1606840B104
:10DB00000AE0606800280CD13846BDE8F840FDF70F
:10DB1000E4BB3846FDF7DDFB65609DF8000000289A
:10DB2000D0D1F8BD6660CDE7A01B002080E50100E4
:10DB300070B5054688690C4600284FF48471284664
:10DB40000AD0FFF7AEF8D5F81805626AE168885484
:10DB5000606A401C606270BDFFF7A3F8D5F8180535
:10DB600070BD1FB501238DF80030CDE90121D0E94A
:10DB70000012684690471FBD1FB501238DF8003085
:10DB8000CDE90121D0E90012684690471FBD000091
:10DB900038B50021012548B101280CD0032809D14E
:10DBA000FFF796F8BDE83840FEF74EB84FF0E0209A
:10DBB000C0F8805138BD8DF800106846FCF7CEFCE7
:10DBC000064C207808B9FEF723F8E068401CE060B6
:10DBD000A5709DF80000FCF7E5FC38BDE41D0020B1
:10DBE0003EB5044609496846FEF7DEFF08E000BF7F
:10DBF000D0E900212046904730B16846FEF7EBFFA0
:10DC000002980028F4D13EBD11203EBD74E701000A
:10DC10003EB5044608496846FEF7C6FF07E000BF68
:10DC2000D0E90021204690476846FEF7D4FF0298CD
:10DC30000028F5D13EBD000080E701000249896956
:10DC4000002900D0084770474C1D00202DE9F04105
:10DC50001400884618D000250E4F032608EB050156
:10DC600022460020FCF74AF90544241A40B93878C6
:10DC7000002809D008494FF47A408847761E05D01D
:10DC800001203870002CE9D1BDE8F0810020387007
:10DC9000FAE70000D81B002021E7010070B50D4C09
:10DCA0000020D2B22070201D0B4D0378EB5C1BB11D
:10DCB000001DFFF771FC02E00C30FFF771FB08B1AB
:10DCC000FCF7E2FB6078002802D021780029FAD026
:10DCD00070BD0000DC1B0020801B00202DE9F041FE
:10DCE0000746806A14468846C8B3002531E000BF65
:10DCF000B96A05EB450001EB8006B088801CFE2860
:10DD000002D90C20BDE8F0812288401C08F80200EE
:10DD100020881622401C80B2208008F8002020882D
:10DD2000401C80B2208000EB0801308800F003FB2B
:10DD30002188084480B22080B28842B1B16871B1B4
:10DD40004044FBF753FB2088B188084420806D1CB9
:10DD5000EDB297F82C00A842CAD80020D2E7FFE71E
:10DD60000720CFE70A78062822F0FF020A7010D2B7
:10DD7000DFE800F0030507090B0D002008E0112083
:10DD800006E0212004E0312002E0122000E0222001
:10DD900008707047002805D1034901204870002011
:10DDA000FDF71AB970470000E41D002010B51620D9
:10DDB000FCF716FBA0B1114890F8000440090828B0
:10DDC00011D20121814011F0EC0F0CD00C48826877
:10DDD0004FF480016AB1016841F48001016010BD17
:10DDE00042F2010001E042F20200BDE81040FCF7FF
:10DDF0004BBB4FF0E020C0F8001110BD16E000E072
:10DE00003C1F00200148FEF70ABF000080E501002A
:10DE10002DE9F84F204D9246894606469846012244
:10DE200069461846AF68FCF73BFF58B300980021DD
:10DE30000446801C09E000BF00EA07035AF82120CD
:10DE400005EB8303401C491CDA604145F4D34FEADB
:10DE5000164AFDF777F94AEA0041601C384005EBA5
:10DE600080003C4005EB8402C160D06866F3C500C9
:10DE700068F3891069F39F2020F00300401C20F014
:10DE80000400D06095F8200402E000BFFEF7D6F948
:10DE90000028FBD1BDE8F88F2C21002070B50C00C4
:10DEA000054602D10020FCF7EFFA15B90020FCF777
:10DEB000EBFA207828702088000A68702068000C2F
:10DEC000A8702068000EE87020792871207A6871A7
:10DED0002089000AA871A068000CE87170BD0000DC
:10DEE00070B50446124800250078F8B1F4B1207FDF
:10DEF000E0B1FDF77DFAD4E90223801A994110D3ED
:10DF00002069002600B92677D4E9051088472069E2
:10DF100060B1217F51B1D4E9022110187141C4E9E7
:10DF2000020121460348FEF766FE0125284670BD22
:10DF3000A01B002080E50100F8B51B4C6946206855
:10DF4000FDF708FD00260127184D29E0017821B1D1
:10DF500001290CD002291BD114E041680A7FBAB90B
:10DF60000F77416810480830FEF745FE10E0416821
:10DF70006868814201D16E600AE00B480830FEF704
:10DF800055FE05E0FFF73EFF08B10677FAE72F7070
:10DF900069462068FDF7D3FC69462068FDF7DAFC86
:10DFA0000028D3D1F8BD000078E50100A01B0020B7
:10DFB000F8B50B4C0D46064669462068FDF7B4FCE3
:10DFC00058B10670456069462068FDF7CEFC10B177
:10DFD0000448FDF769F90020F8BD0420F8BD0000F1
:10DFE00078E50100A81B002070B50C4605464FF4EB
:10DFF0008E71FEF756FE216AA068415C206A401CC3
:10E000002062C5F81C1570BD1FB500228DF80020D8
:10E010000291816801914261D0E9001268469047FF
:10E020001FBD1FB500228DF800200291816801916B
:10E030004261D0E90012684690471FBD1FB50A46ED
:10E0400001788DF8001041680191017A8DF808106F
:10E05000C0680390044850F82210001F50F8222096
:10E06000684690471FBD0000881B00200149012021
:10E0700008707047DC1B002010B588B004462022D1
:10E080000E496846FBF7B2F90C2000904FF0FF30C4
:10E090000190029003904FF0EB7006900CB1084A8B
:10E0A00000E0002269460748FDF7E6FD08B1FCF7ED
:10E0B000EBF90448001F447008B010BD34E70100BC
:10E0C0006DE00100E01B00202DE9FF470C460546EE
:10E0D0004FF40071FEF7EBFD01274FF401780026A5
:10E0E00018B34FF4927949462846FEF7D5FDE0B1C2
:10E0F00049462846FEF7D5FDC5F8088394F829005F
:10E1000000B96F6002208DF80000D5F88004C5F8D2
:10E1100080040390A0690290E0680190A661E66126
:10E12000D4E900126846904728E004212846FEF70B
:10E13000BEFD18B34FF484712846FEF7ADFDE8B17B
:10E1400021462846FFF7F4FC616AA069884215D190
:10E15000E06938B1E268616AA0612069E6616662DF
:10E16000E06008E094F8290000B96F60C5F8088302
:10E17000A661E268616A2046FFF7F3FC4FF48E78EF
:10E1800041462846FEF788FD80B16069216A8142D8
:10E1900002D294F8280028B341462846FEF781FDB4
:10E1A000606918B161692046FFF72EFF4FF4A2782D
:10E1B00041462846FEF770FD002818D04146284603
:10E1C000FEF76FFD94F8290000B12F60A0690028C8
:10E1D0000DD0A661E268616A04B02046BDE8F04750
:10E1E000FFF7BFBC21462846FFF7FEFEDEE7BDE88D
:10E1F000FF8700001FB50A4601788DF800104168BE
:10E200000191017A8DF80810C0680390044850F815
:10E210002210001F50F82220684690471FBD0000C2
:10E22000881B00202DE9FF410C464FF492770546EC
:10E230003946FEF742FD0026B8B139462846FEF7BA
:10E2400041FD02208DF80000D5F88004C5F8800457
:10E250000390D5F83C050290E0680190A661E66164
:10E26000D4E900126846904723E04FF48877394696
:10E270002846FEF722FDE0B139462846FEF722FD8A
:10E28000D5F83C15A069884213D1E06960B1E26815
:10E29000D5F8000220F02000C5F80002E069A06176
:10E2A0002069E661E06001E0A661E2682046FFF7D0
:10E2B00063FC4FF4A27739462846FEF7FEFC68B1AE
:10E2C00039462846FEF7FEFCA06938B1A661E66132
:10E2D000D5F83C152046E268FFF74EFC4FF49076E7
:10E2E00031462846FEF7E9FC60B131462846FEF784
:10E2F000E9FC0120E860606920B1D5F84C152046A2
:10E30000FFF78FFE4FF4AC7631462846FEF7D5FC7A
:10E3100000280ED031462846FEF7D4FC606900285C
:10E3200007D0D5F84C1504B02046BDE8F041FFF702
:10E3300078BEBDE8FF810870000A4870022070476F
:10E340002DE9F05F8346DDE90A4A994690460D467D
:10E350000846012703E000BFB0FBF8F07F1C4045F2
:10E36000FAD2B94500D94F465FEACA7012D18CB1D2
:10E370005FEA8A7002D5B9F1000F01D0202607E0CC
:10E38000302605E031465846641EFCF7D1FC0CB13E
:10E39000A742F7D35FF00106B9F1010F02D9A9F145
:10E3A000010903E0B5FBF6F0404502D306FB08F691
:10E3B000F2E7DFF83C9000BFB5FBF6F000FB165526
:10E3C00019F800105846FCF7B3FCB6FBF8F6002E1F
:10E3D000F2D15FEACA7009D0002C07D0A74205D25B
:10E3E00020215846641EFCF7A3FCF5E7BDE8F09F2A
:10E3F00096E50100F8B5054680B2FDF713F8040074
:10E4000013D0154E207A0027317B88420ED2A8B255
:10E4100004F10A0175DF28B1112806D0BDE8F840E3
:10E42000FFF70CBC207A401C2072F8BD2772307CAC
:10E4300038B1A8B23B2176DF18B1082801D0FFF728
:10E44000FDFB71690029F0D08DF80070ADF8025025
:10E4500068468847F8BD00004C1D00202DE9FC41AE
:10E460001646DDE90854CDE900541F4680460222D5
:10E4700000F00CF8002807D1CDE900543B461022EB
:10E480003146404600F002F8BDE8FC812DE9FC5F12
:10E490000026DDE90C4B994692468E468046278839
:10E4A000354630E0D8F80400002200EB85006946CC
:10E4B0000068019001A864DF002830D19DF80000B9
:10E4C00050451FD10EB1002100E0022122880844EE
:10E4D0001118594522D846B9521C90B2208009F82B
:10E4E00000E02088401C20800126218801A801EB43
:10E4F0000902694664DF002811D120889DF80010C8
:10E50000084420806D1CB8F80000A842CADC56B14F
:10E510002088C01B401E80B2FF2802D90C20BDE815
:10E52000FC9F09F807000020F9E70000981C002074
:10E530000100060134120000F81C0020FB349B5F30
:10E54000800000800010000034120000770A0000F4
:10E5500000000000770A00000000000000000050EA
:10E56000C1D201001DD50100000000000000000024
:10E570000338FDD870470000D41E002001000600BB
:10E5800000000000C01B00201DB0010000000000C2
:10E590000338FDD8704730313233343536373839A7
:10E5A00041424344454600000000000000000000D6
:10E5B000000000000000000000000000000000005B
:10E5C000A8E50100C0E5010004000000556E6B6E77
:10E5D0006F776E206572726F7220636F64650000E2
:10E5E0000000000004EC010001000000B0EA01009E
:10E5F00002000000A4E801000300000024EB010079
:10E600000400000078EB01000500000058EA01005A
:10E6100006000000F4E901000700000060EB0100C3
:10E62000080000006CEA010009000000D0EA0100C7
:10E630000A000000ECEB01000B0000008CE8010078
:10E640000C00000084EA01000D00000054EC010001
:10E650000E00000050EB01000F0000008CEB0100E9
:10E6600010000000C0EB01001100000068EC010088
:10E67000120000003CEC010013000000D8EB010088
:10E68000800000000CEA01008100000048E9010060
:10E690008200000008E9010083000000E8E80100B2
:10E6A0008400000024E901008500000030EA010038
:10E6B0008600000038EB010090000000D4E9010062
:10E6C00091000000C8E801009200000098EA0100F3
:10E6D00000820000A0EB010001820000ECEA0100D2
:10E6E0000282000008EB01000084000064E90100E0
:10E6F0000184000010EC010002840000ACE901007C
:10E700000384000088E90100ADC00100ABC0010036
:10E71000A5C0010000000000000000000000000093
:10E720000338FDD870470000C1C1010095C1010048
:10E730008DC10100FFFFFFFFFFFFFFFFFFFFFFFF96
:10E74000FFFFFFFF00000000000000000000D601F6
:10E7500006010000942000207F000000142100200A
:10E7600000000000000000000000000000000000A9
:10E770000100000760E7010070E7010008000000E9
:10E7800098E70100A8E7010008000000A8E70100E1
:10E79000B8E701000800000030F0010038F0010087
:10E7A000000000000000000020F0010030F0010037
:10E7B0000000000000000000F8EF010000F0010080
:10E7C00000F0010010F00100000000000000000057
:10E7D00010F0010018F00100E01A0020B8E7010075
:10E7E000D8E701000800000018F0010020F0010047
:10E7F0000000000000000000E8E70100F8E7010069
:10E80000080000000040404040404040404041413E
:10E8100041414140404040404040404040404040F5
:10E82000404040404005020202020202020202028F
:10E83000020202020220202020202020202020028C
:10E84000020202020202909090909090101010101C
:10E8500010101010101010101010101010101010B8
:10E86000020202020202888888888888080808084C
:10E870000808080808080808080808080808080818
:10E88000020202024000000005E801004E52465F0D
:10E890004552524F525F494E56414C49445F4441A4
:10E8A000544100004E52465F4552524F525F534F03
:10E8B00046544445564943455F4E4F545F454E418B
:10E8C000424C4544000000004E52465F4552524FB4
:10E8D000525F464541545552455F4E4F545F454E39
:10E8E00041424C45440000004E52465F4552524F53
:10E8F000525F4D555445585F554E4C4F434B5F4604
:10E9000041494C45440000004E52465F4552524F2B
:10E91000525F4D555445585F4C4F434B5F464149FC
:10E920004C4544004E52465F4552524F525F4D5542
:10E930005445585F434F4E445F494E49545F4641EA
:10E94000494C4544000000004E52465F4552524F2C
:10E95000525F4D555445585F494E49545F464149B1
:10E960004C4544004E52465F4552524F525F424C16
:10E97000455F495053505F52585F504B545F54525B
:10E98000554E4341544544004E52465F4552524F06
:10E99000525F424C455F495053505F504545525F6E
:10E9A00052454A4543544544000000004E52465FDC
:10E9B0004552524F525F424C455F495053505F4C55
:10E9C000494E4B5F444953434F4E4E454354454493
:10E9D000000000004E52465F4552524F525F415078
:10E9E000495F4E4F545F494D504C454D454E54453F
:10E9F000440000004E52465F4552524F525F4E4F08
:10EA0000545F535550504F52544544004E52465F48
:10EA10004552524F525F4D4F44554C455F4E4F54F7
:10EA20005F494E495449414C495A45440000000051
:10EA30004E52465F4552524F525F4D4F44554C45E2
:10EA40005F414C52454144595F494E495449414CFC
:10EA5000495A4544000000004E52465F4552524F0D
:10EA6000525F4E4F545F464F554E44004E52465FE4
:10EA70004552524F525F494E56414C49445F5354A0
:10EA8000415445004E52465F4552524F525F4441F9
:10EA900054415F53495A45004E52465F4552524FCA
:10EAA000525F494F5F50454E44494E4700000000B9
:10EAB0004E52465F4552524F525F5356435F484154
:10EAC0004E444C45525F4D495353494E4700000058
:10EAD0004E52465F4552524F525F494E56414C4945
