:020000040001F9
:10900000A8260020C1930100C9930100CB93010061
:10901000CD930100CF930100D19301000000000027
:10902000000000000000000000000000D3930100D9
:10903000D593010000000000D7930100D9930100EF
:10904000A59E0100DB9301004DA30100DB9301000D
:10905000DB93010000000000799C0100059F0100E6
:10906000DB930100DB930100DB930100DB93010044
:10907000DB930100DB930100DB930100DB93010034
:10908000DB930100F59E0100DB930100DB930100FF
:10909000DB930100DB93010089A10100DB93010058
:1090A000DB930100DB9301000000000000000000E2
:1090B000DB930100DB9301000000000000000000D2
:1090C00000000000000000000000000000000000A0
:1090D0000000000000000000000000000000000090
:1090E0000000000000000000000000000000000080
:1090F0000000000000000000000000000000000070
:10910000000000000000000000000000000000005F
:10911000000000000000000000000000000000004F
:10912000000000000000000000000000000000003F
:10913000000000000000000000000000000000002F
:10914000000000000000000000000000000000001F
:10915000000000000000000000000000000000000F
:1091600000000000000000000000000000000000FF
:1091700000000000000000000000000000000000EF
:1091800000000000000000000000000000000000DF
:1091900000000000000000000000000000000000CF
:1091A00000000000000000000000000000000000BF
:1091B00000000000000000000000000000000000AF
:1091C000000000000000000000000000000000009F
:1091D000000000000000000000000000000000008F
:1091E000000000000000000000000000000000007F
:1091F000000000000000000000000000000000006F
:10920000DFF80CD000F01AF9004800477DB20100E9
:10921000A826002030B450E8012F93B2C48923441B
:109220008489A34228BF1B1B0489A34202BFBFF34A
:109230002F8F002007E0C3EA020340E80134002C2E
:10924000E9D14FF001000A6030BC704750E8012FAF
:10925000C2EA024240E801210029F7D1704730B448
:1092600050E8022F1FFAA2F3C488A34202BFBFF343
:109270002F8F00200DE0C48923448489A34228BF96
:109280001B1BC2EA034340E80234002CE8D14FF034
:1092900001000A6030BC704750E8022FC2EA224247
:1092A00040E802210029F7D17047034653E8022F16
:1092B000D988B2EB324F4FF0000017BF92B241EAAB
:1092C000014142EA014104E05A68B2EB324F08BF63
:1092D000012043E80212002AE8D1704730B4044666
:1092E00054E8000F0D4644E80053002BF8D11560F8
:1092F00030BC704730B4044654E8000F40EA010522
:1093000044E80053002BF7D1156030BC704730B4EF
:10931000044654E8000F00EA010544E80053002B1E
:10932000F7D1156030BC704730B4044654E8000FE4
:1093300080EA010544E80053002BF7D1156030BCEA
:10934000704730B4044654E8000F00EB010544E8D0
:109350000053002BF7D1156030BC704730B4044681
:1093600054E8000FA0EB010544E80053002BF7D1AF
:10937000156030BC704770B404464FF0000054E8EC
:10938000006F0D68AE4207BF44E80023012044E8A7
:1093900000630E60002B1CBF0020F0E770BC70471C
:1093A00030B4044654E8000F88422CBF451A0546E5
:1093B00044E80053002BF5D1156030BC7047000025
:1093C0000648804706480047FEE7FEE7FEE7FEE75F
:1093D000FEE7FEE7FEE7FEE7FEE7FEE78DA1010000
:1093E0000192010040EA01039B0703D009E008C98C
:1093F000121F08C0042AFAD203E011F8013B00F85A
:10940000013B521EF9D27047D2B201E000F8012BA5
:10941000491EFBD270470022F6E710B513460A46F4
:1094200004461946FFF7F0FF204610BD421C10F815
:10943000011B0029FBD1801A70470000064C074D24
:1094400006E0E06840F0010394E807009847103414
:10945000AC42F6D3FFF7D8FEC0C70100E0C7010059
:1094600010B50446007800281CD10321606802F082
:1094700033FC08B100F0C6FF0220401C0328FCDBCF
:109480006168094864234A8802810A8812FB03F252
:10949000122392FBF3F282808988C180BDE81040DC
:1094A00000F004B810BD0000E61A002010B502F06C
:1094B0006DFD06490220C1F8080380214FF0E0222B
:1094C0000020C2F880120249087010BD00700040F0
:1094D000541B002070B58AB002258DF8245000245A
:1094E0008DF8254006208DF8260001268DF827608E
:1094F00009A8344902F0AAFC08B100F083FF8DF8F6
:1095000004508DF803608DF8054004208DF802505A
:109510008DF807008DF800408DF808408DF8014067
:109520008DF806406946032002F028FC08B100F0DF
:1095300069FF8DF810508DF80F408DF8114005200F
:109540008DF80E508DF813008DF80C408DF81440F6
:109550008DF80D408DF8124003A9042002F00EFC96
:1095600008B100F04FFF8DF81C508DF81B408DF8AE
:109570001D4007208DF81A508DF81F008DF81840F7
:109580008DF820408DF819408DF81E4006A9062060
:1095900002F0F4FB08B100F035FF03210A4802F0A5
:1095A0009BFB08B100F02EFF07480321801D02F04D
:1095B00093FB08B100F026FF02F0D2FC03480670CE
:1095C0000AB070BD619401004C1C0020541B0020A7
:1095D0000A48007800280FD009484FF47A72418871
:1095E000491C89B2B1FBF2F3418002FB131109B9A6
:1095F0000121017001F092BA70470000541B002055
:10960000E61A002007B586B0012200230093ADF8CA
:1096100010200193029303938DF80220498AADF83C
:10962000001008A9039104A902916946AEDF09B0B0
:1096300000BD00280BD0A0F54051023907D0082802
:1096400005D043F20141884201D000F0DBBE7047F3
:1096500030B58DB00446764B086860630FCB08AD1B
:1096600085E80F0004F13C0108A862DF00287CD1E6
:1096700094F83C008DF8320041F23420ADF830000F
:1096800022460CA90120A8DF00286ED120216846BF
:10969000FFF7C1FE41F23520ADF8000094F83C0020
:1096A0008DF8020001259DF80D00ADF8065040F040
:1096B00012008DF81150ADF804508DF80D008DF8A2
:1096C00013502088A21C694601F0DCFA00284CD116
:1096D00020216846FFF79FFE41F23620ADF80000DA
:1096E00094F83C008DF802009DF80D00ADF806508E
:1096F00040F012008DF81150ADF804508DF80D00B7
:109700008DF81350208804F10A02694601F0BAFA74
:1097100000282AD120216846FFF77DFE41F237203C
:10972000ADF8000094F83C008DF802009DF80D00A3
:109730008DF81150ADF8065040F01A008DF8125017
:10974000ADF804508DF80D008DF81350208804F109
:109750002202694601F096FA002867D12021684666
:10976000FFF759FE41F2382000E05FE0ADF800005D
:1097700094F83C008DF802009DF80D00ADF80650FD
:1097800040F012008DF81150ADF804508DF80D0026
:109790008DF81350208804F11202694601F072FA24
:1097A000002843D120216846FFF735FE41F23920D9
:1097B000ADF8000094F83C008DF802009DF80D0013
:1097C0008DF81150ADF8065040F01A008DF8125087
:1097D000ADF804508DF80D008DF81350208804F179
:1097E0002A02694601F04EFA00281FD1202168465E
:1097F000FFF711FE4FF49250ADF8000094F83C00D2
:109800008DF802009DF80D00ADF8065040F01200F2
:109810008DF81150ADF804508DF80D008DF81350EF
:10982000208804F11A02694601F02CFA0DB030BD0F
:10983000A8C6010007B586B0012200230093ADF849
:1098400010200193029303938DF80220498BADF809
:10985000001008A9039104A902916946AEDF09B07E
:1098600000BD07B586B0012200230093ADF810209B
:109870000193029303938DF80220498DADF80010F7
:1098800008A9039104A902916946AEDF09B000BDA1
:1098900007B586B0012200230093ADF81020019394
:1098A000029303938DF802204988ADF8001008A9AF
:1098B000039104A902916946AEDF09B000BD07B566
:1098C00086B0012200230093ADF81020019302938B
:1098D00003938DF802204989ADF8001008A903917F
:1098E00004A902916946AEDF09B000BD07B586B094
:1098F000012200230093ADF81020019302930393FB
:109900008DF80220498CADF8001008A9039104A934
:1099100002916946AEDF09B000BD000030B52949AB
:10992000A5B00968249190F83C008DF892003C2184
:109930006846FFF770FD02208DF8000001248DF8C5
:10994000024006208DF803003C210FA8FFF763FDBD
:1099500024A81D4D1490ADF84C402A1D6846296876
:1099600000F0F8FD08B100F04DFD174A0FA80C32C9
:10997000A96800F0EFFD08B100F044FD18211EA811
:10998000FFF749FD00208DF88D408DF87840ADF847
:1099900084001F908DF88C004FF4C8600A49209015
:1099A0001EAA081F72DF08B100F02CFD0648042231
:1099B000001F0178012077DF002801D000F022FD90
:1099C00025B030BDA4C60100001B002004480121C1
:1099D000007873DF002801D000F014BD704700004C
:1099E000FC1A002000F00EBD00B587B01C216846AF
:1099F000FFF711FD00204FF4A021CDE900018910EF
:109A0000029103218DF80C10ADF80E008DF81000B6
:109A10000648059006480690684600F065FE002856
:109A200001D000F0EFFC07B000BD0000B19B0100C9
:109A3000E599010038B5384C01886588212952D054
:109A40000BDC102913D0112946D0132954D100233F
:109A50001A46852128467FDF54E03B2958D05229F9
:109A60004BD0562948D18088132176DF4AE02B4914
:109A7000808860800A782A49FFF7C4FDFFF7D9FD86
:109A80002848027826496088FFF719FFFFF7D1FDC3
:109A90002548027822496088FFF7FAFEFFF7C9FDE2
:109AA000224802781E496088FFF720FFFFF7C1FDBA
:109AB0001F4802781A496088FFF7D3FEFFF7B9FD07
:109AC000012217496088FFF7B5FE6088BDE838407D
:109AD00001221349FFF7AEBE4FF6FF706080BDE86C
:109AE0003840FFF773BF00210091808869468FDFFF
:109AF000002801D000F086FC38BD00231A46194624
:109B00002846B1DF0028F7D0BDE8384000F07ABC25
:109B10008088132176DFF5E7FC1A0020E71A002081
:109B20000C1C0020181B0020241B0020E41A00201D
:109B3000E51A00200EB514A19DF8080020F00F00D2
:109B4000401C20F0F00010308DF808000E2202A812
:109B50007CDF08B100F056FC0020009001904FF42B
:109B6000C871ADF80400ADF800104FF47A704900E8
:109B7000ADF80600ADF8021068467ADF002801D083
:109B800000F040FC0EBD00004D4B502050495220CB
:109B900053656E736F72000010B5002101F0A8FCD0
:109BA000002803D0BDE8104000F02CBC10BD000020
:109BB0000078002807D104483B21408876DF002840
:109BC00001D000F01FBC7047FC1A002000B593B014
:109BD00000211091119110A9FFF73AFD08B100F092
:109BE00011FC40216846FFF716FC0CA1684600F006
:109BF00087FF0DA102A800F083FF0FA104A800F0C9
:109C00007FFF01208DF83C00684600F0D1FD002860
:109C100001D000F0F7FB13B000BD00004D616B698F
:109C2000686F6D65000000004D4B505F5049525FFA
:109C300030303031000000005049525F3030303059
:109C4000303030310000000008B501F051FE08B19D
:109C500000F0D8FB002000906946012001F0D0FD03
:109C600008B100F0CFFB684601F00AFE002801D0E1
:109C700000F0C8FB08BD00002DE9F04700268AB0BF
:109C8000DFF85091B0464FF48075012437460696B0
:109C9000284601F053FD38B1D9F80403204203D01F
:109CA000284601F041FD26432D1D64007F1CADB206
:109CB000082FEDD34FF4BE74204601F03FFD48B1AC
:109CC000204601F031FD46F0004606AA01210020A1
:109CD00001F016FD404D16F0FF0F15D001270024AE
:109CE00037420DD009EB8401D1F81005D1F81015D9
:109CF000C0F3042055F82420C1F3014102B190477C
:109D00007F00641C082CEBD3002E5FDA4FF0FF308D
:109D1000CDF8108054E0281910F8507F90F9000019
:109D200027F0C008401C3BD007A9404601F0CEFBFD
:109D300010B34FEA9719404600F06CFF55F82070B9
:109D40001FB1B9F1030F03D006E0B9F1030F27D11A
:109D500004A9404601F0C2FB4FF0A04101EB88008E
:109D6000D0F8000706A9C0F3014A404601F0AEFB57
:109D700018B1BAF1020F03D012E0BAF1030F0FD1FC
:109D8000B9F1030F08D1BAF1020F1DD002214046EC
:109D900001F09CFC761CF6B217B149464046B84724
:109DA000641C042CB7D3002E10D06A460121002079
:109DB00001F0A6FC06990098884207D00690049806
:109DC000002634460790A6E70321E0E70AB0BDE885
:109DD000F087000000600040981D0020184910B571
:109DE000164A09880020A2F1080400BF32F810309A
:109DF0008B4206D202EB40035B888B4201D9431CA5
:109E00002370401C0828F1DB0E4821786278006836
:109E1000914200D0606005D16268A0EB02000A2880
:109E200000D3A170A078E178884201D001F00CFA4B
:109E300020786070A078E07010BD0000401B00200A
:109E4000EC1A0020581B002002490320C1F800072B
:109E500000F021B86400005000B5094B094A1868A9
:109E60005168401A1E2801D900F00EF81078002819
:109E700005D01868506000F00EF80020107000BD8A
:109E8000581B0020301B00204FF0A0414FF0007005
:109E9000C1F8080570474FF0A0414FF00070C1F8BD
:109EA0000C05704770B54FF48076304601F0B8FB72
:109EB0000F4DB40540B1304601F0B9FB0120C4F8A4
:109EC00008032968002088474FF48276304601F065
:109ED000A7FB00280AD0304601F0A9FB0220C4F8F5
:109EE00008032968BDE870400120084770BD0000E4
:109EF000B01B002002490248091F09680068084792
:109F0000E81B00202DE9FE434FF48278404601F023
:109F100053FC4C4F00254C4C012600B3404601F049
:109F200053FC94F82E0010B194F82F10D1B18DF895
:109F30000050616801912189ADF80810E26832B1E2
:109F4000218B618362602181E56010B102E025749C
:109F500000E03E6021686846884784F82F5094F8F6
:109F60002E0060B34FF48077384601F025FC30B303
:109F7000384601F029FC628B94F82D108A420AD9E8
:109F8000A2EB010080B260832289A2EB000062682C
:109F900002EB400005E007D1E06828B184F82F60AB
:109FA000658301F0F7FB04E08A4202D184F82F6058
:109FB0006583404601F008FC2248001D06604FF40E
:109FC0008877384601F0F8FB48B1384601F0FCFBD1
:109FD000257402208DF800002168684688474FF4F8
:109FE0008A77384601F0E8FB28B1384601F0ECFBEF
:109FF0002574BDE8FE834FF000484FF48C79676903
:10A000001DE000BFB7FA87F028FA00F109EB8005E0
:10A010008F43284601F0D0FB88B1284601F0D4FBDD
:10A02000A5F58C75E8088DF8040045F38000401C08
:10A030008DF800608DF80500216868468847002F7C
:10A04000E0D1D6E700700040F41D002010B501F00B
:10A050000DFEBDE8104000F029B8000010B5042046
:10A0600001F045FB18B100200249087010BD012025
:10A07000FAE70000241B002070B509480125084CB0
:10A0800005700848143400686060042001F02FFB5C
:10A0900010B10020207070BD03480570257070BDA0
:10A0A000101B0020581B0020301B002008B500208A
:10A0B0008DF8010003208DF800009DF80200074A8A
:10A0C00020F003008DF802006946042001F066FDCF
:10A0D0000121042001F010FD08BD000079A001005D
:10A0E0000F4810B50D4900780A8800EBC00303EB58
:10A0F000001302EB43040B4A13888A1D9C4208D8C4
:10A1000049886FF0180410FB04F001EB40009842FE
:10A1100001DA012000E00020907010BD121B002029
:10A12000E41A0020EA1A002010B5FFF7D9FF114CFD
:10A1300011486268016801208A1A642AA27803D94A
:10A140001AB90021217002E00AB1207061606178C3
:10A15000227891420AD0012A01D1084908700948A1
:10A1600007490088FFF7ABFBFFF763FA20786070C0
:10A1700010BD0000181B0020581B0020301B0020C1
:10A180000C1C0020FE1A002001F0ECBB70B54FF053
:10A190008051D1F84422D1F830015A4BC2F34232F7
:10A1A0001A6000238A00C2F80C31C2F81031554AF7
:10A1B000121F1360544A1268544C2260524A121DF6
:10A1C0001268241D2260504A08321268241D226041
:10A1D0004D4A0C321268241D22604B4A103212681C
:10A1E000241D2260484A14321268241D2260464A07
:10A1F00018321268454C20342260434A1C321268DF
:10A20000241D2260404A20321268241D22603E4AEA
:10A2100024321268241D22603B4A28321268241D11
:10A220002260394A2C321268241D2260364A3032AC
:10A230001268364C40342260334A34321268241D8E
:10A240002260314A38321268241D22602E4A3C3284
:10A250001268241D22602C4A40321268241D22609C
:10A2600001242B4A082802D1D1F8345115B108280D
:10A2700004D00CE0274EFB25356002E0D1F83451C4
:10A280002DB991F85852116865F303011160224904
:10A290000D68ED0702D06FF001050D60106840F009
:10A2A0000F0010604FF01021D1F80002002803DBEE
:10A2B000D1F80402002821DA184A1460184804680A
:10A2C000002CFCD01224C1F800420568002DFCD0FF
:10A2D000C1F8044201680029FCD01360016800291C
:10A2E000FCD0BFF34F8F0F4801680F4A01F4E061C3
:10A2F00011430160BFF34F8F00BFFDE70C490B48CE
:10A30000086070BD3C0500400404001020C50040FA
:10A31000E40E004018F500400004004004E5014050
:10A3200000E401400CED00E00400FA050090D003C9
:10A33000E01A002004484168491C41600078002868
:10A3400001D1FFF7C7B87047541B002001480068CF
:10A3500000470000B81B002010B50B4A01210B4834
:10A3600000F062F808B100F04DF80848002240F211
:10A370006661006800F092F8002803D0BDE8104044
:10A3800000F040B810BD000035A30100B8C60100C0
:10A3900002E008C8121F08C1002AFAD170477047AE
:10A3A000002001E001C1121F002AFBD1704700000C
:10A3B0000121202803DA81400548014003E04028BC
:10A3C00002DA2038814009B101207047002070472F
:10A3D000FC06FFBD72B609480068C00700D000BE89
:10A3E000BFF34F8F0548E4380168054A01F4E06186
:10A3F00011430160BFF34F8F00BFFDE7F0ED00E0B8
:10A400000400FA050EB500210091CDE901106A465D
:10A4100044F20100FFF7DEFF0EBD0000014800F02E
:10A42000E8BD0000C81B00203AB100680129426164
:10A4300000D0002101610020704707207047000014
:10A4400038B5114808235822416800910F49006827
:10A4500000F0D1FF002815D10D4A69460D4800F0E3
:10A46000CDFD04000ED101210A4800F010FE0123A9
:10A47000094A1946074800F094FD064901200839A9
:10A480000870204638BD0000D8C60100341E0020E8
:10A49000F1C00100C81B0020FFFF7F0070B504461B
:10A4A000007F0D4608B1002070BDA26100F086FE5D
:10A4B000401941F10001C4E90201206900B12561A0
:10A4C0002146BDE87040002002F02EB80146002071
:10A4D0000877012002F028B830B5EFF3108172B68A
:10A4E0000D4A9468012324B10370002900D162B69B
:10A4F00030BD93604FF0E023D3F88051074C2540E6
:10A500001560C3F88041D3F8844154605A17C3F8EA
:10A51000842100220270E8E78C1E0020FC06FFBDAB
:10A520000B498A68002A11D000280FD1EFF3108060
:10A5300072B60B684FF0E022C2F800314B68C2F8E7
:10A54000043100228A60002800D162B67047000002
:10A550008C1E00202DE9FC47002517880646158033
:10A5600090F82D001446894630B13A4621464846B7
:10A5700000F0EEF8051E09D1B0784FF00C0A18B3C0
:10A580002088C846001DB84202D95046BDE8FC8765
:10A59000684679DF0028F9D12088032108F80010E7
:10A5A00020881921401C80B2208008F800102088E3
:10A5B000401C80B2208000EB0801BDF8000001F0D3
:10A5C000CFFF218808442080F0780222C8B121887A
:10A5D00096F9033001F1030C4846BC45D5D84254E6
:10A5E00021884FF0010C491C89B2218000F801C07C
:10A5F0002188491C89B2218009F801302088401C3B
:10A6000020807068B8B1218890F9003001F1030C06
:10A610004846BC45B9D8425421880A22491C89B20F
:10A62000218042542188491C89B2218009F80130D7
:10A630002088401C2080308950B1CDE900474B462E
:10A640000622022106F1080001F0C4FF051E9DD17B
:10A65000308A50B1CDE900474B460722032106F16D
:10A66000100001F0B7FF051E90D1308B50B1CDE93D
:10A6700000474B461522142106F1180001F0AAFFED
:10A68000051E83D1306A30B13B462246494600F070
:10A690000EFC051EDBD1706A30B13B4622464946AE
:10A6A00000F024FE051ED2D196F82C0038B13B46AE
:10A6B00022464946304601F013FE051EC7D13078C8
:10A6C00038B13B4622464946304600F041FE051E61
:10A6D000BDD128465AE70A46014610460A88502A44
:10A6E00001D101F089BC704770B5040012D0014659
:10A6F0001C221448FEF776FE1248134D05602068B0
:10A7000050B17ADF002806D12068016829604068CE
:10A71000686005E00E2070BD0B487BDF0028FAD191
:10A7200008484FF6FF711438084A20F8041B054901
:10A73000343901600021FFF777FE0028EBD00320B9
:10A7400070BD0000EC1C00205C1B00206DC50100EA
:10A750007CB5054608880C460930904201D90C208A
:10A760007CBD68466DDF0028FAD121880820685436
:10A7700020881B21401C80B2208029542088401C46
:10A7800080B220802844DDF801100160BDF805107A
:10A7900081802088801D80B220809DF800104908AB
:10A7A00000D0012129542088401C208000207CBD3D
:10A7B0001FB5044601208DF8060041F60A00ADF8E9
:10A7C0000400494A01A90120A8DF00287DD1228880
:10A7D0005AB14548801C009094F83C3042F629203C
:10A7E000616800F01FFA00287BD122895AB13E48E7
:10A7F0000A30009094F83C3042F62420E16800F0E2
:10A8000011FA00286DD1228A5AB1374812300090CF
:10A8100094F83C3042F62520616900F003FA0028E4
:10A820005FD1228B5AB130481A30009094F83C30F6
:10A8300042F62720E16900F0F5F9002851D1228C79
:10A840005AB129482230009094F83C3042F6262034
:10A85000616A00F0E7F9002843D1228D5AB12248FD
:10A860002A30009094F83C3042F62820E16A00F04B
:10A87000D9F9002835D1216B79B102A801F0CAFDC0
:10A88000194808223230009094F83C3002A942F670
:10A89000232000F0C7F9002823D1606B60B1124972
:10A8A0003A3100910279016894F83C3042F62A204E
:10A8B00000F0B8F9002814D1A16B89B102A801F009
:10A8C000F3FB09484230009000E00AE094F83C3085
:10A8D000072202A942F6502000F0A4F9002800D176
:10A8E000002004B010BD0000641B00202DE9F047DB
:10A8F00001883B4E40F2F3194FF6FF7510291BD02B
:10A9000011293ED0122954D0502946D1C188F2894C
:10A91000841D914241D1618902293ED18688304609
:10A9200000F066FC050038D004F10C0000F0F1F8EE
:10A93000A8B3294630464EE0C17B878804460129EA
:10A940002BD1A846284600F053FC050017D02F80D5
:10A9500000202872234843464A460168C5F80A1079
:10A960004068C5F80E0004F1100105F10A0000F07E
:10A9700049FC6872F08900280FD129462AE004209A
:10A9800013E0808800F034FC040006D06068FFF714
:10A990009DFD08B101F09CFC2580BDE8F087FFE734
:10A9A0006868FFF793FD0028F7D0BDE8F04701F095
:10A9B0008FBC87880646384600F01AFC0400ECD0AD
:10A9C0002B464A4606F1080104F10A0000F01AFC81
:10A9D000607221463846BDE8F04700F0ADBA00008D
:10A9E000EC1C00205C1B00202DE9F04F04468688FB
:10A9F0000188424897B0834610290CD0112950D0C5
:10AA0000103019296AD01A2974D1217A0C09042C22
:10AA10004DD301224CE0394D083DA868C0430B904E
:10AA200069680BA800F046FD0B990CA800F020FA0D
:10AA30002C220CA96846FEF7D5FC0027E946A8465B
:10AA400010E000BF09EB47005FF00005B0F804A07C
:10AA500008EB85005146001D00F00CFD6D1C1E2DFD
:10AA6000F6D37F1C0098B842ECD8142E05D317B04B
:10AA70000420BDE8F04FFFF7C5BC3146584600F052
:10AA80000FFD314608F1040000F00AFDE07B0128CB
:10AA900030D017B03146BDE8F04F1848001D00F027
:10AAA000FFBC17B03146BDE8F04F00F0E3BC002218
:10AAB000314600F07EFB032C01D3012200E000228E
:10AAC0000E4831460C3000F074FB022C01D30122F9
:10AAD00000E0002209483146083006E0217A0029CA
:10AAE00008D1617AC1F3C002314617B0BDE8F04F1A
:10AAF00000F05FBB17B0BDE8F08F0000101D002014
:10AB000070B504460D460846FEF790FC208065604F
:10AB100070BD007800F00100704700002DE9F0479B
:10AB2000204C002004F10E022189D78816880546A2
:10AB300032F810308B421BD202EB400CBCF8029072
:10AB4000894515D9DFF85CC00CF10A0C0CEB000844
:10AB50001CF800A098F80180A8EB0A0CA1EB0308F0
:10AB60000CFB08FCA9EB03039CFBF3F35344637059
:10AB70008F4201D2642363708E4200D96570401CFD
:10AB80000328D5DB207800280AD0627807480649D8
:10AB90000088FEF737FD2570BDE8F047FEF749BD98
:10ABA000BDE8F087E61A00200C1C0020FE1A0020E9
:10ABB00005494FF0FF32082841F8202002D308440D
:10ABC00080F8482070470000981D0020F0B54FF035
:10ABD000FF3512B10023082601E008230C260C4C97
:10ABE00005E000BF54F823707F1C04D05B1CB34207
:10ABF000F8D32846F0BD26185DB286F8305044F8E8
:10AC00002310002AF5D1E11881F84800F1E700008F
:10AC1000981D00200249084490F930007047000058
:10AC2000981D00202DE9F04188B01E46DDF83880DF
:10AC300014460D00074602D10020FFF7E3FB14B9CC
:10AC40000020FFF7DFFB20216846FEF7E4FB9DF8BC
:10AC50000D00ADF8044040F002008DF80D000848EA
:10AC6000ADF80070ADF8064002958DF811604246CF
:10AC70006946008800F006F808B0BDE8F0810000E1
:10AC8000641B00202DE9F0438146887891B09046FE
:10AC90000C4600B901208DF83E002088ADF83C003C
:10ACA00000250095607C694601F05EFB6E46A07C45
:10ACB000711C01F059FBE07B00289DF8020002D0D6
:10ACC00040F0080001E020F008008DF80200217C2F
:10ACD00011B140F0100001E020F010008DF80200EA
:10ACE000217B11B140F0010001E020F001008DF85E
:10ACF0000200217D09B1022100E0012161F342003F
:10AD00008DF802001C2102A8FEF785FB607BC106BE
:10AD100001D4800617D50E950EAFE07C791C01F0AA
:10AD200023FB9DF83800079720F00F00401C20F00F
:10AD3000F00010308DF838009DF83A0020F0060041
:10AD4000801C8DF83A00607B8DF80800A07B8DF8A0
:10AD50000900142109A8FEF75EFB0FA8CDE909063A
:10AD6000A088ADF83000A06820B1E088ADF82C00D4
:10AD7000A0680D90A06998B301950088ADF8100007
:10AD8000A06901AD01A94088ADF81200A069406832
:10AD900006950390A069007B01F0E6FAA069691CA2
:10ADA000407B01F0E1FAA069807A00289DF8060056
:10ADB00002D040F0080001E020F008008DF8060005
:10ADC000A169C97A11B140F0100001E020F0100033
:10ADD0008DF80600A169097A19B140F0010002E07E
:10ADE0000DE020F001008DF80600A169897B09B112
:10ADF000022100E0012161F342008DF80600E069C4
:10AE000000B10590434609AA02A94846AADF11B03D
:10AE1000BDE8F08370B5084C050009D010342168F6
:10AE2000002907D008682060496828468847F6E767
:10AE30000834F4E770BD0000841D0020054A01219C
:10AE400020B1012805D19170FFF7E4BF51700020B7
:10AE5000FAE77047841D002010B5D0E90234D1E92B
:10AE60000220D11AA04101D3012010BD002010BD45
:10AE700073B58CB00646002000900D9880B1002478
:10AE80006D4621460DA800F000FB30B1009805EB9F
:10AE9000400084800098401C0090641C142CF0D367
:10AEA0002C2269463046FEF79DFA0EB070BD2DE9A2
:10AEB000F04117880646B81D14460D46984202D93F
:10AEC0000C20BDE8F0813188072206290AD34FF40F
:10AED000486C4FF6FF73614501D9994202D17088E1
:10AEE000062801D21046ECE7604501D99842F9D115
:10AEF000994203D0984201D08142F3D80520E85509
:10AF000020881221401C80B2208029542088401CB7
:10AF100080B220804119308801F022FB218808444A
:10AF200080B220804119708801F01AFB2188084402
:10AF300020800020C5E7000038B54A7A0F4B62B187
:10AF400000220A725969002906D001228DF80020DA
:10AF5000ADF802006846884738BD0A7A62B19B683E
:10AF60004C68024619462046FFF798FA0028F3D0AD
:10AF7000BDE8384001F0ACB95B68F1E7EC1C00209B
:10AF80004FF480328A400168C1F848230068C0F855
:10AF9000082370474FF4A07202EB810189B200F0E0
:10AFA000FEB82DE9F04105460E464FF4A07000EBC7
:10AFB000860081B228684FF48034B440984622F06D
:10AFC0007F47C0F808432868C0F84843286800F065
:10AFD000DBFB286800EB8600C0F840752868C0F8E5
:10AFE0004443B8F1000F02D02868C0F80443BDE81C
:10AFF000F0810068D0F804057047000010B543796F
:10B000001B4C44F823204279231D03EBC202127922
:10B010000AB1082010BD02680C88C2F8084590F9F2
:10B0200004208978002A4FEA411106DA02F00F0263
:10B0300002F1E02282F8141D03E002F1E02282F81E
:10B04000001490F90410012201F01F0402FA04F424
:10B050004909890001F1E021C1F80041417903EB80
:10B06000C1010A71417943F83100002010BD000090
:10B07000E41B002090F90400012100F01F02914020
:10B080004009800000F1E020C0F8001270470A4635
:10B09000022100F07BB84FF4827100F080B80068A4
:10B0A00001210160704700680121416070472DE96E
:10B0B000F05F07460C464FF4A07000EB84001FFAC7
:10B0C00080FA38684FF48036A6409B4622F07F45D0
:10B0D000C0F848633868C0F808633868D0F8048559
:10B0E00000EB8402D2F84095C2F84085514638689A
:10B0F00000F04AFBA9EB080020F07F40012806D1B0
:10B10000102000F0F1FC5146386800F03DFB386833
:10B11000D0F80485C0F84463A5EB080121F07F4115
:10B120003868012900EB840010D0C0F84055386819
:10B13000D0F804156FF07F4C6A1A521E22F07F423D
:10B14000ACEB0B03934217D362B118E06D1CC0F84F
:10B150004055102000F0C8FC3868D0F80405404580
:10B160000AD10CE000EB84006D1CC0F84055386833
:10B17000D0F80405884202D00D20BDE8F09F0122DE
:10B180003146384600F002F80020F6E70368C3F8BD
:10B190004413002A02D00068C0F80413704710B5A9
:10B1A000006842581AB100F0EFFA012010BD0020EB
:10B1B00010BD0AB100F074B900F05CB910B50B48CD
:10B1C000FFF717FF094A083AD2E90434C018D2E958
:10B1D000063244F10001C31A71EB020204D24FF0AF
:10B1E0008072801841F1000110BD0000C81B0020D2
:10B1F0000146034802888A4200D0002070470000C0
:10B20000D81C0020F0B58488A518944200D82246A6
:10B21000A41AC288D6189A4200D81346D21A4B886C
:10B220000788BB420CD34088834209D88888A04253
:10B2300006D3A84204D8C888904201D3B04201D9AD
:10B240000020F0BD0120F0BD054810B58278064809
:10B2500004490088FEF7EEFABDE81040FEF7E9B9B0
:10B26000381B00200C1C0020FE1A00201721018032
:10B27000418000210171417170470000FFF7E0F843
:10B2800008B1FFF7BFF8FFF767F800F027FFFEF7F8
:10B29000DDFEFEF7E3FEFEF71DF9FEF7D5FCFEF737
:10B2A00049FC1148FEF778FC0F481030FEF78EFC81
:10B2B0000D481030FEF732FBFEF796FBFEF786FBDB
:10B2C000FEF7C2FD4FF0A0414FF00070C1F80C0531
:10B2D000FEF784FDFEF728FFFEF77AF9FEF7BCFDC6
:10B2E00000F048FAF4E70000FC1B002070B514469B
:10B2F00082880E4605462088111D0144921C994201
:10B3000001D8FE2A01D90C2070BD521C325420886D
:10B31000FF21401C80B2208031542088401C80B224
:10B3200020808119288801F01BF92188084480B207
:10B330002080AA8842B1A96841B13044FEF752F892
:10B340002088A98808442080002070BD072070BD97
:10B35000F8B50F46017814460546012901D16878F1
:10B3600030B12088821C9A4232D8012902D006E0EE
:10B370000720F8BD69780144891C994228D8181A19
:10B38000801E86B2ADF800602188B81C084469466A
:10B390007DDF0028EDD12978022904D06878BDF836
:10B3A0000020904205D3BDF80000B04201D809202A
:10B3B0000AE00820012905D16978B14202D8ADF828
:10B3C000001001E0ADF80060BDF80010FE2901D9C1
:10B3D0000C20F8BD2288491CB9542188491C89B227
:10B3E000218078542088401C2080BDF8001008443B
:10B3F00020800020F8BD10B531B1B2FBF3F403FB9F
:10B4000014241CB1092010BD0E2010BD01600021C4
:10B41000416081608281C381084610BD70B50C46D1
:10B420000546FDF7F7FE002802D021882868084469
:10B4300070BD10B50A8849888A4203D1FDF72CFFF8
:10B44000012010BD002010BD70B50C460546FDF76B
:10B4500006FF002802D061882868084470BD10B536
:10B460000A8849888A4203D1FDF7F0FE012010BD09
:10B47000002010BD01F01F0301229A40D243490968
:10B4800000EB8100114600F015B84A0950F822007F
:10B4900001F01F0201219140084000D001207047B7
:10B4A00001F01F0301229A40490900EB8100114677
:10B4B00000F006B808B56A46FDF729FF009808BDF8
:10B4C00008B56A46FDF716FF009808BDC20800F0EF
:10B4D00007030120895C98400840704710B5C208F6
:10B4E00000F00703885C01249C402043885410BD71
:10B4F00010B560B1C160172120F8021B20F8021BB3
:10B500001B2100F8021BFFF7B1FE002010BD0E202A
:10B5100010BD00002DE9FC4786880C46002E4AD15C
:10B52000018801270025102908D0112920D0DFF833
:10B53000EC903A2920D0552965D13EE0C07B04F13A
:10B540000608012802D12088A8F80000B8F80010E9
:10B55000B8F80200814256D93046A5DF10B1112853
:10B5600003D050E088F805704DE088F804704DE095
:10B57000A01DFFF77BFE46E02246408934F8061FF7
:10B58000814200D808466080172800D217206080CA
:10B59000D06870B1607960B1D9E90010CDE90010D0
:10B5A000ADF802606088ADF80400D36869461046C3
:10B5B000984765712571BDE8FC87C08804F10608CD
:10B5C000172800D21720B8F80010814200D808468A
:10B5D000A8F8020088F804502846B8F80010B5DF33
:10B5E00098F8050078B9E06868B1D9E90210CDE9AA
:10B5F0000010ADF80260B8F80200ADF80400E2688F
:10B60000204669469047A07A0028D4D02846E18891
:10B61000A5DF0028CFD1A572E772CCE7BCC6010038
:10B6200000F180400068002800D00120704708B574
:10B6300000F18040002101600068009008BD00001A
:10B6400070B50B4C207808B185250FE00020A06074
:10B6500060602061E060074800F022FA054600F0D3
:10B6600093F908B900F006FA01202070284670BD51
:10B67000841D00203DAE010038B500258DF8005036
:10B680006846FEF729FF074CE068401EE060E0686E
:10B6900010B900F013FAA5709DF80000FEF740FF06
:10B6A00038BD0000841D002070B541EA4201DDE98B
:10B6B00004564FF0A04441EA830141EA052104EB1E
:10B6C000800041EA0641C0F8001770BD4FF0A0426B
:10B6D00002EB8000D0F8002722F44032C0F80027A7
:10B6E000D0F8002742EA0141C0F8001770474FF038
:10B6F000A041D1F81015C14001F0010070470000D1
:10B7000018B5084B6C4601441B68009306E000BF67
:10B7100054F82030D3F81035401C08C28142F7D8C5
:10B7200018BD0000CCC60100034908B5084400213B
:10B7300001600068009008BD006000400249405868
:10B74000012800D00020704700600040064910B575
:10B7500000204870091D0860BFF35F8F034904484B
:10B7600000F036F9002010BDF01B002010C70100CA
:10B77000981E002010B500F007F908B141DF10BD98
:10B7800020BF40BF20BF10BD08B500224250405826
:10B79000009008BD024A1060101D01607047000053
:10B7A0002C760040030103481844C0F81425C0F863
:10B7B000101570470070004002494058002800D022
:10B7C0000120704700700040034908B5084400227A
:10B7D00002600068009008BD00700040024619B188
:10B7E00040205100884070478020FAE720B103498B
:10B7F00009680160002070470E20704794C701005F
:10B80000FEB502460C460846FFF7F0FF002835D18A
:10B81000002500950195012606208DF80020ADF841
:10B82000040002958DF8026069462020226869DFD5
:10B830000095019502958DF80160694640202268C7
:10B8400069DF00950A208DF8000001950295694690
:10B850000120226869DF4FF4B060009001950295E5
:10B860006946A120226869DF0095019502958DF84F
:10B8700000506946A020226869DF0020FEBD00005C
:10B8800060DF002802D1024A0121117070470000D8
:10B89000FB1B002030B5144891B00078002820D060
:10B8A0005FF03405ADF8405010A903A861DF30B156
:10B8B000052816D011B0BDE83040FEF7A3BD03AC9B
:10B8C0000A49684600F084F807E000BFD0E900218B
:10B8D00020469047684600F092F802980028E1D090
:10B8E000F4E711B030BD0000FB1B002098C7010039
:10B8F0007CB5194C207808B108207CBD0120A070CF
:10B90000002000F0B7FC112819D0002000F0CAFC7C
:10B9100012480026006801908DF800606846FEF726
:10B92000DBFD0F4901A810DF05000AD000202070C0
:10B930009DF80000FEF7F4FD2DB128467CBD0020E7
:10B940007CBD0120F3E7A670667000F031FD012098
:10B9500000F0A8FCF3E70000F81B00202CC7010052
:10B96000D5A301000EB50749684600F031F805E09F
:10B97000D0E900108847684600F041F80298002896
:10B98000F6D10EBD48C7010001480078704700009D
:10B99000F81B00201FB568464BDF30B1052814D0D6
:10B9A00004B0BDE81040FEF72DBD084901A800F025
:10B9B0000FF806E0D0E900210098904701A800F0B8
:10B9C0001EF803980028E6D0F4E71FBDB4C70100B5
:10B9D000016009684160AFF3008010B5D0E9002133
:10B9E0005368994201D1002104E0D1E90034A34217
:10B9F00002D01946816010BD08314160F0E78168CE
:10BA000000290BD0026892680A44826041684B6842
:10BA10009A4203D108314160FFF7DFBF704770B52C
:10BA20000D460646446804E0B2682946904718B1BE
:10BA3000246820680028F7D120682860256070BD40
:10BA400040680068704741680868002801D00268B3
:10BA50000A60704702460020526806E08B4203D11C
:10BA600008681060012070471A461368002BF5D152
:10BA70007047000008480068012110F0010F06D14E
:10BA80004FF0E020C02280F80024C0F800110349E4
:10BA9000012008607047000000E100E01805004048
:10BAA0000549024600200B790BB1852070470A60DA
:10BAB00001220A7170470000B01B002004490120D8
:10BAC000086004480168C1F300410029FAD17047B9
:10BAD0000C00004018040040002802D001498001F9
:10BAE00008477047D1C60100002802D001498001F3
:10BAF00008477047F1C601002DE9F0418846054628
:10BB000000F0BAFA234E002828461AD0FFF782F830
:10BB1000304490F848008009032802D001280ED054
:10BB200007E04FF0A040D0F81005E84010F0010FFA
:10BB300005D003212846BDE8F041FFF7C7BD02212B
:10BB4000F8E700F0A5FA002822D02846FFF762F8AF
:10BB500004464FF4807000EB84000F4F81B207EB76
:10BB60008400D0F8102542F00102C0F810250846E4
:10BB7000FFF7DAFDB8F1000F0AD02846FFF74AF8C0
:10BB800056F82000002803D00120A040C7F8040385
:10BB9000BDE8F081981D0020006000402DE9FC41C7
:10BBA000DFF8BC80044608EB0400002790F9300061
:10BBB0001346C0170E46401C01D008274CE0B07851
:10BBC0001946C0F340022046FFF700F80546401C26
:10BBD00041D0B078410719D4C0070AD04FF0A04037
:10BBE00000EB8401D1F8000720F00200C1F8000743
:10BBF00007E000217378204600910A460191FFF783
:10BC000053FD174920465431FFF768FCB078800790
:10BC100018D51448317800EB8500D0F81025124B68
:10BC20001A40C0F810254FF4F8524FF4403302EA9E
:10BC3000042203EA01410A43D0F810150A43C0F870
:10BC4000102509E008EB0500327810F8481F41EA9A
:10BC50008211017000E004273846BDE8FC81000035
:10BC6000981D002000600040FFE0FCFF70B5174DFC
:10BC700095F8580008B1082070BD0020411E2A1810
:10BC8000401CC0B282F830102028F8D3002420468F
:10BC9000FEF78EFF641CE4B20C2CF8D300240C4990
:10BCA000C0206C6581F8000401264020891FC1F87E
:10BCB00000014FF4BE70FFF737FD0649F007C1F8E9
:10BCC000040385F85860204670BD0000981D0020D0
:10BCD00006E000E0006000402DE9F041254C0646FA
:10BCE00012200D46C4F808032348017C022918D00D
:10BCF000027C01464FF4807891F82E10012A12D070
:10BD00000222C4F80423012707744660058100223B
:10BD1000C26021B3458390F82D103046FFF73AFDFD
:10BD200025E0122002E0C2682AB10220C4F8040310
:10BD30001120BDE8F081C660058361B947463846E9
:10BD4000FFF73AFD0028FAD03846FFF73DFD2946B7
:10BD50003046FFF71FFD0220C4F8040307E0294620
:10BD60003046FFF717FD4046FFF72EFD2760002005
:10BD7000DFE7000000700040F41D0020204A10B5ED
:10BD8000137C0BB1112010BD02EB40031C7F1CB9CA
:10BD900012F82D4F641C1470CA791A770A7A5A77F0
:10BDA0000A784B78302402F0030204EA03131A43A2
:10BDB0008B784FF4E06404EA03231A43CB784FF402
:10BDC000805404EA03331A430B794FF4E02404EA65
:10BDD00003431A434B794FF4801404EA03531A4384
:10BDE0008B79240104EA0363064C1A4304EB001325
:10BDF000C3F818250A7AC979FFF7D4FC002010BDD2
:10BE0000F41D00200070004070B505460E48017C0E
:10BE100009B1112070BD00EB45010A7F1AB110F87D
:10BE20002D2F521E027000240C774C77224621469B
:10BE30002846FFF7B7FC40F2FF72D143284600F0D6
:10BE40004FF8204670BD0000F41D00202DE9F041A0
:10BE50001F4C054694F82C0010B10820BDE8F08175
:10BE600044F8101B1B4928780860091D6878086091
:10BE7000E878A0770127277700202070607760603E
:10BE8000154EE0776FF00040C6F808034FF482705B
:10BE9000FFF79AFCB015FFF797FC4FF48A70FFF795
:10BEA00093FCA8780D49400181F800048020C91F47
:10BEB000C1F800010220C6F80403A07F10B10120E0
:10BEC000C6F804030348F03807600020C6E7000006
:10BED000F41D0020F07500400070004007E000E015
:10BEE0002DE9F04117460C460546C1EA07401A4EB7
:10BEF00006EB0511C1F81C0500212846FFF76EFC72
:10BF00002346012101EB4502144CC907D140626967
:10BF100013F5006F1BD00A436261C6F804030121C8
:10BF20002846FFF75BFC6A004FF00041D140A7F5BF
:10BF3000E0636269FF3B05D00A436261C6F804030F
:10BF4000BDE8F0818A436261C6F80803F8E78A43D6
:10BF50006261C6F80803E2E700700040F41D0020AB
:10BF6000084900200A7C012A01D00820704791F876
:10BF70002E30054A01210BB111607047024A121D93
:10BF8000FAE70000F41D00200070004070B517496A
:10BF90006FF00040C1F8080380214FF0E02201203B
:10BFA0000025C2F8801111490831086042F210746E
:10BFB0004FF48A763046FFF7FFFB20B90020FFF7E9
:10BFC0008BFD641EF6D10A4805600A4E35740024C4
:10BFD00006EB4400007F10B1E0B2FFF715FF641CD0
:10BFE000082CF5D386F82C5070BD0000007000407E
:10BFF00000750040F41D00202DE9F04105468C1D20
:10C00000C888698C0126174FDFF85C80884210D100
:10C01000608901280DD13E70207B1449421E082AF8
:10C0200001D2087005E00A781149B8F80000FDF760
:10C030005DFC2088698D884209D16089012806D17C
:10C040003E70207B0B49421E052A02D20870BDE8D3
:10C05000F0810A78B8F80000BDE8F0410449FDF726
:10C0600000BC0000301B0020FE1A0020E41A002053
:10C070000C1C0020E51A00200449084490F9300007
:10C08000082801DB0120704700207047981D002020
:10C090000449084490F93000082801D20120704773
:10C0A00000207047981D002070B50D00044602D195
:10C0B0000020FEF7A7F914B90020FEF7A3F92878AD
:10C0C000207069886170090AA170A988E170090A65
:10C0D0002171E8886071000AA07170BD10B5FFF78A
:10C0E00035FB002803D0BDE81040FEF78BB910BD2A
:10C0F00070B50546FEF7CFFF134C40B1D4E90402FA
:10C100004FF08071411842F10000C4E90410002191
:10C110002846FEF73FFF30B1606820B1606800F04C
:10C120009BF90020606001212846FEF733FF18B11B
:10C13000FFF744F8C4E90601284600F0B9F928469B
:10C14000BDE8704000F034B8C01B002070B5054653
:10C1500000200C460870FFF731F8D5E90223101AC9
:10C1600063EB010300263146361A994112DAB0F525
:10C17000350F03D3FEF752F90B4942184FF49603DB
:10C1800000210A48FEF793FF10B10D2806D009E000
:10C19000012070BD00210548FEF7F2FE284600F0A0
:10C1A0005BF92070002070BDFFFFB400C81B0020A9
:10C1B000F8B51A4C074600261948FFF741FCD0B1E4
:10C1C000616871B1D0E902106268D2E90232C91A1D
:10C1D000904120D26068007F18B161681048FFF775
:10C1E0001EFC00F011F905466946FFF7AFFF98B154
:10C1F000606840B10AE0606800280CD13846BDE8AC
:10C20000F840FEF750BF3846FEF749FF65609DF8DD
:10C2100000000028D0D1F8BD6660CDE7C01B00202B
:10C22000E0C6010038B50021012548B101280CD035
:10C23000032809D1FFF71EFCBDE83840FFF71CBA00
:10C240004FF0E020C0F8805138BD8DF800106846EE
:10C25000FEF742F9064C207808B9FFF7F1F9E068DB
:10C26000401CE060A5709DF80000FEF759F938BD4C
:10C27000841D00203EB5044609496846FFF7A8FB27
:10C2800008E000BFD0E900212046904730B1684661
:10C29000FFF7B5FB02980028F4D13EBD11203EBD4A
:10C2A00030C701003EB5044608496846FFF790FBD9
:10C2B00007E000BFD0E90021204690476846FFF71D
:10C2C0009EFB02980028F5D13EBD00003CC701004E
:10C2D00002498969002900D008477047EC1C0020FA
:10C2E0002DE9F0410746806A14468846C8B3002508
:10C2F00031E000BFB96A05EB450001EB8006B0886C
:10C30000801CFE2802D90C20BDE8F0812288401C48
:10C3100008F8020020881622401C80B2208008F80D
:10C3200000202088401C80B2208000EB080130886B
:10C3300000F016F92188084480B22080B28842B10A
:10C34000B16871B14044FDF74DF82088B1880844C8
:10C3500020806D1CEDB297F82C00A842CAD80020AE
:10C36000D2E7FFE70720CFE70A78062822F0FF028E
:10C370000A7010D2DFE800F0030507090B0D00205A
:10C3800008E0112006E0212004E0312002E0122024
:10C3900000E0222008707047002805D103490120E1
:10C3A00048700020FEF736BD70470000841D002055
:10C3B00010B51620FDF7FCFFA0B1114890F800045D
:10C3C0004009082811D20121814011F0EC0F0CD056
:10C3D0000C4882684FF480016AB1016841F4800121
:10C3E000016010BD42F2010001E042F20200BDE82E
:10C3F0001040FEF707B84FF0E020C0F8001110BD64
:10C4000016E000E08C1E00200148FFF71CBB000076
:10C41000E0C6010070B50C00054602D10020FDF712
:10C42000F1FF15B90020FDF7EDFF20782870208876
:10C43000000A68702068000CA8702068000EE87080
:10C4400020792871207A68712089000AA871A06873
:10C45000000CE87170BD000070B50446124800255C
:10C460000078F8B1F4B1207FE0B1FEF7A7FED4E97F
:10C470000223801A994110D32069002600B926773B
:10C48000D4E905108847206960B1217F51B1D4E912
:10C49000022110187141C4E9020121460348FFF747
:10C4A000BEFA0125284670BDC01B0020E0C6010071
:10C4B000F8B51B4C69462068FEF7C6FF0026012729
:10C4C000184D29E0017821B101290CD002291BD196
:10C4D00014E041680A7FBAB90F7741681048083004
:10C4E000FFF79DFA10E041686868814201D16E60F3
:10C4F0000AE00B480830FFF7ADFA05E0FFF784FFCC
:10C5000008B10677FAE72F7069462068FEF791FFB9
:10C5100069462068FEF798FF0028D3D1F8BD0000D7
:10C52000D8C60100C01B0020F8B50B4C0D460646CE
:10C5300069462068FEF772FF58B10670456069468B
:10C540002068FEF78CFF10B10448FEF793FD002031
:10C55000F8BD0420F8BD0000D8C60100C81B0020AB
:10C560000870000A4870022070470000F8B50546C0
:10C5700080B2FEF73DFE040013D0154E207A00274E
:10C58000317B88420ED2A8B204F10A0175DF28B1CE
:10C59000112806D0BDE8F840FFF79ABE207A401C6B
:10C5A0002072F8BD2772307C38B1A8B23B2176DF0B
:10C5B00018B1082801D0FFF78BFE71690029F0D06F
:10C5C0008DF80070ADF8025068468847F8BD00004D
:10C5D000EC1C00202DE9FC411646DDE90854CDE9AC
:10C5E00000541F468046022200F00CF8002807D1B4
:10C5F000CDE900543B4610223146404600F002F897
:10C60000BDE8FC812DE9FC5F0026DDE90C4B994675
:10C6100092468E4680462788354630E0D8F804009A
:10C62000002200EB850069460068019001A864DFE4
:10C63000002830D19DF8000050451FD10EB10021D7
:10C6400000E00221228808441118594522D846B931
:10C65000521C90B2208009F800E02088401C208005
:10C660000126218801A801EB0902694664DF002840
:10C6700011D120889DF80010084420806D1CB8F866
:10C680000000A842CADC56B12088C01B401E80B200
:10C69000FF2802D90C20BDE8FC9F09F80700002004
:10C6A000F9E7000034120000FB349B5F800000803B
:10C6B0000010000034120000981C0020770A0000CF
:10C6C00000000000770A0000000000000000005099
:10C6D0000338FDD870470000241E0020010006002A
:10C6E00000000000E01B002059AE01000000000027
:10C6F0000338FDD870470000000000000000000073
:10C700000000000000000000000000000000000029
:10C71000F8C6010010C7010004000000000000007E
:10C720000000000000000000000000000100000701
:10C730001CC701002CC701000800000054C70100FD
:10C7400064C701000800000064C7010074C701004D
:10C750000800000020C8010028C8010000000000F7
:10C760000000000010C8010020C801000000000007
:10C7700000000000E0C70100E8C70100E8C70100B1
:10C78000F8C70100F8C7010000C8010000C8010097
:10C7900008C80100E01A002074C7010094C7010016
:10C7A0000800000008C8010010C8010000000000D7
:10C7B00000000000A4C70100B4C701000800000089
:10C7C00028C80100E01A00201C01000090A301000D
:10C7D00044C90100FC1B0020AC0A0000A0A301001A
:10C7E000E9A901000000000015B50100FC1B0020B4
:10C7F000EDA8010000000000D7A601000C1C0020DD
:10C80000359A01000000000099C3010000000000FB
:10C8100095B801000000000095B90100000000007B
:10C8200025C20100000000000090D00303010100B8
:10C830000000000000000000000A5A646702A30222
:10C840003E03B603FF00FFFF581C00201F0000003E
:10C85000771C00201F00000000009105DD0900008A
:10C8600001000000000000000000000000030000C4
:10C8700000000000000000000000000000000000B8
:10C88000000000000000000000002602E803AA05E6
:10C890006C072E09F00AB20C001000000000000026
:10C8A0000000000000000000000000000000000088
:10C8B0000000000000000000000000000000000078
:10C8C0000000000000000000000000000000000068
:10C8D0000000000000000000000000000000000058
:10C8E0000000000000000000000000000000000048
:10C8F0000000000000000000000000000000000038
:10C900000000000000000000000000000000000027
:10C9100000100140110004000000000000000000B1
:10C920000000000000000000000000000000000007
:10C9300000000000000000000000000000000000F7
:04C9400000000000F3
:040000050001920163
:00000001FF
