:020000040001F9
:1090000058260020C1930100C9930100CB930100B1
:10901000CD930100CF930100D19301000000000027
:10902000000000000000000000000000D3930100D9
:10903000D593010000000000D7930100D9930100EF
:10904000C99B0100DB930100CDA00100DB9301006F
:10905000DB93010000000000659A0100299C0100DB
:10906000DB930100DB930100DB930100DB93010044
:10907000DB930100DB930100DB930100DB93010034
:10908000DB930100199C0100DB930100DB930100DD
:10909000DB930100DB930100219F0100DB930100C2
:1090A000DB930100DB9301000000000000000000E2
:1090B000DB930100DB9301000000000000000000D2
:1090C00000000000000000000000000000000000A0
:1090D0000000000000000000000000000000000090
:1090E0000000000000000000000000000000000080
:1090F0000000000000000000000000000000000070
:10910000000000000000000000000000000000005F
:10911000000000000000000000000000000000004F
:10912000000000000000000000000000000000003F
:10913000000000000000000000000000000000002F
:10914000000000000000000000000000000000001F
:10915000000000000000000000000000000000000F
:1091600000000000000000000000000000000000FF
:1091700000000000000000000000000000000000EF
:1091800000000000000000000000000000000000DF
:1091900000000000000000000000000000000000CF
:1091A00000000000000000000000000000000000BF
:1091B00000000000000000000000000000000000AF
:1091C000000000000000000000000000000000009F
:1091D000000000000000000000000000000000008F
:1091E000000000000000000000000000000000007F
:1091F000000000000000000000000000000000006F
:10920000DFF80CD000F01AF900480047FDAE01006D
:109210005826002030B450E8012F93B2C48923446B
:109220008489A34228BF1B1B0489A34202BFBFF34A
:109230002F8F002007E0C3EA020340E80134002C2E
:10924000E9D14FF001000A6030BC704750E8012FAF
:10925000C2EA024240E801210029F7D1704730B448
:1092600050E8022F1FFAA2F3C488A34202BFBFF343
:109270002F8F00200DE0C48923448489A34228BF96
:109280001B1BC2EA034340E80234002CE8D14FF034
:1092900001000A6030BC704750E8022FC2EA224247
:1092A00040E802210029F7D17047034653E8022F16
:1092B000D988B2EB324F4FF0000017BF92B241EAAB
:1092C000014142EA014104E05A68B2EB324F08BF63
:1092D000012043E80212002AE8D1704730B4044666
:1092E00054E8000F0D4644E80053002BF8D11560F8
:1092F00030BC704730B4044654E8000F40EA010522
:1093000044E80053002BF7D1156030BC704730B4EF
:10931000044654E8000F00EA010544E80053002B1E
:10932000F7D1156030BC704730B4044654E8000FE4
:1093300080EA010544E80053002BF7D1156030BCEA
:10934000704730B4044654E8000F00EB010544E8D0
:109350000053002BF7D1156030BC704730B4044681
:1093600054E8000FA0EB010544E80053002BF7D1AF
:10937000156030BC704770B404464FF0000054E8EC
:10938000006F0D68AE4207BF44E80023012044E8A7
:1093900000630E60002B1CBF0020F0E770BC70471C
:1093A00030B4044654E8000F88422CBF451A0546E5
:1093B00044E80053002BF5D1156030BC7047000025
:1093C0000648804706480047FEE7FEE7FEE7FEE75F
:1093D000FEE7FEE7FEE7FEE7FEE7FEE7259F01006A
:1093E0000192010040EA01039B0703D009E008C98C
:1093F000121F08C0042AFAD203E011F8013B00F85A
:10940000013B521EF9D27047D2B201E000F8012BA5
:10941000491EFBD270470022F6E710B513460A46F4
:1094200004461946FFF7F0FF204610BD421C10F815
:10943000011B0029FBD1801A70470000064C074D24
:1094400006E0E06840F0010394E807009847103414
:10945000AC42F6D3FFF7D8FED0C30100F0C3010041
:1094600010B504460078002813D10221606802F08C
:109470006BFA08B100F06AFE60684FF4167100885C
:1094800010FB01F04FF4904190FBF1F0014948606E
:10949000487010BDE41A002010B50B4A01210B489A
:1094A00000F066FE08B100F051FE084800224FF4BB
:1094B000C811006800F096FE002803D0BDE81040F7
:1094C00000F044BE10BD0000F994010094C20100F8
:1094D00010B502F093FB06490220C1F80803802171
:1094E0004FF0E0220020C2F880120249087010BD3F
:1094F00000700040E41A002003480078002801D1E1
:1095000000F004B870470000E41A002000B51B48C2
:1095100087B00EC88DE80E0005218DF8021007C82F
:1095200003AB83E8070015481549001F02F0C6FA8F
:1095300008B100F00BFE6946032002F057FA08B1AB
:1095400000F004FE03A9002002F050FA08B100F078
:10955000FDFD02210B4802F0F7F908B100F0F6FD1D
:1095600008480221001D02F0EFF908B100F0EEFDFD
:10957000044901200839087007B000BD9CC20100F1
:1095800061940100EC1A002010B5094C20780028E5
:109590000DD002F01DFB627807480649008800F0F4
:1095A0000DF800F022F8BDE81040FFF791BF10BDA4
:1095B000E41A0020CC1B0020F61A002007B586B064
:1095C000012200230093ADF810200193029303932E
:1095D0008DF80220498AADF8001008A9039104A96A
:1095E00002916946AEDF09B000BD00280BD0A0F59E
:1095F0004051023907D0082805D043F20141884282
:1096000001D000F0A3BD704730B53E4B04468DB08D
:109610000FCB08AD85E80F0004F11A0108A862DF3E
:1096200000286DD1A07E8DF8320041F23420ADF8D3
:10963000300022460CA90120A8DF002860D120219B
:109640006846FFF7E8FE41F23620ADF80000A07E44
:109650008DF8020001259DF80D00ADF8065040F090
:1096600012008DF81150ADF804508DF80D008DF8F2
:109670001350208804F10A02694601F055F90028C8
:109680003ED120216846FFF7C6FE41F23520ADF8F5
:109690000000A07E8DF802009DF80D00ADF8065088
:1096A00040F012008DF81150ADF804508DF80D0007
:1096B0008DF813502088A21C694601F035F9002866
:1096C0001ED120216846FFF7A6FE41F23820ADF8F2
:1096D0000000A07E8DF802009DF80D00ADF8065048
:1096E00040F012008DF81150ADF804508DF80D00C7
:1096F0008DF81350208804F11202694601F014F924
:109700000DB030BDB8C2010007B586B001220023FC
:109710000093ADF810200193029303938DF802207B
:109720004988ADF8001008A9039104A9029169467F
:10973000AEDF09B000BD07B586B00122002300935B
:10974000ADF810200193029303938DF8022049890C
:10975000ADF8001008A9039104A902916946AEDF93
:1097600009B000BD30B52449A5B009682491807EB8
:109770008DF892003C216846FFF74DFE02208DF8DF
:10978000000001248DF8024006208DF803003C21E2
:109790000FA8FFF740FE24A8184D1490ADF84C40D8
:1097A0002A1D6846296800F079FD08B100F0CEFC5A
:1097B000124A0FA80C32A96800F070FD08B100F041
:1097C000C5FC18211EA8FFF726FE00208DF88D404D
:1097D0008DF87840ADF884001F908DF88C004FF420
:1097E000C860064920901EAA081F72DF002801D019
:1097F00000F0ACFC25B030BDB4C20100F81A002066
:1098000004480121007873DF002801D000F09EBCDD
:1098100070470000F41A002000F098BC00B587B033
:109820001C216846FFF7F7FD00204FF4A021CDE989
:1098300000018910029103218DF80C10ADF80E0083
:109840008DF810000648059006480690684600F01E
:10985000E7FD002801D000F079FC07B000BD000052
:10986000A59901001998010038B52B4C018865882D
:10987000212938D00BDC102913D011292CD0132921
:109880003AD100231A46852128467FDF3AE03B295A
:109890003ED0522931D056292ED18088132176DF2F
:1098A00030E01E49808860800A781D49FFF786FEF7
:1098B000FFF79BFE1B48027819496088FFF73BFFC2
:1098C000FFF793FE1848027815496088FFF71CFFE0
:1098D000BDE83840FFF789BE4FF6FF706080BDE8F5
:1098E0003840FFF78DBF00210091808869468FDFE7
:1098F000002801D000F02AFC38BD00231A46194682
:109900002846B1DF0028F7D0BDE8384000F01EBC83
:109910008088132176DFF5E7F41A0020E51A00208D
:10992000CC1B0020091B00200D1B00200EB513A12D
:109930009DF8080020F00F00401C20F0F0001030CF
:109940008DF808000E2202A87CDF08B100F0FEFBB3
:1099500000204FF4C87100900190ADF80400ADF8FC
:1099600000104A00ADF80220ADF8061068467ADF14
:10997000002801D000F0EAFB0EBD00004D4B502046
:109980005049522053656E736F72000010B500216C
:1099900001F0E6FB002803D0BDE8104000F0D6BB84
:1099A00010BD00000078002807D104483B21408802
:1099B00076DF002801D000F0C9BB7047F41A002000
:1099C00000B591B0FFF720FE08B100F0BFFB4021C9
:1099D0006846FFF720FD0CA1684600F02DFF0DA1A1
:1099E00002A800F029FF0FA104A800F025FF012024
:1099F0008DF83C00684600F077FD002801D000F0AB
:109A0000A5FB11B000BD00004D616B69686F6D650D
:109A1000000000004D4B505F5049525F30303031F4
:109A2000000000005049525F30303030303030316B
:109A30000000000008B501F093FD08B100F086FBBE
:109A4000002000906946012001F012FD08B100F0ED
:109A50007DFB684601F04CFD002801D000F076FB4C
:109A600008BD00002DE9F04700268AB0DFF85091CC
:109A7000B0464FF48075012437460696284601F01B
:109A800095FC38B1D9F80403204203D0284601F0F0
:109A900083FC26432D1D64007F1CADB2082FEDD33F
:109AA0004FF4BE74204601F081FC48B1204601F01D
:109AB00073FC46F0004606AA0121002001F058FC84
:109AC000404D16F0FF0F15D00127002437420DD06E
:109AD00009EB8401D1F81005D1F81015C0F304206A
:109AE00055F82420C1F3014102B190477F00641C66
:109AF000082CEBD3002E5FDA4FF0FF30CDF810804A
:109B000054E0281910F8507F90F9000027F0C008A1
:109B1000401C3BD007A9404601F010FB10B34FEAB0
:109B20009719404600F0C8FE55F820701FB1B9F1F2
:109B3000030F03D006E0B9F1030F27D104A9404673
:109B400001F004FB4FF0A04101EB8800D0F80007C2
:109B500006A9C0F3014A404601F0F0FA18B1BAF183
:109B6000020F03D012E0BAF1030F0FD1B9F1030FC6
:109B700008D1BAF1020F1DD00221404601F0DEFBF0
:109B8000761CF6B217B149464046B847641C042C0F
:109B9000B7D3002E10D06A460121002001F0E8FB67
:109BA00006990098884207D006900498002634460B
:109BB0000790A6E70321E0E70AB0BDE8F0870000C0
:109BC00000600040481D002070B54FF4807630469C
:109BD00001F05EFB0F4DB40540B1304601F05FFB74
:109BE0000120C4F808032968002088474FF48276D2
:109BF000304601F04DFB00280AD0304601F04FFB03
:109C00000220C4F808032968BDE870400120084715
:109C100070BD00006C1B002002490248091F096842
:109C200000680847A81B00202DE9FE434FF4827806
:109C3000404601F0F9FB4C4F00254C4C012600B387
:109C4000404601F0F9FB94F82E0010B194F82F1063
:109C5000D1B18DF80050616801912189ADF80810EB
:109C6000E26832B1218B618362602181E56010B1CD
:109C700002E0257400E03E6021686846884784F869
:109C80002F5094F82E0060B34FF48077384601F0DF
:109C9000CBFB30B3384601F0CFFB628B94F82D102C
:109CA0008A420AD9A2EB010080B260832289A2EB2A
:109CB0000000626802EB400005E007D1E06828B1CF
:109CC00084F82F60658301F09DFB04E08A4202D195
:109CD00084F82F606583404601F0AEFB2248001DEA
:109CE00006604FF48877384601F09EFB48B138464D
:109CF00001F0A2FB257402208DF80000216868465F
:109D000088474FF48A77384601F08EFB28B13846F1
:109D100001F092FB2574BDE8FE834FF000484FF43C
:109D20008C7967691DE000BFB7FA87F028FA00F167
:109D300009EB80058F43284601F076FB88B1284661
:109D400001F07AFBA5F58C75E8088DF8040045F361
:109D50008000401C8DF800608DF805002168684681
:109D60008847002FE0D1D6E700700040A41D0020F6
:109D700010B50B4A01210B4800F0FAF908B100F0C8
:109D8000E5F90848002240F26661006800F02AFA0E
:109D9000002803D0BDE8104000F0D8B910BD000085
:109DA0000D9F0100C8C2010010B501F097FD00F041
:109DB00025F800F03BF8BDE8104000F051B8000075
:109DC00010B5192001F0CBFA18B1002002494871F2
:109DD00010BD0120FAE70000081B002070B5064CFA
:109DE00001251920257001F0BAFA10B10020607128
:109DF00070BD657170BD0000081B002008B5032010
:109E00008DF801008DF800009DF80200064A20F050
:109E100003008DF802006946192001F0F7FC0121CA
:109E2000192001F0A1FC08BDDD9D010008B501204D
:109E30008DF8010003208DF800009DF80200074A0C
:109E400020F003008DF802006946092001F0DEFCD5
:109E50000121092001F088FC08BD0000959E010049
:109E600008B501208DF8010003208DF800009DF851
:109E70000200074A20F003008DF8020069460A201C
:109E800001F0C4FC01210A2001F06EFC08BD0000B5
:109E9000AD9E010010B5092001F061FA024900B140
:109EA0000120C87010BD0000081B002010B50A205A
:109EB00001F055FA024900B10120C87010BD000040
:109EC000081B002010B50E4C00212046A268C07867
:109ED000642A02D910B9617003E010B101206070EA
:109EE000A16020796178884207D0627806480549E8
:109EF0000088FFF720FCFFF778FB6078207110BD29
:109F0000081B0020CC1B0020F61A002003488168A3
:109F1000491C8160C168491CC1607047081B002052
:109F200001F058BB70B54FF08051D1F84422D1F800
:109F300030015A4BC2F342321A6000238A00C2F841
:109F40000C31C2F81031554A121F1360544A12687E
:109F5000544C2260524A121D1268241D2260504A3D
:109F600008321268241D22604D4A0C321268241DEA
:109F700022604B4A10321268241D2260484A143273
:109F80001268241D2260464A18321268454C20345B
:109F90002260434A1C321268241D2260404A20324B
:109FA0001268241D22603E4A24321268241D226059
:109FB0003B4A28321268241D2260394A2C3212682A
:109FC000241D2260364A30321268364C40342260FA
:109FD000334A34321268241D2260314A3832126802
:109FE000241D22602E4A3C321268241D22602C4A15
:109FF00040321268241D226001242B4A082802D115
:10A00000D1F8345115B1082804D00CE0274EFB25B7
:10A01000356002E0D1F834512DB991F858521168E9
:10A0200065F30301116022490D68ED0702D06FF05E
:10A0300001050D60106840F00F0010604FF0102116
:10A04000D1F80002002803DBD1F80402002821DA4D
:10A05000184A146018480468002CFCD01224C1F877
:10A0600000420568002DFCD0C1F8044201680029B7
:10A07000FCD0136001680029FCD0BFF34F8F0F485C
:10A0800001680F4A01F4E06111430160BFF34F8F93
:10A0900000BFFDE70C490B48086070BD3C0500405F
:10A0A0000404001020C50040E40E004018F50040F4
:10A0B0000004004004E5014000E401400CED00E034
:10A0C0000400FA050090D003E01A0020014800685F
:10A0D00000470000741B002002E008C8121F08C1DE
:10A0E000002AFAD170477047002001E001C1121F19
:10A0F000002AFBD1704700000121202803DA8140AB
:10A100000548014003E0402802DA2038814009B1C7
:10A110000120704700207047FC06FFBD72B6094859
:10A120000068C00700D000BEBFF34F8F0548E43879
:10A130000168054A01F4E06111430160BFF34F8FEC
:10A1400000BFFDE7F0ED00E00400FA050EB50021C8
:10A150000091CDE901106A4644F20100FFF7DEFFED
:10A160000EBD0000014800F096BD0000881B0020D5
:10A170003AB100680129426100D00021016100204C
:10A18000704707207047000038B51148082358224F
:10A19000416800910F49006800F065FF002815D163
:10A1A0000D4A69460D4800F07BFD04000ED10121E7
:10A1B0000A4800F0BEFD0123094A1946074800F08D
:10A1C00042FD0649012008390870204638BD0000CC
:10A1D000E8C20100E41D0020E1BC0100881B002052
:10A1E000FFFF7F0070B50446007F0D4608B10020D8
:10A1F00070BDA26100F034FE401941F10001C4E9D4
:10A200000201206900B125612146BDE870400020AF
:10A2100001F082BF014600200877012001F07CBFD9
:10A2200030B5EFF3108172B60D4A9468012324B162
:10A230000370002900D162B630BD93604FF0E02377
:10A24000D3F88051074C25401560C3F88041D3F8FE
:10A25000844154605A17C3F8842100220270E8E751
:10A260003C1E0020FC06FFBD0B498A68002A11D065
:10A2700000280FD1EFF3108072B60B684FF0E02288
:10A28000C2F800314B68C2F8043100228A6000280D
:10A2900000D162B6704700003C1E00202DE9FC474B
:10A2A000002517880646158090F82D00144689462B
:10A2B00030B13A462146484600F0E6F8051E09D17D
:10A2C000B0784FF00C0A18B32088C846001DB84279
:10A2D00002D95046BDE8FC87684679DF0028F9D1ED
:10A2E0002088032108F8001020881921401C80B222
:10A2F000208008F800102088401C80B2208000EBED
:10A300000801BDF8000001F023FF218808442080E7
:10A31000F0780222C8B1218896F9033001F1030CCC
:10A320004846BC45D5D8425421884FF0010C491C01
:10A3300089B2218000F801C02188491C89B221809E
:10A3400009F801302088401C20807068B8B121884D
:10A3500090F9003001F1030C4846BC45B9D842548D
:10A3600021880A22491C89B2218042542188491C33
:10A3700089B2218009F801302088401C2080308972
:10A3800050B1CDE900474B460622022106F10800F4
:10A3900001F018FF051E9DD1308A50B1CDE900476C
:10A3A0004B460722032106F1100001F00BFF051EAA
:10A3B00090D1308B50B1CDE900474B461522142186
:10A3C00006F1180001F0FEFE051E83D1306A30B19F
:10A3D0003B462246494600F0BCFB051EDBD1706AB5
:10A3E00030B13B462246494600F0B8FD051ED2D1A9
:10A3F00096F82C0038B13B4622464946304601F0DB
:10A4000067FD051EC7D1307838B13B462246494624
:10A41000304600F0D5FD051EBDD128465AE70000A4
:10A4200070B5040012D001461C221448FEF7DAFF72
:10A430001248134D0560206850B17ADF002806D11C
:10A440002068016829604068686005E00E2070BDE2
:10A450000B487BDF0028FAD108484FF6FF7114380B
:10A46000084A20F8041B0549343901600021FFF730
:10A470007FFE0028EBD0032070BD00009C1C002054
:10A48000181B00205DC101007CB5054608880C46FC
:10A490000930904201D90C207CBD68466DDF002850
:10A4A000FAD121880820685420881B21401C80B2E2
:10A4B000208029542088401C80B220802844DDF868
:10A4C00001100160BDF8051081802088801D80B2D8
:10A4D00020809DF80010490800D0012129542088CF
:10A4E000401C208000207CBD1FB5044601208DF853
:10A4F000060041F60A00ADF80400494A01A901200E
:10A50000A8DF00287DD122885AB14548801C0090E0
:10A5100094F83C3042F62920616800F0D5F9002813
:10A520007BD122895AB13E480A30009094F83C30E1
:10A5300042F62420E16800F0C7F900286DD1228A94
:10A540005AB137481230009094F83C3042F625203A
:10A55000616900F0B9F900285FD1228B5AB1304807
:10A560001A30009094F83C3042F62720E16900F060
:10A57000ABF9002851D1228C5AB1294822300090E1
:10A5800094F83C3042F62620616A00F09DF90028DC
:10A5900043D1228D5AB122482A30009094F83C30A1
:10A5A00042F62820E16A00F08FF9002835D1216BAE
:10A5B00079B102A801F026FD194808223230009036
:10A5C00094F83C3002A942F6232000F07DF90028DF
:10A5D00023D1606B60B112493A3100910279016870
:10A5E00094F83C3042F62A2000F06EF9002814D18D
:10A5F000A16B89B102A801F04FFB094842300090DD
:10A6000000E00AE094F83C30072202A942F650200C
:10A6100000F05AF9002800D1002004B010BD00005D
:10A62000201B00202DE9F04701883B4E40F2F31932
:10A630004FF6FF7510291BD011293ED0122954D096
:10A64000502946D1C188F289841D914241D1618946
:10A6500002293ED18688304600F01CFC050038D027
:10A6600004F10C0000F0F1F8A8B3294630464EE0A2
:10A67000C17B8788044601292BD1A846284600F0D3
:10A6800009FC050017D02F8000202872234843467C
:10A690004A460168C5F80A104068C5F80E0004F182
:10A6A000100105F10A0000F0FFFB6872F089002834
:10A6B0000FD129462AE0042013E0808800F0EAFB4D
:10A6C000040006D06068FFF7A5FD08B101F0F8FBB3
:10A6D0002580BDE8F087FFE76868FFF79BFD00284D
:10A6E000F7D0BDE8F04701F0EBBB87880646384657
:10A6F00000F0D0FB0400ECD02B464A4606F10801DE
:10A7000004F10A0000F0D0FB607221463846BDE833
:10A71000F04700F063BA00009C1C0020181B0020CA
:10A720002DE9F04F044686880188424897B0834659
:10A7300010290CD0112950D0103019296AD01A29AB
:10A7400074D1217A0C09042C4DD301224CE0394DEF
:10A75000083DA868C0430B9069680BA800F0E2FCB4
:10A760000B990CA800F0D6F92C220CA96846FEF72C
:10A7700039FE0027E946A84610E000BF09EB470074
:10A780005FF00005B0F804A008EB85005146001DFD
:10A7900000F0A8FC6D1C1E2DF6D37F1C0098B8425B
:10A7A000ECD8142E05D317B00420BDE8F04FFFF706
:10A7B000CDBC3146584600F0ABFC314608F10400F0
:10A7C00000F0A6FCE07B012830D017B03146BDE890
:10A7D000F04F1848001D00F09BBC17B03146BDE893
:10A7E000F04F00F07FBC0022314600F034FB032C18
:10A7F00001D3012200E000220E4831460C3000F067
:10A800002AFB022C01D3012200E000220948314634
:10A81000083006E0217A002908D1617AC1F3C0022C
:10A82000314617B0BDE8F04F00F015BB17B0BDE8DA
:10A83000F08F0000C01C002070B504460D4608468D
:10A84000FEF7F4FD2080656070BD007800F0010027
:10A850007047000005494FF0FF32082841F82020DA
:10A8600002D3084480F8482070470000481D0020AB
:10A87000F0B54FF0FF3512B10023082601E00823A0
:10A880000C260C4C05E000BF54F823707F1C04D04C
:10A890005B1CB342F8D32846F0BD26185DB286F89B
:10A8A000305044F82310002AF5D1E11881F848000F
:10A8B000F1E70000481D00200249084490F93000EB
:10A8C00070470000481D00202DE9F04188B01E4669
:10A8D000DDF8388014460D00074602D10020FFF74E
:10A8E00035FC14B90020FFF731FC20216846FEF743
:10A8F00092FD9DF80D00ADF8044040F002008DF887
:10A900000D000848ADF80070ADF8064002958DF8CE
:10A91000116042466946008800F006F808B0BDE8BC
:10A92000F0810000201B00202DE9F043814688784B
:10A9300091B090460C4600B901208DF83E00208869
:10A94000ADF83C0000250095607C694601F004FBF1
:10A950006E46A07C711C01F0FFFAE07B00289DF898
:10A96000020002D040F0080001E020F008008DF85D
:10A970000200217C11B140F0100001E020F0100035
:10A980008DF80200217B11B140F0010001E020F0C0
:10A9900001008DF80200217D09B1022100E00121B2
:10A9A00061F342008DF802001C2102A8FEF733FD7E
:10A9B000607BC10601D4800617D50E950EAFE07CF2
:10A9C000791C01F0C9FA9DF83800079720F00F00B4
:10A9D000401C20F0F00010308DF838009DF83A004F
:10A9E00020F00600801C8DF83A00607B8DF808008E
:10A9F000A07B8DF80900142109A8FEF70CFD0FA813
:10AA0000CDE90906A088ADF83000A06820B1E08843
:10AA1000ADF82C00A0680D90A06998B3019500884E
:10AA2000ADF81000A06901AD01A94088ADF8120091
:10AA3000A069406806950390A069007B01F08CFA3C
:10AA4000A069691C407B01F087FAA069807A002820
:10AA50009DF8060002D040F0080001E020F0080058
:10AA60008DF80600A169C97A11B140F0100001E02B
:10AA700020F010008DF80600A169097A19B140F0A4
:10AA8000010002E00DE020F001008DF80600A16950
:10AA9000897B09B1022100E0012161F342008DF8B8
:10AAA0000600E06900B10590434609AA02A948469C
:10AAB000AADF11B0BDE8F08370B5084C050009D0DD
:10AAC00010342168002907D00868206049682846AA
:10AAD0008847F6E70834F4E770BD0000341D002015
:10AAE000054A012120B1012805D19170FFF7E4BF8B
:10AAF00051700020FAE77047341D002010B5D0E9EE
:10AB00000234D1E90220D11AA04101D3012010BDA5
:10AB1000002010BD73B58CB00646002000900D9843
:10AB200080B100246D4621460DA800F0E6FA30B150
:10AB3000009805EB400084800098401C0090641C45
:10AB4000142CF0D32C2269463046FEF74BFC0EB095
:10AB500070BD2DE9F04117880646B81D14460D4614
:10AB6000984202D90C20BDE8F081318807220629DD
:10AB70000AD34FF4486C4FF6FF73614501D99942EF
:10AB800002D17088062801D21046ECE7604501D951
:10AB90009842F9D1994203D0984201D08142F3D82A
:10ABA0000520E85520881221401C80B220802954BD
:10ABB0002088401C80B220804119308801F0C8FAFA
:10ABC0002188084480B220804119708801F0C0FAC1
:10ABD0002188084420800020C5E7000038B54A7A63
:10ABE0000F4B62B100220A725969002906D0012276
:10ABF0008DF80020ADF802006846884738BD0A7A13
:10AC000062B19B684C68024619462046FFF7EAFA93
:10AC10000028F3D0BDE8384001F052B95B68F1E795
:10AC20009C1C00204FF480328A400168C1F8482300
:10AC30000068C0F8082370474FF4A07202EB81014E
:10AC400089B200F0FEB82DE9F04105460E464FF4FA
:10AC5000A07000EB860081B228684FF48034B440C5
:10AC6000984622F07F47C0F808432868C0F8484358
:10AC7000286800F0C1FB286800EB8600C0F840752A
:10AC80002868C0F84443B8F1000F02D02868C0F823
:10AC90000443BDE8F0810068D0F804057047000067
:10ACA00010B543791B4C44F823204279231D03EB54
:10ACB000C20212790AB1082010BD02680C88C2F8DD
:10ACC000084590F904208978002A4FEA411106DAF4
:10ACD00002F00F0202F1E02282F8141D03E002F1FB
:10ACE000E02282F8001490F90410012201F01F0400
:10ACF00002FA04F44909890001F1E021C1F8004198
:10AD0000417903EBC1010A71417943F83100002018
:10AD100010BD0000A41B002090F90400012100F0E8
:10AD20001F0291404009800000F1E020C0F80012AD
:10AD300070470A46022100F07BB84FF4827100F0A0
:10AD400080B80068012101607047006801214160FE
:10AD500070472DE9F05F07460C464FF4A07000EBFA
:10AD600084001FFA80FA38684FF48036A6409B466C
:10AD700022F07F45C0F848633868C0F80863386837
:10AD8000D0F8048500EB8402D2F84095C2F84085E3
:10AD90005146386800F030FBA9EB080020F07F40F6
:10ADA000012806D1102000F0D7FC5146386800F089
:10ADB00023FB3868D0F80485C0F84463A5EB08018C
:10ADC00021F07F413868012900EB840010D0C0F8E1
:10ADD00040553868D0F804156FF07F4C6A1A521E3F
:10ADE00022F07F42ACEB0B03934217D362B118E021
:10ADF0006D1CC0F84055102000F0AEFC3868D0F84B
:10AE0000040540450AD10CE000EB84006D1CC0F83D
:10AE100040553868D0F80405884202D00D20BDE8BE
:10AE2000F09F01223146384600F002F80020F6E794
:10AE30000368C3F84413002A02D00068C0F8041362
:10AE4000704710B5006842581AB100F0D5FA0120D9
:10AE500010BD002010BD0AB100F05AB900F042B98F
:10AE600010B50B48FFF717FF094A083AD2E9043436
:10AE7000C018D2E9063244F10001C31A71EB020294
:10AE800004D24FF08072801841F1000110BD000023
:10AE9000881B00200146034802888A4200D0002017
:10AEA00070470000881C0020F0B58488A5189442E3
:10AEB00000D82246A41AC288D6189A4200D813464F
:10AEC000D21A4B880788BB420CD34088834209D8EA
:10AED0008888A04206D3A84204D8C888904201D3EB
:10AEE000B04201D90020F0BD0120F0BD1721018042
:10AEF000418000210171417170470000FFF744F962
:10AF000008B1FFF723F9FEF7C7FAFEF731FF00F0AB
:10AF1000DDFEFEF749FFFEF753FFFEF7F7FAFEF7F7
:10AF200089FDFEF703FD0C48FEF730FD0A4810309E
:10AF3000FEF746FD08481030FEF714FCFEF76EFCE5
:10AF4000FEF75EFC00F044FEFEF7BCFFFEF71CFBC4
:10AF500000F048FAF8E70000BC1B002070B514466A
:10AF600082880E4605462088111D0144921C994294
:10AF700001D8FE2A01D90C2070BD521C3254208801
:10AF8000FF21401C80B2208031542088401C80B2B8
:10AF900020808119288801F0DBF82188084480B2DC
:10AFA0002080AA8842B1A96841B13044FEF71AFA5C
:10AFB0002088A98808442080002070BD072070BD2B
:10AFC000F8B50F46017814460546012901D1687885
:10AFD00030B12088821C9A4232D8012902D006E082
:10AFE0000720F8BD69780144891C994228D8181AAD
:10AFF000801E86B2ADF800602188B81C08446946FE
:10B000007DDF0028EDD12978022904D06878BDF8C9
:10B010000020904205D3BDF80000B04201D80920BD
:10B020000AE00820012905D16978B14202D8ADF8BB
:10B03000001001E0ADF80060BDF80010FE2901D954
:10B040000C20F8BD2288491CB9542188491C89B2BA
:10B05000218078542088401C2080BDF800100844CE
:10B0600020800020F8BD10B531B1B2FBF3F403FB32
:10B0700014241CB1092010BD0E2010BD0160002158
:10B08000416081608281C381084610BD70B50C4665
:10B090000546FEF7BFF8002802D02188286808443A
:10B0A00070BD10B50A8849888A4203D1FEF7F4F8CA
:10B0B000012010BD002010BD70B50C460546FEF7FE
:10B0C000CEF8002802D061882868084470BD10B509
:10B0D0000A8849888A4203D1FEF7B8F8012010BDDA
:10B0E000002010BD01F01F0301229A40D2434909FC
:10B0F00000EB8100114600F015B84A0950F8220013
:10B1000001F01F0201219140084000D0012070474A
:10B1100001F01F0301229A40490900EB810011460A
:10B1200000F006B808B56A46FEF7F1F8009808BDC9
:10B1300008B56A46FEF7DEF8009808BDC20800F0C0
:10B1400007030120895C98400840704710B5C20889
:10B1500000F00703885C01249C402043885410BD04
:10B1600010B560B1C160172120F8021B20F8021B46
:10B170001B2100F8021BFFF7B9FE002010BD0E20B6
:10B1800010BD00002DE9FC4786880C46002E4AD1F0
:10B19000018801270025102908D0112920D0DFF8C7
:10B1A000EC903A2920D0552965D13EE0C07B04F1CE
:10B1B0000608012802D12088A8F80000B8F800107D
:10B1C000B8F80200814256D93046A5DF10B11128E7
:10B1D00003D050E088F805704DE088F804704DE029
:10B1E000A01DFFF783FE46E02246408934F8061F83
:10B1F000814200D808466080172800D2172060805E
:10B20000D06870B1607960B1D9E90010CDE9001063
:10B21000ADF802606088ADF80400D3686946104656
:10B22000984765712571BDE8FC87C08804F1060860
:10B23000172800D21720B8F80010814200D808461D
:10B24000A8F8020088F804502846B8F80010B5DFC6
:10B2500098F8050078B9E06868B1D9E90210CDE93D
:10B260000010ADF80260B8F80200ADF80400E26822
:10B27000204669469047A07A0028D4D02846E18825
:10B28000A5DF0028CFD1A572E772CCE7CCC20100C0
:10B2900000F180400068002800D00120704708B508
:10B2A00000F18040002101600068009008BD0000AE
:10B2B00070B50B4C207808B185250FE00020A06008
:10B2C00060602061E060074800F022FA054600F067
:10B2D00093F908B900F006FA01202070284670BDE5
:10B2E000341D0020E1AA010038B500258DF800507A
:10B2F0006846FEF795FF074CE068401EE060E06896
:10B3000010B900F013FAA5709DF80000FEF7ACFF2D
:10B3100038BD0000341D002070B541EA4201DDE96E
:10B3200004564FF0A04441EA830141EA052104EBB1
:10B33000800041EA0641C0F8001770BD4FF0A042FE
:10B3400002EB8000D0F8002722F44032C0F800273A
:10B35000D0F8002742EA0141C0F8001770474FF0CB
:10B36000A041D1F81015C14001F001007047000064
:10B3700018B5084B6C4601441B68009306E000BFFB
:10B3800054F82030D3F81035401C08C28142F7D859
:10B3900018BD0000DCC20100034908B508440021C3
:10B3A00001600068009008BD0060004002494058FC
:10B3B000012800D00020704700600040064910B509
:10B3C00000204870091D0860BFF35F8F03490448DF
:10B3D00000F036F9002010BDB01B002020C3010092
:10B3E000481E002010B500F007F908B141DF10BD7C
:10B3F00020BF40BF20BF10BD08B5002242504058BA
:10B40000009008BD024A1060101D016070470000E6
:10B410002C760040030103481844C0F81425C0F8F6
:10B42000101570470070004002494058002800D0B5
:10B430000120704700700040034908B5084400220D
:10B4400002600068009008BD00700040024619B11B
:10B4500040205100884070478020FAE720B103491E
:10B4600009680160002070470E207047A4C30100E6
:10B47000FEB502460C460846FFF7F0FF002835D11E
:10B48000002500950195012606208DF80020ADF8D5
:10B49000040002958DF8026069462020226869DF69
:10B4A0000095019502958DF801606946402022685B
:10B4B00069DF00950A208DF8000001950295694624
:10B4C0000120226869DF4FF4B06000900195029579
:10B4D0006946A120226869DF0095019502958DF8E3
:10B4E00000506946A020226869DF0020FEBD0000F0
:10B4F00060DF002802D1024A01211170704700006C
:10B50000BB1B002030B5144891B00078002820D033
:10B510005FF03405ADF8405010A903A861DF30B1E9
:10B52000052816D011B0BDE83040FEF70FBE03ACC1
:10B530000A49684600F084F807E000BFD0E900211E
:10B5400020469047684600F092F802980028E1D023
:10B55000F4E711B030BD0000BB1B0020A8C3010000
:10B560007CB5194C207808B108207CBD0120A07062
:10B57000002000F077FC112819D0002000F08AFC90
:10B5800012480026006801908DF800606846FEF7BA
:10B5900047FE0F4901A810DF05000AD000202070E7
:10B5A0009DF80000FEF760FE2DB128467CBD00200E
:10B5B0007CBD0120F3E7A670667000F0F1FC01206D
:10B5C00000F068FCF3E70000B81B00203CC301005A
:10B5D0001DA101000EB50749684600F031F805E0ED
:10B5E000D0E900108847684600F041F8029800282A
:10B5F000F6D10EBD58C30100014800787047000025
:10B60000B81B00201FB568464BDF30B1052814D0A9
:10B6100004B0BDE81040FEF799BD084901A800F04C
:10B620000FF806E0D0E900210098904701A800F04B
:10B630001EF803980028E6D0F4E71FBDC4C301003C
:10B64000016009684160AFF3008010B5D0E90021C6
:10B650005368994201D1002104E0D1E90034A342AA
:10B6600002D01946816010BD08314160F0E7816861
:10B6700000290BD0026892680A44826041684B68D6
:10B680009A4203D108314160FFF7DFBF704770B5C0
:10B690000D460646446804E0B2682946904718B152
:10B6A000246820680028F7D120682860256070BDD4
:10B6B00040680068704741680868002801D0026847
:10B6C0000A60704702460020526806E08B4203D1B0
:10B6D00008681060012070471A461368002BF5D1E6
:10B6E0007047000008480068012110F0010F06D1E2
:10B6F0004FF0E020C02280F80024C0F80011034978
:10B70000012008607047000000E100E018050040DB
:10B710000549024600200B790BB1852070470A606D
:10B7200001220A71704700006C1B002004490120AF
:10B73000086004480168C1F300410029FAD170474C
:10B740000C00004018040040002802D0014980018C
:10B7500008477047E1C20100002802D0014980017A
:10B760000847704701C301002DE9F04188460546AE
:10B7700000F07AFA234E002828461AD0FFF79CF8EA
:10B78000304490F848008009032802D001280ED0E8
:10B7900007E04FF0A040D0F81005E84010F0010F8E
:10B7A00005D003212846BDE8F041FFF7C7BD0221BF
:10B7B000F8E700F065FA002822D02846FFF77CF869
:10B7C00004464FF4807000EB84000F4F81B207EB0A
:10B7D0008400D0F8102542F00102C0F81025084678
:10B7E000FFF7DAFDB8F1000F0AD02846FFF764F83A
:10B7F00056F82000002803D00120A040C7F8040319
:10B80000BDE8F081481D0020006000402DE9FC41AA
:10B81000DFF8BC80044608EB0400002790F93000F4
:10B820001346C0170E46401C01D008274CE0B078E4
:10B830001946C0F340022046FFF71AF80546401C9F
:10B8400041D0B078410719D4C0070AD04FF0A040CA
:10B8500000EB8401D1F8000720F00200C1F80007D6
:10B8600007E000217378204600910A460191FFF716
:10B8700053FD174920465431FFF768FCB078800724
:10B8800018D51448317800EB8500D0F81025124BFC
:10B890001A40C0F810254FF4F8524FF4403302EA32
:10B8A000042203EA01410A43D0F810150A43C0F804
:10B8B000102509E008EB0500327810F8481F41EA2E
:10B8C0008211017000E004273846BDE8FC810000C9
:10B8D000481D002000600040FFE0FCFF70B5174DE0
:10B8E00095F8580008B1082070BD0020411E2A18A4
:10B8F000401CC0B282F830102028F8D30024204623
:10B90000FEF7A8FF641CE4B20C2CF8D300240C4909
:10B91000C0206C6581F8000401264020891FC1F811
:10B9200000014FF4BE70FFF737FD0649F007C1F87C
:10B93000040385F85860204670BD0000481D0020B3
:10B9400006E000E0006000402DE9F041254C06468D
:10B9500012200D46C4F808032348017C022918D0A0
:10B96000027C01464FF4807891F82E10012A12D003
:10B970000222C4F8042301270774466005810022CF
:10B98000C26021B3458390F82D103046FFF73AFD91
:10B9900025E0122002E0C2682AB10220C4F80403A4
:10B9A0001120BDE8F081C660058361B9474638467D
:10B9B000FFF73AFD0028FAD03846FFF73DFD29464B
:10B9C0003046FFF71FFD0220C4F8040307E02946B4
:10B9D0003046FFF717FD4046FFF72EFD2760002099
:10B9E000DFE7000000700040A41D0020204A10B5D1
:10B9F000137C0BB1112010BD02EB40031C7F1CB95E
:10BA000012F82D4F641C1470CA791A770A7A5A7783
:10BA10000A784B78302402F0030204EA03131A4335
:10BA20008B784FF4E06404EA03231A43CB784FF495
:10BA3000805404EA03331A430B794FF4E02404EAF8
:10BA400003431A434B794FF4801404EA03531A4317
:10BA50008B79240104EA0363064C1A4304EB0013B8
:10BA6000C3F818250A7AC979FFF7D4FC002010BD65
:10BA7000A41D00200070004070B505460E48017CF2
:10BA800009B1112070BD00EB45010A7F1AB110F811
:10BA90002D2F521E027000240C774C77224621462F
:10BAA0002846FFF7B7FC40F2FF72D143284600F06A
:10BAB0004FF8204670BD0000A41D00202DE9F04184
:10BAC0001F4C054694F82C0010B10820BDE8F08109
:10BAD00044F8101B1B4928780860091D6878086025
:10BAE000E878A077012727770020207060776060D2
:10BAF000154EE0776FF00040C6F808034FF48270EF
:10BB0000FFF79AFCB015FFF797FC4FF48A70FFF728
:10BB100093FCA8780D49400181F800048020C91FDA
:10BB2000C1F800010220C6F80403A07F10B1012073
:10BB3000C6F804030348F03807600020C6E7000099
:10BB4000A41D0020F07500400070004007E000E0F8
:10BB50002DE9F04117460C460546C1EA07401A4E4A
:10BB600006EB0511C1F81C0500212846FFF76EFC05
:10BB70002346012101EB4502144CC907D1406269FB
:10BB800013F5006F1BD00A436261C6F8040301215C
:10BB90002846FFF75BFC6A004FF00041D140A7F553
:10BBA000E0636269FF3B05D00A436261C6F80403A3
:10BBB000BDE8F0818A436261C6F80803F8E78A436A
:10BBC0006261C6F80803E2E700700040A41D00208F
:10BBD000084900200A7C012A01D00820704791F80A
:10BBE0002E30054A01210BB111607047024A121D27
:10BBF000FAE70000A41D00200070004070B517494E
:10BC00006FF00040C1F8080380214FF0E0220120CE
:10BC10000025C2F8801111490831086042F2107401
:10BC20004FF48A763046FFF7FFFB20B90020FFF77C
:10BC30008BFD641EF6D10A4805600A4E3574002457
:10BC400006EB4400007F10B1E0B2FFF715FF641C63
:10BC5000082CF5D386F82C5070BD00000070004011
:10BC600000750040A41D00200449084490F93000EC
:10BC7000082801DB0120704700207047481D002084
:10BC80000449084490F93000082801D20120704787
:10BC900000207047481D002070B50D00044602D1F9
:10BCA0000020FEF753FA14B90020FEF74FFA287867
:10BCB000207069886170090AA170A988E170090A79
:10BCC0002171E8886071000AA07170BD10B5FFF79E
:10BCD00075FB002803D0BDE81040FEF737BA10BD51
:10BCE00070B50546FFF729F8134C40B1D4E90402BA
:10BCF0004FF08071411842F10000C4E904100021A6
:10BD00002846FEF799FF30B1606820B1606800F006
:10BD10009BF90020606001212846FEF78DFF18B1D5
:10BD2000FFF79EF8C4E90601284600F0B9F9284655
:10BD3000BDE8704000F034B8801B002070B50546A7
:10BD400000200C460870FFF78BF8D5E90223101A83
:10BD500063EB010300263146361A994112DAB0F539
:10BD6000350F03D3FEF7FEF90B4942184FF4960343
:10BD700000210A48FEF7EDFF10B10D2806D009E0BA
:10BD8000012070BD00210548FEF74CFF284600F059
:10BD90005BF92070002070BDFFFFB400881B0020FD
:10BDA000F8B51A4C074600261948FFF781FCD0B1B8
:10BDB000616871B1D0E902106268D2E90232C91A31
:10BDC000904120D26068007F18B161681048FFF789
:10BDD0005EFC00F011F905466946FFF7AFFF98B128
:10BDE000606840B10AE0606800280CD13846BDE8C0
:10BDF000F840FEF7AABF3846FEF7A3FF65609DF83E
:10BE000000000028D0D1F8BD6660CDE7801B00207F
:10BE1000F0C2010038B50021012548B101280CD03D
:10BE2000032809D1FFF75EFCBDE83840FFF75CBA94
:10BE30004FF0E020C0F8805138BD8DF80010684602
:10BE4000FEF7EEF9064C207808B9FFF731FAE06802
:10BE5000401CE060A5709DF80000FEF705FA38BDB3
:10BE6000341D00203EB5044609496846FFF7E8FB4B
:10BE700008E000BFD0E900212046904730B1684675
:10BE8000FFF7F5FB02980028F4D13EBD11203EBD1E
:10BE900040C301003EB5044608496846FFF7D0FBA1
:10BEA00007E000BFD0E90021204690476846FFF731
:10BEB000DEFB02980028F5D13EBD00004CC3010016
:10BEC00002498969002900D0084770479C1C00205E
:10BED0002DE9F0410746806A14468846C8B300251C
:10BEE00031E000BFB96A05EB450001EB8006B08880
:10BEF000801CFE2802D90C20BDE8F0812288401C5D
:10BF000008F8020020881622401C80B2208008F821
:10BF100000202088401C80B2208000EB080130887F
:10BF200000F016F92188084480B22080B28842B11E
:10BF3000B16871B14044FDF755FA2088B1880844D2
:10BF400020806D1CEDB297F82C00A842CAD80020C2
:10BF5000D2E7FFE70720CFE70A78062822F0FF02A2
:10BF60000A7010D2DFE800F0030507090B0D00206E
:10BF700008E0112006E0212004E0312002E0122038
:10BF800000E0222008707047002805D103490120F5
:10BF900048700020FEF790BD70470000341D00205F
:10BFA00010B51620FEF7A8F8A0B1114890F80004CB
:10BFB0004009082811D20121814011F0EC0F0CD06A
:10BFC0000C4882684FF480016AB1016841F4800135
:10BFD000016010BD42F2010001E042F20200BDE842
:10BFE0001040FEF7B3B84FF0E020C0F8001110BDCC
:10BFF00016E000E03C1E00200148FFF75CBB00009B
:10C00000F0C2010070B50C00054602D10020FEF719
:10C010009DF815B90020FEF799F82078287020883F
:10C02000000A68702068000CA8702068000EE87094
:10C0300020792871207A68712089000AA871A06887
:10C04000000CE87170BD000070B504461248002570
:10C050000078F8B1F4B1207FE0B1FEF701FFD4E938
:10C060000223801A994110D32069002600B926774F
:10C07000D4E905108847206960B1217F51B1D4E926
:10C08000022110187141C4E9020121460348FFF75B
:10C09000FEFA0125284670BD801B0020F0C2010079
:10C0A000F8B51B4C69462068FFF706F80026012703
:10C0B000184D29E0017821B101290CD002291BD1AA
:10C0C00014E041680A7FBAB90F7741681048083018
:10C0D000FFF7DDFA10E041686868814201D16E60C7
:10C0E0000AE00B480830FFF7EDFA05E0FFF784FFA0
:10C0F00008B10677FAE72F7069462068FEF7D1FF8E
:10C1000069462068FEF7D8FF0028D3D1F8BD0000AB
:10C11000E8C20100801B0020F8B50B4C0D46064616
:10C1200069462068FEF7B2FF58B10670456069465F
:10C130002068FEF7CCFF10B10448FEF7EDFD0020AB
:10C14000F8BD0420F8BD0000E8C20100881B0020F3
:10C150000870000A4870022070470000F8B50546D4
:10C1600080B2FEF797FE040013D0154E207A002708
:10C17000317B88420ED2A8B204F10A0175DF28B1E2
:10C18000112806D0BDE8F840FFF79ABE207A401C7F
:10C190002072F8BD2772307C38B1A8B23B2176DF1F
:10C1A00018B1082801D0FFF78BFE71690029F0D083
:10C1B0008DF80070ADF8025068468847F8BD000061
:10C1C0009C1C00202DE9FC411646DDE90854CDE910
:10C1D00000541F468046022200F00CF8002807D1C8
:10C1E000CDE900543B4610223146404600F002F8AB
:10C1F000BDE8FC812DE9FC5F0026DDE90C4B99468A
:10C2000092468E4680462788354630E0D8F80400AE
:10C21000002200EB850069460068019001A864DFF8
:10C22000002830D19DF8000050451FD10EB10021EB
:10C2300000E00221228808441118594522D846B945
:10C24000521C90B2208009F800E02088401C208019
:10C250000126218801A801EB0902694664DF002854
:10C2600011D120889DF80010084420806D1CB8F87A
:10C270000000A842CADC56B12088C01B401E80B214
:10C28000FF2802D90C20BDE8FC9F09F80700002018
:10C29000F9E70000E81B0020010006000000000094
:10C2A0000200000400000000000000000200000185
:10C2B0000000000034120000FB349B5F800000800F
:10C2C0000010000034120000481C0020770A000013
:10C2D00000000000770A000000000000000000508D
:10C2E0000338FDD870470000D41D0020010006006F
:10C2F00000000000A01B0020FDAA010000000000BB
:10C300000338FDD870470000000000000000000066
:10C31000000000000000000000000000000000001D
:10C3200008C3010020C30100040000000000000059
:10C3300000000000000000000000000001000007F5
:10C340002CC301003CC301000800000064C30100CD
:10C3500074C301000800000074C3010084C301001D
:10C360000800000028C4010030C4010000000000E3
:10C370000000000018C4010028C4010000000000F3
:10C3800000000000F0C30100F8C30100F8C3010081
:10C3900008C40100000000000000000008C4010003
:10C3A00010C40100E01A002084C30100A4C30100EE
:10C3B0000800000010C4010018C4010000000000C3
:10C3C00000000000B4C30100C4C301000800000065
:10C3D00030C40100E01A0020DC000000D8A00100F9
:10C3E0000CC50100BC1B00209C0A0000E8A0010055
:10C3F00021A701000000000085B10100BC1B002046
:10C4000025A601000000000069980100000000005E
:10C4100089BF01000000000005B501000000000018
:10C4200005B601000000000015BE0100000000007C
:10C430000090D00300000000000000000000000099
:10C4400000000000FF00FFFF081C00201F0000008C
:10C45000271C00201F000000000103000000000056
:10C4600000000000000000000000000000000000CC
:10C4700000000000000000000000000000000000BC
:10C4800000000000000000000000000000000000AC
:10C49000000000000000000000000000000000009C
:10C4A000000000000000000000000000000000008C
:10C4B000000000000000000000000000000000007C
:10C4C000000000000000000000000000000000006C
:10C4D00000000000000000000010014011000400F6
:10C4E000000000000000000000000000000000004C
:10C4F000000000000000000000000000000000003C
:0CC500000000000000000000000000002F
:040000050001920163
:00000001FF
