:020000040001F9
:1090000050260020C1930100C9930100CB930100B9
:10901000CD930100CF930100D19301000000000027
:10902000000000000000000000000000D3930100D9
:10903000D593010000000000D7930100D9930100EF
:10904000C5950100DB93010019990100DB93010034
:10905000DB930100000000006194010025960100EF
:10906000DB930100DB930100DB930100DB93010044
:10907000DB930100DB930100DB930100DB93010034
:10908000DB93010015960100DB930100DB930100E7
:10909000DB930100DB9301006D970100DB9301007E
:1090A000DB930100DB9301000000000000000000E2
:1090B000DB930100DB9301000000000000000000D2
:1090C00000000000000000000000000000000000A0
:1090D0000000000000000000000000000000000090
:1090E0000000000000000000000000000000000080
:1090F0000000000000000000000000000000000070
:10910000000000000000000000000000000000005F
:10911000000000000000000000000000000000004F
:10912000000000000000000000000000000000003F
:10913000000000000000000000000000000000002F
:10914000000000000000000000000000000000001F
:10915000000000000000000000000000000000000F
:1091600000000000000000000000000000000000FF
:1091700000000000000000000000000000000000EF
:1091800000000000000000000000000000000000DF
:1091900000000000000000000000000000000000CF
:1091A00000000000000000000000000000000000BF
:1091B00000000000000000000000000000000000AF
:1091C000000000000000000000000000000000009F
:1091D000000000000000000000000000000000008F
:1091E000000000000000000000000000000000007F
:1091F000000000000000000000000000000000006F
:10920000DFF80CD000F01AF90048004751AC01001B
:109210005026002030B450E8012F93B2C489234473
:109220008489A34228BF1B1B0489A34202BFBFF34A
:109230002F8F002007E0C3EA020340E80134002C2E
:10924000E9D14FF001000A6030BC704750E8012FAF
:10925000C2EA024240E801210029F7D1704730B448
:1092600050E8022F1FFAA2F3C488A34202BFBFF343
:109270002F8F00200DE0C48923448489A34228BF96
:109280001B1BC2EA034340E80234002CE8D14FF034
:1092900001000A6030BC704750E8022FC2EA224247
:1092A00040E802210029F7D17047034653E8022F16
:1092B000D988B2EB324F4FF0000017BF92B241EAAB
:1092C000014142EA014104E05A68B2EB324F08BF63
:1092D000012043E80212002AE8D1704730B4044666
:1092E00054E8000F0D4644E80053002BF8D11560F8
:1092F00030BC704730B4044654E8000F40EA010522
:1093000044E80053002BF7D1156030BC704730B4EF
:10931000044654E8000F00EA010544E80053002B1E
:10932000F7D1156030BC704730B4044654E8000FE4
:1093300080EA010544E80053002BF7D1156030BCEA
:10934000704730B4044654E8000F00EB010544E8D0
:109350000053002BF7D1156030BC704730B4044681
:1093600054E8000FA0EB010544E80053002BF7D1AF
:10937000156030BC704770B404464FF0000054E8EC
:10938000006F0D68AE4207BF44E80023012044E8A7
:1093900000630E60002B1CBF0020F0E770BC70471C
:1093A00030B4044654E8000F88422CBF451A0546E5
:1093B00044E80053002BF5D1156030BC7047000025
:1093C0000648804706480047FEE7FEE7FEE7FEE75F
:1093D000FEE7FEE7FEE7FEE7FEE7FEE77197010026
:1093E0000192010040EA01039B0703D009E008C98C
:1093F000121F08C0042AFAD203E011F8013B00F85A
:10940000013B521EF9D27047D2B201E000F8012BA5
:10941000491EFBD270470022F6E710B513460A46F4
:1094200004461946FFF7F0FF204610BD421C10F815
:10943000011B0029FBD1801A70470000064C074D24
:1094400006E0E06840F0010394E807009847103414
:10945000AC42F6D3FFF7D8FED0C30100F0C3010041
:109460002DE9F04700268AB0DFF85091B0464FF45E
:109470008075012437460696284601F041FE38B132
:10948000D9F80403204203D0284601F02FFE2643DA
:109490002D1D64007F1CADB2082FEDD34FF4BE74B8
:1094A000204601F02DFE48B1204601F01FFE46F097
:1094B000004606AA0121002001F004FE404D16F0EE
:1094C000FF0F15D00127002437420DD009EB84018E
:1094D000D1F81005D1F81015C0F3042055F8242058
:1094E000C1F3014102B190477F00641C082CEBD30B
:1094F000002E5FDA4FF0FF30CDF8108054E02819CD
:1095000010F8507F90F9000027F0C008401C3BD0B5
:1095100007A9404601F0C4FC10B34FEA9719404632
:1095200000F094FF55F820701FB1B9F1030F03D07C
:1095300006E0B9F1030F27D104A9404601F0B8FCB9
:109540004FF0A04101EB8800D0F8000706A9C0F356
:10955000014A404601F0A4FC18B1BAF1020F03D051
:1095600012E0BAF1030F0FD1B9F1030F08D1BAF12C
:10957000020F1DD00221404601F092FD761CF6B28A
:1095800017B149464046B847641C042CB7D3002E97
:1095900010D06A460121002001F094FD0699009840
:1095A000884207D006900498002634460790A6E724
:1095B0000321E0E70AB0BDE8F0870000006000404A
:1095C000401D002070B54FF48076304601F012FD4A
:1095D0000F4DB40540B1304601F013FD0120C4F831
:1095E00008032968002088474FF48276304601F04E
:1095F00001FD00280AD0304601F003FD0220C4F826
:1096000008032968BDE870400120084770BD0000CC
:10961000541B002002490248091F096800680847D6
:10962000901B00202DE9FE434FF48278404601F064
:10963000A5FD4C4F00254C4C012600B3404601F0DF
:10964000A5FD94F82E0010B194F82F10D1B18DF82B
:109650000050616801912189ADF80810E26832B1CB
:10966000218B618362602181E56010B102E0257485
:1096700000E03E6021686846884784F82F5094F8DF
:109680002E0060B34FF48077384601F077FD30B399
:10969000384601F07BFD628B94F82D108A420AD97E
:1096A000A2EB010080B260832289A2EB0000626815
:1096B00002EB400005E007D1E06828B184F82F6094
:1096C000658301F049FD04E08A4202D184F82F60ED
:1096D0006583404601F05AFD2248001D06604FF4A4
:1096E0008877384601F04AFD48B1384601F04EFD12
:1096F000257402208DF800002168684688474FF4E1
:109700008A77384601F03AFD28B1384601F03EFD2F
:109710002574BDE8FE834FF000484FF48C796769EB
:109720001DE000BFB7FA87F028FA00F109EB8005C9
:109730008F43284601F022FD88B1284601F026FD1E
:10974000A5F58C75E8088DF8040045F38000401CF1
:109750008DF800608DF80500216868468847002F65
:10976000E0D1D6E7007000409C1D002001F0DCBD78
:1097700070B54FF08051D1F84422D1F830015A4BE6
:10978000C2F342321A6000238A00C2F80C31C2F8D8
:109790001031554A121F1360544A1268544C22600B
:1097A000524A121D1268241D2260504A0832126863
:1097B000241D22604D4A0C321268241D22604B4A3F
:1097C00010321268241D2260484A14321268241D87
:1097D0002260464A18321268454C20342260434ABF
:1097E0001C321268241D2260404A20321268241D57
:1097F00022603E4A24321268241D22603B4A2832ED
:109800001268241D2260394A2C321268241D2260FD
:10981000364A30321268364C40342260334A343291
:109820001268241D2260314A38321268241D2260D9
:109830002E4A3C321268241D22602C4A40321268A3
:10984000241D226001242B4A082802D1D1F834516A
:1098500015B1082804D00CE0274EFB25356002E046
:10986000D1F834512DB991F85852116865F30301BC
:10987000116022490D68ED0702D06FF001050D60FF
:10988000106840F00F0010604FF01021D1F8000276
:10989000002803DBD1F80402002821DA184A1460FA
:1098A00018480468002CFCD01224C1F80042056856
:1098B000002DFCD0C1F8044201680029FCD01360DF
:1098C00001680029FCD0BFF34F8F0F4801680F4A91
:1098D00001F4E06111430160BFF34F8F00BFFDE76A
:1098E0000C490B48086070BD3C05004004040010A2
:1098F00020C50040E40E004018F500400004004080
:1099000004E5014000E401400CED00E00400FA052C
:109910000090D003E01A00200148006800470000D2
:109920005C1B002002E008C8121F08C1002AFAD1FF
:1099300070477047002001E001C1121F002AFBD1CF
:10994000704700000121202803DA814005480140CA
:1099500003E0402802DA2038814009B10120704735
:1099600000207047FC06FFBD03480078002801D1A5
:1099700002F052B970470000E41A002030B52449C3
:10998000A5B009682491807E8DF892003C2168463C
:10999000FFF741FD02208DF8000001248DF8024000
:1099A00006208DF803003C210FA8FFF734FD24A802
:1099B000184D1490ADF84C402A1D6846296800F0F7
:1099C000F9F808B100F04EF8124A0FA80C32A96855
:1099D00000F0F0F808B100F045F818211EA8FFF7D4
:1099E0001AFD00208DF88D408DF87840ADF8840088
:1099F0001F908DF88C004FF4207020901EAA05490E
:109A0000054872DF002801D000F02CF825B030BDE9
:109A1000B4C20100101C0020E81A002004480121F3
:109A2000007873DF002801D000F01CB870470000F8
:109A3000E81A002072B609480068C00700D000BECE
:109A4000BFF34F8F0548E4380168054A01F4E0612F
:109A500011430160BFF34F8F00BFFDE7F0ED00E061
:109A60000400FA050EB500210091CDE901106A4607
:109A700044F20100FFF7DEFF0EBD0000014800F0D8
:109A800044BF0000701B00203AB100680129426108
:109A900000D00021016100207047072070470000BE
:109AA00038B5114808235822416800910F490068D1
:109AB00001F08BF9002815D10D4A69460D4800F0D8
:109AC00029FF04000ED101210A4800F06CFF012398
:109AD000094A1946074800F0F0FE064901200839F6
:109AE0000870204638BD0000E8C20100DC1D0020DF
:109AF0009DBA0100701B0020FFFF7F0070B5044677
:109B0000007F0D4608B1002070BDA26101F01AF877
:109B1000401941F10001C4E90201206900B1256149
:109B20002146BDE87040002002F0D0BA0146002076
:109B30000877012002F0CABA30B5EFF3108172B68F
:109B40000D4A9468012324B10370002900D162B644
:109B500030BD93604FF0E023D3F88051074C25408F
:109B60001560C3F88041D3F8844154605A17C3F894
:109B7000842100220270E8E7341E0020FC06FFBDAD
:109B80000B498A68002A11D000280FD1EFF310800A
:109B900072B60B684FF0E022C2F800314B68C2F891
:109BA000043100228A60002800D162B670470000AC
:109BB000341E00202DE9FC47002517880646158035
:109BC00090F82D001446894630B13A462146484661
:109BD00000F0ACF9051E09D1B0784FF00C0A18B3AB
:109BE0002088C846001DB84202D95046BDE8FC870F
:109BF000684679DF0028F9D12088032108F8001091
:109C000020881921401C80B2208008F8001020888C
:109C1000401C80B2208000EB0801BDF8000002F07B
:109C20009DFA218808442080F0780222C8B121885A
:109C300096F9033001F1030C4846BC45D5D842548F
:109C400021884FF0010C491C89B2218000F801C025
:109C50002188491C89B2218009F801302088401CE4
:109C600020807068B8B1218890F9003001F1030CB0
:109C70004846BC45B9D8425421880A22491C89B2B9
:109C8000218042542188491C89B2218009F8013081
:109C90002088401C2080308950B1CDE900474B46D8
:109CA0000622022106F1080002F092FA051E9DD15B
:109CB000308A50B1CDE900474B460722032106F117
:109CC000100002F085FA051E90D1308B50B1CDE91D
:109CD00000474B461522142106F1180002F078FACD
:109CE000051E83D1306A30B13B462246494600F01A
:109CF0000AFD051EDBD1706A30B13B46224649465B
:109D000000F0DEFF051ED2D196F82C0038B13B469C
:109D100022464946304602F00BF8051EC7D130787E
:109D200038B13B4622464946304600F0FBFF051E4F
:109D3000BDD128465AE707B586B00122002300931B
:109D4000ADF810200193029303938DF80220498A05
:109D5000ADF8001008A9039104A902916946AEDF8D
:109D600009B000BD07B586B0012200230093ADF80D
:109D700010200193029303938DF802204989ADF8D6
:109D8000001008A9039104A902916946AEDF09B049
:109D900000BD000030B53E4B04468DB00FCB08AD82
:109DA00085E80F0004F11A0108A862DF00286DD1D0
:109DB000A07E8DF8320041F23420ADF8300022460A
:109DC0000CA90120A8DF002860D120216846FFF7F8
:109DD00022FB41F23620ADF80000A07E8DF8020093
:109DE00001259DF80D00ADF8065040F012008DF8E9
:109DF0001150ADF804508DF80D008DF813502088E7
:109E000004F10A02694600F059FB00283ED12021E6
:109E10006846FFF700FB41F23520ADF80000A07E58
:109E20008DF802009DF80D00ADF8065040F01200CC
:109E30008DF81150ADF804508DF80D008DF81350C9
:109E40002088A21C694600F039FB00281ED1202181
:109E50006846FFF7E0FA41F23820ADF80000A07E36
:109E60008DF802009DF80D00ADF8065040F012008C
:109E70008DF81150ADF804508DF80D008DF8135089
:109E8000208804F11202694600F018FB0DB030BDC5
:109E9000B8C2010007B586B0012200230093ADF8D7
:109EA00010200193029303938DF802204988ADF8A6
:109EB000001008A9039104A902916946AEDF09B018
:109EC00000BD000070B5040012D001461C221448E9
:109ED000FFF788FA1248134D0560206850B17ADF09
:109EE000002806D12068016829604068686005E0A4
:109EF0000E2070BD0B487BDF0028FAD108484FF6D2
:109F0000FF711438084A20F8041B054934390160F0
:109F10000021FFF7B9FD0028EBD0032070BD000041
:109F2000941C0020001B002069C101007CB505467F
:109F300008880C460930904201D90C207CBD684647
:109F40006DDF0028FAD121880820685420881B2161
:109F5000401C80B2208029542088401C80B2208080
:109F60002844DDF801100160BDF8051081802088CB
:109F7000801D80B220809DF80010490800D001218A
:109F800029542088401C208000207CBD1FB5044639
:109F900001208DF8060041F60A00ADF80400494A98
:109FA00001A90120A8DF00287DD122885AB14548A7
:109FB000801C009094F83C3042F62920616800F043
:109FC0004DFA00287BD122895AB13E480A300090D0
:109FD00094F83C3042F62420E16800F03FFA002873
:109FE0006DD1228A5AB137481230009094F83C3033
:109FF00042F62520616900F031FA00285FD1228BFA
:10A000005AB130481A30009094F83C3042F627207C
:10A01000E16900F023FA002851D1228C5AB1294875
:10A020002230009094F83C3042F62620616A00F01D
:10A0300015FA002843D1228D5AB122482A300090C7
:10A0400094F83C3042F62820E16A00F007FA002834
:10A0500035D1216B79B102A801F04CFF19480822D3
:10A060003230009094F83C3002A942F6232000F0F0
:10A07000F5F9002823D1606B60B112493A310091A3
:10A080000279016894F83C3042F62A2000F0E6F9A3
:10A09000002814D1A16B89B102A801F0E5FC0948A0
:10A0A0004230009000E00AE094F83C30072202A918
:10A0B00042F6502000F0D2F9002800D1002004B070
:10A0C00010BD0000081B002038B52B4C01882588E6
:10A0D000212938D00BDC102913D011292CD01329B9
:10A0E0003AD100231A46852128467FDF3AE03B29F2
:10A0F0003ED0522931D056292ED18088132176DFC7
:10A1000030E01E49808820800A781D49FFF713FE41
:10A1100000F09CFA1B481A4902782088FFF722FEBB
:10A1200000F094FA1848164902782088FFF7B2FE2A
:10A13000BDE8384000F08ABA4FF6FF702080BDE8D5
:10A140003840FFF76BBC00210091808869468FDFA3
:10A15000002801D0FFF786FC38BD00231A461946B7
:10A160002846B1DF0028F7D0BDE83840FFF77ABCB9
:10A170008088132176DFF5E7E61A0020E91A00202F
:10A18000B41B0020F81A0020F91A00202DE9F0472E
:10A1900001883B4E40F2F3194FF6FF7510291BD092
:10A1A00011293ED0122954D0502946D1C188F289B4
:10A1B000841D914241D1618902293ED18688304671
:10A1C00000F006FD050038D004F10C0000F0F1F8B5
:10A1D000A8B3294630464EE0C17B87880446012952
:10A1E0002BD1A846284600F0F3FC050017D02F809D
:10A1F00000202872234843464A460168C5F80A10E1
:10A200004068C5F80E0004F1100105F10A0000F0E5
:10A21000F4FC6872F08900280FD129462AE0042056
:10A2200013E0808800F0D4FC040006D06068FFF7DB
:10A230007DFC08B101F074FD2580BDE8F087FFE7E3
:10A240006868FFF773FC0028F7D0BDE8F04701F01D
:10A2500067BD87880646384600F0BAFC0400ECD09B
:10A260002B464A4606F1080104F10A0000F0C5FC3D
:10A27000607221463846BDE8F04700F0B1BA0000F0
:10A28000941C0020001B00202DE9F04F0446868816
:10A290000188424897B0834610290CD0112950D02C
:10A2A000103019296AD01A2974D1217A0C09042C8A
:10A2B0004DD301224CE0394D083DA868C0430B90B6
:10A2C00069680BA800F0E0FD0B990CA800F0FCF900
:10A2D0002C220CA96846FFF785F80027E946A84616
:10A2E00010E000BF09EB47005FF00005B0F804A0E4
:10A2F00008EB85005146001D00F0A6FD6D1C1E2DCB
:10A30000F6D37F1C0098B842ECD8142E05D317B0B2
:10A310000420BDE8F04FFFF7A5BB3146584600F0DA
:10A32000A9FD314608F1040000F0A4FDE07B0128FE
:10A3300030D017B03146BDE8F04F1848001D00F08E
:10A3400099BD17B03146BDE8F04F00F07DBD002249
:10A35000314600F0BAFB032C01D3012200E00022B9
:10A360000E4831460C3000F0B0FB022C01D3012224
:10A3700000E0002209483146083006E0217A002931
:10A3800008D1617AC1F3C002314617B0BDE8F04F81
:10A3900000F09BBB17B0BDE8F08F0000B81C002098
:10A3A00070B504460D460846FFF740F8208065600A
:10A3B00070BD007800F00100704708B500F07AFF2A
:10A3C00008B1FFF74FFB002000906946012000F024
:10A3D000F9FE08B1FFF746FB684600F033FF00289E
:10A3E00001D0FFF73FFB08BD05494FF0FF320828B9
:10A3F00041F8202002D3084480F84820704700002C
:10A40000401D0020F0B54FF0FF3512B100230826A3
:10A4100001E008230C260C4C05E000BF54F8237023
:10A420007F1C04D05B1CB342F8D32846F0BD26182D
:10A430005DB286F8305044F82310002AF5D1E118B7
:10A4400081F84800F1E70000401D0020024908445F
:10A4500090F9300070470000401D00202DE9F041C8
:10A4600088B01E46DDF8388014460D00074602D13C
:10A470000020FFF7F7FA14B90020FFF7F3FA2021C4
:10A480006846FEF7C8FF9DF80D00ADF8044040F0A7
:10A4900002008DF80D000848ADF80070ADF80640D8
:10A4A00002958DF8116042466946008800F006F872
:10A4B00008B0BDE8F0810000081B00202DE9F04342
:10A4C0008146887891B090460C4600B901208DF8FD
:10A4D0003E002088ADF83C0000250095607C694670
:10A4E00001F0B2FC6E46A07C711C01F0ADFCE07B7B
:10A4F00000289DF8020002D040F0080001E020F0A2
:10A5000008008DF80200217C11B140F0100001E03C
:10A5100020F010008DF80200217B11B140F0010005
:10A5200001E020F001008DF80200217D09B1022137
:10A5300000E0012161F342008DF802001C2102A815
:10A54000FEF769FF607BC10601D4800617D50E9522
:10A550000EAFE07C791C01F077FC9DF8380007977E
:10A5600020F00F00401C20F0F00010308DF8380073
:10A570009DF83A0020F00600801C8DF83A00607BC0
:10A580008DF80800A07B8DF80900142109A8FEF7BA
:10A5900042FF0FA8CDE90906A088ADF83000A068F9
:10A5A00020B1E088ADF82C00A0680D90A06998B3A8
:10A5B00001950088ADF81000A06901AD01A940889F
:10A5C000ADF81200A069406806950390A069007B71
:10A5D00001F03AFCA069691C407B01F035FCA069E0
:10A5E000807A00289DF8060002D040F0080001E0C3
:10A5F00020F008008DF80600A169C97A11B140F079
:10A60000100001E020F010008DF80600A169097A21
:10A6100019B140F0010002E00DE020F001008DF8DA
:10A620000600A169897B09B1022100E0012161F3E3
:10A6300042008DF80600E06900B10590434609AA82
:10A6400002A94846AADF11B0BDE8F08300280BD06C
:10A65000A0F54051023907D0082805D043F2014146
:10A66000884201D0FFF7FEB97047000070B5084C72
:10A67000050009D010342168002907D0086820603F
:10A68000496828468847F6E70834F4E770BD0000BB
:10A690002C1D0020054A012120B1012805D191700F
:10A6A000FFF7E4BF51700020FAE770472C1D00202F
:10A6B00010B5D0E90234D1E90220D11AA04101D36A
:10A6C000012010BD002010BD73B58CB006460020DF
:10A6D00000900D9880B100246D4621460DA800F031
:10A6E000BEFB30B1009805EB400084800098401C10
:10A6F0000090641C142CF0D32C2269463046FEF7DF
:10A7000071FE0EB070BD2DE9F04117880646B81DE8
:10A7100014460D46984202D90C20BDE8F0813188DC
:10A72000072206290AD34FF4486C4FF6FF736145A0
:10A7300001D9994202D17088062801D21046ECE76F
:10A74000604501D99842F9D1994203D0984201D08D
:10A750008142F3D80520E85520881221401C80B2A0
:10A76000208029542088401C80B2208041193088E4
:10A7700001F0F4FC2188084480B2208041197088DF
:10A7800001F0ECFC2188084420800020C5E7FFF799
:10A7900069B9000000B587B01C216846FEF73BFE92
:10A7A00000204FF4A021CDE900018910029103217E
:10A7B0008DF80C10ADF80E008DF8100006480590CD
:10A7C000064806906846FFF77DFB002801D0FFF79A
:10A7D00049F907B000BD0000BDB901008FA7010015
:10A7E00038B54A7A0F4B62B100220A7259690029C2
:10A7F00006D001228DF80020ADF802006846884797
:10A8000038BD0A7A62B19B684C68024619462046F8
:10A81000FFF774F90028F3D0BDE8384001F080BAA2
:10A820005B68F1E7941C002010B50A4A01210A4830
:10A83000FFF72AF908B1FFF715F907480022074981
:10A840000068FFF75BF9002803D0BDE81040FFF770
:10A8500009B910BD69990100A0C20100000060544F
:10A8600010B50B4A01210B48FFF70EF908B1FFF7AD
:10A87000F9F8084800224FF480410068FFF73EF9DC
:10A88000002803D0BDE81040FFF7ECB810BD000071
:10A8900039BF0100C8C201004FF480328A4001680C
:10A8A000C1F848230068C0F8082370474FF4A0722D
:10A8B00002EB810189B200F0FEB82DE9F0410546B6
:10A8C0000E464FF4A07000EB860081B228684FF46A
:10A8D0008034B440984622F07F47C0F80843286887
:10A8E000C0F84843286800F031FC286800EB860077
:10A8F000C0F840752868C0F84443B8F1000F02D092
:10A900002868C0F80443BDE8F0810068D0F8040569
:10A910007047000010B543791B4C44F8232042795E
:10A92000231D03EBC20212790AB1082010BD026890
:10A930000C88C2F8084590F904208978002A4FEA6B
:10A94000411106DA02F00F0202F1E02282F8141D32
:10A9500003E002F1E02282F8001490F904100122D1
:10A9600001F01F0402FA04F44909890001F1E02111
:10A97000C1F80041417903EBC1010A71417943F803
:10A980003100002010BD00008C1B002090F9040055
:10A99000012100F01F0291404009800000F1E020F9
:10A9A000C0F8001270470A46022100F07BB84FF44D
:10A9B000827100F080B80068012101607047006872
:10A9C0000121416070472DE9F05F07460C464FF4C6
:10A9D000A07000EB84001FFA80FA38684FF48036CC
:10A9E000A6409B4622F07F45C0F848633868C0F80F
:10A9F00008633868D0F8048500EB8402D2F84095EB
:10AA0000C2F840855146386800F0A0FBA9EB080069
:10AA100020F07F40012806D1102000F047FD51466C
:10AA2000386800F093FB3868D0F80485C0F84463B8
:10AA3000A5EB080121F07F413868012900EB840073
:10AA400010D0C0F840553868D0F804156FF07F4C2E
:10AA50006A1A521E22F07F42ACEB0B03934217D3CB
:10AA600062B118E06D1CC0F84055102000F01EFDCA
:10AA70003868D0F8040540450AD10CE000EB8400AA
:10AA80006D1CC0F840553868D0F80405884202D0E3
:10AA90000D20BDE8F09F01223146384600F002F853
:10AAA0000020F6E70368C3F84413002A02D00068C8
:10AAB000C0F80413704710B5006842581AB100F08E
:10AAC00045FB012010BD002010BD0AB100F0D2B935
:10AAD00000F0BAB90EB513A19DF8080020F00F00E0
:10AAE000401C20F0F00010308DF80800042202A86D
:10AAF0007CDF08B1FEF7B6FF0020009001905021E6
:10AB0000ADF80400ADF800104FF4C870A021ADF806
:10AB10000600ADF8021068467ADF002801D0FEF783
:10AB2000A1FF0EBD446F6F720000000010B5002140
:10AB300000F0C8F9002803D0BDE81040FEF792BF2E
:10AB400010BD000010B50B48FFF7DFFE094A083AB8
:10AB5000D2E90434C018D2E9063244F10001C31A24
:10AB600071EB020204D24FF08072801841F10001B3
:10AB700010BD0000701B00204FF0A040D0F8100561
:10AB8000800B10F00101024800D0012101717047D3
:10AB9000F41A00204FF0A040D0F81005C00B10F0C0
:10ABA0000101024800D0012101717047F41A002010
:10ABB000064801214FF0A042C170D2F81025520B77
:10ABC00012F0010F00D0002141717047F41A0020EB
:10ABD0000146034802888A4200D0002070470000E6
:10ABE000801C002010B500F023FD01F08BFA00F06E
:10ABF000F3FEBDE8104000F007BFF0B58488A5184B
:10AC0000944200D82246A41AC288D6189A4200D884
:10AC10001346D21A4B880788BB420CD34088834224
:10AC200009D88888A04206D3A84204D8C888904290
:10AC300001D3B04201D90020F0BD0120F0BD1721A1
:10AC4000018041800021017141717047704700000F
:10AC500001F0E0F8FFF7FAFFFEF722FF08B1FEF778
:10AC600001FFFFF7E1FDFFF7FBFD00F051FA08B12E
:10AC7000FEF7F8FEFFF7B6FF00F0CEFFFFF79DFBF3
:10AC8000FFF728FF0D48FFF751FF0C48103001F087
:10AC900093F80A481030FEF771FEFFF77BFD00F0D5
:10ACA00041FEFEF7BBFE00BF01F092F901F06AF928
:10ACB00001F04AF900F040FAF6E70000A41B00207A
:10ACC00070B5144682880E4605462088111D014441
:10ACD000921C994201D8FE2A01D90C2070BD521C49
:10ACE00032542088FF21401C80B2208031542088BB
:10ACF000401C80B220808119288801F02FFA218819
:10AD0000084480B22080AA8842B1A96841B1304489
:10AD1000FEF768FB2088A98808442080002070BDC9
:10AD2000072070BDF8B50F46017814460546012985
:10AD300001D1687830B12088821C9A4232D801292A
:10AD400002D006E00720F8BD69780144891C9942C9
:10AD500028D8181A801E86B2ADF800602188B81C69
:10AD6000084469467DDF0028EDD12978022904D006
:10AD70006878BDF80020904205D3BDF80000B042CD
:10AD800001D809200AE00820012905D16978B142DB
:10AD900002D8ADF8001001E0ADF80060BDF8001079
:10ADA000FE2901D90C20F8BD2288491CB9542188FC
:10ADB000491C89B2218078542088401C2080BDF82D
:10ADC0000010084420800020F8BD10B531B1B2FB5E
:10ADD000F3F403FB14241CB1092010BD0E2010BD98
:10ADE00001600021416081608281C381084610BDFD
:10ADF00070B50C460546FEF70DFA002802D02188F2
:10AE00002868084470BD10B50A8849888A4203D171
:10AE1000FEF742FA012010BD002010BD70B50C46AF
:10AE20000546FEF71CFA002802D06188286808440D
:10AE300070BD10B50A8849888A4203D1FEF706FA28
:10AE4000012010BD002010BD01F01F0301229A4017
:10AE5000D243490900EB8100114600F015B84A09B8
:10AE600050F8220001F01F0201219140084000D05B
:10AE70000120704701F01F0301229A40490900EBAD
:10AE80008100114600F006B808B56A46FEF73FFAA1
:10AE9000009808BD08B56A46FEF72CFA009808BD70
:10AEA000C20800F007030120895C98400840704701
:10AEB00010B5C20800F00703885C01249C402043C1
:10AEC000885410BD10B560B1C160172120F8021B75
:10AED00020F8021B1B2100F8021BFFF7B0FE002028
:10AEE00010BD0E2010BD00002DE9FC4786880C46E1
:10AEF000002E4AD1018801270025102908D01129E8
:10AF000020D0DFF8EC903A2920D0552965D13EE0D9
:10AF1000C07B04F10608012802D12088A8F80000AF
:10AF2000B8F80010B8F80200814256D93046A5DFC3
:10AF300010B1112803D050E088F805704DE088F872
:10AF400004704DE0A01DFFF77AFE46E022464089DE
:10AF500034F8061F814200D808466080172800D2C6
:10AF600017206080D06870B1607960B1D9E90010B5
:10AF7000CDE90010ADF802606088ADF80400D36838
:10AF800069461046984765712571BDE8FC87C08801
:10AF900004F10608172800D21720B8F800108142E3
:10AFA00000D80846A8F8020088F804502846B8F8E7
:10AFB0000010B5DF98F8050078B9E06868B1D9E904
:10AFC0000210CDE90010ADF80260B8F80200ADF84B
:10AFD0000400E268204669469047A07A0028D4D051
:10AFE0002846E188A5DF0028CFD1A572E772CCE71B
:10AFF000CCC2010000F180400068002800D0012090
:10B00000704708B500F180400021016000680090A1
:10B0100008BD000070B50B4C207808B185250FE005
:10B020000020A06060602061E060074800F01AFA2C
:10B03000054600F08BF908B900F0FEF901202070F8
:10B04000284670BD2C1D002095A6010038B50025AE
:10B050008DF800506846FEF76FFD074CE068401E13
:10B06000E060E06810B900F00BFAA5709DF80000F0
:10B07000FEF786FD38BD00002C1D002070B541EAAA
:10B080004201DDE904564FF0A04441EA830141EA60
:10B09000052104EB800041EA0641C0F8001770BDAD
:10B0A0004FF0A04202EB8000D0F8002722F440329B
:10B0B000C0F80027D0F8002742EA0141C0F8001785
:10B0C0007047000018B5084B6C4601441B6800939C
:10B0D00006E000BF54F82030D3F81035401C08C2F9
:10B0E0008142F7D818BD0000DCC20100034908B551
:10B0F0000844002101600068009008BD0060004025
:10B1000002494058012800D00020704700600040EC
:10B11000064910B500204870091D0860BFF35F8F15
:10B120000349044800F036F9002010BD981B0020A8
:10B1300020C30100401E002010B500F007F908B13F
:10B1400041DF10BD20BF40BF20BF10BD08B50022A9
:10B1500042504058009008BD024A1060101D016026
:10B16000704700002C760040030103481844C0F8E3
:10B170001425C0F81015704700700040024940586F
:10B18000002800D00120704700700040034908B536
:10B190000844002202600068009008BD0070004072
:10B1A000024619B140205100884070478020FAE7DC
:10B1B00020B1034909680160002070470E207047E4
:10B1C000A4C30100FEB502460C460846FFF7F0FF97
:10B1D000002835D1002500950195012606208DF81F
:10B1E0000020ADF8040002958DF802606946202029
:10B1F000226869DF0095019502958DF80160694626
:10B200004020226869DF00950A208DF80000019532
:10B21000029569460120226869DF4FF4B060009012
:10B22000019502956946A120226869DF0095019584
:10B2300002958DF800506946A020226869DF002041
:10B24000FEBD000060DF002802D1024A012111701A
:10B2500070470000A31B002030B5144891B000785F
:10B26000002820D05FF03405ADF8405010A903A8A5
:10B2700061DF30B1052816D011B0BDE83040FEF7CF
:10B28000F1BB03AC0A49684600F084F807E000BF50
:10B29000D0E9002120469047684600F092F80298D5
:10B2A0000028E1D0F4E711B030BD0000A31B00205E
:10B2B000A8C301007CB5194C207808B108207CBDDA
:10B2C0000120A070002000F0FDFC112819D0002002
:10B2D00000F010FD12480026006801908DF8006013
:10B2E0006846FEF729FC0F4901A810DF05000AD0C7
:10B2F000002020709DF80000FEF742FC2DB128468A
:10B300007CBD00207CBD0120F3E7A670667000F0D4
:10B31000BFFD012000F0EEFCF3E70000A01B0020C1
:10B320003CC30100359A01000EB50749684600F09C
:10B3300031F805E0D0E900108847684600F041F890
:10B3400002980028F6D10EBD58C3010001480078CC
:10B3500070470000A01B00201FB568464BDF30B1CE
:10B36000052814D004B0BDE81040FEF77BBB0849A7
:10B3700001A800F00FF806E0D0E9002100989047FE
:10B3800001A800F01EF803980028E6D0F4E71FBDDE
:10B39000C4C30100016009684160AFF3008010B5CB
:10B3A000D0E900215368994201D1002104E0D1E99C
:10B3B0000034A34202D01946816010BD08314160BB
:10B3C000F0E7816800290BD0026892680A44826025
:10B3D00041684B689A4203D108314160FFF7DFBFF3
:10B3E000704770B50D460646446804E0B2682946C9
:10B3F000904718B1246820680028F7D12068286099
:10B40000256070BD40680068704741680868002882
:10B4100001D002680A60704702460020526806E0C8
:10B420008B4203D108681060012070471A461368E8
:10B43000002BF5D17047000008480068012110F08A
:10B44000010F06D14FF0E020C02280F80024C0F8A0
:10B4500000110349012008607047000000E100E08E
:10B46000180500400549024600200B790BB18520E4
:10B4700070470A6001220A7170470000541B0020C7
:10B4800004490120086004480168C1F30041002913
:10B49000FAD170470C00004018040040002802D088
:10B4A0000149800108477047E1C20100002802D02D
:10B4B000014980010847704701C301002DE9F041AF
:10B4C0008846054600F0B8FA234E002828461AD0D0
:10B4D000FEF7BCFF304490F848008009032802D0F2
:10B4E00001280ED007E04FF0A040D0F81005E8404A
:10B4F00010F0010F05D003212846BDE8F041FFF709
:10B50000CFBD0221F8E700F0A3FA002822D0284698
:10B51000FEF79CFF04464FF4807000EB84000F4F51
:10B5200081B207EB8400D0F8102542F00102C0F888
:10B5300010250846FFF7DAFDB8F1000F0AD02846BB
:10B54000FEF784FF56F82000002803D00120A04019
:10B55000C7F80403BDE8F081401D002000600040F2
:10B560002DE9FC41DFF8BC80044608EB040000270D
:10B5700090F930001346C0170E46401C01D0082732
:10B580004CE0B0781946C0F340022046FEF73AFF7F
:10B590000546401C41D0B078410719D4C0070AD0F5
:10B5A0004FF0A04000EB8401D1F8000720F002002A
:10B5B000C1F8000707E000217378204600910A4691
:10B5C0000191FFF75BFD174920465431FFF770FCEE
:10B5D000B078800718D51448317800EB8500D0F892
:10B5E0001025124B1A40C0F810254FF4F8524FF4B2
:10B5F000403302EA042203EA01410A43D0F810155D
:10B600000A43C0F8102509E008EB0500327810F86D
:10B61000481F41EA8211017000E004273846BDE866
:10B62000FC810000401D002000600040FFE0FCFFA6
:10B6300070B5174D95F8580008B1082070BD00206E
:10B64000411E2A18401CC0B282F830102028F8D3BE
:10B6500000242046FEF7C8FE641CE4B20C2CF8D38C
:10B6600000240C49C0206C6581F8000401264020AC
:10B67000891FC1F800014FF4BE70FFF737FD06497E
:10B68000F007C1F8040385F85860204670BD00003B
:10B69000401D002006E000E0006000402DE9F04180
:10B6A000254C064612200D46C4F808032348017CA9
:10B6B000022918D0027C01464FF4807891F82E10B0
:10B6C000012A12D00222C4F804230127077446601D
:10B6D00005810022C26021B3458390F82D103046C9
:10B6E000FFF73AFD25E0122002E0C2682AB10220ED
:10B6F000C4F804031120BDE8F081C660058361B978
:10B7000047463846FFF73AFD0028FAD03846FFF79B
:10B710003DFD29463046FFF71FFD0220C4F8040313
:10B7200007E029463046FFF717FD4046FFF72EFD9C
:10B7300027600020DFE70000007000409C1D002013
:10B74000204A10B5137C0BB1112010BD02EB400351
:10B750001C7F1CB912F82D4F641C1470CA791A771B
:10B760000A7A5A770A784B78302402F0030204EA06
:10B7700003131A438B784FF4E06404EA03231A435B
:10B78000CB784FF4805404EA03331A430B794FF417
:10B79000E02404EA03431A434B794FF4801404EA8B
:10B7A00003531A438B79240104EA0363064C1A43BA
:10B7B00004EB0013C3F818250A7AC979FFF7D4FC03
:10B7C000002010BD9C1D00200070004070B5054693
:10B7D0000E48017C09B1112070BD00EB45010A7FC4
:10B7E0001AB110F82D2F521E027000240C774C77DE
:10B7F000224621462846FFF7B7FC40F2FF72D143AC
:10B80000284600F04FF8204670BD00009C1D002027
:10B810002DE9F0411F4C054694F82C0010B108208A
:10B82000BDE8F08144F8101B1B4928780860091D09
:10B8300068780860E878A0770127277700202070D3
:10B8400060776060154EE0776FF00040C6F808033F
:10B850004FF48270FFF79AFCB015FFF797FC4FF496
:10B860008A70FFF793FCA8780D49400181F8000425
:10B870008020C91FC1F800010220C6F80403A07F80
:10B8800010B10120C6F804030348F0380760002017
:10B89000C6E700009C1D0020F075004000700040CD
:10B8A00007E000E02DE9F04117460C460546C1EAE5
:10B8B00007401A4E06EB0511C1F81C050021284669
:10B8C000FFF76EFC2346012101EB4502144CC9072A
:10B8D000D140626913F5006F1BD00A436261C6F85C
:10B8E000040301212846FFF75BFC6A004FF000418A
:10B8F000D140A7F5E0636269FF3B05D00A4362616E
:10B90000C6F80403BDE8F0818A436261C6F8080303
:10B91000F8E78A436261C6F80803E2E70070004076
:10B920009C1D0020084900200A7C012A01D0082023
:10B93000704791F82E30054A01210BB11160704714
:10B94000024A121DFAE700009C1D00200070004012
:10B9500070B517496FF00040C1F8080380214FF01F
:10B96000E02201200025C2F8801111490831086049
:10B9700042F210744FF48A763046FFF7FFFB20B98D
:10B980000020FFF78BFD641EF6D10A4805600A4EC1
:10B990003574002406EB4400007F10B1E0B2FFF7DD
:10B9A00015FF641C082CF5D386F82C5070BD0000E0
:10B9B00000700040007500409C1D002000780028A9
:10B9C00007D104483B21008876DF002801D0FEF72C
:10B9D00049B87047E61A002008B503208DF8010029
:10B9E0008DF800009DF80200064A20F003008DF853
:10B9F000020069460E20FFF7B3FD01210E20FFF77C
:10BA00005DFD08BD79AB010008B503208DF801008C
:10BA10008DF800009DF80200064A20F003008DF822
:10BA2000020069460F20FFF79BFD01210F20FFF761
:10BA300045FD08BD95AB01000449084490F930006C
:10BA4000082801DB0120704700207047401D0020BE
:10BA50000449084490F93000082801D201207047B9
:10BA600000207047401D002070B50D00044602D133
:10BA70000020FDF7F7FF14B90020FDF7F3FF287849
:10BA8000207069886170090AA170A988E170090AAB
:10BA90002171E8886071000AA07170BD70B505461B
:10BAA000FEF785FF134C40B1D4E904024FF08071DA
:10BAB000411842F10000C4E9041000212846FEF7B5
:10BAC000F5FE30B1606820B1606800F097FA0020A0
:10BAD000606001212846FEF7E9FE18B1FFF732F851
:10BAE000C4E90601284600F0B5FA2846BDE87040D2
:10BAF00000F034B8681B002070B5054600200C46E5
:10BB00000870FFF71FF8D5E90223101A63EB010351
:10BB100000263146361A994112DAB0F5350F03D3B3
:10BB2000FDF7ACFF0B4942184FF4960300210A4879
:10BB3000FEF749FF10B10D2806D009E0012070BDC5
:10BB400000210548FEF7A8FE284600F057FA2070AD
:10BB5000002070BDFFFFB400701B0020F8B51A4C28
:10BB6000074600261948FFF74DFCD0B1616871B156
:10BB7000D0E902106268D2E90232C91A904120D29B
:10BB80006068007F18B161681048FFF72AFC00F078
:10BB9000ABF905466946FFF7AFFF98B1606840B161
:10BBA0000AE0606800280CD13846BDE8F840FEF78E
:10BBB00006BF3846FEF7FFFE65609DF800000028CE
:10BBC000D0D1F8BD6660CDE7681B0020F0C201004F
:10BBD00010B504460078002819D101216068FFF7EC
:10BBE0005DFD08B1FDF73EFF01216068FFF756FDDE
:10BBF00008B1FDF737FF60683221008810FB01F0C3
:10BC0000CD2190FBF1F0024948600249087010BD57
:10BC1000EC1A0020E91A00203EB5124A07CA8DE846
:10BC2000070004208DF802000E480F49001FFFF79F
:10BC3000EFFD08B1FDF716FF69460220FFF780FD12
:10BC4000041E04D0FDF70EFF2046FDF70BFF012177
:10BC50000648FFF723FD08B1FDF704FF0449012062
:10BC600008703EBDA8C20100D1BB0100EC1A002043
:10BC7000E41A002038B50021012548B101280CD074
:10BC8000032809D1FFF7D8FBBDE83840FFF7DEB93C
:10BC90004FF0E020C0F8805138BD8DF800106846A4
:10BCA000FDF74AFF064C207808B9FFF7B3F9E068C2
:10BCB000401CE060A5709DF80000FDF761FF38BDF5
:10BCC0002C1D00203EB5044609496846FFF762FB7B
:10BCD00008E000BFD0E900212046904730B1684617
:10BCE000FFF76FFB02980028F4D13EBD11203EBD46
:10BCF00040C301003EB5044608496846FFF74AFBC9
:10BD000007E000BFD0E90021204690476846FFF7D2
:10BD100058FB02980028F5D13EBD00004CC301003D
:10BD200002498969002900D008477047941C002007
:10BD30002DE9F0410746806A14468846C8B30025BD
:10BD400031E000BFB96A05EB450001EB8006B08821
:10BD5000801CFE2802D90C20BDE8F0812288401CFE
:10BD600008F8020020881622401C80B2208008F8C3
:10BD700000202088401C80B2208000EB0801308821
:10BD800000F0ECF92188084480B22080B28842B1EA
:10BD9000B16871B14044FDF725FB2088B1880844A3
:10BDA00020806D1CEDB297F82C00A842CAD8002064
:10BDB000D2E7FFE70720CFE700B591B0FDF7EAFF34
:10BDC00008B1FDF74FFE40216846FDF724FB0AA1AC
:10BDD0006846FEF7E5FA0BA102A8FEF7E1FA01209A
:10BDE0008DF83C006846FEF7D1F8002801D0FDF739
:10BDF00039FE11B000BD00004D616B69686F6D6563
:10BE0000000000004D4B505F446F6F725F30303068
:10BE10003100000007494FF6FF700A4A08800649C2
:10BE2000FF2008700648054901601F21818082605B
:10BE300081817047E61A0020E81A0020D01B0020FC
:10BE4000101C0020EF1B00200A78062822F0FF02B9
:10BE50000A7010D2DFE800F0030507090B0D00207F
:10BE600008E0112006E0212004E0312002E0122049
:10BE700000E0222008707047002805D10349012006
:10BE800048700020FEF7F2BB704700002C1D002018
:10BE900010B51620FDF756FDA0B1114890F800042A
:10BEA0004009082811D20121814011F0EC0F0CD07B
:10BEB0000C4882684FF480016AB1016841F4800146
:10BEC000016010BD42F2010001E042F20200BDE853
:10BED0001040FDF7C7BD4FF0E020C0F8001110BDC5
:10BEE00016E000E0341E00200148FFF78EBA000083
:10BEF000F0C2010070B50C00054602D10020FDF72C
:10BF0000B1FD15B90020FDF7ADFD2078287020881F
:10BF1000000A68702068000CA8702068000EE870A5
:10BF200020792871207A68712089000AA871A06898
:10BF3000000CE87170BD000002488168491C8160F6
:10BF400070470000F41A002010B5FFF7EBFC094819
:10BF5000007800280CD00848027809480749008872
:10BF6000FDF7E9FEFEF772FBBDE8104000F0E2B815
:10BF700010BD0000E41A0020E91A0020B41B0020C4
:10BF8000E61A002010B50F4C2146A0680A790A284D
:10BF900002D9A2B101206070A0786178884206D0F1
:10BFA0000A4809490088FDF7DDFEFEF74FFB2079BE
:10BFB00008B10021A16020706078A07010BD02203F
:10BFC000E9E70000F41A0020B41B0020E61A002064
:10BFD00010B5074CE078002809D007486279054978
:10BFE0000088FDF757FFFEF731FB0020E07010BD21
:10BFF000F41A0020B41B0020E61A002070B5044695
:10C00000124800250078F8B1F4B1207FE0B1FEF7C6
:10C0100099FDD4E90223801A994110D320690026A2
:10C0200000B92677D4E905108847206960B1217FDF
:10C0300051B1D4E9022110187141C4E9020121462D
:10C040000348FFF7CEF90125284670BD681B002084
:10C05000F0C20100F8B51B4C69462068FEF7DEFE11
:10C0600000260127184D29E0017821B101290CD0C3
:10C0700002291BD114E041680A7FBAB90F774168E1
:10C0800010480830FFF7ADF910E041686868814258
:10C0900001D16E600AE00B480830FFF7BDF905E0FA
:10C0A000FFF722FF08B10677FAE72F70694620688C
:10C0B000FEF7A9FE69462068FEF7B0FE0028D3D13E
:10C0C000F8BD0000E8C20100681B0020F8B50B4C69
:10C0D0000D46064669462068FEF78AFE58B106708E
:10C0E000456069462068FEF7A4FE10B10448FEF7DB
:10C0F0004DFC0020F8BD0420F8BD0000E8C201009E
:10C10000701B002008B503208DF801008DF8000099
:10C110009DF80200064A20F003008DF802006946EF
:10C120000D20FFF71DFA01210D20FFF7C7F908BD0B
:10C13000B1AB010010B5FFF70BFC06490220C1F8B6
:10C14000080380214FF0E0220020C2F8801202494B
:10C15000087010BD00700040E41A00200870000A4A
:10C160004870022070470000F8B5054680B2FEF71F
:10C170002FFD040013D0154E207A0027317B884212
:10C180000ED2A8B204F10A0175DF28B1112806D039
:10C19000BDE8F840FFF7C4BD207A401C2072F8BD0E
:10C1A0002772307C38B1A8B23B2176DF18B108285D
:10C1B00001D0FFF7B5FD71690029F0D08DF800704E
:10C1C000ADF8025068468847F8BD0000941C002076
:10C1D0002DE9FC411646DDE90854CDE900541F461F
:10C1E0008046022200F00CF8002807D1CDE9005467
:10C1F0003B4610223146404600F002F8BDE8FC8183
:10C200002DE9FC5F0026DDE90C4B994692468E46EF
:10C2100080462788354630E0D8F80400002200EB3D
:10C22000850069460068019001A864DF002830D1CC
:10C230009DF8000050451FD10EB1002100E0022101
:10C24000228808441118594522D846B9521C90B288
:10C25000208009F800E02088401C208001262188E9
:10C2600001A801EB0902694664DF002811D120888A
:10C270009DF80010084420806D1CB8F80000A8420A
:10C28000CADC56B12088C01B401E80B2FF2802D9EC
:10C290000C20BDE8FC9F09F807000020F9E700002A
:10C2A000201C002001000600000000000200000425
:10C2B0000000000034120000FB349B5F800000800F
:10C2C0000010000034120000401C0020770A00001B
:10C2D00000000000770A000000000000000000508D
:10C2E0000338FDD870470000CC1D00200100060077
:10C2F00000000000881B0020B1A601000000000023
:10C300000338FDD870470000000000000000000066
:10C31000000000000000000000000000000000001D
:10C3200008C3010020C30100040000000000000059
:10C3300000000000000000000000000001000007F5
:10C340002CC301003CC301000800000064C30100CD
:10C3500074C301000800000074C3010084C301001D
:10C360000800000028C4010030C4010000000000E3
:10C370000000000018C4010028C4010000000000F3
:10C3800000000000F0C30100F8C30100F8C3010081
:10C3900008C40100000000000000000008C4010003
:10C3A00010C40100E01A002084C30100A4C30100EE
:10C3B0000800000010C4010018C4010000000000C3
:10C3C00000000000B4C30100C4C301000800000065
:10C3D00030C40100E01A0020C400000024990100CC
:10C3E000F4C40100A41B0020AC0A00003499010031
:10C3F00089A2010000000000E9AE0100A41B00209A
:10C400008DA1010000000000C9A001000000000093
:10C4100079BE01000000000059B2010000000000D8
:10C4200059B301000000000075BC010000000000CD
:10C430000090D0030000FFFFFF000000000000009C
:10C4400000000000000000000000000000000000EC
:10C4500000000000000000000000000000000000DC
:10C4600000000000000000000000000000000000CC
:10C4700000000000000000000000000000000000BC
:10C4800000000000000000000000000000000000AC
:10C49000000000000000000000000000000000009C
:10C4A000000000000000000000000000000000008C
:10C4B000000000000000000000000000000000007C
:10C4C0000010014011000400000000000000000006
:10C4D000000000000000000000000000000000005C
:10C4E000000000000000000000000000000000004C
:04C4F0000000000048
:040000050001920163
:00000001FF
