:020000040001F9
:10900000B0260020C1930100C9930100CB93010059
:10901000CD930100CF930100D19301000000000027
:10902000000000000000000000000000D3930100D9
:10903000D593010000000000D7930100D9930100EF
:10904000D59E0100DB93010089A30100DB930100A1
:10905000DB93010000000000A99C0100359F010086
:10906000DB930100DB930100DB930100DB93010044
:10907000DB930100DB930100DB930100DB93010034
:10908000DB930100259F0100DB930100DB930100CE
:10909000DB930100DB930100C5A10100DB9301001C
:1090A000DB930100DB9301000000000000000000E2
:1090B000DB930100DB9301000000000000000000D2
:1090C00000000000000000000000000000000000A0
:1090D0000000000000000000000000000000000090
:1090E0000000000000000000000000000000000080
:1090F0000000000000000000000000000000000070
:10910000000000000000000000000000000000005F
:10911000000000000000000000000000000000004F
:10912000000000000000000000000000000000003F
:10913000000000000000000000000000000000002F
:10914000000000000000000000000000000000001F
:10915000000000000000000000000000000000000F
:1091600000000000000000000000000000000000FF
:1091700000000000000000000000000000000000EF
:1091800000000000000000000000000000000000DF
:1091900000000000000000000000000000000000CF
:1091A00000000000000000000000000000000000BF
:1091B00000000000000000000000000000000000AF
:1091C000000000000000000000000000000000009F
:1091D000000000000000000000000000000000008F
:1091E000000000000000000000000000000000007F
:1091F000000000000000000000000000000000006F
:10920000DFF80CD000F01AF900480047C9B201009D
:10921000B026002030B450E8012F93B2C489234413
:109220008489A34228BF1B1B0489A34202BFBFF34A
:109230002F8F002007E0C3EA020340E80134002C2E
:10924000E9D14FF001000A6030BC704750E8012FAF
:10925000C2EA024240E801210029F7D1704730B448
:1092600050E8022F1FFAA2F3C488A34202BFBFF343
:109270002F8F00200DE0C48923448489A34228BF96
:109280001B1BC2EA034340E80234002CE8D14FF034
:1092900001000A6030BC704750E8022FC2EA224247
:1092A00040E802210029F7D17047034653E8022F16
:1092B000D988B2EB324F4FF0000017BF92B241EAAB
:1092C000014142EA014104E05A68B2EB324F08BF63
:1092D000012043E80212002AE8D1704730B4044666
:1092E00054E8000F0D4644E80053002BF8D11560F8
:1092F00030BC704730B4044654E8000F40EA010522
:1093000044E80053002BF7D1156030BC704730B4EF
:10931000044654E8000F00EA010544E80053002B1E
:10932000F7D1156030BC704730B4044654E8000FE4
:1093300080EA010544E80053002BF7D1156030BCEA
:10934000704730B4044654E8000F00EB010544E8D0
:109350000053002BF7D1156030BC704730B4044681
:1093600054E8000FA0EB010544E80053002BF7D1AF
:10937000156030BC704770B404464FF0000054E8EC
:10938000006F0D68AE4207BF44E80023012044E8A7
:1093900000630E60002B1CBF0020F0E770BC70471C
:1093A00030B4044654E8000F88422CBF451A0546E5
:1093B00044E80053002BF5D1156030BC7047000025
:1093C0000648804706480047FEE7FEE7FEE7FEE75F
:1093D000FEE7FEE7FEE7FEE7FEE7FEE7C9A10100C4
:1093E0000192010040EA01039B0703D009E008C98C
:1093F000121F08C0042AFAD203E011F8013B00F85A
:10940000013B521EF9D27047D2B201E000F8012BA5
:10941000491EFBD270470022F6E710B513460A46F4
:1094200004461946FFF7F0FF204610BD421C10F815
:10943000011B0029FBD1801A70470000064C074D24
:1094400006E0E06840F0010394E807009847103414
:10945000AC42F6D3FFF7D8FE00C8010020C80100D7
:1094600070B504460078002832D10321606802F00C
:109470005DFC08B100F0E4FF0220401C0328FCDB87
:1094800060684FF41661408810FB01F01149124AE0
:1094900090FBF1F081B211806368A2F116005D8843
:1094A00005811B88DE2513FB05F50A2340F655567A
:1094B000714395FBF3F5B1FBF3F1691AD180616853
:1094C0000A8882808988C180BDE8704000F006B8B3
:1094D00070BD0000EE1F0100FC1A002010B502F064
:1094E0007FFD06490220C1F8080380214FF0E022E9
:1094F0000020C2F880120249087010BD00700040C0
:10950000581B002070B58AB002258DF82450002425
:109510008DF8254006208DF8260001268DF827605D
:1095200009A8344902F0BCFC08B100F089FF8DF8AD
:1095300004508DF803408DF8054004208DF802504A
:109540008DF807008DF800408DF808408DF8014037
:109550008DF806406946032002F03AFC08B100F09D
:109560006FFF8DF810508DF80F408DF811400520D9
:109570008DF80E508DF813008DF80C408DF81440C6
:109580008DF80D408DF8124003A9042002F020FC54
:1095900008B100F055FF8DF81C508DF81B408DF878
:1095A0001D4007208DF81A508DF81F008DF81840C7
:1095B0008DF820408DF819408DF81E4006A9062030
:1095C00002F006FC08B100F03BFF03210A4802F05C
:1095D000ADFB08B100F034FF07480321801D02F005
:1095E000A5FB08B100F02CFF02F0E4FC0348067074
:1095F0000AB070BD61940100541C0020581B00206B
:109600000A48007800280FD009484FF47A72418840
:10961000491C89B2B1FBF2F3418002FB131109B975
:109620000121017001F098BA70470000581B00201A
:10963000E61A002007B586B0012200230093ADF89A
:1096400010200193029303938DF80220498AADF80C
:10965000001008A9039104A902916946AEDF09B080
:1096600000BD00280BD0A0F54051023907D00828D2
:1096700005D043F20141884201D000F0E1BE7047BD
:1096800030B58DB00446764B086860630FCB08ADEB
:1096900085E80F0004F13C0108A862DF00287CD1B6
:1096A00094F83C008DF8320041F23420ADF83000DF
:1096B00022460CA90120A8DF00286ED1202168468F
:1096C000FFF7A9FE41F23520ADF8000094F83C0008
:1096D0008DF8020001259DF80D00ADF8065040F010
:1096E00012008DF81150ADF804508DF80D008DF872
:1096F00013502088A21C694601F0E2FA00284CD1E0
:1097000020216846FFF787FE41F23620ADF80000C1
:1097100094F83C008DF802009DF80D00ADF806505D
:1097200040F012008DF81150ADF804508DF80D0086
:109730008DF81350208804F10A02694601F0C0FA3E
:1097400000282AD120216846FFF765FE41F2372024
:10975000ADF8000094F83C008DF802009DF80D0073
:109760008DF81150ADF8065040F01A008DF81250E7
:10977000ADF804508DF80D008DF81350208804F1D9
:109780002202694601F09CFA002867D12021684630
:10979000FFF741FE41F2382000E05FE0ADF8000045
:1097A00094F83C008DF802009DF80D00ADF80650CD
:1097B00040F012008DF81150ADF804508DF80D00F6
:1097C0008DF81350208804F11202694601F078FAEE
:1097D000002843D120216846FFF71DFE41F23920C1
:1097E000ADF8000094F83C008DF802009DF80D00E3
:1097F0008DF81150ADF8065040F01A008DF8125057
:10980000ADF804508DF80D008DF81350208804F148
:109810002A02694601F054FA00281FD12021684627
:10982000FFF7F9FD4FF49250ADF8000094F83C00BA
:109830008DF802009DF80D00ADF8065040F01200C2
:109840008DF81150ADF804508DF80D008DF81350BF
:10985000208804F11A02694601F032FA0DB030BDD9
:10986000E8C6010007B586B0012200230093ADF8D9
:1098700010200193029303938DF80220498BADF8D9
:10988000001008A9039104A902916946AEDF09B04E
:1098900000BD07B586B0012200230093ADF810206B
:1098A0000193029303938DF80220498DADF80010C7
:1098B00008A9039104A902916946AEDF09B000BD71
:1098C00007B586B0012200230093ADF81020019364
:1098D000029303938DF802204988ADF8001008A97F
:1098E000039104A902916946AEDF09B000BD07B536
:1098F00086B0012200230093ADF81020019302935B
:1099000003938DF802204989ADF8001008A903914E
:1099100004A902916946AEDF09B000BD07B586B063
:10992000012200230093ADF81020019302930393CA
:109930008DF80220498CADF8001008A9039104A904
:1099400002916946AEDF09B000BD000030B529497B
:10995000A5B00968249190F83C008DF892003C2154
:109960006846FFF758FD02208DF8000001248DF8AD
:10997000024006208DF803003C210FA8FFF74BFDA5
:1099800024A81D4D1490ADF84C402A1D6846296846
:1099900000F0FEFD08B100F053FD174A0FA80C328D
:1099A000A96800F0F5FD08B100F04AFD18211EA8D5
:1099B000FFF731FD00208DF88D408DF87840ADF82F
:1099C00084001F908DF88C004FF4C8600A492090E5
:1099D0001EAA081F72DF08B100F032FD06480422FB
:1099E000001F0178012077DF002801D000F028FD5A
:1099F00025B030BDE4C60100081B00200448012149
:109A0000007873DF002801D000F01ABD7047000015
:109A1000041B002000F014BD00B587B01C2168466F
:109A2000FFF7F9FC00204FF4A021CDE900018910D7
:109A3000029103218DF80C10ADF80E008DF8100086
:109A40000648059006480690684600F06BFE002820
:109A500001D000F0F5FC07B000BD0000E19B010063
:109A6000159A010038B5384C01886588212952D0F3
:109A70000BDC102913D0112946D0132954D100230F
:109A80001A46852128467FDF54E03B2958D05229C9
:109A90004BD0562948D18088132176DF4AE02B49E4
:109AA000808860800A782A49FFF7C4FDFFF7D9FD56
:109AB0002848027826496088FFF719FFFFF7D1FD93
:109AC0002548027822496088FFF7FAFEFFF7C9FDB2
:109AD000224802781E496088FFF720FFFFF7C1FD8A
:109AE0001F4802781A496088FFF7D3FEFFF7B9FDD7
:109AF000012217496088FFF7B5FE6088BDE838404D
:109B000001221349FFF7AEBE4FF6FF706080BDE83B
:109B10003840FFF773BF00210091808869468FDFCE
:109B2000002801D000F08CFC38BD00231A461946ED
:109B30002846B1DF0028F7D0BDE8384000F080BCEF
:109B40008088132176DFF5E7041B0020E71A002048
:109B5000141C00201C1B0020281B0020E41A0020DD
:109B6000E51A00200EB514A19DF8080020F00F00A2
:109B7000401C20F0F00010308DF808000E2202A8E2
:109B80007CDF08B100F05CFC0020009001904FF4F5
:109B9000C871ADF80400ADF800104FF47A704900B8
:109BA000ADF80600ADF8021068467ADF002801D053
:109BB00000F046FC0EBD00004D4B50205049522095
:109BC00053656E736F72000010B5002101F0BAFC8E
:109BD000002803D0BDE8104000F032BC10BD0000EA
:109BE0000078002807D104483B21408876DF002810
:109BF00001D000F025BC7047041B002000B593B0D5
:109C000000211091119110A9FFF73AFD08B100F061
:109C100017FC40216846FFF7FEFB0CA1684600F0E8
:109C20008DFF0DA102A800F089FF0FA104A800F08C
:109C300085FF01208DF83C00684600F0D7FD002824
:109C400001D000F0FDFB13B000BD00004D616B6959
:109C5000686F6D65000000004D4B505F5049525FCA
:109C600030303031000000005049525F3030303029
:109C7000303030310000000008B501F063FE08B15B
:109C800000F0DEFB002000906946012001F0E2FDBB
:109C900008B100F0D5FB684601F01CFE002801D099
:109CA00000F0CEFB08BD00002DE9F04700268AB089
:109CB000DFF85091B0464FF4807501243746069680
:109CC000284601F065FD38B1D9F80403204203D0DD
:109CD000284601F053FD26432D1D64007F1CADB2C4
:109CE000082FEDD34FF4BE74204601F051FD48B16A
:109CF000204601F043FD46F0004606AA012100205F
:109D000001F028FD404D16F0FF0F15D0012700246B
:109D100037420DD009EB8401D1F81005D1F81015A8
:109D2000C0F3042055F82420C1F3014102B190474B
:109D30007F00641C082CEBD3002E5FDA4FF0FF305D
:109D4000CDF8108054E0281910F8507F90F90000E9
:109D500027F0C008401C3BD007A9404601F0E0FBBB
:109D600010B34FEA9719404600F072FF55F8207083
:109D70001FB1B9F1030F03D006E0B9F1030F27D1EA
:109D800004A9404601F0D4FB4FF0A04101EB88004C
:109D9000D0F8000706A9C0F3014A404601F0C0FB15
:109DA00018B1BAF1020F03D012E0BAF1030F0FD1CC
:109DB000B9F1030F08D1BAF1020F1DD002214046BC
:109DC00001F0AEFC761CF6B217B149464046B847E2
:109DD000641C042CB7D3002E10D06A460121002049
:109DE00001F0B8FC06990098884207D006900498C4
:109DF000002634460790A6E70321E0E70AB0BDE855
:109E0000F087000000600040A01D0020184910B538
:109E1000164A09880020A2F1080400BF32F8103069
:109E20008B4206D202EB40035B888B4201D9431C74
:109E30002370401C0828F1DB0E4821786278006806
:109E4000914200D0606005D16268A0EB02000A2850
:109E500000D3A170A078E178884201D001F01AFA0D
:109E600020786070A078E07010BD0000441B0020D6
:109E7000EC1A00205C1B002002490320C1F80007F7
:109E800000F021B86400005000B5094B094A186879
:109E90005168401A1E2801D900F00EF810780028E9
:109EA00005D01868506000F00EF80020107000BD5A
:109EB0005C1B0020341B00204FF0A0414FF00070CD
:109EC000C1F8080570474FF0A0414FF00070C1F88D
:109ED0000C05704770B54FF48076304601F0CAFB30
:109EE0000F4DB40540B1304601F0CBFB0120C4F862
:109EF00008032968002088474FF48276304601F035
:109F0000B9FB00280AD0304601F0BBFB0220C4F8A0
:109F100008032968BDE870400120084770BD0000B3
:109F2000B41B002002490248091F0968006808475D
:109F3000F01B00202DE9FE434FF48278404601F0EB
:109F400065FC4C4F00254C4C012600B3404601F007
:109F500065FC94F82E0010B194F82F10D1B18DF853
:109F60000050616801912189ADF80810E26832B1B2
:109F7000218B618362602181E56010B102E025746C
:109F800000E03E6021686846884784F82F5094F8C6
:109F90002E0060B34FF48077384601F037FC30B3C1
:109FA000384601F03BFC628B94F82D108A420AD9A6
:109FB000A2EB010080B260832289A2EB00006268FC
:109FC00002EB400005E007D1E06828B184F82F607B
:109FD000658301F009FC04E08A4202D184F82F6015
:109FE0006583404601F01AFC2248001D06604FF4CC
:109FF0008877384601F00AFC48B1384601F00EFC7B
:10A00000257402208DF800002168684688474FF4C7
:10A010008A77384601F0FAFB28B1384601F0FEFB9A
:10A020002574BDE8FE834FF000484FF48C796769D2
:10A030001DE000BFB7FA87F028FA00F109EB8005B0
:10A040008F43284601F0E2FB88B1284601F0E6FB89
:10A05000A5F58C75E8088DF8040045F38000401CD8
:10A060008DF800608DF80500216868468847002F4C
:10A07000E0D1D6E700700040FC1D002010B501F0D3
:10A080001FFEBDE8104000F029B8000010B5042004
:10A0900001F057FB18B100200249087010BD0120E3
:10A0A000FAE70000281B002070B509480125084C7C
:10A0B00005700848103400686060042001F041FB1E
:10A0C00010B10020207070BD03480570257070BD70
:10A0D000181B00205C1B0020341B002008B500204A
:10A0E0008DF8010003208DF800009DF80200074A5A
:10A0F00020F003008DF802006946042001F078FD8D
:10A100000121042001F022FD08BD0000A9A00100EA
:10A11000074841F650110078C0F1080010FB01F02B
:10A120001E2190FBF1F0034900F522704880704732
:10A13000E41A0020FC1A00200748C188428807481A
:10A14000914205D94CF25032914201D2012100E0F6
:10A150000021817070470000FC1A00201C1B0020A9
:10A1600010B5FFF7D5FFFFF7E7FF114C1148626804
:10A17000016801208A1A642AA27803D91AB9002139
:10A18000217002E00AB1207061606178227891420A
:10A190000AD0012A01D108490870094807490088F6
:10A1A000FFF7A5FBFFF75DFA2078607010BD000097
:10A1B0001C1B00205C1B0020341B0020141C0020F2
:10A1C000061B002001F0F8BB70B54FF08051D1F8AC
:10A1D0004422D1F830015A4BC2F342321A600023B4
:10A1E0008A00C2F80C31C2F81031554A121F1360B0
:10A1F000544A1268544C2260524A121D1268241D9F
:10A200002260504A08321268241D22604D4A0C32E6
:10A210001268241D22604B4A10321268241D2260ED
:10A22000484A14321268241D2260464A18321268C5
:10A23000454C20342260434A1C321268241D22609F
:10A24000404A20321268241D22603E4A243212689D
:10A25000241D22603B4A28321268241D2260394A9C
:10A260002C321268241D2260364A30321268364C75
:10A2700040342260334A34321268241D2260314A4D
:10A2800038321268241D22602E4A3C321268241D86
:10A2900022602C4A40321268241D226001242B4A7D
:10A2A000082802D1D1F8345115B1082804D00CE0A7
:10A2B000274EFB25356002E0D1F834512DB991F8D5
:10A2C0005852116865F30301116022490D68ED07CA
:10A2D00002D06FF001050D60106840F00F001060B3
:10A2E0004FF01021D1F80002002803DBD1F804025E
:10A2F000002821DA184A146018480468002CFCD0A1
:10A300001224C1F800420568002DFCD0C1F80442B7
:10A3100001680029FCD0136001680029FCD0BFF35C
:10A320004F8F0F4801680F4A01F4E061114301604B
:10A33000BFF34F8F00BFFDE70C490B48086070BDAD
:10A340003C0500400404001020C50040E40E00401D
:10A3500018F500400004004004E5014000E401401D
:10A360000CED00E00400FA050090D003E01A002094
:10A3700004484168491C41600078002801D1FFF77A
:10A38000C1B87047581B0020014800680047000012
:10A39000BC1B002010B50B4A01210B4800F062F8ED
:10A3A00008B100F04DF80848002240F266610068EC
:10A3B00000F092F8002803D0BDE8104000F040B84B
:10A3C00010BD000071A30100F8C6010002E008C83A
:10A3D000121F08C1002AFAD170477047002001E01F
:10A3E00001C1121F002AFBD1704700000121202863
:10A3F00003DA81400548014003E0402802DA2038B2
:10A40000814009B10120704700207047FC06FFBD64
:10A4100072B609480068C00700D000BEBFF34F8F76
:10A420000548E4380168054A01F4E0611143016020
:10A43000BFF34F8F00BFFDE7F0ED00E00400FA0529
:10A440000EB500210091CDE901106A4644F20100E9
:10A45000FFF7DEFF0EBD0000014800F0E8BD000080
:10A46000D01B00203AB100680129426100D00021D0
:10A4700001610020704707207047000038B511487F
:10A4800008235822416800910F49006800F0DDFF61
:10A49000002815D10D4A69460D4800F0CDFD040095
:10A4A0000ED101210A4800F010FE0123094A194685
:10A4B000074800F094FD064901200839087020463D
:10A4C00038BD000018C701003C1E002031C101004A
:10A4D000D01B0020FFFF7F0070B50446007F0D46B3
:10A4E00008B1002070BDA26100F08EFE401941F15C
:10A4F0000001C4E90201206900B125612146BDE8DF
:10A500007040002002F030B801460020087701209A
:10A5100002F02AB830B5EFF3108172B60D4A946894
:10A52000012324B10370002900D162B630BD9360CD
:10A530004FF0E023D3F88051074C25401560C3F855
:10A540008041D3F8844154605A17C3F88421002213
:10A550000270E8E7941E0020FC06FFBD0B498A68E4
:10A56000002A11D000280FD1EFF3108072B60B68CB
:10A570004FF0E022C2F800314B68C2F804310022EB
:10A580008A60002800D162B670470000941E002047
:10A590002DE9FC47002517880646158090F82D0008
:10A5A0001446894630B13A462146484600F0EEF856
:10A5B000051E09D1B0784FF00C0A18B32088C846A0
:10A5C000001DB84202D95046BDE8FC87684679DFD5
:10A5D0000028F9D12088032108F8001020881921CB
:10A5E000401C80B2208008F800102088401C80B2F7
:10A5F000208000EB0801BDF8000001F0D1FF2188A8
:10A6000008442080F0780222C8B1218896F90330EE
:10A6100001F1030C4846BC45D5D8425421884FF07F
:10A62000010C491C89B2218000F801C02188491C15
:10A6300089B2218009F801302088401C2080706890
:10A64000B8B1218890F9003001F1030C4846BC45AF
:10A65000B9D8425421880A22491C89B22180425427
:10A660002188491C89B2218009F801302088401CCA
:10A670002080308950B1CDE900474B4606220221A7
:10A6800006F1080001F0C6FF051E9DD1308A50B1C9
:10A69000CDE900474B460722032106F1100001F0E7
:10A6A000B9FF051E90D1308B50B1CDE900474B4624
:10A6B0001522142106F1180001F0ACFF051E83D10C
:10A6C000306A30B13B462246494600F00EFC051E7A
:10A6D000DBD1706A30B13B462246494600F030FE7D
:10A6E000051ED2D196F82C0038B13B462246494689
:10A6F000304601F015FE051EC7D1307838B13B4613
:10A7000022464946304600F04DFE051EBDD1284682
:10A710005AE70A46014610460A88502A01D101F03C
:10A7200095BC704770B5040012D001461C22144835
:10A73000FEF758FE1248134D0560206850B17ADFCD
:10A74000002806D12068016829604068686005E03B
:10A750000E2070BD0B487BDF0028FAD108484FF669
:10A76000FF711438084A20F8041B05493439016088
:10A770000021FFF777FE0028EBD0032070BD00001A
:10A78000F41C0020601B0020ADC501007CB505460F
:10A7900008880C460930904201D90C207CBD6846DF
:10A7A0006DDF0028FAD121880820685420881B21F9
:10A7B000401C80B2208029542088401C80B2208018
:10A7C0002844DDF801100160BDF805108180208863
:10A7D000801D80B220809DF80010490800D0012122
:10A7E00029542088401C208000207CBD1FB50446D1
:10A7F00001208DF8060041F60A00ADF80400494A30
:10A8000001A90120A8DF00287DD122885AB145483E
:10A81000801C009094F83C3042F62920616800F0DA
:10A820001FFA00287BD122895AB13E480A30009095
:10A8300094F83C3042F62420E16800F011FA002838
:10A840006DD1228A5AB137481230009094F83C30CA
:10A8500042F62520616900F003FA00285FD1228BBF
:10A860005AB130481A30009094F83C3042F6272014
:10A87000E16900F0F5F9002851D1228C5AB129483C
:10A880002230009094F83C3042F62620616A00F0B5
:10A89000E7F9002843D1228D5AB122482A3000908E
:10A8A00094F83C3042F62820E16A00F0D9F90028FB
:10A8B00035D1216B79B102A801F0CCFD19480822ED
:10A8C0003230009094F83C3002A942F6232000F088
:10A8D000C7F9002823D1606B60B112493A31009169
:10A8E0000279016894F83C3042F62A2000F0B8F969
:10A8F000002814D1A16B89B102A801F0F5FB094829
:10A900004230009000E00AE094F83C30072202A9AF
:10A9100042F6502000F0A4F9002800D1002004B035
:10A9200010BD0000681B00202DE9F04701883B4E58
:10A9300040F2F3194FF6FF7510291BD011293ED0B4
:10A94000122954D0502946D1C188F289841D9142E0
:10A9500041D1618902293ED18688304600F06EFCE3
:10A96000050038D004F10C0000F0F1F8A8B3294636
:10A9700030464EE0C17B8788044601292BD1A8468A
:10A98000284600F05BFC050017D02F8000202872BD
:10A99000234843464A460168C5F80A104068C5F88E
:10A9A0000E0004F1100105F10A0000F051FC68727C
:10A9B000F08900280FD129462AE0042013E080887E
:10A9C00000F03CFC040006D06068FFF79DFD08B174
:10A9D00001F09EFC2580BDE8F087FFE76868FFF77F
:10A9E00093FD0028F7D0BDE8F04701F091BC8788BF
:10A9F0000646384600F022FC0400ECD02B464A46BE
:10AA000006F1080104F10A0000F022FC6072214600
:10AA10003846BDE8F04700F0ADBA0000F41C002055
:10AA2000601B00202DE9F04F0446868801884248CB
:10AA300097B0834610290CD0112950D01030192915
:10AA40006AD01A2974D1217A0C09042C4DD3012221
:10AA50004CE0394D083DA868C0430B9069680BA8CD
:10AA600000F052FD0B990CA800F020FA2C220CA942
:10AA70006846FEF7B7FC0027E946A84610E000BF8D
:10AA800009EB47005FF00005B0F804A008EB850073
:10AA90005146001D00F018FD6D1C1E2DF6D37F1CC5
:10AAA0000098B842ECD8142E05D317B00420BDE8A6
:10AAB000F04FFFF7C5BC3146584600F01BFD31464C
:10AAC00008F1040000F016FDE07B012830D017B03B
:10AAD0003146BDE8F04F1848001D00F00BBD17B01F
:10AAE0003146BDE8F04F00F0EFBC0022314600F0E7
:10AAF0007EFB032C01D3012200E000220E483146E8
:10AB00000C3000F074FB022C01D3012200E0002283
:10AB100009483146083006E0217A002908D1617AD7
:10AB2000C1F3C002314617B0BDE8F04F00F05FBB83
:10AB300017B0BDE8F08F0000181D002070B5044666
:10AB40000D460846FEF772FC2080656070BD0078F7
:10AB500000F00100704700002DE9F047204C002074
:10AB600004F10E022189D7881688054632F8103084
:10AB70008B421BD202EB400CBCF80290894515D9E0
:10AB8000DFF85CC00CF10A0C0CEB00081CF800A00C
:10AB900098F80180A8EB0A0CA1EB03080CFB08FC59
:10ABA000A9EB03039CFBF3F3534463708F4201D280
:10ABB000642363708E4200D96570401C0328D5DB86
:10ABC000207800280AD06278074806490088FEF7F6
:10ABD00031FD2570BDE8F047FEF743BDBDE8F087C5
:10ABE000E61A0020141C0020061B002005494FF027
:10ABF000FF32082841F8202002D3084480F848207A
:10AC000070470000A01D0020F0B54FF0FF3512B1D5
:10AC10000023082601E008230C260C4C05E000BFA9
:10AC200054F823707F1C04D05B1CB342F8D3284631
:10AC3000F0BD26185DB286F8305044F82310002A83
:10AC4000F5D1E11881F84800F1E70000A01D0020CF
:10AC50000249084490F9300070470000A01D002010
:10AC60002DE9F04188B01E46DDF8388014460D000D
:10AC7000074602D10020FFF7E3FB14B90020FFF7DD
:10AC8000DFFB20216846FEF7C6FB9DF80D00ADF8FE
:10AC9000044040F002008DF80D000848ADF8007047
:10ACA000ADF8064002958DF811604246694600886D
:10ACB00000F006F808B0BDE8F0810000681B002035
:10ACC0002DE9F0438146887891B090460C4600B952
:10ACD00001208DF83E002088ADF83C00002500954D
:10ACE000607C694601F060FB6E46A07C711C01F03F
:10ACF0005BFBE07B00289DF8020002D040F00800DA
:10AD000001E020F008008DF80200217C11B140F034
:10AD1000100001E020F010008DF80200217B11B13D
:10AD200040F0010001E020F001008DF80200217DDB
:10AD300009B1022100E0012161F342008DF8020017
:10AD40001C2102A8FEF767FB607BC10601D48006C8
:10AD500017D50E950EAFE07C791C01F025FB9DF810
:10AD60003800079720F00F00401C20F0F000103052
:10AD70008DF838009DF83A0020F00600801C8DF810
:10AD80003A00607B8DF80800A07B8DF80900142143
:10AD900009A8FEF740FB0FA8CDE90906A088ADF889
:10ADA0003000A06820B1E088ADF82C00A0680D90BC
:10ADB000A06998B301950088ADF81000A06901ADB5
:10ADC00001A94088ADF81200A0694068069503907B
:10ADD000A069007B01F0E8FAA069691C407B01F0E2
:10ADE000E3FAA069807A00289DF8060002D040F0BE
:10ADF000080001E020F008008DF80600A169C97A7A
:10AE000011B140F0100001E020F010008DF80600B4
:10AE1000A169097A19B140F0010002E00DE020F0CB
:10AE200001008DF80600A169897B09B1022100E0CB
:10AE3000012161F342008DF80600E06900B1059040
:10AE4000434609AA02A94846AADF11B0BDE8F0832B
:10AE500070B5084C050009D010342168002907D0CE
:10AE600008682060496828468847F6E70834F4E710
:10AE700070BD00008C1D0020054A012120B1012871
:10AE800005D19170FFF7E4BF51700020FAE77047D9
:10AE90008C1D002010B5D0E90234D1E90220D11A6E
:10AEA000A04101D3012010BD002010BD73B58CB0AE
:10AEB0000646002000900D9880B100246D46214682
:10AEC0000DA800F00CFB30B1009805EB4000848029
:10AED0000098401C0090641C142CF0D32C2269466E
:10AEE0003046FEF77FFA0EB070BD2DE9F0411788AD
:10AEF0000646B81D14460D46984202D90C20BDE8FE
:10AF0000F0813188072206290AD34FF4486C4FF6A6
:10AF1000FF73614501D9994202D17088062801D298
:10AF20001046ECE7604501D99842F9D1994203D027
:10AF3000984201D08142F3D80520E855208812219B
:10AF4000401C80B2208029542088401C80B2208080
:10AF50004119308801F024FB2188084480B2208008
:10AF60004119708801F01CFB2188084420800020D2
:10AF7000C5E7000038B54A7A0F4B62B100220A7269
:10AF80005969002906D001228DF80020ADF8020091
:10AF90006846884738BD0A7A62B19B684C680246A9
:10AFA00019462046FFF798FA0028F3D0BDE838404C
:10AFB00001F0AEB95B68F1E7F41C00204FF4803279
:10AFC0008A400168C1F848230068C0F80823704728
:10AFD0004FF4A07202EB810189B200F0FEB82DE9B6
:10AFE000F04105460E464FF4A07000EB860081B29A
:10AFF00028684FF48034B440984622F07F47C0F868
:10B0000008432868C0F84843286800F0E7FB286830
:10B0100000EB8600C0F840752868C0F84443B8F1DA
:10B02000000F02D02868C0F80443BDE8F081006832
:10B03000D0F804057047000010B543791B4C44F864
:10B0400023204279231D03EBC20212790AB10820A2
:10B0500010BD02680C88C2F8084590F90420897870
:10B06000002A4FEA411106DA02F00F0202F1E02253
:10B0700082F8141D03E002F1E02282F8001490F936
:10B080000410012201F01F0402FA04F449098900A6
:10B0900001F1E021C1F80041417903EBC1010A71DE
:10B0A000417943F83100002010BD0000EC1B002066
:10B0B00090F90400012100F01F0291404009800036
:10B0C00000F1E020C0F8001270470A46022100F0AB
:10B0D0007BB84FF4827100F080B8006801210160F4
:10B0E000704700680121416070472DE9F05F074615
:10B0F0000C464FF4A07000EB84001FFA80FA386809
:10B100004FF48036A6409B4622F07F45C0F8486346
:10B110003868C0F808633868D0F8048500EB84020A
:10B12000D2F84095C2F840855146386800F056FB89
:10B13000A9EB080020F07F40012806D1102000F084
:10B14000FDFC5146386800F049FB3868D0F80485AA
:10B15000C0F84463A5EB080121F07F41386801295C
:10B1600000EB840010D0C0F840553868D0F80415C2
:10B170006FF07F4C6A1A521E22F07F42ACEB0B0339
:10B18000934217D362B118E06D1CC0F840551020EF
:10B1900000F0D4FC3868D0F8040540450AD10CE032
:10B1A00000EB84006D1CC0F840553868D0F80405E9
:10B1B000884202D00D20BDE8F09F0122314638467A
:10B1C00000F002F80020F6E70368C3F84413002AF1
:10B1D00002D00068C0F80413704710B500684258E8
:10B1E0001AB100F0FBFA012010BD002010BD0AB119
:10B1F00000F080B900F068B91CB568466DDF002822
:10B2000001D0FFF71DF91CBD10B50B48FFF70FFF6C
:10B21000094A083AD2E90434C018D2E9063244F1A6
:10B220000001C31A71EB020204D24FF08072801841
:10B2300041F1000110BD0000D01B00200146034871
:10B2400002888A4200D0002070470000E01C0020E5
:10B25000F0B58488A518944200D82246A41AC28862
:10B26000D6189A4200D81346D21A4B880788BB4298
:10B270000CD34088834209D88888A04206D3A842CC
:10B2800004D8C888904201D3B04201D90020F0BD53
:10B290000120F0BD054810B58278064804490088B1
:10B2A000FEF7E0FABDE81040FEF7DBB93C1B0020DA
:10B2B000141C0020061B0020172101804180002162
:10B2C0000171417170470000FFF7D8F808B1FFF72E
:10B2D000B7F8FFF75FF800F021FFFEF7CFFEFEF7AB
:10B2E000D5FEFEF70FF9FEF7C7FC01203FDFFEF7A2
:10B2F00039FC1248FEF768FC10481030FEF77EFC5F
:10B300000E481030FEF722FBFEF786FBFEF776FBB9
:10B31000FEF7B2FD4FF0A0414FF00070C1F80C05F0
:10B32000FFF76AFFFEF772FDFEF71AFFFEF768F9F6
:10B33000FEF7AAFD00F048FAF4E70000041C002024
:10B3400070B5144682880E4605462088111D0144BA
:10B35000921C994201D8FE2A01D90C2070BD521CC2
:10B3600032542088FF21401C80B220803154208834
:10B37000401C80B220808119288801F011F92188B1
:10B38000084480B22080AA8842B1A96841B1304403
:10B39000FEF728F82088A98808442080002070BD86
:10B3A000072070BDF8B50F460178144605460129FF
:10B3B00001D1687830B12088821C9A4232D80129A4
:10B3C00002D006E00720F8BD69780144891C994243
:10B3D00028D8181A801E86B2ADF800602188B81CE3
:10B3E000084469467DDF0028EDD12978022904D080
:10B3F0006878BDF80020904205D3BDF80000B04247
:10B4000001D809200AE00820012905D16978B14254
:10B4100002D8ADF8001001E0ADF80060BDF80010F2
:10B42000FE2901D90C20F8BD2288491CB954218875
:10B43000491C89B2218078542088401C2080BDF8A6
:10B440000010084420800020F8BD10B531B1B2FBD7
:10B45000F3F403FB14241CB1092010BD0E2010BD11
:10B4600001600021416081608281C381084610BD76
:10B4700070B50C460546FDF7CDFE002802D02188A8
:10B480002868084470BD10B50A8849888A4203D1EB
:10B49000FDF702FF012010BD002010BD70B50C4665
:10B4A0000546FDF7DCFE002802D0618828680844C4
:10B4B00070BD10B50A8849888A4203D1FDF7C6FEDF
:10B4C000012010BD002010BD01F01F0301229A4091
:10B4D000D243490900EB8100114600F015B84A0932
:10B4E00050F8220001F01F0201219140084000D0D5
:10B4F0000120704701F01F0301229A40490900EB27
:10B500008100114600F006B808B56A46FDF7FFFE57
:10B51000009808BD08B56A46FDF7ECFE009808BD26
:10B52000C20800F007030120895C9840084070477A
:10B5300010B5C20800F00703885C01249C4020433A
:10B54000885410BD10B560B1C160172120F8021BEE
:10B5500020F8021B1B2100F8021BFFF7ADFE0020A4
:10B5600010BD0E2010BD00002DE9FC4786880C465A
:10B57000002E4AD1018801270025102908D0112961
:10B5800020D0DFF8EC903A2920D0552965D13EE053
:10B59000C07B04F10608012802D12088A8F8000029
:10B5A000B8F80010B8F80200814256D93046A5DF3D
:10B5B00010B1112803D050E088F805704DE088F8EC
:10B5C00004704DE0A01DFFF777FE46E0224640895B
:10B5D00034F8061F814200D808466080172800D240
:10B5E00017206080D06870B1607960B1D9E900102F
:10B5F000CDE90010ADF802606088ADF80400D368B2
:10B6000069461046984765712571BDE8FC87C0887A
:10B6100004F10608172800D21720B8F8001081425C
:10B6200000D80846A8F8020088F804502846B8F860
:10B630000010B5DF98F8050078B9E06868B1D9E97D
:10B640000210CDE90010ADF80260B8F80200ADF8C4
:10B650000400E268204669469047A07A0028D4D0CA
:10B660002846E188A5DF0028CFD1A572E772CCE794
:10B67000FCC6010000F180400068002800D00120D5
:10B68000704708B500F1804000210160006800901B
:10B6900008BD000070B50B4C207808B185250FE07F
:10B6A0000020A06060602061E060074800F022FA9E
:10B6B000054600F093F908B900F006FA0120207061
:10B6C000284670BD8C1D002079AE010038B50025DC
:10B6D0008DF800506846FEF71DFF074CE068401EDD
:10B6E000E060E06810B900F013FAA5709DF8000062
:10B6F000FEF734FF38BD00008C1D002070B541EA14
:10B700004201DDE904564FF0A04441EA830141EAD9
:10B71000052104EB800041EA0641C0F8001770BD26
:10B720004FF0A04202EB8000D0F8002722F4403214
:10B73000C0F80027D0F8002742EA0141C0F80017FE
:10B7400070474FF0A041D1F81015C14001F0010041
:10B750007047000018B5084B6C4601441B68009305
:10B7600006E000BF54F82030D3F81035401C08C262
:10B770008142F7D818BD00000CC70100034908B585
:10B780000844002101600068009008BD006000408E
:10B7900002494058012800D0002070470060004056
:10B7A000064910B500204870091D0860BFF35F8F7F
:10B7B0000349044800F036F9002010BDF81B0020B2
:10B7C00050C70100A01E002010B500F007F908B115
:10B7D00041DF10BD20BF40BF20BF10BD08B5002213
:10B7E00042504058009008BD024A1060101D016090
:10B7F000704700002C760040030103481844C0F84D
:10B800001425C0F8101570470070004002494058D8
:10B81000002800D00120704700700040034908B59F
:10B820000844002202600068009008BD00700040DB
:10B83000024619B140205100884070478020FAE745
:10B8400020B1034909680160002070470E2070474D
:10B85000D4C70100FEB502460C460846FFF7F0FFCC
:10B86000002835D1002500950195012606208DF888
:10B870000020ADF8040002958DF802606946202092
:10B88000226869DF0095019502958DF8016069468F
:10B890004020226869DF00950A208DF8000001959C
:10B8A000029569460120226869DF4FF4B06000907C
:10B8B000019502956946A120226869DF00950195EE
:10B8C00002958DF800506946A020226869DF0020AB
:10B8D000FEBD000060DF002802D1024A0121117084
:10B8E00070470000031C002030B5144891B0007868
:10B8F000002820D05FF03405ADF8405010A903A80F
:10B9000061DF30B1052816D011B0BDE83040FEF738
:10B9100097BD03AC0A49684600F084F807E000BF11
:10B92000D0E9002120469047684600F092F802983E
:10B930000028E1D0F4E711B030BD0000031C002066
:10B94000D8C701007CB5194C207808B108207CBD0F
:10B950000120A070002000F0ADFC112819D00020BB
:10B9600000F0C0FC12480026006801908DF80060CD
:10B970006846FEF7CFFD0F4901A810DF05000AD089
:10B98000002020709DF80000FEF7E8FD2DB128464C
:10B990007CBD00207CBD0120F3E7A670667000F03E
:10B9A00027FD012000F09EFCF3E70000001C0020B2
:10B9B0006CC7010011A401000EB50749684600F0EC
:10B9C00031F805E0D0E900108847684600F041F8FA
:10B9D00002980028F6D10EBD88C701000148007802
:10B9E00070470000001C00201FB568464BDF30B1D7
:10B9F000052814D004B0BDE81040FEF721BD084969
:10BA000001A800F00FF806E0D0E900210098904767
:10BA100001A800F01EF803980028E6D0F4E71FBD47
:10BA2000F4C70100016009684160AFF3008010B500
:10BA3000D0E900215368994201D1002104E0D1E905
:10BA40000034A34202D01946816010BD0831416024
:10BA5000F0E7816800290BD0026892680A4482608E
:10BA600041684B689A4203D108314160FFF7DFBF5C
:10BA7000704770B50D460646446804E0B268294632
:10BA8000904718B1246820680028F7D12068286002
:10BA9000256070BD406800687047416808680028EC
:10BAA00001D002680A60704702460020526806E032
:10BAB0008B4203D108681060012070471A46136852
:10BAC000002BF5D17047000008480068012110F0F4
:10BAD000010F06D14FF0E020C02280F80024C0F80A
:10BAE00000110349012008607047000000E100E0F8
:10BAF000180500400549024600200B790BB185204E
:10BB000070470A6001220A7170470000B41B0020D0
:10BB100004490120086004480168C1F3004100297C
:10BB2000FAD170470C00004018040040002802D0F1
:10BB3000014980010847704711C70100002802D061
:10BB4000014980010847704731C701002DE9F041E4
:10BB50008846054600F0B0FA234E002828461AD041
:10BB6000FFF776F8304490F848008009032802D0A7
:10BB700001280ED007E04FF0A040D0F81005E840B3
:10BB800010F0010F05D003212846BDE8F041FFF772
:10BB9000C7BD0221F8E700F09BFA002822D0284612
:10BBA000FFF756F804464FF4807000EB84000F4F07
:10BBB00081B207EB8400D0F8102542F00102C0F8F2
:10BBC00010250846FFF7DAFDB8F1000F0AD0284625
:10BBD000FFF73EF856F82000002803D00120A040CF
:10BBE000C7F80403BDE8F081A01D002000600040FC
:10BBF0002DE9FC41DFF8BC80044608EB0400002777
:10BC000090F930001346C0170E46401C01D008279B
:10BC10004CE0B0781946C0F340022046FEF7F4FF2E
:10BC20000546401C41D0B078410719D4C0070AD05E
:10BC30004FF0A04000EB8401D1F8000720F0020093
:10BC4000C1F8000707E000217378204600910A46FA
:10BC50000191FFF753FD174920465431FFF768FC67
:10BC6000B078800718D51448317800EB8500D0F8FB
:10BC70001025124B1A40C0F810254FF4F8524FF41B
:10BC8000403302EA042203EA01410A43D0F81015C6
:10BC90000A43C0F8102509E008EB0500327810F8D7
:10BCA000481F41EA8211017000E004273846BDE8D0
:10BCB000FC810000A01D002000600040FFE0FCFFB0
:10BCC00070B5174D95F8580008B1082070BD0020D8
:10BCD000411E2A18401CC0B282F830102028F8D328
:10BCE00000242046FEF782FF641CE4B20C2CF8D33B
:10BCF00000240C49C0206C6581F800040126402016
:10BD0000891FC1F800014FF4BE70FFF737FD0649E7
:10BD1000F007C1F8040385F85860204670BD0000A4
:10BD2000A01D002006E000E0006000402DE9F04189
:10BD3000254C064612200D46C4F808032348017C12
:10BD4000022918D0027C01464FF4807891F82E1019
:10BD5000012A12D00222C4F8042301270774466086
:10BD600005810022C26021B3458390F82D10304632
:10BD7000FFF73AFD25E0122002E0C2682AB1022056
:10BD8000C4F804031120BDE8F081C660058361B9E1
:10BD900047463846FFF73AFD0028FAD03846FFF705
:10BDA0003DFD29463046FFF71FFD0220C4F804037D
:10BDB00007E029463046FFF717FD4046FFF72EFD06
:10BDC00027600020DFE7000000700040FC1D00201D
:10BDD000204A10B5137C0BB1112010BD02EB4003BB
:10BDE0001C7F1CB912F82D4F641C1470CA791A7785
:10BDF0000A7A5A770A784B78302402F0030204EA70
:10BE000003131A438B784FF4E06404EA03231A43C4
:10BE1000CB784FF4805404EA03331A430B794FF480
:10BE2000E02404EA03431A434B794FF4801404EAF4
:10BE300003531A438B79240104EA0363064C1A4323
:10BE400004EB0013C3F818250A7AC979FFF7D4FC6C
:10BE5000002010BDFC1D00200070004070B505469C
:10BE60000E48017C09B1112070BD00EB45010A7F2D
:10BE70001AB110F82D2F521E027000240C774C7747
:10BE8000224621462846FFF7B7FC40F2FF72D14315
:10BE9000284600F04FF8204670BD0000FC1D002031
:10BEA0002DE9F0411F4C054694F82C0010B10820F4
:10BEB000BDE8F08144F8101B1B4928780860091D73
:10BEC00068780860E878A07701272777002020703D
:10BED00060776060154EE0776FF00040C6F80803A9
:10BEE0004FF48270FFF79AFCB015FFF797FC4FF400
:10BEF0008A70FFF793FCA8780D49400181F800048F
:10BF00008020C91FC1F800010220C6F80403A07FE9
:10BF100010B10120C6F804030348F0380760002080
:10BF2000C6E70000FC1D0020F075004000700040D6
:10BF300007E000E02DE9F04117460C460546C1EA4E
:10BF400007401A4E06EB0511C1F81C0500212846D2
:10BF5000FFF76EFC2346012101EB4502144CC90793
:10BF6000D140626913F5006F1BD00A436261C6F8C5
:10BF7000040301212846FFF75BFC6A004FF00041F3
:10BF8000D140A7F5E0636269FF3B05D00A436261D7
:10BF9000C6F80403BDE8F0818A436261C6F808036D
:10BFA000F8E78A436261C6F80803E2E700700040E0
:10BFB000FC1D0020084900200A7C012A01D008202D
:10BFC000704791F82E30054A01210BB1116070477E
:10BFD000024A121DFAE70000FC1D0020007000401C
:10BFE00070B517496FF00040C1F8080380214FF089
:10BFF000E02201200025C2F88011114908310860B3
:10C0000042F210744FF48A763046FFF7FFFB20B9F6
:10C010000020FFF78BFD641EF6D10A4805600A4E2A
:10C020003574002406EB4400007F10B1E0B2FFF746
:10C0300015FF641C082CF5D386F82C5070BD000049
:10C040000070004000750040FC1D002070B50546E2
:10C050008C1DC888698C144E884210D160890128D3
:10C060000DD1227B3346511E10481B88082901D26E
:10C07000027000E002780E491846FDF74FFC208858
:10C08000698D884208D16089012805D1217B094842
:10C090004A1E052A01D2017070BD02783088BDE8C1
:10C0A00070400349FDF7F5BB061B0020E41A002091
:10C0B000141C0020E51A00200449084490F93000BF
:10C0C000082801DB0120704700207047A01D0020D8
:10C0D0000449084490F93000082801D20120704733
:10C0E00000207047A01D002070B50D00044602D14D
:10C0F0000020FEF7A5F914B90020FEF7A1F9287871
:10C10000207069886170090AA170A988E170090A24
:10C110002171E8886071000AA07170BD10B5FFF749
:10C120003FFB002803D0BDE81040FEF789B910BDE1
:10C1300070B50546FEF7CDFF134C40B1D4E90402BB
:10C140004FF08071411842F10000C4E90410002151
:10C150002846FEF73DFF30B1606820B1606800F00E
:10C160009BF90020606001212846FEF731FF18B1DD
:10C17000FFF74AF8C4E90601284600F0B9F9284655
:10C18000BDE8704000F034B8C81B002070B505460B
:10C1900000200C460870FFF737F8D5E90223101A83
:10C1A00063EB010300263146361A994112DAB0F5E5
:10C1B000350F03D3FEF750F90B4942184FF496039D
:10C1C00000210A48FEF791FF10B10D2806D009E0C2
:10C1D000012070BD00210548FEF7F0FE284600F062
:10C1E0005BF92070002070BDFFFFB400D01B002061
:10C1F000F8B51A4C074600261948FFF74BFCD0B19A
:10C20000616871B1D0E902106268D2E90232C91ADC
:10C21000904120D26068007F18B161681048FFF734
:10C2200028FC00F011F905466946FFF7AFFF98B109
:10C23000606840B10AE0606800280CD13846BDE86B
:10C24000F840FEF74EBF3846FEF747FF65609DF8A1
:10C2500000000028D0D1F8BD6660CDE7C81B0020E3
:10C2600020C7010038B50021012548B101280CD0B4
:10C27000032809D1FFF728FCBDE83840FFF726BAAC
:10C280004FF0E020C0F8805138BD8DF800106846AE
:10C29000FEF740F9064C207808B9FFF7FBF9E06893
:10C2A000401CE060A5709DF80000FEF757F938BD0E
:10C2B0008C1D00203EB5044609496846FFF7B2FBD5
:10C2C00008E000BFD0E900212046904730B1684621
:10C2D000FFF7BFFB02980028F4D13EBD11203EBD00
:10C2E00070C701003EB5044608496846FFF79AFB4F
:10C2F00007E000BFD0E90021204690476846FFF7DD
:10C30000A8FB02980028F5D13EBD00007CC70100C3
:10C3100002498969002900D008477047F41C0020B1
:10C320002DE9F0410746806A14468846C8B30025C7
:10C3300031E000BFB96A05EB450001EB8006B0882B
:10C34000801CFE2802D90C20BDE8F0812288401C08
:10C3500008F8020020881622401C80B2208008F8CD
:10C3600000202088401C80B2208000EB080130882B
:10C3700000F016F92188084480B22080B28842B1CA
:10C38000B16871B14044FDF72DF82088B1880844A8
:10C3900020806D1CEDB297F82C00A842CAD800206E
:10C3A000D2E7FFE70720CFE70A78062822F0FF024E
:10C3B0000A7010D2DFE800F0030507090B0D00201A
:10C3C00008E0112006E0212004E0312002E01220E4
:10C3D00000E0222008707047002805D103490120A1
:10C3E00048700020FEF734BD704700008C1D00200F
:10C3F00010B51620FDF7FAFFA0B1114890F800041F
:10C400004009082811D20121814011F0EC0F0CD015
:10C410000C4882684FF480016AB1016841F48001E0
:10C42000016010BD42F2010001E042F20200BDE8ED
:10C430001040FEF705B84FF0E020C0F8001110BD25
:10C4400016E000E0941E00200148FFF726BB000024
:10C4500020C7010070B50C00054602D10020FDF791
:10C46000EFFF15B90020FDF7EBFF2078287020883A
:10C47000000A68702068000CA8702068000EE87040
:10C4800020792871207A68712089000AA871A06833
:10C49000000CE87170BD000070B50446124800251C
:10C4A0000078F8B1F4B1207FE0B1FEF7ADFED4E939
:10C4B0000223801A994110D32069002600B92677FB
:10C4C000D4E905108847206960B1217F51B1D4E9D2
:10C4D000022110187141C4E9020121460348FFF707
:10C4E000C8FA0125284670BDC81B002020C70100DE
:10C4F000F8B51B4C69462068FEF7D0FF00260127DF
:10C50000184D29E0017821B101290CD002291BD155
:10C5100014E041680A7FBAB90F77416810480830C3
:10C52000FFF7A7FA10E041686868814201D16E60A8
:10C530000AE00B480830FFF7B7FA05E0FFF784FF81
:10C5400008B10677FAE72F7069462068FEF79BFF6F
:10C5500069462068FEF7A2FF0028D3D1F8BD00008D
:10C5600018C70100C81B0020F8B50B4C0D46064645
:10C5700069462068FEF77CFF58B106704560694641
:10C580002068FEF796FF10B10448FEF791FD0020E9
:10C59000F8BD0420F8BD000018C70100D01B002022
:10C5A0000870000A4870022070470000F8B5054680
:10C5B00080B2FEF743FE040013D0154E207A002708
:10C5C000317B88420ED2A8B204F10A0175DF28B18E
:10C5D000112806D0BDE8F840FFF79ABE207A401C2B
:10C5E0002072F8BD2772307C38B1A8B23B2176DFCB
:10C5F00018B1082801D0FFF78BFE71690029F0D02F
:10C600008DF80070ADF8025068468847F8BD00000C
:10C61000F41C00202DE9FC411646DDE90854CDE963
:10C6200000541F468046022200F00CF8002807D173
:10C63000CDE900543B4610223146404600F002F856
:10C64000BDE8FC812DE9FC5F0026DDE90C4B994635
:10C6500092468E4680462788354630E0D8F804005A
:10C66000002200EB850069460068019001A864DFA4
:10C67000002830D19DF8000050451FD10EB1002197
:10C6800000E00221228808441118594522D846B9F1
:10C69000521C90B2208009F800E02088401C2080C5
:10C6A0000126218801A801EB0902694664DF002800
:10C6B00011D120889DF80010084420806D1CB8F826
:10C6C0000000A842CADC56B12088C01B401E80B2C0
:10C6D000FF2802D90C20BDE8FC9F09F807000020C4
:10C6E000F9E7000034120000FB349B5F80000080FB
:10C6F0000010000034120000A01C0020770A000087
:10C7000000000000770A0000000000000000005058
:10C710000338FDD8704700002C1E002001000600E1
:10C7200000000000E81B002095AE010000000000A2
:10C730000338FDD870470000000000000000000032
:10C7400000000000000000000000000000000000E9
:10C7500038C7010050C701000400000000000000BD
:10C7600000000000000000000000000001000007C1
:10C770005CC701006CC701000800000094C70100FD
:10C78000A4C7010008000000A4C70100B4C701004D
:10C790000800000060C8010068C801000000000037
:10C7A0000000000050C8010060C801000000000047
:10C7B0000000000020C8010028C8010028C80100AE
:10C7C00038C8010038C8010040C8010040C8010055
:10C7D00048C80100E01A0020B4C70100D4C7010016
:10C7E0000800000048C8010050C801000000000017
:10C7F00000000000E4C70100F4C7010008000000C9
:10C8000068C80100E01A002024010000CCA3010048
:10C810008CC90100041C0020AC0A0000DCA301004C
:10C8200025AA01000000000069B50100041C0020D9
:10C8300029A901000000000013A70100141C00201A
:10C84000659A010000000000D9C30100000000004B
:10C85000E9B8010000000000E9B901000000000093
:10C8600065C20100000000000090D0030301010038
:10C870000000000000000000000A5A646702A302E2
:10C880003E03B6030000000000000000FF00FFFFB1
:10C89000601C00201F0000007F1C00201F00000003
:10C8A0000000000001000000000000000000000087
:10C8B0000003000000000000000000000000000075
:10C8C0000000000000000000000000000000260240
:10C8D000E803AA056C072E09F00AB20C001000004C
:10C8E0000000000000000000000000000000000048
:10C8F0000000000000000000000000000000000038
:10C900000000000000000000000000000000000027
:10C910000000000000000000000000000000000017
:10C920000000000000000000000000000000000007
:10C9300000000000000000000000000000000000F7
:10C9400000000000000000000000000000000000E7
:10C950000000000000000000001001401100040071
:10C9600000000000000000000000000000000000C7
:10C9700000000000000000000000000000000000B7
:0CC98000000000000000000000000000AB
:040000050001920163
:00000001FF
