:020000040001F9
:10900000282D0020C1930100C9930100CB930100DA
:10901000CD930100CF930100D19301000000000027
:10902000000000000000000000000000D3930100D9
:10903000D593010000000000D7930100D9930100EF
:10904000BD9E0100DB930100A9A30100DB93010099
:10905000DB93010000000000FD9C01001D9F01004A
:10906000DB930100DB930100DB930100DB93010044
:10907000DB930100DB930100DB930100DB93010034
:10908000DB9301000D9F0100DB930100DB930100E6
:10909000DB930100DB930100FDA10100DB930100E4
:1090A000DB930100DB9301000000000000000000E2
:1090B000DB930100DB9301000000000000000000D2
:1090C00000000000000000000000000000000000A0
:1090D0000000000000000000000000000000000090
:1090E0000000000000000000000000000000000080
:1090F0000000000000000000000000000000000070
:10910000000000000000000000000000000000005F
:10911000000000000000000000000000000000004F
:10912000000000000000000000000000000000003F
:10913000000000000000000000000000000000002F
:10914000000000000000000000000000000000001F
:10915000000000000000000000000000000000000F
:1091600000000000000000000000000000000000FF
:1091700000000000000000000000000000000000EF
:1091800000000000000000000000000000000000DF
:1091900000000000000000000000000000000000CF
:1091A00000000000000000000000000000000000BF
:1091B00000000000000000000000000000000000AF
:1091C000000000000000000000000000000000009F
:1091D000000000000000000000000000000000008F
:1091E000000000000000000000000000000000007F
:1091F000000000000000000000000000000000006F
:10920000DFF80CD000F01EF900480047A5B60100B9
:10921000282D002030B450E8012F93B2C489234494
:109220008489A34228BF1B1B0489A34202BFBFF34A
:109230002F8F002007E0C3EA020340E80134002C2E
:10924000E9D14FF001000A6030BC704750E8012FAF
:10925000C2EA024240E801210029F7D1704730B448
:1092600050E8022F1FFAA2F3C488A34202BFBFF343
:109270002F8F00200DE0C48923448489A34228BF96
:109280001B1BC2EA034340E80234002CE8D14FF034
:1092900001000A6030BC704750E8022FC2EA224247
:1092A00040E802210029F7D17047034653E8022F16
:1092B000D988B2EB324F4FF0000017BF92B241EAAB
:1092C000014142EA014104E05A68B2EB324F08BF63
:1092D000012043E80212002AE8D1704730B4044666
:1092E00054E8000F0D4644E80053002BF8D11560F8
:1092F00030BC704730B4044654E8000F40EA010522
:1093000044E80053002BF7D1156030BC704730B4EF
:10931000044654E8000F00EA010544E80053002B1E
:10932000F7D1156030BC704730B4044654E8000FE4
:1093300080EA010544E80053002BF7D1156030BCEA
:10934000704730B4044654E8000F00EB010544E8D0
:109350000053002BF7D1156030BC704730B4044681
:1093600054E8000FA0EB010544E80053002BF7D1AF
:10937000156030BC704770B404464FF0000054E8EC
:10938000006F0D68AE4207BF44E80023012044E8A7
:1093900000630E60002B1CBF0020F0E770BC70471C
:1093A00030B4044654E8000F88422CBF451A0546E5
:1093B00044E80053002BF5D1156030BC7047000025
:1093C0000648804706480047FEE7FEE7FEE7FEE75F
:1093D000FEE7FEE7FEE7FEE7FEE7FEE701A201008B
:1093E0000192010000487047E8E7010040EA0103EC
:1093F0009B0703D009E008C9121F08C0042AFAD24B
:1094000003E011F8013B00F8013B521EF9D270470E
:10941000D2B201E000F8012B491EFBD270470022B6
:10942000F6E710B513460A4604461946FFF7F0FF63
:10943000204610BD421C10F8011B0029FBD1801AE8
:1094400070470000064C074D06E0E06840F001035D
:1094500094E8070098471034AC42F6D3FFF7D4FEE7
:1094600074EE010094EE010070B58C1810F8015BE9
:1094700015F0070301D110F8013B2A1106D110F8AD
:10948000012B03E010F8016B01F8016B5B1EF9D1B1
:109490002B0705D40023521E0DD401F8013BFAE737
:1094A00010F8013BCB1A921C03E013F8015B01F8A2
:1094B000015B521EF9D5A142D8D3002070BD000037
:1094C00010B50446007800281CD10321606803F021
:1094D00047FD08B100F0D2FF0220401C0328FCDB4E
:1094E0006168094864234A8842810A8812FB03F2B2
:1094F000122392FBF3F2C28089880181BDE81040FB
:1095000000F020B810BD0000E61A002010B50B4A8C
:1095100001210B4800F0C4FF08B100F0AFFF08487C
:10952000002240F26661006800F0F4FF002803D0DA
:10953000BDE8104000F0A2BF10BD00006D95010015
:10954000ACE4010010B503F065FE06490220C1F845
:10955000080380214FF0E0220020C2F88012024967
:10956000087010BD00700040E61A00200348007823
:10957000002801D100F004B870470000E61A00206E
:1095800070B58AB002258DF8245000248DF825404E
:1095900006208DF8260001268DF8276009A8344999
:1095A00003F098FD08B100F069FF8DF804508DF8C4
:1095B00003608DF8054004208DF802508DF80700F7
:1095C0008DF800408DF808408DF801408DF8064078
:1095D0006946032003F016FD08B100F04FFF8DF837
:1095E00010508DF80F408DF8114005208DF80E5069
:1095F0008DF813008DF80C408DF814408DF80D4057
:109600008DF8124003A9042003F0FCFC08B100F01F
:1096100035FF8DF81C508DF81B408DF81D4007203C
:109620008DF81A508DF81F008DF818408DF82040E5
:109630008DF819408DF81E4006A9062003F0E2FCC3
:1096400008B100F01BFF03210A4803F089FC08B1B0
:1096500000F014FF07480321801D03F081FC08B1CE
:1096600000F00CFF03F0C0FD034806700AB070BDA7
:10967000C1940100C01C0020E61A00202DE9F0472B
:109680002E4C2078002856D0A0884FF47A71401CC8
:1096900080B2B0FBF1F2A08001FB120008B90120FA
:1096A0006070264A002010326189D78816880546E6
:1096B00032F810308B421BD202EB400CBCF8029007
:1096C000894515D9DFF874C00CF10C0C0CEB0008BF
:1096D0001CF800A098F80180A8EB0A0CA1EB030885
:1096E0000CFB08FCA9EB03039CFBF3F35344A370AE
:1096F0008F4201D26423A3708E4200D9A570401C12
:109700000328D5DB6078002815D00D480D49A278D4
:10971000401AC008032101EB00400BA102F094FEA7
:10972000A2780B480949008800F014F86570BDE87C
:10973000F04700F026B8BDE8F0870000E61A0020E8
:1097400004EF0100A4EE010025640000641C002069
:10975000021B002007B586B0012200230093ADF85C
:1097600010200193029303938DF80220498AADF8EB
:10977000001008A9039104A902916946AEDF09B05F
:1097800000BD00280BD0A0F54051023907D00828B1
:1097900005D043F20141884201D000F06FBE70470E
:1097A00030B58DB00446634B0868E0620FCB08AD5E
:1097B00085E80F0004F1340108A862DF00287CD19D
:1097C00094F834008DF8320041F23420ADF83000C6
:1097D00022460CA90120A8DF00286ED1202168466E
:1097E000FFF71DFE41F23520ADF8000094F834007B
:1097F0008DF8020001259DF80D00ADF8065040F0EF
:1098000012008DF81150ADF804508DF80D008DF850
:1098100013502088A21C694601F018FB00284CD187
:1098200020216846FFF7FBFD41F23620ADF800002D
:1098300094F834008DF802009DF80D00ADF8065044
:1098400040F012008DF81150ADF804508DF80D0065
:109850008DF81350208804F10A02694601F0F6FAE7
:10986000002865D120216846FFF7D9FD41F2372055
:10987000ADF8000094F834008DF802009DF80D005A
:10988000ADF8065040F00A008DF81150ADF80450C4
:109890008DF80D008DF81250208804F11A026946E7
:1098A00001F0D4FA002843D120216846FFF7B7FD24
:1098B00041F23820ADF8000000E039E094F83400BF
:1098C0008DF802009DF80D00ADF8065040F0120032
:1098D0008DF81150ADF804508DF80D008DF813502F
:1098E000208804F11202694601F0B0FA00281FD165
:1098F00020216846FFF793FD41F23920ADF80000C2
:1099000094F834008DF802009DF80D00ADF8065073
:1099100040F00A008DF81150ADF804508DF80D009C
:109920008DF81250208804F12202694601F08EFA67
:109930000DB030BDBCE4010007B586B001220023A4
:109940000093ADF810200193029303938DF8022049
:109950004988ADF8001008A9039104A9029169464D
:10996000AEDF09B000BD07B586B001220023009329
:10997000ADF810200193029303938DF802204989DA
:10998000ADF8001008A9039104A902916946AEDF61
:1099900009B000BD30B52949A5B00968249190F8F7
:1099A00034008DF892003C216846FFF738FD022014
:1099B0008DF8000001248DF8024006208DF8030088
:1099C0003C210FA8FFF72BFD24A81D4D1490ADF8E6
:1099D0004C402A1D6846296800F080FE08B100F05E
:1099E0004DFD174A0FA80C32A96800F077FE08B1A8
:1099F00000F044FD18211EA8FFF711FD00208DF88E
:109A00008D408DF87840ADF884001F908DF88C0063
:109A10004FF4C8600A4920901EAA081F72DF08B1DF
:109A200000F02CFD06480422001F0178012077DF9A
:109A3000002801D000F022FD25B030BDB4E40100C3
:109A4000041B002004480121007873DF002801D0A6
:109A500000F014BD70470000001B002000F00EBD98
:109A600000B587B01C216846FFF7D9FC00204FF4F1
:109A7000A021CDE900018910029103218DF80C107D
:109A8000ADF80E008DF810000648059006480690C7
:109A9000684600F0EDFE002801D000F0EFFC07B0B2
:109AA00000BD0000359C01005D9A0100F8B5344D01
:109AB000018804466E88212948D015DC3148324A95
:109AC0001029A0EB02004FEAD0004FF0030202EB96
:109AD000004013D011292FD0132940D100231A465A
:109AE000852130467FDF40E03B2944D0522937D0E2
:109AF000562934D18088132176DF36E023A102F085
:109B00009FFC2549A08868800A782449FFF722FE37
:109B1000FFF737FE2248027820496888FFF723FFC5
:109B2000FFF72FFE1F4802781C496888FFF704FFE3
:109B3000BDE8F840FFF725BE1BA102F081FC4FF6FF
:109B4000FF706880BDE8F840FFF77CBF0020009000
:109B5000A08869468FDF002801D000F08FFCF8BD97
:109B600000231A4619463046B1DF0028F7D0BDE879
:109B7000F84000F083BC8088132176DFF5E7000011
:109B8000001B002004EF0100A4EE0100436F6E6E85
:109B90006563746564000000E81A0020641C0020FE
:109BA000151B0020191B0020446973636F6E6E65DE
:109BB00063746564000000000EB514A19DF80800F0
:109BC00020F00F00401C20F0F00010308DF808004D
:109BD0000E2202A87CDF08B100F050FC00200090AB
:109BE00001904FF4C871ADF80400ADF800104FF4C7
:109BF0007A704900ADF80600ADF8021068467ADFC9
:109C0000002801D000F03AFC0EBD00004D4B502062
:109C10005049522053656E736F72000010B50021D9
:109C200001F05EFF002803D0BDE8104000F026BC24
:109C300010BD00000078002807D104483B2140886F
:109C400076DF002801D000F019BC7047001B00200F
:109C500000B593B000211091119110A9FFF7A0FD5C
:109C600008B100F00BFC40216846FFF7D8FB0CA1BF
:109C7000684601F009F80DA102A801F005F80FA14E
:109C800004A801F001F801208DF83C00684600F0BE
:109C900053FE002801D000F0F1FB13B000BD00001E
:109CA0004D616B69686F6D65000000004D4B505F42
:109CB0005049525F30303031000000005049525F4F
:109CC00030303030303030310000000008B502F064
:109CD000E3FE08B100F0D2FB0020009069460120AD
:109CE00002F098FD08B100F0C9FB684602F00EFED4
:109CF000002801D000F0C2FB08BD00002DE9F047AC
:109D000000268AB0DFF85091B0464FF480750124E8
:109D100037460696284602F093F938B1D9F804037D
:109D2000204203D0284602F081F926432D1D64000D
:109D30007F1CADB2082FEDD34FF4BE74204602F065
:109D40007FF948B1204602F071F946F0004606AAB4
:109D50000121002002F056F9404D16F0FF0F15D0FA
:109D60000127002437420DD009EB8401D1F81005FA
:109D7000D1F81015C0F3042055F82420C1F3014197
:109D800002B190477F00641C082CEBD3002E5FDAF1
:109D90004FF0FF30CDF8108054E0281910F8507FB4
:109DA00090F9000027F0C008401C3BD007A94046AE
:109DB00001F084FE10B34FEA9719404601F00EF807
:109DC00055F820701FB1B9F1030F03D006E0B9F1C7
:109DD000030F27D104A9404601F078FE4FF0A041BF
:109DE00001EB8800D0F8000706A9C0F3014A4046FD
:109DF00001F064FE18B1BAF1020F03D012E0BAF11B
:109E0000030F0FD1B9F1030F08D1BAF1020F1DD022
:109E10000221404602F0DCF8761CF6B217B1494642
:109E20004046B847641C042CB7D3002E10D06A46B5
:109E30000121002002F0E6F806990098884207D038
:109E400006900498002634460790A6E70321E0E731
:109E50000AB0BDE8F087000000600040101E00203E
:109E600002490320C1F8000700F021B86400005047
:109E700000B5094B094A18685168401A1E2801D9D3
:109E800000F00EF81078002805D01868506000F037
:109E90000EF80020107000BD2C1B0020301B00208D
:109EA0004FF0A0414FF00070C1F8080570474FF027
:109EB000A0414FF00070C1F80C05704770B54FF429
:109EC0008076304601F098FE0F4DB40540B1304623
:109ED00001F099FE0120C4F8080329680020884792
:109EE0004FF48276304601F087FE00280AD03046D3
:109EF00001F089FE0220C4F808032968BDE870401B
:109F00000120084770BD0000981B0020024902484C
:109F1000091F096800680847D01B00202DE9FE438F
:109F20004FF48278404602F051FC4C4F00254C4CD7
:109F3000012600B3404602F051FC94F82E0010B107
:109F400094F82F10D1B18DF80050616801912189EA
:109F5000ADF80810E26832B1218B61836260218123
:109F6000E56010B102E0257400E03E6021686846BB
:109F7000884784F82F5094F82E0060B34FF4807710
:109F8000384602F023FC30B3384602F027FC628BDF
:109F900094F82D108A420AD9A2EB010080B26083A6
:109FA0002289A2EB0000626802EB400005E007D1C5
:109FB000E06828B184F82F60658302F0F5FB04E0C7
:109FC0008A4202D184F82F606583404602F006FC85
:109FD0002248001D06604FF48877384602F0F6FBF1
:109FE00048B1384602F0FAFB257402208DF80000D3
:109FF0002168684688474FF48A77384602F0E6FBC6
:10A0000028B1384602F0EAFB2574BDE8FE834FF024
:10A0100000484FF48C7967691DE000BFB7FA87F0FC
:10A0200028FA00F109EB80058F43284602F0CEFBA9
:10A0300088B1284602F0D2FBA5F58C75E8088DF8AA
:10A04000040045F38000401C8DF800608DF8050089
:10A05000216868468847002FE0D1D6E700700040AD
:10A06000BC1E002010B50B4A01210B4800F018FA65
:10A0700008B100F003FA0848002240F26661006867
:10A0800000F048FA002803D0BDE8104000F0F6B90F
:10A0900010BD0000EDA10100B8E4010010B502F010
:10A0A000FBFEBDE8104000F025B8000010B504200C
:10A0B00001F09FFF18B100200249487110BD012036
:10A0C000FAE70000141B002070B5084C012525702C
:10A0D000A0692061042001F08CFF10B100206071A4
:10A0E00070BD03480570657170BD0000141B002031
:10A0F000301B002008B500208DF8010003208DF8EA
:10A1000000009DF80200074A20F003008DF80200CD
:10A110006946042002F058FE0121042002F002FEEC
:10A1200008BD0000C9A001000F4810B50D49007816
:10A130000A8800EBC00303EB001302EB43040B4A55
:10A1400013888A1F9C4208D849886FF0180410FBB6
:10A1500004F001EB4000984201DA012000E0002009
:10A16000D07010BD1A1B0020E41A0020EC1A002049
:10A1700070B5FFF7D9FF154CE168A069411A642951
:10A18000E17803D919B90020607003E011B1012111
:10A190006170E06020796178884214D060786278DC
:10A1A0000C480B490088FFF7DEFB05460A480B49BF
:10A1B000401AC008032101EB004009A102F040F958
:10A1C0002846FFF7DEFA6078207170BD141B00206E
:10A1D000641C0020021B002004EF0100A4EE01001B
:10A1E000475549204455204C49455500024881694E
:10A1F000491C816170470000141B002002F086BCDE
:10A2000070B54FF08051D1F84422D1F830015A4B4B
:10A21000C2F342321A6000238A00C2F80C31C2F83D
:10A220001031554A121F1360544A1268544C226070
:10A23000524A121D1268241D2260504A08321268C8
:10A24000241D22604D4A0C321268241D22604B4AA4
:10A2500010321268241D2260484A14321268241DEC
:10A260002260464A18321268454C20342260434A24
:10A270001C321268241D2260404A20321268241DBC
:10A2800022603E4A24321268241D22603B4A283252
:10A290001268241D2260394A2C321268241D226063
:10A2A000364A30321268364C40342260334A3432F7
:10A2B0001268241D2260314A38321268241D22603F
:10A2C0002E4A3C321268241D22602C4A4032126809
:10A2D000241D226001242B4A082802D1D1F83451D0
:10A2E00015B1082804D00CE0274EFB25356002E0AC
:10A2F000D1F834512DB991F85852116865F3030122
:10A30000116022490D68ED0702D06FF001050D6064
:10A31000106840F00F0010604FF01021D1F80002DB
:10A32000002803DBD1F80402002821DA184A14605F
:10A3300018480468002CFCD01224C1F800420568BB
:10A34000002DFCD0C1F8044201680029FCD0136044
:10A3500001680029FCD0BFF34F8F0F4801680F4AF6
:10A3600001F4E06111430160BFF34F8F00BFFDE7CF
:10A370000C490B48086070BD3C0500400404001007
:10A3800020C50040E40E004018F5004000040040E5
:10A3900004E5014000E401400CED00E00400FA0592
:10A3A0000090D003E01A0020014800680047000038
:10A3B000A01B002002E008C8121F08C1002AFAD121
:10A3C00070477047002001E001C1121F002AFBD135
:10A3D000704700000121202803DA81400548014030
:10A3E00003E0402802DA2038814009B1012070479B
:10A3F00000207047FC06FFBD72B602F0C3F800BF34
:10A4000001F004FF0028FBD111481249401AC4088A
:10A41000012000EB044010A102F012F8114800687E
:10A42000C00700D000BE022000EB04400EA102F0E5
:10A4300007F8BFF34F8F0B48E43801680E4A01F468
:10A44000E06111430160BFF34F8F00BFFDE70000E3
:10A4500004EF0100A4EE0100466174616C20657296
:10A46000726F7200F0ED00E053797374656D2072C5
:10A4700065736574000000000400FA050EB5002144
:10A480000091CDE901106A4644F20100FFF7B4FFE4
:10A490000EBD0000014800F09ABE0000B01B002075
:10A4A0003AB100680129426100D000210161002019
:10A4B000704707207047000038B51148082358221C
:10A4C000416800910F49006801F01FFA002815D17A
:10A4D0000D4A69460D4800F07FFE04000ED10121AF
:10A4E0000A4800F0F0FE0123094A1946074800F027
:10A4F00046FE0649012008390870204638BD000094
:10A50000F8E40100FC1E0020CDD90100B01B0020A2
:10A51000FFFF7F0070B50446007F0D4608B10020A4
:10A5200070BDA26100F066FF401941F10001C4E96D
:10A530000201206900B125612146BDE8704000207C
:10A5400003F0F6BC014600200877012003F0F0BCC0
:10A5500030B5EFF3108172B60D4A9468012324B12F
:10A560000370002900D162B630BD93604FF0E02344
:10A57000D3F88051074C25401560C3F88041D3F8CB
:10A58000844154605A17C3F8842100220270E8E71E
:10A59000541F0020FC06FFBD0B498A68002A11D019
:10A5A00000280FD1EFF3108072B60B684FF0E02255
:10A5B000C2F800314B68C2F8043100228A600028DA
:10A5C00000D162B670470000541F00202DE9F04111
:10A5D000064608680C46411C4FF0A0474FF00105A5
:10A5E00006D005FA00F1C7F80815206801F0DCFC78
:10A5F0006068411C02D0002101F0C4FC3168A069F0
:10A60000C1F82405607D227D31681043C1F86C05D6
:10A61000D4E900123068C0F81425C0F80C15207D6C
:10A62000012815D1A068411C02D0002101F0AAFC2C
:10A63000E068411C05D08540C7F80855E06801F086
:10A64000B3FCD4E902123068C0F80825C0F8101530
:10A65000BDE8F0812DE9F041064608680C46411C32
:10A660004FF0A0474FF0010506D005FA00F1C7F8FA
:10A670000815206801F0A2FC6068411C02D000218E
:10A6800001F089FC3168A069C1F82405607D217D55
:10A6900032680843C2F86C05D4E900123068C0F88B
:10A6A0000C15C0F81425207D012815D1A068411C87
:10A6B00002D0002101F06FFCE068411C05D085400C
:10A6C000C7F80855E06801F079FCD4E90212306857
:10A6D000C0F80825C0F81015BDE8F0812DE9FC4749
:10A6E000002517880646158090F82D0014468946E7
:10A6F00030B13A462146484600F0EEF8051E09D131
:10A70000B0784FF00C0A18B32088C846001DB84234
:10A7100002D95046BDE8FC87684679DF0028F9D1A8
:10A720002088032108F8001020881921401C80B2DD
:10A73000208008F800102088401C80B2208000EBA8
:10A740000801BDF8000003F0B6FD21880844208010
:10A75000F0780222C8B1218896F9033001F1030C88
:10A760004846BC45D5D8425421884FF0010C491CBD
:10A7700089B2218000F801C02188491C89B221805A
:10A7800009F801302088401C20807068B8B1218809
:10A7900090F9003001F1030C4846BC45B9D8425449
:10A7A00021880A22491C89B2218042542188491CEF
:10A7B00089B2218009F801302088401C208030892E
:10A7C00050B1CDE900474B460622022106F10800B0
:10A7D00003F004FE051E9DD1308A50B1CDE900473B
:10A7E0004B460722032106F1100003F0F7FD051E7A
:10A7F00090D1308B50B1CDE900474B461522142142
:10A8000006F1180003F0EAFD051E83D1306A30B16D
:10A810003B462246494600F02EFC051EDBD1706AFD
:10A8200030B13B462246494600F092FF051ED2D188
:10A8300096F82C0038B13B4622464946304603F094
:10A840000DFA051EC7D1307838B13B46224649463D
:10A85000304601F007F8051EBDD128465AE70A46E2
:10A86000014610460A88502A01D102F0E7BF70471E
:10A8700070B5040012D001461C221448FEF7B6FD44
:10A880001248134D0560206850B17ADF002806D1C8
:10A890002068016829604068686005E00E2070BD8E
:10A8A0000B487BDF0028FAD108484FF6FF711438B7
:10A8B000084A20F8041B0549343901600021FFF7DC
:10A8C000EFFD0028EBD0032070BD0000641D0020C8
:10A8D000381B002075E301007CB5054608880C464E
:10A8E0000930904201D90C207CBD68466DDF0028FC
:10A8F000FAD121880820685420881B21401C80B28E
:10A90000208029542088401C80B220802844DDF813
:10A9100001100160BDF8051081802088801D80B283
:10A9200020809DF80010490800D00121295420887A
:10A93000401C208000207CBD1FB5044601208DF8FE
:10A94000060041F60A00ADF80400494A01A90120B9
:10A95000A8DF00287DD122885AB14548801C00908C
:10A9600094F83C3042F62920616800F03FFA002854
:10A970007BD122895AB13E480A30009094F83C308D
:10A9800042F62420E16800F031FA00286DD1228AD5
:10A990005AB137481230009094F83C3042F62520E6
:10A9A000616900F023FA00285FD1228B5AB1304848
:10A9B0001A30009094F83C3042F62720E16900F00C
:10A9C00015FA002851D1228C5AB129482230009022
:10A9D00094F83C3042F62620616A00F007FA00281D
:10A9E00043D1228D5AB122482A30009094F83C304D
:10A9F00042F62820E16A00F0F9F9002835D1216BF0
:10AA000079B102A803F00AFA1948082232300090FE
:10AA100094F83C3002A942F6232000F0E7F9002820
:10AA200023D1606B60B112493A310091027901681B
:10AA300094F83C3042F62A2000F0D8F9002814D1CE
:10AA4000A16B89B102A802F027FF094842300090AB
:10AA500000E00AE094F83C30072202A942F65020B8
:10AA600000F0C4F9002800D1002004B010BD00009F
:10AA7000401B00202DE9F04701883B4E40F2F319BE
:10AA80004FF6FF7510291BD011293ED0122954D042
:10AA9000502946D1C188F289841D914241D16189F2
:10AAA00002293ED18688304600F0BEFC050038D031
:10AAB00004F10C0000F0F1F8A8B3294630464EE04E
:10AAC000C17B8788044601292BD1A846284600F07F
:10AAD000ABFC050017D02F80002028722348434686
:10AAE0004A460168C5F80A104068C5F80E0004F12E
:10AAF000100105F10A0000F051FD6872F08900288C
:10AB00000FD129462AE0042013E0808800F08CFC55
:10AB1000040006D06068FFF715FD08B103F076F871
:10AB20002580BDE8F087FFE76868FFF70BFD002888
:10AB3000F7D0BDE8F04703F069B887880646384685
:10AB400000F072FC0400ECD02B464A4606F10801E6
:10AB500004F10A0000F022FD607221463846BDE88B
:10AB6000F04700F0CDBA0000641D0020381B002023
:10AB70002DE9F04F044686880188424897B0834605
:10AB800010290CD0112950D0103019296AD01A2957
:10AB900074D1217A0C09042C4DD301224CE0394D9B
:10ABA000083DA868C0430B9069680BA800F018FF27
:10ABB0000B990CA800F040FA2C220CA96846FEF76D
:10ABC00015FC0027E946A84610E000BF09EB470046
:10ABD0005FF00005B0F804A008EB85005146001DA9
:10ABE00000F0D2FE6D1C1E2DF6D37F1C0098B842DB
:10ABF000ECD8142E05D317B00420BDE8F04FFFF7B2
:10AC00003DBC3146584600F0D5FE314608F10400FF
:10AC100000F0D0FEE07B012830D017B03146BDE80F
:10AC2000F04F1848001D00F0C5BE17B03146BDE812
:10AC3000F04F00F0A9BE0022314600F0D6FB032CF5
:10AC400001D3012200E000220E4831460C3000F012
:10AC5000CCFB022C01D3012200E00022094831463E
:10AC6000083006E0217A002908D1617AC1F3C002D8
:10AC7000314617B0BDE8F04F00F0B7BB17B0BDE8E4
:10AC8000F08F0000881D002070B504460D46084670
:10AC9000FEF7D0FB2080656070BD007800F00100F9
:10ACA000704700002DE9F8430546861C00208DF80A
:10ACB000000090460F464FF001096846FFF748FC38
:10ACC0001B4C20683860D4E90001401AA16804F2E6
:10ACD0001C47081A0EE00121384600F07BFE00F008
:10ACE00093FC0146384600F075FED4E90001401A95
:10ACF000A168081A401C8642EDD8B8F1000F03D0B5
:10AD0000052065F3891002E0062065F39F50A268D4
:10AD10002168114004EB8101C86020683044206044
:10AD20009DF80000FFF738FC4846BDE8F8830000B6
:10AD30000421002070B50D4604460A2902D10D21D8
:10AD4000FFF7F8FFA0682268411CA1601554D4E900
:10AD50000101814204D32046BDE8704000F0D1BF1C
:10AD600070BD0000034803C8814201D10120704733
:10AD7000002070470421002005494FF0FF320828C9
:10AD800041F8202002D3084480F848207047000092
:10AD9000101E0020F0B54FF0FF3512B10023082639
:10ADA00001E008230C260C4C05E000BF54F823708A
:10ADB0007F1C04D05B1CB342F8D32846F0BD261894
:10ADC0005DB286F8305044F82310002AF5D1E1181E
:10ADD00081F84800F1E70000101E002002490844F5
:10ADE00090F9300070470000101E00202DE9F0415E
:10ADF00088B01E46DDF8388014460D00074602D1A3
:10AE00000020FFF73BFB14B90020FFF737FB2021A0
:10AE10006846FEF704FB9DF80D00ADF8044040F0D5
:10AE200002008DF80D000848ADF80070ADF806403E
:10AE300002958DF8116042466946008800F006F8D8
:10AE400008B0BDE8F0810000401B00202DE9F04370
:10AE50008146887891B090460C4600B901208DF863
:10AE60003E002088ADF83C0000250095607C6946D6
:10AE700002F038FF6E46A07C711C02F033FFE07BCD
:10AE800000289DF8020002D040F0080001E020F008
:10AE900008008DF80200217C11B140F0100001E0A3
:10AEA00020F010008DF80200217B11B140F001006C
:10AEB00001E020F001008DF80200217D09B102219E
:10AEC00000E0012161F342008DF802001C2102A87C
:10AED000FEF7A5FA607BC10601D4800617D50E9552
:10AEE0000EAFE07C791C02F0FDFE9DF8380007975C
:10AEF00020F00F00401C20F0F00010308DF83800DA
:10AF00009DF83A0020F00600801C8DF83A00607B26
:10AF10008DF80800A07B8DF80900142109A8FEF720
:10AF20007EFA0FA8CDE90906A088ADF83000A06828
:10AF300020B1E088ADF82C00A0680D90A06998B30E
:10AF400001950088ADF81000A06901AD01A9408805
:10AF5000ADF81200A069406806950390A069007BD7
:10AF600002F0C0FEA069691C407B02F0BBFEA06934
:10AF7000807A00289DF8060002D040F0080001E029
:10AF800020F008008DF80600A169C97A11B140F0DF
:10AF9000100001E020F010008DF80600A169097A88
:10AFA00019B140F0010002E00DE020F001008DF841
:10AFB0000600A169897B09B1022100E0012161F34A
:10AFC00042008DF80600E06900B10590434609AAE9
:10AFD00002A94846AADF11B0BDE8F08370B5084C5D
:10AFE000050009D010342168002907D008682060C6
:10AFF000496828468847F6E70834F4E770BD000042
:10B00000FC1D0020054A012120B1012805D19170C5
:10B01000FFF7E4BF51700020FAE77047FC1D0020E5
:10B0200010B5D0E90234D1E90220D11AA04101D3F0
:10B03000012010BD002010BD73B58CB00646002065
:10B0400000900D9880B100246D4621460DA800F0B7
:10B05000A6FC30B1009805EB400084800098401CAD
:10B060000090641C142CF0D32C2269463046FEF765
:10B07000BDF90EB070BD2DE9F04117880646B81D28
:10B0800014460D46984202D90C20BDE8F081318863
:10B09000072206290AD34FF4486C4FF6FF73614527
:10B0A00001D9994202D17088062801D21046ECE7F6
:10B0B000604501D99842F9D1994203D0984201D014
:10B0C0008142F3D80520E85520881221401C80B227
:10B0D000208029542088401C80B22080411930886B
:10B0E00003F0E9F82188084480B220804119708873
:10B0F00003F0E1F82188084420800020C5E7000023
:10B1000038B54A7A0F4B62B100220A725969002998
:10B1100006D001228DF80020ADF80200684688476D
:10B1200038BD0A7A62B19B684C68024619462046CF
:10B13000FFF7F0F90028F3D0BDE8384002F066BD13
:10B140005B68F1E7641D002010B50021024800F0A3
:10B1500052FC80F3100010BD202500204FF48032F7
:10B160008A400168C1F848230068C0F80823704786
:10B170004FF4A07202EB810189B200F02CB92DE9E5
:10B18000F04105460E464FF4A07000EB860081B2F8
:10B1900028684FF48034B440984622F07F47C0F8C6
:10B1A00008432868C0F84843286801F0F7FA28687F
:10B1B00000EB8600C0F840752868C0F84443B8F139
:10B1C000000F02D02868C0F80443BDE8F081006891
:10B1D000D0F804057047000070B54379224C44F85C
:10B1E00023204279241D04EBC202204B1579204A0A
:10B1F0009A1AD3082DB10824022000EB03401DA1A8
:10B200002EE002680D88C2F8085590F9042089786C
:10B21000002A4FEA411106DA02F00F0202F1E022A1
:10B2200082F8141D03E002F1E02282F8001490F984
:10B230000410012201F01F0502FA05F549098900F1
:10B2400001F1E021C1F80051417904EBC1010A711B
:10B25000417944F831000320002400EB03400EA1A3
:10B2600001F0EEF8204670BDCC1B0020ECEE010092
:10B27000A4EE010052544320696E7374616E6365DD
:10B2800020616C726561647920696E697469616CB2
:10B29000697A65642E0000005254433A20696E6951
:10B2A0007469616C697A65642E00000090F904008D
:10B2B000012100F01F0291404009800000F1E020D0
:10B2C000C0F8001270470A46022100F07BB84FF424
:10B2D000827100F080B80068012101607047006849
:10B2E0000121416070472DE9F05F07460C464FF49D
:10B2F000A07000EB84001FFA80FA38684FF48036A3
:10B30000A6409B4622F07F45C0F848633868C0F8E5
:10B3100008633868D0F8048500EB8402D2F84095C1
:10B32000C2F840855146386801F038FAA9EB0800A8
:10B3300020F07F40012806D1102001F0EBFC51469F
:10B34000386801F02BFA3868D0F80485C0F84463F7
:10B35000A5EB080121F07F413868012900EB84004A
:10B3600010D0C0F840553868D0F804156FF07F4C05
:10B370006A1A521E22F07F42ACEB0B03934217D3A2
:10B3800062B118E06D1CC0F84055102001F0C2FCFD
:10B390003868D0F8040540450AD10CE000EB840081
:10B3A0006D1CC0F840553868D0F80405884202D0BA
:10B3B0000D20BDE8F09F01223146384600F002F82A
:10B3C0000020F6E70368C3F84413002A02D000689F
:10B3D000C0F80413704710B5006842581AB101F064
:10B3E000DDF9012010BD002010BD0AB100F0E2BA65
:10B3F00000F0CABA10B50B48FFF7E9FE094A083A4F
:10B40000D2E90434C018D2E9063244F10001C31A6B
:10B4100071EB020204D24FF08072801841F10001FA
:10B4200010BD0000B01B00200146034802888A427C
:10B4300000D0002070470000501D00202DE9FC5F67
:10B440000E008346DDE90C47C6F10000984692469F
:10B45000814600D40846012503E000BF90FBFAF0C6
:10B460006D1C5045FADAA84500D9454624B1002E96
:10B4700001DB780700D5641EB80702D5B8F1000FCC
:10B480000AD0F80708D13CB1A54205D22021584680
:10B49000641EFFF74FFCF6E7002E02DA4E462D2120
:10B4A00002E0780703D52B215846FFF743FC07F04D
:10B4B000030002280BD1B8F1000F08D13CB1A5421E
:10B4C00005D230215846641EFFF734FCF6E7CDE97B
:10B4D0000047434652463146584602F0F1FEBDE869
:10B4E000FC9F000070B50D46044600684FF488715B
:10B4F00001F0D0FB4FF49071206801F0CBFB4FF4CA
:10B500009271206801F0C6FB4FF4A271206801F02F
:10B51000C1FB4FF4AC71206801F0BCFB20681149FD
:10B52000C0F804132068690740F30730090E0028AB
:10B5300006DA00F00F0000F1E02080F8141D03E0AF
:10B5400000F1E02080F800142068012140F307306A
:10B5500000F01F0291404009800000F1E020C0F897
:10B56000001170BD1003420002460020126853070C
:10B5700013D502F00300012802D002280CD105E007
:10B58000C2F383100B68801C184404E0022308688F
:10B5900003EB92521044086001207047F0B5848894
:10B5A000A518944200D82246A41AC288D6189A42F6
:10B5B00000D81346D21A4B880788BB420CD3408868
:10B5C000834209D88888A04206D3A84204D8C888F4
:10B5D000904201D3B04201D90020F0BD0120F0BD5E
:10B5E000172101804180002101714171704710B520
:10B5F0004FF48041002000F08FFF08B1FEF73EFFBE
:10B60000BDE8104000F0F4BD2DE9FF4100262348BD
:10B6100000F0DDF92148001F074600F0D8F9204C62
:10B6200060680090A56800E000986946284004EB37
:10B6300080000C30FFF798FF0028F5D101AA00998F
:10B6400001EA050304EB8303491CDB6842F8203060
:10B65000401C00910228F2D3019800F00300012859
:10B660000BD0022810D10198032101EB90500099D2
:10B67000BDF80A6001EB900005E00198BDF80A6092
:10B68000C0F3831008440090384600F09DF908B1DB
:10B690000098606004B03046BDE8F0811C250020B1
:10B6A00004210020FFF7A3FFFEF706FF08B1FEF715
:10B6B000E5FEFDF72BFFFEF7D5FC02F025F9FEF7BE
:10B6C000EDFCFEF7F3FCFDF75BFFFEF7FFFA012050
:10B6D0003FDFFEF771FA1748FEF7A0FA1548103061
:10B6E000FEF7B6FA13481030FEF754F9FEF7B8F932
:10B6F000FEF7A8F9FEF7B4FB4FF0A0414FF0007041
:10B70000C1F80C050C480D49401AC008032101EB93
:10B7100000400BA100F094FEFEF72AFDFDF7AEFFFE
:10B72000FEF7A6FB00F072FD0028FBD101F01EF829
:10B73000F2E70000541C002004EF0100A4EE010019
:10B740004342434420737461727465642E000000A8
:10B7500070B5144682880E4605462088111D0144A6
:10B76000921C994201D8FE2A01D90C2070BD521CAE
:10B7700032542088FF21401C80B220803154208820
:10B78000401C80B220808119288802F094FD218815
:10B79000084480B22080AA8842B1A96841B13044EF
:10B7A000FDF724FE2088A98808442080002070BD71
:10B7B000072070BD2DE9F047C5881E1DB6FBF5F7C3
:10B7C0008946B6FBF5F1044605FB176C407916680F
:10B7D0006843DDF820A0F718001F874200D9C61A79
:10B7E000166001E02468491E0029FBD1A5EB0C0777
:10B7F0008846B74216D818E004EB0C00001D09EB90
:10B800000803BAF1000F3A4602D00146184600E09C
:10B810001946FDF7EBFD2468F61B4FF0000CB84409
:10B82000B54201D9374600E02F46002EE4D1BDE8ED
:10B83000F087000030B5024651B100F08BFE0021C8
:10B84000074C08E034F821301568AB4202D1116092
:10B85000002030BD491C8142F4D3052030BD0000DA
:10B8600000000000F8B50F4601781446054601298E
:10B8700001D1687830B12088821C9A4232D80129DF
:10B8800002D006E00720F8BD69780144891C99427E
:10B8900028D8181A801E86B2ADF800602188B81C1E
:10B8A000084469467DDF0028EDD12978022904D0BB
:10B8B0006878BDF80020904205D3BDF80000B04282
:10B8C00001D809200AE00820012905D16978B14290
:10B8D00002D8ADF8001001E0ADF80060BDF800102E
:10B8E000FE2901D90C20F8BD2288491CB9542188B1
:10B8F000491C89B2218078542088401C2080BDF8E2
:10B900000010084420800020F8BD10B531B1B2FB12
:10B91000F3F403FB14241CB1092010BD0E2010BD4C
:10B9200001600021416081608281C381084610BDB1
:10B9300070B50C460546FDF76DFC002802D0218845
:10B940002868084470BD10B50A8849888A4203D126
:10B95000FDF7A2FC012010BD002010BD70B50C4603
:10B960000546FDF77CFC002802D061882868084461
:10B9700070BD10B50A8849888A4203D1FDF766FC7C
:10B98000012010BD002010BD01F01F0301229A40CC
:10B99000D243490900EB8100114600F021B84A0961
:10B9A00050F8220001F01F0201219140084000D010
:10B9B0000120704701F01F0301229A40490900EB62
:10B9C0008100114600F01CB8002100F00FB80121E1
:10B9D00000F016B808B56A46FDF7B3FC009808BD3C
:10B9E00008B56A46FDF793FC009808BD08B56A469D
:10B9F000FDF78DFC08BD08B56A46FDF76FFC08BD74
:10BA000008B56A46FDF776FC009808BD08B56A4699
:10BA1000FDF7A4FC009808BD38B5044600258DF854
:10BA200000506846FEF794FD2168626808689042FD
:10BA30000ED9401E08600178238AE26801FB0325C5
:10BA4000227A2168101AC0B20A79824200D20871A3
:10BA50009DF80000FEF7A0FD284638BD38B5054624
:10BA600000208DF800000C466846FEF771FDE8687E
:10BA7000298A201AB0FBF1F12A681068431C136070
:10BA800001709DF80000FEF787FD38BD10B530B19C
:10BA9000017A42680368891AC9B21A6006E00E206A
:10BAA00010BD03681A68541C1C601170491EC9B28D
:10BAB000F7D2006800210171084610BDC20800F0ED
:10BAC00007030120895C98400840704710B5C20800
:10BAD00000F00703885C01249C402043885410BD7B
:10BAE00010B560B1C160172120F8021B20F8021BBD
:10BAF0001B2100F8021BFFF773FD002010BD0E2074
:10BB000010BD00007CB50C468188002933D1028825
:10BB10000025102A06D0112A09D03A2A0BD0552A1E
:10BB20002ED129E00146204601F0EAFD28E0A01DC3
:10BB3000FFF756FD24E02246408934F8063F834251
:10BB400000D818466080172800D217206080D0687F
:10BB500078B1607968B1184BD3E90003CDE90003EF
:10BB6000ADF802106088ADF80400D368694610464D
:10BB70009847657125717CBD0146204601F006FE9F
:10BB8000A07A0028F7D02846E188A5DF012680B1F9
:10BB90001128F0D001F05EF802460848084902B0CA
:10BBA000401AC00806EB0040BDE8704005A100F057
:10BBB0004BBCA572E6727CBDCCE40100A4EE010092
:10BBC000A4EE010073645F626C655F676174746307
:10BBD0005F65786368616E67655F6D74755F7265D8
:10BBE000717565737428292072657475726E656449
:10BBF0002025732E0000000000F18040006800281E
:10BC000000D00120704708B500F18040002101609C
:10BC10000068009008BD000070B50B4C207808B19A
:10BC200085250FE00020A06060602061E06007488B
:10BC300001F04CF8054600F07BFF08B901F030F840
:10BC400001202070284670BDFC1D002005B00100B9
:10BC500038B500258DF800506846FEF779FC074C92
:10BC6000E068401EE060E06810B901F03DF8A570A2
:10BC70009DF80000FEF790FC38BD0000FC1D002080
:10BC8000F0B505460478154889B0164640F82420DA
:10BC9000124A0869121DA2F1080742F82400487FE1
:10BCA000385520226846FDF7A1FB04942878385CBB
:10BCB00048B10EB10A4A00E000226946281D01F091
:10BCC00015FC09B0F0BD0EB1064A00E0002269463D
:10BCD00005F10C0001F0DCFAF3E70000901B0020F6
:10BCE00075E10100BDDF01000FB408B5039900291B
:10BCF00004D004AA00926A4600F00FF801B05DF883
:10BD000014FB10B582680446002A05D0D4E9040368
:10BD1000216898470020A06010BD2DE9FC4791469E
:10BD20000C00804676D014F8011B39B125290ED0BD
:10BD30004046FEF7FFFF20780028F4D198F80C0069
:10BD4000002867D04046BDE8FC47FFF7DABF002077
:10BD5000012221782B291BD02D2902D0302908D18E
:10BD600002E040F0010001E040F00200641C002A03
:10BD7000EFD100252A290ED02178A1F130020A2A1C
:10BD800011D205EB850201EB4205641C303DF1E761
:10BD900040F00400EAE7D9F800100B1DC9F80030A4
:10BDA0000968641C0D44217800232E290BD114F856
:10BDB000011FA1F130020A2A05D203EB830201EB35
:10BDC0004203303BF3E76C290DD068290BD0692979
:10BDD00021D00BDC252918D0582931D063290ED069
:10BDE000642915D117E014F8011FECE7702969D018
:10BDF000732932D075291BD0782909D120E0D9F8D0
:10BE00000000011DC9F8001001784046FEF792FFBE
:10BE1000641C90E76CE0D9F800100A1DC9F80020F6
:10BE20000968CDE900500A224046FFF707FBEFE71B
:10BE3000D9F800100A1DC9F8002009680A2206E096
:10BE4000D9F800100A1DC9F8002009681022CDE9B0
:10BE50000050404602F034FADAE7D9F80010002723
:10BE60000A1DC9F800200E68C00705D112E040463F
:10BE7000761C7F1CFEF75EFF31780029F7D104E0C5
:10BE8000202140466D1EFEF755FFBD42C0D9002D52
:10BE9000F6D1BDE74EB13046FDF7CCFA074604E0D7
:10BEA000202140466D1EFEF745FFBD4206D9002DFC
:10BEB000F6D103E04046761CFEF73CFF31780029BE
:10BEC000F8D1A5E7D9F80000011DC9F800100568F0
:10BED00030214046FEF72EFF78214046FEF72AFF2C
:10BEE00008200021CDE90001034610222946B0E7D1
:10BEF000BDE8FC8770B541EA4201DDE904564FF028
:10BF0000A04441EA830141EA052104EB800041EAB3
:10BF10000641C0F8001770BD70B541EA4201DDE985
:10BF200004564FF0A04441EA830141EA052104EBA5
:10BF3000800041EA0641C0F8001770BD70B541EAC3
:10BF40004201DDE904564FF0A04441EA830141EA91
:10BF5000052104EB800041EA0641C0F8001770BDDE
:10BF60001CB5002100910B4601220191FFF7D4FF7F
:10BF70001CBD1CB5002100910B4601220191FFF769
:10BF8000DDFF1CBD1CB500220B460092114601923C
:10BF9000FFF7C2FF1CBD1CB500220B4600921146E4
:10BFA0000192FFF7CBFF1CBD1CB5002100910B4691
:10BFB000012201911146FFF7AFFF1CBD1CB5002106
:10BFC00000910B46012201911146FFF7B7FF1CBDFE
:10BFD0004FF0A04202EB8000D0F8002722F440325C
:10BFE000C0F80027D0F8002742EA0141C0F8001746
:10BFF00070474FF0A041D1F81015C14001F0010089
:10C000007047000018B5084B6C4601441B6800934C
:10C0100006E000BF54F82030D3F81035401C08C2A9
:10C020008142F7D818BD0000DCE40100034908B5DF
:10C030000844002101600068009008BD00600040D5
:10C0400002494058012800D000207047006000409D
:10C0500030B5154A01460020D2F8104423460AE0C4
:10C06000DB681D79854205D1401C0A28F6DB4FF0BC
:10C07000FF3030BD1B68002BF2D1431CF9D0CB68D8
:10C080001871D2F8103443B1DB68CC681B682360A8
:10C09000D2F81024D268116030BDC2F81014C968FB
:10C0A00000220A6030BD000004210020F0B595B0E8
:10C0B0001C4615460F4608461A9E00F01DFB182127
:10C0C00009A8FDF7ACF90E96CDE909540023082222
:10C0D00003A9384600F025FB05980690BDF810002E
:10C0E000ADF81C00BDF81200ADF81E0000208DF860
:10C0F00021000398082600F00300012802D002283E
:10C1000018D032E003983346850AC0F3C2008DF898
:10C11000200003980FA9C0F38314A200384600F052
:10C1200000FB09A8009006AB22460FA9284600F0A4
:10C130003FFA1AE00398840DC0F3C2008DF8200086
:10C14000082C01D2254600E0082533462A460FA9CF
:10C15000384600F0E6FA2E44641B09AB06AA2946CD
:10C160000FA800F081F9002CEAD1384600F0CAFA95
:10C1700015B0F0BD7047012001F03EBF084810B572
:10C180000178084A515C19B1001D01F049FA02E03A
:10C190000C3001F049F9BDE81040002001F02CBF3F
:10C1A000E41B00208C1B002008B5034A00924023AA
:10C1B000024AFFF77BFF08BD1DDC01006C1F002059
:10C1C0000A4A012902EBC00007D0022907D003293F
:10C1D00007D0042907D000207047022070470420B0
:10C1E000704700797047407970470000A4EE010065
:10C1F00010B5FFF7C0FF04210348FFF729FF0249EC
:10C200000120C968487110BD94EE01002DE9F04F7E
:10C210008DB0FEF7A7FD18B100200DB0BDE8F08F7E
:10C220007E4C4FF0000BC4F818B4BFF34F8F60681A
:10C230000290A568D846284004EB80000CE000BFBF
:10C24000D4F8180470B921680298814201D861605D
:10C25000E2E7284004EB80000C3002A9FFF784F9E4
:10C260000028EDD1002005AA029901EA050304EB9C
:10C270008303491CDB6842F82030401C02910228ED
:10C28000F2D3059800F00300022802D001284DD017
:10C29000AAE005985022810D8946B2EB905F00D844
:10C2A00050210E4666F39F50059008315C4800F01F
:10C2B000DAF9070078D000F01FFA4346082205A9F2
:10C2C000384600F036FA029908F1080A2940681A3F
:10C2D0008000001D864222D9504D0C3530B1C2B2CB
:10C2E00004EB8101301A90460C3104E02946F2B289
:10C2F000002590462846C6B25346384600F019FA43
:10C300000AEB080325B132462946384600F011FAF7
:10C31000029909F1030001EB900002903BE004EB6D
:10C3200081015346324638460C31EFE70598C0F399
:10C330008310062800D30620059960F38911C1F304
:10C340008310801C05918100354800F08CF90700AE
:10C350004AD000F0D1F94346082205A9384600F03A
:10C36000E8F908F1080800260FE00298434600EAC1
:10C370000501401C04EB81010290042238460C3177
:10C3800000F0D7F908F10408761C0598C0F3831073
:10C39000B042EAD847B1D4F81054D4F8180478B1B0
:10C3A000384600F0AFF934E01EE0E8684079012833
:10C3B00004D12A682846394612689047E86805681B
:10C3C000002DF2D1384600F09DF98DF800B0684696
:10C3D000FEF7BEF8D4F8180408B9029860609DF81A
:10C3E0000000FEF7D9F814E0D4F8104405E0216805
:10C3F000204689688847E0680468002CF7D109481E
:10C400000949401AC008022101EB004007A100F0D1
:10C4100017F8FEF7A7FC80F00100FEE604210020DB
:10C4200024EF010004EF0100A4EE01004261636B00
:10C43000656E647320666C75736865640000000047
:10C4400000231A4601F0A4BC08B5012300926A46F5
:10C4500001F09EFC08BD1CB5CDE9002302236A460D
:10C4600001F096FC1CBD00002DE9F0470E46804609
:10C470001C469246082940D894F80C90002020735E
:10C480001946104601F04AFA0025B54206D218F8BE
:10C4900005201BA12046FFF727FC03E01AA1204638
:10C4A000FFF722FC6D1C082DEFD318A12046FFF7E3
:10C4B0001BFC0025B54212D218F805707E2F08D853
:10C4C000FCF790FF0068C05D10F03E0F01D03A46C7
:10C4D00000E02E220EA12046FFF706FC03E00DA18E
:10C4E0002046FFF701FC6D1C082DE3D301222146F5
:10C4F000504601F0EBF984F80C90BDE8F08700009D
:10C500002025303278000000202020007C00000030
:10C5100025630000200000000B4810B5FF2181605A
:10C52000002101604160C0F81814C0F8141480F8AC
:10C530002014064800F0E4F8002803D1044800F075
:10C540001FF9002010BD00000421002024EF01008D
:10C55000B4E6010002480349401AC00870470000D1
:10C5600024EF0100A4EE010013B56846FFF762F95D
:10C5700008B100201CBD0248009950F831001CBDD4
:10C58000A4EE010070B509480125D0F8104480F8E8
:10C59000205407E0E06845712168204649688847D3
:10C5A000E0680468002CF5D170BD00000421002073
:10C5B0002DE9FF4781460C9D00200C462F7B2873F8
:10C5C000984616462946184601F0A8F9072E42D289
:10C5D000DFE806F004090F161F2A360049462846F0
:10C5E000FFF782FB37E0494628462268FFF77CFBCD
:10C5F00031E0D4E9002349462846FFF775FB2AE0DD
:10C60000A0680090D4E9002349462846FFF76CFB58
:10C6100021E0D4E90201CDE90001D4E90023494633
:10C620002846FFF761FB16E004F1080007C88DE813
:10C630000700D4E9002349462846FFF755FB0AE0E6
:10C6400004F108000FC88DE80F00D4E90023494623
:10C650002846FFF749FB00222946404601F036F9FB
:10C660002F73BDE8FF872DE9F041058A80462D1F15
:10C670004819C01CB0FBF5F0C6B24046FFF7CCF934
:10C68000041E19D00020207101206071E580002770
:10C690002546761EC4F800800BE04046FFF7BCF943
:10C6A00060B16179491C6171286005467F1CC0F842
:10C6B0000080B742F1D32046BDE8F081204600F06B
:10C6C00002F80020F8E72DE9F041457901466B1E9C
:10C6D000002201E00968521C9A42FBD30F68014610
:10C6E000002605E038460C68FFF7B8F92146761CAD
:10C6F000AE42F7D3BDE8F0810121001DFFF76AB912
:10C70000FFF7C4B910B504460121001DFFF77EF9FB
:10C7100010F0FF0F04D12046BDE81040FFF7D3BF53
:10C7200010BD1CB501920122009201AAFFF742F848
:10C730001CBD1CB501920022009201AAFFF73AF835
:10C740001CBD0000064910B500204870091D086096
:10C75000BFF35F8F0349044800F00EFA002010BDBC
:10C76000D81B002040E50100601F002010B500F03C
:10C77000DFF908B141DF10BD20BF40BF20BF10BDB1
:10C7800082680021916082681161826851618268CB
:10C79000D1608268516080680160704708B50022EE
:10C7A00042504058009008BD024A1060101D0160C0
:10C7B000704700002C760040030103481844C0F87D
:10C7C0001425C0F810157047007000400249405809
:10C7D000002800D00120704700700040034908B5D0
:10C7E0000844002202600068009008BD007000400C
:10C7F000024619B140205100884070478020FAE776
:10C8000020B1034909680160002070470E2070477D
:10C8100038E70100FEB502460D460846FFF7F0FF77
:10C82000002864D1002600960196012706208DF885
:10C830000020ADF8040002968DF8027069462020B1
:10C840002A6869DF2A492B4A891AC908012202EBA2
:10C85000014430B100F0FEF9024620462649FFF7B8
:10C86000F3FD0096019602968DF80170694640200E
:10C870002A6869DF30B100F0EDF9024620461F4911
:10C88000FFF7E2FD00960A208DF80000019602965F
:10C89000694601202A6869DF30B100F0DBF9024601
:10C8A00020461749FFF7D0FD4FF4B0600090019685
:10C8B00002966946A1202A6869DF30B100F0CAF902
:10C8C000024620460F49FFF7BFFD009601960296EB
:10C8D0008DF800606946A0202A6869DF30B100F059
:10C8E000B9F9024620460849FFF7AEFD0020FEBD1B
:10C8F00014EF0100A4EE010034ED01007CED010015
:10C9000094EC0100E0EC010040EC01002DE9F04165
:10C910000546076860DF804619491A482A68081AE0
:10C92000C608BA4219D9022000EB064416A12046D7
:10C93000FFF786FD20463A461FA12B68FFF78BFDC7
:10C940004FF08050D0F80C012968800200F10050AF
:10C95000421A204625A1FFF777FDB8F100004FF0FD
:10C9600001040AD000F076F9024604EB06402AA141
:10C97000FFF76AFD4046BDE8F0812F480470F9E7F3
:10C9800014EF0100A4EE0100496E737566666963D9
:10C9900069656E742052414D20616C6C6F636174E7
:10C9A000656420666F722074686520536F667444F6
:10C9B00065766963652E00004368616E6765207463
:10C9C00068652052414D207374617274206C6F63EE
:10C9D0006174696F6E2066726F6D203078257820E3
:10C9E000746F20307825782E000000004D61786942
:10C9F0006D756D2052414D2073697A6520666F72A6
:10CA0000206170706C69636174696F6E2069732056
:10CA1000307825782E00000073645F626C655F6576
:10CA20006E61626C6528292072657475726E65642A
:10CA30002025732E00000000531C002030B5144840
:10CA400091B00078002820D05FF03405ADF8405058
:10CA500010A903A861DF30B1052816D011B0BDE8D8
:10CA60003040FDF70BBD03AC0A49684600F084F87E
:10CA700007E000BFD0E9002120469047684600F05B
:10CA800092F802980028E1D0F4E711B030BD000020
:10CA9000531C00203CE701007CB5194C207808B1FC
:10CAA00008207CBD0120A070002001F081F8112831
:10CAB00019D0002001F094F8124800260068019077
:10CAC0008DF800606846FDF743FD0F4901A810DFAF
:10CAD00005000AD0002020709DF80000FDF75CFDE5
:10CAE0002DB128467CBD00207CBD0120F3E7A67057
:10CAF000667001F01BF9012001F072F8F3E7000005
:10CB0000501C0020D0E60100F9A301000EB5074932
:10CB1000684600F031F805E0D0E900108847684623
:10CB200000F041F802980028F6D10EBDECE60100B5
:10CB30000148007870470000501C00201FB568466F
:10CB40004BDF30B1052814D004B0BDE81040FDF72C
:10CB500095BC084901A800F00FF806E0D0E90021D3
:10CB60000098904701A800F01EF803980028E6D02E
:10CB7000F4E71FBD58E70100016009684160AFF3A9
:10CB8000008010B5D0E900215368994201D10021FD
:10CB900004E0D1E90034A34202D01946816010BDFF
:10CBA00008314160F0E7816800290BD00268926883
:10CBB0000A44826041684B689A4203D1083141605F
:10CBC000FFF7DFBF704770B50D460646446804E0C6
:10CBD000B2682946904718B1246820680028F7D128
:10CBE00020682860256070BD406800687047416813
:10CBF0000868002801D002680A60704702460020D9
:10CC0000526806E08B4203D108681060012070472B
:10CC10001A461368002BF5D1704700000C4A10B576
:10CC200002F594730EE0991AC91001EBD171491005
:10CC300002EBC1010C68844201D90B4602E005D227
:10CC400001F108029A42EED3002010BD486810BDE1
:10CC500060E5010000B5FFF7E1FF002800D10148C1
:10CC600000BD00004CE501004058002800D0012024
:10CC7000704708B5002242504058009008BDD0F8D7
:10CC80000403084000D0012070474058002800D01D
:10CC90000120704708B5002242504058009008BD5E
:10CCA00008480068012110F0010F06D14FF0E02084
:10CCB000C02280F80024C0F8001103490120086058
:10CCC0007047000000E100E01805004005490246F9
:10CCD00000200B790BB1852070470A6001220A7190
:10CCE00070470000981B0020044901200860044898
:10CCF0000168C1F300410029FAD170470C000040DF
:10CD000018040040002802D00149800108477047FC
:10CD1000F1E40100002802D0014980010847704772
:10CD200011E501002DE9F0418846054600F09CFD23
:10CD3000234E002828461AD0FEF750F8304490F8C9
:10CD400048008009032802D001280ED007E04FF0E8
:10CD5000A040D0F81005E84010F0010F05D00321E5
:10CD60002846BDE8F041FFF733B90221F8E700F0AB
:10CD700087FD002822D02846FEF730F804464FF4FD
:10CD8000807000EB84000F4F81B207EB8400D0F875
:10CD9000102542F00102C0F810250846FFF746F9B9
:10CDA000B8F1000F0AD02846FEF718F856F8200010
:10CDB000002803D00120A040C7F80403BDE8F0819B
:10CDC000101E0020006000402DE9FC41DFF8BC800F
:10CDD000044608EB0400002790F930001346C01702
:10CDE0000E46401C01D008274CE0B0781946C0F32D
:10CDF00040022046FDF7CEFF0546401C41D0B078EA
:10CE0000410719D4C0070AD04FF0A04000EB8401BD
:10CE1000D1F8000720F00200C1F8000707E0002168
:10CE20007378204600910A460191FFF763F817498D
:10CE300020465431FEF74AFEB078800718D51448D2
:10CE4000317800EB8500D0F81025124B1A40C0F85D
:10CE500010254FF4F8524FF4403302EA042203EA5B
:10CE600001410A43D0F810150A43C0F8102509E023
:10CE700008EB0500327810F8481F41EA8211017072
:10CE800000E004273846BDE8FC810000101E0020A9
:10CE900000600040FFE0FCFF70B5174D95F85800AA
:10CEA00008B1082070BD0020411E2A18401CC0B2E5
:10CEB00082F830102028F8D300242046FDF75CFFCC
:10CEC000641CE4B20C2CF8D300240C49C0206C651F
:10CED00081F8000401264020891FC1F800014FF4A9
:10CEE000BE70FFF7A3F80649F007C1F8040385F800
:10CEF0005860204670BD0000101E002006E000E0D3
:10CF0000006000400121B1EB507F01D1012070474A
:10CF10000020704738B50D4600F04CFD040014D0D9
:10CF200000208DF800006846FDF712FB207928B13B
:10CF30009DF80000FDF730FB112038BD0120256071
:10CF400020719DF80000FDF727FB002038BD10B5CB
:10CF500000F030FD002802D000210160017110BDF9
:10CF60002DE9F041254C064612200D46C4F8080371
:10CF70002348017C022918D0027C01464FF48078B6
:10CF800091F82E10012A12D00222C4F8042301279E
:10CF90000774466005810022C26021B3458390F882
:10CFA0002D103046FFF700FC25E0122002E0C26899
:10CFB0002AB10220C4F804031120BDE8F081C66044
:10CFC000058361B947463846FFF700FC0028FAD0D0
:10CFD0003846FFF703FC29463046FFF7E5FB022001
:10CFE000C4F8040307E029463046FFF7DDFB40465E
:10CFF000FFF7F4FB27600020DFE70000007000402F
:10D00000BC1E0020204A10B5137C0BB1112010BDAE
:10D0100002EB40031C7F1CB912F82D4F641C1470E6
:10D02000CA791A770A7A5A770A784B78302402F04C
:10D03000030204EA03131A438B784FF4E06404EA12
:10D0400003231A43CB784FF4805404EA03331A4382
:10D050000B794FF4E02404EA03431A434B794FF46D
:10D06000801404EA03531A438B79240104EA03630E
:10D07000064C1A4304EB0013C3F818250A7AC97941
:10D08000FFF79AFB002010BDBC1E0020007000407E
:10D0900070B505460E48017C09B1112070BD00EB4A
:10D0A00045010A7F1AB110F82D2F521E027000247C
:10D0B0000C774C77224621462846FFF77DFB40F24D
:10D0C000FF72D143284600F04FF8204670BD0000A3
:10D0D000BC1E00202DE9F0411F4C054694F82C00A1
:10D0E00010B10820BDE8F08144F8101B1B492878D6
:10D0F0000860091D68780860E878A077012727771D
:10D100000020207060776060154EE0776FF000407F
:10D11000C6F808034FF48270FFF760FBB015FFF705
:10D120005DFB4FF48A70FFF759FBA8780D49400169
:10D1300081F800048020C91FC1F800010220C6F850
:10D140000403A07F10B10120C6F804030348F0389F
:10D1500007600020C6E70000BC1E0020F0750040FC
:10D160000070004007E000E02DE9F04117460C4652
:10D170000546C1EA07401A4E06EB0511C1F81C0529
:10D1800000212846FFF734FB2346012101EB45022D
:10D19000144CC907D140626913F5006F1BD00A43D4
:10D1A0006261C6F8040301212846FFF721FB6A00EB
:10D1B0004FF00041D140A7F5E0636269FF3B05D025
:10D1C0000A436261C6F80403BDE8F0818A436261E4
:10D1D000C6F80803F8E78A436261C6F80803E2E785
:10D1E00000700040BC1E0020084900200A7C012A73
:10D1F00001D00820704791F82E30054A01210BB16B
:10D2000011607047024A121DFAE70000BC1E0020A0
:10D210000070004070B517496FF00040C1F8080376
:10D2200080214FF0E02201200025C2F88011114931
:10D230000831086042F210744FF48A763046FFF7E6
:10D24000C5FA20B90020FFF75DFD641EF6D10A483B
:10D2500005600A4E3574002406EB4400007F10B1CF
:10D26000E0B2FFF715FF641C082CF5D386F82C50AC
:10D2700070BD00000070004000750040BC1E002022
:10D280000149024800F0E0BE6C1E00200020004072
:10D290002DE9F0410546007916460F4600EB4001A6
:10D2A0002C4A01EBC00102EB810494F82A1011B161
:10D2B0000820BDE8F081284951F820102868FFF7C0
:10D2C00029FE08B11120F4E739462846FDF77EF91A
:10D2D00066603869206030004FF001062DD03F7F36
:10D2E0004FF48E712868FFF7C4FC4FF4A2712868D0
:10D2F000FFF7BFFC28681949C0F8041328684FEAF3
:10D30000471140F30730002806DA00F00F0000F163
:10D31000E02080F8141D03E000F1E02080F8001404
:10D32000286840F3073000F01F0106FA01F14009B8
:10D33000800000F1E020C0F8001128680421C0F846
:10D3400000150020A061E06184F8290044F8140F62
:10D35000A675AEE76C1E0020E0E40100800002002C
:10D360002DE9F05F054600790B4600EB400101EB2B
:10D37000C000244901EB8004284600F045F810B1B4
:10D380001120BDE8F09F62614FF00009C4F82090C1
:10D39000A36084F828904FF48E784E464146286862
:10D3A000FFF767FC28684FF0010AC0F808A0214683
:10D3B000286800F0D9FD606808BBD5F800B067693F
:10D3C0000FE000BF94F8280008B10F2615E0414691
:10D3D0005846FFF749FC0028F4D02146584600F093
:10D3E000C3FD206AB842F2D3574641462868FFF78A
:10D3F0003BFC0028F9D02868C760C4F81490304678
:10D40000BFE700006C1E0020007900EB400101EB3B
:10D41000C000044901EB80004069002800D00120D1
:10D42000704700006C1E00202DE9F047044600798B
:10D430004FF0000900EB400101EBC000254901EB72
:10D4400080072068C0F80095786880B1206822497C
:10D45000C0F808132068012140F3073000F01F02D4
:10D4600091404009800000F1E020C0F88011206860
:10D47000D0F80C25D0F81485D0F80865D0F81055F0
:10D480004FF0FF31C0F81415C0F80C152068C0F833
:10D490000815C0F81015501C02D01046FEF760FDAC
:10D4A000B8F1FF3F02D04046FEF75AFD681C02D09B
:10D4B0002846FEF755FD701C02D03046FEF750FDA1
:10D4C0002068FFF744FD87F82A90C7F80490BDE86C
:10D4D000F08700006C1E002084020200014902480F
:10D4E00000F060BE981E0020002000402DE9F041B1
:10D4F0000546164600790F46154A00EBC00102EBBF
:10D50000810494F8201011B10820BDE8F081114980
:10D5100051F820102868FFF7FDFC08B11120F4E74E
:10D5200039462846FDF796F86660386920601EB1D6
:10D53000397F2846FDF7D6FF28680821C0F8001576
:10D540000020A061E0616061012184F82010DCE727
:10D55000981E0020E4E401002DE9F04704460E4641
:10D560000079274900EBC00001EB800517463046E3
:10D57000FFF7C8FC30B1204600F044F820B111207C
:10D58000BDE8F0871020FBE76F61AE604FF4907745
:10D590004FF0000839462068FFF77CFB4FF4AC766B
:10D5A00031462068FFF776FB2068AA686969C0F8F1
:10D5B0004425C0F8481520684FF00109C0F80890CC
:10D5C0006868D0B9BA4651462068FFF75EFB074647
:10D5D00031462068FFF759FB0743F4D010B14FF0F4
:10D5E0000F0808E02068C0F80C9031462068FFF76B
:10D5F0004CFB0028F9D0002068614046C0E70000DD
:10D60000981E00200079054900EBC00001EB800066
:10D610004069002800D0012070470000981E0020BB
:10D620002DE9F04704460079334900EBC00001EBD7
:10D6300080070125786880B120683049C0F8081358
:10D64000206840F3073000F01F0105FA01F140099E
:10D65000800000F1E020C0F880112068D0F80012AE
:10D6600021F02001C0F80012206845604FF4AC762C
:10D6700031462068FFF70EFB2068C5603146206800
:10D68000FFF703FB0028F9D020684FF00009C0F82D
:10D6900000952068D0F80C25D0F81485D0F80865DE
:10D6A000D0F810554FF0FF31C0F80C15C0F8141524
:10D6B0002068C0F80815C0F81015501C02D010469C
:10D6C000FEF757FCB8F1FF3F02D04046FEF751FC91
:10D6D000681C02D02846FEF74CFC701C02D0304675
:10D6E000FEF747FC2068FFF732FC87F82090C7F868
:10D6F0000490BDE8F0870000981E0020100342004F
:10D7000070B502468888C97B00EB400302EB4304F6
:10D71000A41D012901D111882180218862889142AC
:10D7200013D9A5DF012578B111280FD0FFF792FAA0
:10D73000024607480749401AC00805EB0040BDE80B
:10D74000704005A1FEF780BE657170BD257170BD8A
:10D75000A4EE0100A4EE010073645F626C655F6774
:10D76000617474635F65786368616E67655F6D742B
:10D77000755F72657175657374282920726574759B
:10D78000726E65642025732E000000007CB506468D
:10D790008D88C88805EB450106EB4104A41D1728B8
:10D7A00000D217202188814200D8084660800020DE
:10D7B000207121882846B5DF60B1FFF74BFA024699
:10D7C0000F481049401AC008012101EB00400EA18A
:10D7D000FEF73AFE6079002810D1F06800280DD0DD
:10D7E0001549D1E90201CDE90001ADF80250608888
:10D7F000ADF80400F2686946304690477CBD0000F1
:10D80000A4EE0100A4EE010073645F626C655F67C3
:10D81000617474735F65786368616E67655F6D746A
:10D82000755F7265706C7928292072657475726EE7
:10D8300065642025732E0000CCE4010031F8062F2A
:10D84000408B82420AD14889012807D1044A1070CE
:10D85000087B411E082901D2024908707047000068
:10D86000301B0020E41A00200449084490F93000DD
:10D87000082801DB0120704700207047101E00209F
:10D880000449084490F93000082801D2012070476B
:10D8900000207047101E002070B50D00044602D114
:10D8A0000020FCF7EBFD14B90020FCF7E7FD287819
:10D8B000207069886170090AA170A988E170090A5D
:10D8C0002171E8886071000AA07170BD10B50C4626
:10D8D000017A052908D0407A38B1084808A10268C1
:10D8E0002046FEF701FA00E01AB106A12046FEF735
:10D8F000FBF92046BDE81040FEF703BA2C1C0020BF
:10D90000257300000D0A000010B5FEF71BFF00286C
:10D9100003D0BDE81040FCF7B1BD10BD38B5C388D9
:10D920000D46044633B114A0009015A216A1284656
:10D93000FEF7DAF9217A05291CD0607A48B1A0886F
:10D94000FEF73EFC164951F8202016A12846FEF7A6
:10D95000CBF9A0880021FEF707FE03461049207A84
:10D96000143951F8202001B02846BDE830400EA1FE
:10D97000FEF7BAB938BD00001B5B306D0000000037
:10D980001B5B313B33316D0025734C6F6773206433
:10D99000726F70706564202825642925730D0A0054
:10D9A0002C1C0020257300003C25733E2025733A73
:10D9B000200000000349884201D10348704700203D
:10D9C0007047000000200040A01B002070B50546F5
:10D9D000FDF77DFC134C40B1D4E904024FF0807197
:10D9E000411842F10000C4E9041000212846FDF767
:10D9F000BFFB30B1606820B1606800F031FA0020F0
:10DA0000606001212846FDF7B3FB18B1FDF7F2FC79
:10DA1000C4E90601284600F04FFA2846BDE87040E8
:10DA200000F034B8A81B002070B5054600200C4655
:10DA30000870FDF7DFFCD5E90223101A63EB010340
:10DA400000263146361A994112DAB0F5350F03D364
:10DA5000FCF720FD0B4942184FF4960300210A48B9
:10DA6000FDF741FC10B10D2806D009E0012070BD82
:10DA700000210548FDF772FB284600F0F1F92070FF
:10DA8000002070BDFFFFB400B01B0020F8B51A4C99
:10DA9000074600261948FFF7A7F8D0B1616871B1B1
:10DAA000D0E902106268D2E90232C91A904120D24C
:10DAB0006068007F18B161681048FFF784F800F0D3
:10DAC00061F905466946FFF7AFFF98B1606840B15C
:10DAD0000AE0606800280CD13846BDE8F840FDF740
:10DAE000FEBB3846FDF7F7FB65609DF80000002897
:10DAF000D0D1F8BD6660CDE7A81B002000E501008D
:10DB000070B5054688690C4600284FF48471284694
:10DB10000AD0FFF7AEF8D5F81805626AE1688854B4
:10DB2000606A401C606270BDFFF7A3F8D5F8180565
:10DB300070BD1FB501238DF80030CDE90121D0E97A
:10DB40000012684690471FBD1FB501238DF80030B5
:10DB5000CDE90121D0E90012684690471FBD0000C1
:10DB600038B50021012548B101280CD0032809D17E
:10DB7000FFF796F8BDE83840FEF76AB84FF0E020AE
:10DB8000C0F8805138BD8DF800106846FCF7E0FC05
:10DB9000064C207808B9FEF73FF8E068401CE060CA
:10DBA000A5709DF80000FCF7F7FC38BDFC1D0020B7
:10DBB0003EB5044609496846FEF7DEFF08E000BFAF
:10DBC000D0E900212046904730B16846FEF7EBFFD0
:10DBD00002980028F4D13EBD11203EBDD4E60100DC
:10DBE0003EB5044608496846FEF7C6FF07E000BF99
:10DBF000D0E90021204690476846FEF7D4FF0298FE
:10DC00000028F5D13EBD0000E0E601000249896927
:10DC1000002900D008477047641D002070B50D4CE6
:10DC20000020D2B22070201D0B4D0378EB5C1BB19D
:10DC3000001DFFF791FC02E00C30FFF791FB08B1EB
:10DC4000FCF71CFC6078002802D021780029FAD06B
:10DC500070BD0000E01B00208C1B00202DE9F0416E
:10DC60000746806A14468846C8B3002531E000BFE5
:10DC7000B96A05EB450001EB8006B088801CFE28E0
:10DC800002D90C20BDE8F0812288401C08F802006F
:10DC900020881622401C80B2208008F800202088AE
:10DCA000401C80B2208000EB0801308800F003FBAC
:10DCB0002188084480B22080B28842B1B16871B135
:10DCC0004044FBF793FB2088B188084420806D1CFA
:10DCD000EDB297F82C00A842CAD80020D2E7FFE79F
:10DCE0000720CFE70A78062822F0FF020A7010D238
:10DCF000DFE800F0030507090B0D002008E0112004
:10DD000006E0212004E0312002E0122000E0222081
:10DD100008707047002805D1034901204870002091
:10DD2000FDF75CB970470000FC1D002010B51620FF
:10DD3000FCF750FBA0B1114890F8000440090828F6
:10DD400011D20121814011F0EC0F0CD00C488268F7
:10DD50004FF480016AB1016841F48001016010BD97
:10DD600042F2010001E042F20200BDE81040FCF77F
:10DD700085BB4FF0E020C0F8001110BD16E000E0B8
:10DD8000541F00200148FEF732BF000000E50100EB
:10DD90002DE9F84F204D92468946064698460122C5
:10DDA00069461846AF68FCF77DFF58B3009800211C
:10DDB0000446801C09E000BF00EA07035AF821204E
:10DDC00005EB8303401C491CDA604145F4D34FEA5C
:10DDD000164AFDF7B9F94AEA0041601C384005EBE4
:10DDE00080003C4005EB8402C160D06866F3C5004A
:10DDF00068F3891069F39F2020F00300401C20F095
:10DE00000400D06095F8200402E000BFFEF7FEF9A0
:10DE10000028FBD1BDE8F88F0421002070B50C006C
:10DE2000054602D10020FCF729FB15B90020FCF7BC
:10DE300025FB207828702088000A68702068000C74
:10DE4000A8702068000EE87020792871207A687127
:10DE50002089000AA871A068000CE87170BD00005C
:10DE600070B50446124800250078F8B1F4B1207F5F
:10DE7000E0B1FDF7BFFAD4E90223801A994110D32B
:10DE80002069002600B92677D4E905108847206963
:10DE900060B1217F51B1D4E9022110187141C4E968
:10DEA000020121460348FEF78EFE0125284670BD7B
:10DEB000A81B002000E50100F8B51B4C694620684E
:10DEC000FDF74CFD00260127184D29E0017821B10E
:10DED00001290CD002291BD114E041680A7FBAB98C
:10DEE0000F77416810480830FEF76DFE10E041687A
:10DEF0006868814201D16E600AE00B480830FEF785
:10DF00007DFE05E0FFF73EFF08B10677FAE72F70C8
:10DF100069462068FDF717FD69462068FDF71EFD7C
:10DF20000028D3D1F8BD0000F8E40100A81B0020B0
:10DF3000F8B50B4C0D46064669462068FDF7F8FC1F
:10DF400058B10670456069462068FDF712FD10B1B2
:10DF50000448FDF7ABF90020F8BD0420F8BD00002F
:10DF6000F8E40100B01B002070B50C4605464FF4E4
:10DF70008E71FEF77EFE216AA068415C206A401C1B
:10DF80002062C5F81C1570BD1FB500228DF8002059
:10DF90000291816801914261D0E900126846904780
:10DFA0001FBD1FB500228DF80020029181680191EC
:10DFB0004261D0E90012684690471FBD1FB50A466E
:10DFC00001788DF8001041680191017A8DF80810F0
:10DFD000C0680390044850F82210001F50F8222017
:10DFE000684690471FBD0000941B00200149012096
:10DFF00008707047E01B002010B588B0044620224E
:10E000000E496846FBF7F2F90C2000904FF0FF3004
:10E010000190029003904FF0EB7006900CB1084A0B
:10E0200000E0002269460748FDF72AFE08B1FCF728
:10E0300025FA0448001F447008B010BD94E60100A2
:10E04000EDDF0100E41B00202DE9FF470C460546EB
:10E050004FF40071FEF713FE01274FF401780026FC
:10E0600018B34FF4927949462846FEF7FDFDE0B11A
:10E0700049462846FEF7FDFDC5F8088394F82900B7
:10E0800000B96F6002208DF80000D5F88004C5F853
:10E0900080040390A0690290E0680190A661E661A7
:10E0A000D4E900126846904728E004212846FEF78C
:10E0B000E6FD18B34FF484712846FEF7D5FDE8B1AC
:10E0C00021462846FFF71CFD616AA069884215D1E8
:10E0D000E06938B1E268616AA0612069E661666260
:10E0E000E06008E094F8290000B96F60C5F8088383
:10E0F000A661E268616A2046FFF71BFD4FF48E7847
:10E1000041462846FEF7B0FD80B16069216A814230
:10E1100002D294F8280028B341462846FEF7A9FD0C
:10E12000606918B161692046FFF72EFF4FF4A278AD
:10E1300041462846FEF798FD002818D0414628465B
:10E14000FEF797FD94F8290000B12F60A069002820
:10E150000DD0A661E268616A04B02046BDE8F047D0
:10E16000FFF7E7BC21462846FFF7FEFEDEE7BDE8E5
:10E17000FF8700001FB50A4601788DF8001041683E
:10E180000191017A8DF80810C0680390044850F896
:10E190002210001F50F82220684690471FBD000043
:10E1A000941B00202DE9FF410C464FF49277054661
:10E1B0003946FEF76AFD0026B8B139462846FEF713
:10E1C00069FD02208DF80000D5F88004C5F88004B0
:10E1D0000390D5F83C050290E0680190A661E661E5
:10E1E000D4E900126846904723E04FF48877394617
:10E1F0002846FEF74AFDE0B139462846FEF74AFDBB
:10E20000D5F83C15A069884213D1E06960B1E26895
:10E21000D5F8000220F02000C5F80002E069A061F6
:10E220002069E661E06001E0A661E2682046FFF750
:10E230008BFC4FF4A27739462846FEF726FD68B1DD
:10E2400039462846FEF726FDA06938B1A661E66189
:10E25000D5F83C152046E268FFF776FC4FF490763F
:10E2600031462846FEF711FD60B131462846FEF7DB
:10E2700011FD0120E860606920B1D5F84C152046F9
:10E28000FFF78FFE4FF4AC7631462846FEF7FDFCD3
:10E2900000280ED031462846FEF7FCFC60690028B5
:10E2A00007D0D5F84C1504B02046BDE8F041FFF783
:10E2B00078BEBDE8FF810870000A487002207047F0
:10E2C0002DE9F05F8346DDE90A4A994690460D46FE
:10E2D0000846012703E000BFB0FBF8F07F1C404573
:10E2E000FAD2B94500D94F465FEACA7012D18CB153
:10E2F0005FEA8A7002D5B9F1000F01D0202607E04D
:10E30000302605E031465846641EFCF713FD0CB17B
:10E31000A742F7D35FF00106B9F1010F02D9A9F1C5
:10E32000010903E0B5FBF6F0404502D306FB08F611
:10E33000F2E7DFF83C9000BFB5FBF6F000FB1655A6
:10E3400019F800105846FCF7F5FCB6FBF8F6002E5D
:10E35000F2D15FEACA7009D0002C07D0A74205D2DB
:10E3600020215846641EFCF7E5FCF5E7BDE8F09F68
:10E3700016E50100F8B5054680B2FDF755F8040032
:10E3800013D0154E207A0027317B88420ED2A8B2D6
:10E3900004F10A0175DF28B1112806D0BDE8F84064
:10E3A000FFF734BC207A401C2072F8BD2772307C05
:10E3B00038B1A8B23B2176DF18B1082801D0FFF7A9
:10E3C00025FC71690029F0D08DF80070ADF802507D
:10E3D00068468847F8BD0000641D00202DE9FC4117
:10E3E0001646DDE90854CDE900541F468046022256
:10E3F00000F00CF8002807D1CDE900543B4610226C
:10E400003146404600F002F8BDE8FC812DE9FC5F92
:10E410000026DDE90C4B994692468E4680462788B9
:10E42000354630E0D8F80400002200EB850069464C
:10E430000068019001A864DF002830D19DF8000039
:10E4400050451FD10EB1002100E00221228808446E
:10E450001118594522D846B9521C90B2208009F8AB
:10E4600000E02088401C20800126218801A801EBC3
:10E470000902694664DF002811D120889DF8001048
:10E48000084420806D1CB8F80000A842CADC56B1D0
:10E490002088C01B401E80B2FF2802D90C20BDE896
:10E4A000FC9F09F807000020F9E70000A01C0020ED
:10E4B0000100060134120000101D0020FB349B5F98
:10E4C000800000800010000034120000770A000075
:10E4D00000000000770A000000000000000000506B
:10E4E00081D20100DDD40100000000000000000026
:10E4F0000338FDD870470000EC1E00200100060024
:10E5000000000000C81B002021B001000000000036
:10E510000338FDD870473031323334353637383927
:10E520004142434445460000000000000000000056
:10E5300000000000000000000000000000000000DB
:10E5400028E5010040E5010004000000556E6B6EF7
:10E550006F776E206572726F7220636F6465000062
:10E560000000000064EB01000100000010EA01005F
:10E570000200000004E801000300000084EA01003A
:10E5800004000000D8EA010005000000B8E901001D
:10E590000600000054E9010007000000C0EA010085
:10E5A00008000000CCE901000900000030EA010089
:10E5B0000A0000004CEB01000B000000ECE701003A
:10E5C0000C000000E4E901000D000000B4EB0100C4
:10E5D0000E000000B0EA01000F000000ECEA0100AC
:10E5E0001000000020EB010011000000C8EB01004A
:10E5F000120000009CEB01001300000038EB01004A
:10E60000800000006CE9010081000000A8E8010022
:10E610008200000068E801008300000048E8010073
:10E620008400000084E801008500000090E90100FA
:10E630008600000098EA01009000000034E9010023
:10E640009100000028E8010092000000F8E90100B4
:10E650000082000000EB0100018200004CEA010092
:10E660000282000068EA010000840000C4E80100A2
:10E670000184000070EB0100028400000CE901003D
:10E6800003840000E8E80100A9C101007DC1010088
:10E6900075C10100FFFFFFFFFFFFFFFFFFFFFFFF4F
:10E6A000FFFFFFFF00000000000000000000D60197
:10E6B000060100006C2000207F000000EC200020FC
:10E6C000000000000000000000000000000000004A
:10E6D00001000007C0E60100D0E6010008000000CC
:10E6E000F8E6010008E701000800000008E7010063
:10E6F00018E701000800000078EF010080EF01003A
:10E70000000000000000000068EF010078EF010049
:10E71000000000000000000038EF010040EF0100A1
:10E7200040EF010050EF010050EF010058EF0100F1
:10E7300058EF010060EF0100E01A002018E7010027
:10E7400038E701000800000060EF010068EF0100F9
:10E75000000000000000000048E7010058E7010049
:10E7600008000000004040404040404040404141DF
:10E770004141414040404040404040404040404096
:10E780004040404040050202020202020202020230
:10E79000020202020220202020202020202020022D
:10E7A00002020202020290909090909010101010BD
:10E7B0001010101010101010101010101010101059
:10E7C00002020202020288888888888808080808ED
:10E7D00008080808080808080808080808080808B9
:10E7E000020202024000000065E701004E52465F4F
:10E7F0004552524F525F494E56414C49445F444145
:10E80000544100004E52465F4552524F525F534FA3
:10E8100046544445564943455F4E4F545F454E412B
:10E82000424C4544000000004E52465F4552524F54
:10E83000525F464541545552455F4E4F545F454ED9
:10E8400041424C45440000004E52465F4552524FF3
:10E85000525F4D555445585F554E4C4F434B5F46A4
:10E8600041494C45440000004E52465F4552524FCC
:10E87000525F4D555445585F4C4F434B5F4641499D
:10E880004C4544004E52465F4552524F525F4D55E3
:10E890005445585F434F4E445F494E49545F46418B
:10E8A000494C4544000000004E52465F4552524FCD
:10E8B000525F4D555445585F494E49545F46414952
:10E8C0004C4544004E52465F4552524F525F424CB7
:10E8D000455F495053505F52585F504B545F5452FC
:10E8E000554E4341544544004E52465F4552524FA7
:10E8F000525F424C455F495053505F504545525F0F
:10E9000052454A4543544544000000004E52465F7C
:10E910004552524F525F424C455F495053505F4CF5
:10E92000494E4B5F444953434F4E4E454354454433
:10E93000000000004E52465F4552524F525F415018
:10E94000495F4E4F545F494D504C454D454E5445DF
:10E95000440000004E52465F4552524F525F4E4FA8
:10E96000545F535550504F52544544004E52465FE9
:10E970004552524F525F4D4F44554C455F4E4F5498
:10E980005F494E495449414C495A454400000000F2
:10E990004E52465F4552524F525F4D4F44554C4583
:10E9A0005F414C52454144595F494E495449414C9D
:10E9B000495A4544000000004E52465F4552524FAE
:10E9C000525F4E4F545F464F554E44004E52465F85
:10E9D0004552524F525F494E56414C49445F535441
:10E9E000415445004E52465F4552524F525F44419A
:10E9F00054415F53495A45004E52465F4552524F6B
:10EA0000525F494F5F50454E44494E470000000059
:10EA10004E52465F4552524F525F5356435F4841F4
:10EA20004E444C45525F4D495353494E47000000F8
:10EA30004E52465F4552524F525F494E56414C49E5
:10EA4000445F4C454E475448000000004E52465F1C
:10EA50004552524F525F4452565F5457495F455298
:10EA6000525F414E41434B004E52465F4552524F1A
:10EA7000525F4452565F5457495F4552525F444E6D
:10EA800041434B004E52465F4552524F525F494EF2
:10EA90005445524E414C00004E52465F4552524F33
:10EAA000525F53544F524147455F46554C4C00000E
:10EAB0004E52465F4552524F525F4E554C4C0000ED
:10EAC0004E52465F4552524F525F494E56414C4955
:10EAD000445F504152414D004E52465F4552524FA5
