:020000040002F8
:10600000F04C0020C1630200C9630200CB630200B0
:10601000CD630200CF630200D163020000000000E4
:10602000000000000000000000000000D363020038
:10603000D563020000000000D7630200D9630200AC
:1060400025660200DB630200F56A0200DB630200E2
:10605000DB630200DB630200C16402008D660200A4
:10606000DB630200DB630200DB630200DB63020030
:10607000DB630200DB630200DB630200DB63020020
:10608000DB6302007D660200DB630200DB6302006B
:10609000DB630200DB630200D5670200DB63020002
:1060A000DB630200DB630200DB630200DB630200F0
:1060B000DB630200DB630200000000000000000060
:1060C000DB630200DB630200DB630200DB630200D0
:1060D000DB630200DB630200DB6302000000000000
:1060E00000000000000000000000000000000000B0
:1060F00000000000000000000000000000000000A0
:10610000000000000000000000000000000000008F
:10611000000000000000000000000000000000007F
:10612000000000000000000000000000000000006F
:10613000000000000000000000000000000000005F
:10614000000000000000000000000000000000004F
:10615000000000000000000000000000000000003F
:10616000000000000000000000000000000000002F
:10617000000000000000000000000000000000001F
:10618000000000000000000000000000000000000F
:1061900000000000000000000000000000000000FF
:1061A00000000000000000000000000000000000EF
:1061B00000000000000000000000000000000000DF
:1061C00000000000000000000000000000000000CF
:1061D00000000000000000000000000000000000BF
:1061E00000000000000000000000000000000000AF
:1061F000000000000000000000000000000000009F
:10620000DFF80CD000F01EF900480047958402002A
:10621000F04C002030B450E8012F93B2C4892344DD
:106220008489A34228BF1B1B0489A34202BFBFF37A
:106230002F8F002007E0C3EA020340E80134002C5E
:10624000E9D14FF001000A6030BC704750E8012FDF
:10625000C2EA024240E801210029F7D1704730B478
:1062600050E8022F1FFAA2F3C488A34202BFBFF373
:106270002F8F00200DE0C48923448489A34228BFC6
:106280001B1BC2EA034340E80234002CE8D14FF064
:1062900001000A6030BC704750E8022FC2EA224277
:1062A00040E802210029F7D17047034653E8022F46
:1062B000D988B2EB324F4FF0000017BF92B241EADB
:1062C000014142EA014104E05A68B2EB324F08BF93
:1062D000012043E80212002AE8D1704730B4044696
:1062E00054E8000F0D4644E80053002BF8D1156028
:1062F00030BC704730B4044654E8000F40EA010552
:1063000044E80053002BF7D1156030BC704730B41F
:10631000044654E8000F00EA010544E80053002B4E
:10632000F7D1156030BC704730B4044654E8000F14
:1063300080EA010544E80053002BF7D1156030BC1A
:10634000704730B4044654E8000F00EB010544E800
:106350000053002BF7D1156030BC704730B40446B1
:1063600054E8000FA0EB010544E80053002BF7D1DF
:10637000156030BC704770B404464FF0000054E81C
:10638000006F0D68AE4207BF44E80023012044E8D7
:1063900000630E60002B1CBF0020F0E770BC70474C
:1063A00030B4044654E8000F88422CBF451A054615
:1063B00044E80053002BF5D1156030BC7047000055
:1063C0000648804706480047FEE7FEE7FEE7FEE78F
:1063D000FEE7FEE7FEE7FEE7FEE7FEE7D96702001D
:1063E000016202000048704798B9020040EA0103C8
:1063F0009B0703D009E008C9121F08C0042AFAD27B
:1064000003E011F8013B00F8013B521EF9D270473E
:10641000D2B201E000F8012B491EFBD270470022E6
:10642000F6E710B513460A4604461946FFF7F0FF93
:10643000204610BD421C10F8011B0029FBD1801A18
:1064400070470000064C074D06E0E06840F001038D
:1064500094E8070098471034AC42F6D3FFF7D4FE17
:10646000C8C00200E8C0020070B58C1810F8015BCB
:1064700015F0070301D110F8013B2A1106D110F8DD
:10648000012B03E010F8016B01F8016B5B1EF9D1E1
:106490002B0705D40023521E0DD401F8013BFAE767
:1064A00010F8013BCB1A921C03E013F8015B01F8D2
:1064B000015B521EF9D5A142D8D3002070BD000067
:1064C0002DE9F04700268AB0DFF85091B0464FF42E
:1064D0008075012437460696284602F0CBFC38B179
:1064E000D9F80403204203D0284602F0B9FC264321
:1064F0002D1D64007F1CADB2082FEDD34FF4BE7488
:10650000204602F0B7FC48B1204602F0A9FC46F054
:10651000004606AA0121002002F08EFC404D16F034
:10652000FF0F15D00127002437420DD009EB84015D
:10653000D1F81005D1F81015C0F3042055F8242027
:10654000C1F3014102B190477F00641C082CEBD3DA
:10655000002E5FDA4FF0FF30CDF8108054E028199C
:1065600010F8507F90F9000027F0C008401C3BD085
:1065700007A9404602F096F910B34FEA9719404632
:1065800001F092F955F820701FB1B9F1030F03D053
:1065900006E0B9F1030F27D104A9404602F08AF9B9
:1065A0004FF0A04101EB8800D0F8000706A9C0F326
:1065B000014A404602F076F918B1BAF1020F03D051
:1065C00012E0BAF1030F0FD1B9F1030F08D1BAF1FC
:1065D000020F1DD00221404602F01CFC761CF6B2D0
:1065E00017B149464046B847641C042CB7D3002E67
:1065F00010D06A460121002002F01EFC0699009886
:10660000884207D006900498002634460790A6E7F3
:106610000321E0E70AB0BDE8F08700000060004019
:10662000D425002070B54FF48076304602F006FA8B
:10663000114CB50560B1304602F007FA0120C5F8EB
:106640000803607920B90120607121680020884723
:106650004FF48276304602F0F1F900280AD0304635
:1066600002F0F3F90220C5F808032168BDE8704084
:106670000120084770BD0000702300200249024835
:10668000091F096800680847A82300202DE9FE4378
:106690004FF48278404602F0CBFF4C4F00254C4C23
:1066A000012600B3404602F0CBFF94F82E0010B153
:1066B00094F82F10D1B18DF80050616801912189B3
:1066C000ADF80810E26832B1218B618362602181EC
:1066D000E56010B102E0257400E03E602168684684
:1066E000884784F82F5094F82E0060B34FF48077D9
:1066F000384602F09DFF30B3384602F0A1FF628BAE
:1067000094F82D108A420AD9A2EB010080B260836E
:106710002289A2EB0000626802EB400005E007D18D
:10672000E06828B184F82F60658302F06FFF04E011
:106730008A4202D184F82F606583404602F080FFD0
:106740002248001D06604FF48877384602F070FF3B
:1067500048B1384602F074FF257402208DF800001D
:106760002168684688474FF48A77384602F060FF10
:1067700028B1384602F064FF2574BDE8FE834FF06F
:1067800000484FF48C7967691DE000BFB7FA87F0C5
:1067900028FA00F109EB80058F43284602F048FFF4
:1067A00088B1284602F04CFFA5F58C75E8088DF8F5
:1067B000040045F38000401C8DF800608DF8050052
:1067C000216868468847002FE0D1D6E70070004076
:1067D0008026002003F0D0B8F0B5B5480023021D94
:1067E0000178101D01254FF0805406290BD1167831
:1067F000360708D10678C6F30316032E06D0042EFA
:1068000004D0052E02D0062907D00EE0B4F8246388
:10681000A84FC6F304263E6002E01678360704D17E
:106820000678C6F30316032E02D0062904D00FE023
:10683000A24FA14E7E670EE01678360708D1067883
:10684000C6F30316032E06D0042E04D0052E02D064
:10685000062907D00EE0D4F84462994FC6F34236B9
:106860003E6002E01678360704D10678C6F30316B8
:10687000032E02D0062906D011E0924E376827F089
:10688000807737600EE01678360708D10678C6F3B1
:106890000316032E06D0042E04D0052E02D006299E
:1068A0000AD011E04FF08046C6F80C31C6F810311E
:1068B000834E361F336002E01678360704D106781F
:1068C000C6F30316032E02D0062905D00CE07C4F38
:1068D000032664373E600AE01678360704D106784E
:1068E000C6F30316032E02D006290DD014E0764F0E
:1068F00005263E60744E78363560734E0836336038
:106900003F263F1D3E6002E01678360704D1067828
:10691000C6F30316052E02D0062957D062E06B4E4F
:1069200036686B4F3E60694E361D36683F1D3E60CF
:10693000664E083636683F1D3E60644E0C3636683B
:106940003F1D3E60614E103636683F1D3E605F4E13
:10695000143636683F1D3E605C4E183636685C4F14
:1069600020373E60594E1C3636683F1D3E60574EFC
:10697000203636683F1D3E60544E243636683F1D33
:106980003E60524E283636683F1D3E604F4E2C36D4
:1069900036683F1D3E604D4E303636684C4F4037AE
:1069A0003E604A4E343636683F1D3E60474E3836AC
:1069B00036683F1D3E60454E3C3636683F1D3E60A2
:1069C000424E403636683F1D3E6002E0167836077C
:1069D00008D10678C6F30316032E06D0042E04D081
:1069E000052E02D0062907D019E0D4F85812394AEA
:1069F00001F04F01116002E0117809070FD1007812
:106A0000C0F30310032803D0042801D0052806D1C1
:106A100031480168C90702D06FF001010160D4F864
:106A20003001062808D1D4F83401062804D12B48B7
:106A3000016841F48061016022487438016841F4C2
:106A400070010160BFF34F8FBFF36F8F4FF01021C4
:106A5000D1F80002002803DBD1F80402002822DA72
:106A60001F4A15601F480468002CFCD01524C1F88B
:106A700000420568002DFCD0C1F8044201680029DD
:106A8000FCD0136001680029FCD0BFF34F8F0D4884
:106A9000F0380168144A01F4E06111430160BFF36A
:106AA0004F8F00BFFDE7124910480860F0BD00009D
:106AB000E00F00F0403501400DF0ADBA00C00740D6
:106AC0003C050040FCED00E01056004004040010BE
:106AD00020C50040E40E0040000400403C17004088
:106AE00004E5014000E401400400FA050090D003F1
:106AF000F0220020014800680047000078230020B1
:106B000002E008C8121F08C1002AFAD17047704776
:106B1000002001E001C1121F002AFBD170470000D4
:106B20000121202803DA81400548014003E0402884
:106B300002DA2038814009B10120704700207047F7
:106B4000FC06FFBD03480078002801D103F0B2BF66
:106B500070470000F422002030B52449A5B0096830
:106B60002491807E8DF892003C216846FFF757FC07
:106B700002208DF8000001248DF8024006208DF8D7
:106B800003003C210FA8FFF74AFC24A8184D1490DD
:106B9000ADF84C402A1D6846296800F0ABF908B1F1
:106BA00000F078F8124A0FA80C32A96800F0A2F998
:106BB00008B100F06FF818211EA8FFF730FC002084
:106BC0008DF88D408DF87840ADF884001F908DF8D9
:106BD0008C004FF4207020901EAA0549054872DFF2
:106BE000002801D000F056F825B030BD70B6020084
:106BF0009C240020F822002004480121007873DF43
:106C0000002801D000F046B870470000F8220020AC
:106C100072B602F0D1FB00BF02F012FA0028FBD1DD
:106C200011481249401AC408012000EB044010A189
:106C300002F020FB11480068C00700D000BE02200F
:106C400000EB04400EA102F015FBBFF34F8F0B4881
:106C5000E43801680E4A01F4E06111430160BFF3BA
:106C60004F8F00BFFDE7000058C10200F8C00200CE
:106C7000466174616C206572726F7200F0ED00E025
:106C800053797374656D207265736574000000003C
:106C90000400FA050EB500210091CDE901106A4605
:106CA00044F20100FFF7B4FF0EBD0000014801F0FF
:106CB000C4B80000882300203AB10068012942616D
:106CC00000D00021016100207047072070470000BC
:106CD00038B5114808235822416800910F490068CF
:106CE00001F007FD002815D10D4A69460D4801F055
:106CF000A9F804000ED101210A4801F01AF9012374
:106D0000094A1946074801F070F806490120083978
:106D10000870204638BD0000A8B60200C02600203A
:106D2000B1A8020088230020FFFF7F0070B5044651
:106D3000007F0D4608B1002070BDA26101F0C8F9C6
:106D4000401941F10001C4E90201206900B1256147
:106D50002146BDE87040002004F08CB901460020B7
:106D60000877012004F086B930B5EFF3108172B6D0
:106D70000D4A9468012324B10370002900D162B642
:106D800030BD93604FF0E023D3F88051074C25408D
:106D90001560C3F88041D3F8844154605A17C3F892
:106DA000842100220270E8E718270020FC06FFBDBE
:106DB0000B498A68002A11D000280FD1EFF3108008
:106DC00072B60B684FF0E022C2F800314B68C2F88F
:106DD000043100228A60002800D162B670470000AA
:106DE000182700202DE9F041064608680C46411C92
:106DF0004FF0A0474FF0010506D005FA00F1C7F8A3
:106E00000815206801F0F2FF6068411C02D00021E3
:106E100001F0DAFF3168A069C1F82405607D227DA8
:106E200031681043C1F86C05D4E900123068C0F82D
:106E30001425C0F80C15207D012815D1A068411C2F
:106E400002D0002101F0C0FFE068411C05D0854060
:106E5000C7F80855E06801F0C9FFD4E902123068AC
:106E6000C0F80825C0F81015BDE8F0812DE9F04103
:106E7000064608680C46411C4FF0A0474FF001053C
:106E800006D005FA00F1C7F80815206801F0B8FF30
:106E90006068411C02D0002101F09FFF3168A069A9
:106EA000C1F82405607D217D32680843C2F86C0575
:106EB000D4E900123068C0F80C15C0F81425207D04
:106EC000012815D1A068411C02D0002101F085FFE6
:106ED000E068411C05D08540C7F80855E06801F01E
:106EE0008FFFD4E902123068C0F80825C0F81015E9
:106EF000BDE8F0812DE9FC4700251788064615807E
:106F000090F82D001446894630B13A46214648464D
:106F100000F0ACF9051E09D1B0784FF00C0A18B397
:106F20002088C846001DB84202D95046BDE8FC87FB
:106F3000684679DF0028F9D12088032108F800107D
:106F400020881921401C80B2208008F80010208879
:106F5000401C80B2208000EB0801BDF8000004F066
:106F600078FA218808442080F0780222C8B121886C
:106F700096F9033001F1030C4846BC45D5D842547C
:106F800021884FF0010C491C89B2218000F801C012
:106F90002188491C89B2218009F801302088401CD1
:106FA00020807068B8B1218890F9003001F1030C9D
:106FB0004846BC45B9D8425421880A22491C89B2A6
:106FC000218042542188491C89B2218009F801306E
:106FD0002088401C2080308950B1CDE900474B46C5
:106FE0000622022106F1080004F0C6FA051E9DD112
:106FF000308A50B1CDE900474B460722032106F104
:10700000100004F0B9FA051E90D1308B50B1CDE9D3
:1070100000474B461522142106F1180004F0ACFA83
:10702000051E83D1306A30B13B462246494600F006
:1070300098FD051EDBD1706A30B13B4622464946B9
:1070400001F07AFA051ED2D196F82C0038B13B46F1
:1070500022464946304603F0D9FD051EC7D1307897
:1070600038B13B4622464946304601F0EFFA051E4C
:10707000BDD128465AE707B586B001220023009308
:10708000ADF810200193029303938DF80220498AF2
:10709000ADF8001008A9039104A902916946AEDF7A
:1070A00009B000BD07B586B0012200230093ADF8FA
:1070B00010200193029303938DF802204989ADF8C3
:1070C000001008A9039104A902916946AEDF09B036
:1070D00000BD000030B53E4B04468DB00FCB08AD6F
:1070E00085E80F0004F11A0108A862DF00286DD1BD
:1070F000A07E8DF8320041F23420ADF830002246F7
:107100000CA90120A8DF002860D120216846FFF7E4
:1071100086F941F23620ADF80000A07E8DF802001D
:1071200001259DF80D00ADF8065040F012008DF8D5
:107130001150ADF804508DF80D008DF813502088D3
:1071400004F10A02694600F0E7FB00283ED1202145
:107150006846FFF764F941F23520ADF80000A07EE3
:107160008DF802009DF80D00ADF8065040F01200B9
:107170008DF81150ADF804508DF80D008DF81350B6
:107180002088A21C694600F0C7FB00281ED12021E0
:107190006846FFF744F941F23820ADF80000A07EC0
:1071A0008DF802009DF80D00ADF8065040F0120079
:1071B0008DF81150ADF804508DF80D008DF8135076
:1071C000208804F11202694600F0A6FB0DB030BD24
:1071D00060B6020007B586B0012200230093ADF827
:1071E00010200193029303938DF802204988ADF893
:1071F000001008A9039104A902916946AEDF09B005
:1072000000BD000070B5040012D001461C221448D5
:10721000FFF7ECF81248134D0560206850B17ADF93
:10722000002806D12068016829604068686005E090
:107230000E2070BD0B487BDF0028FAD108484FF6BE
:10724000FF711438084A20F8041B054934390160DD
:107250000021FFF731FD0028EBD0032070BD0000B6
:10726000E4240020FA22002011B502007CB5054676
:1072700008880C460930904201D90C207CBD684634
:107280006DDF0028FAD121880820685420881B214E
:10729000401C80B2208029542088401C80B220806D
:1072A0002844DDF801100160BDF8051081802088B8
:1072B000801D80B220809DF80010490800D0012177
:1072C00029542088401C208000207CBD1FB5044626
:1072D00001208DF8060041F60A00ADF80400494A85
:1072E00001A90120A8DF00287DD122885AB1454894
:1072F000801C009094F83C3042F62920616800F030
:10730000DBFA00287BD122895AB13E480A3000902E
:1073100094F83C3042F62420E16800F0CDFA0028D1
:107320006DD1228A5AB137481230009094F83C301F
:1073300042F62520616900F0BFFA00285FD1228B58
:107340005AB130481A30009094F83C3042F6272069
:10735000E16900F0B1FA002851D1228C5AB12948D4
:107360002230009094F83C3042F62620616A00F00A
:10737000A3FA002843D1228D5AB122482A30009026
:1073800094F83C3042F62820E16A00F095FA002893
:1073900035D1216B79B102A803F060FD19480822AC
:1073A0003230009094F83C3002A942F6232000F0DD
:1073B00083FA002823D1606B60B112493A31009101
:1073C0000279016894F83C3042F62A2000F074FA01
:1073D000002814D1A16B89B102A803F0D9F909489A
:1073E0004230009000E00AE094F83C30072202A905
:1073F00042F6502000F060FA002800D1002004B0CE
:1074000010BD00000C2300202DE9F04701883B4E01
:1074100040F2F3194FF6FF7510291BD011293ED009
:10742000122954D0502946D1C188F289841D914235
:1074300041D1618902293ED18688304600F0DEFEC6
:10744000050038D004F10C0000F077F9A8B3294604
:1074500030464EE0C17B8788044601292BD1A846DF
:10746000284600F0CBFE050017D02F8000202872A0
:10747000234843464A460168C5F80A104068C5F8E3
:107480000E0004F1100105F10A0000F07BFF6872A4
:10749000F08900280FD129462AE0042013E08088D3
:1074A00000F0ACFE040006D06068FFF757FC08B19E
:1074B00003F084FB2580BDE8F087FFE76868FFF7ED
:1074C0004DFC0028F7D0BDE8F04703F077BB878874
:1074D0000646384600F092FE0400ECD02B464A46A1
:1074E00006F1080104F10A0000F04CFF6072214629
:1074F0003846BDE8F04700F0A1BB0000E4240020BE
:10750000FA2200202DE9F04F04468688018842487F
:1075100097B0834610290CD0112950D0103019296A
:107520006AD01A2974D1217A0C09042C4DD3012276
:107530004CE0394D083DA868C0430B9069680BA822
:1075400001F042F90B990CA800F0ECFA2C220CA9DE
:107550006846FEF74BFF0027E946A84610E000BF4B
:1075600009EB47005FF00005B0F804A008EB8500C8
:107570005146001D01F0FCF86D1C1E2DF6D37F1C3A
:107580000098B842ECD8142E05D317B00420BDE8FB
:10759000F04FFFF77FBB3146584601F0FFF8314608
:1075A00008F1040001F0FAF8E07B012830D017B0B0
:1075B0003146BDE8F04F1848001D01F0EFB817B094
:1075C0003146BDE8F04F01F0D3B80022314600F05B
:1075D00042FD032C01D3012200E000220E48314677
:1075E0000C3000F038FD022C01D3012200E0002213
:1075F00009483146083006E0217A002908D1617A2D
:10760000C1F3C002314617B0BDE8F04F00F023BD12
:1076100017B0BDE8F08F000008250020F8B5344D04
:10762000018804462E88212948D015DC3148324A89
:107630001029A0EB02004FEAD0004FF0030202EB4A
:10764000004013D011292FD0132940D100231A460E
:10765000852130467FDF40E03B2944D0522937D096
:10766000562934D18088132176DF36E023A101F03A
:1076700001FE2549A08828800A782449FFF7FBFCF1
:1076800000F012FA2248214902782888FFF70AFD03
:1076900000F00AFA1F481D4902782888FFF79AFD72
:1076A000BDE8F84000F000BA1BA101F0E3FD4FF681
:1076B000FF702880BDE8F840FFF79EBA00200090D8
:1076C000A08869468FDF002801D0FFF7E3FAF8BDF4
:1076D00000231A4619463046B1DF0028F7D0BDE82E
:1076E000F840FFF7D7BA8088132176DFF5E700006E
:1076F000F622002058C10200F8C00200436F6E6EEF
:107700006563746564000000F922002040240020B5
:107710005C2300205D230020446973636F6E6E65F7
:10772000637465640000000070B504460D460846A9
:10773000FEF780FE2080656070BD007800F00100DB
:10774000704708B502F0DEF808B1FFF7A3FA002091
:1077500000906946012001F08FFF08B1FFF79AFA07
:10776000684602F009F8002801D0FFF793FA08BD37
:107770002DE9F8430546861C00208DF80000904650
:107780000F464FF001096846FFF7EEFA1B4C2068E0
:107790003860D4E90001401AA16804F21C47081AB5
:1077A0000EE00121384601F009F800F025FE0146FF
:1077B000384601F003F8D4E90001401AA168081A1C
:1077C000401C8642EDD8B8F1000F03D0052065F3C8
:1077D000891002E0062065F39F50A26821681140DD
:1077E00004EB8101C8602068304420609DF80000EF
:1077F000FFF7DEFA4846BDE8F8830000C8280020FD
:1078000070B50D4604460A2902D10D21FFF7F8FF95
:10781000A0682268411CA1601554D4E9010181428D
:1078200004D32046BDE8704001F08DB970BD000062
:10783000034803C8814201D10120704700207047EE
:10784000C828002005494FF0FF32082841F82020C1
:1078500002D3084480F8482070470000D425002057
:10786000F0B54FF0FF3512B10023082601E00823E0
:107870000C260C4C05E000BF54F823707F1C04D08C
:107880005B1CB342F8D32846F0BD26185DB286F8DB
:10789000305044F82310002AF5D1E11881F848004F
:1078A000F1E70000D42500200249084490F9300097
:1078B00070470000D42500202DE9F04188B01E4615
:1078C000DDF8388014460D00074602D10020FFF78E
:1078D000E1F914B90020FFF7DDF920216846FEF731
:1078E0009EFD9DF80D00ADF8044040F002008DF8BB
:1078F0000D000848ADF80070ADF8064002958DF80F
:10790000116042466946008800F006F808B0BDE8FC
:10791000F08100000C2300202DE9F0438146887897
:1079200091B090460C4600B901208DF83E002088A9
:10793000ADF83C0000250095607C694603F0F2F943
:107940006E46A07C711C03F0EDF9E07B00289DF8E9
:10795000020002D040F0080001E020F008008DF89D
:107960000200217C11B140F0100001E020F0100075
:107970008DF80200217B11B140F0010001E020F000
:1079800001008DF80200217D09B1022100E00121F2
:1079900061F342008DF802001C2102A8FEF73FFDB2
:1079A000607BC10601D4800617D50E950EAFE07C32
:1079B000791C03F0B7F99DF83800079720F00F0005
:1079C000401C20F0F00010308DF838009DF83A008F
:1079D00020F00600801C8DF83A00607B8DF80800CE
:1079E000A07B8DF80900142109A8FEF718FD0FA847
:1079F000CDE90906A088ADF83000A06820B1E08884
:107A0000ADF82C00A0680D90A06998B3019500888E
:107A1000ADF81000A06901AD01A94088ADF81200D1
:107A2000A069406806950390A069007B03F07AF98D
:107A3000A069691C407B03F075F9A069807A002871
:107A40009DF8060002D040F0080001E020F0080098
:107A50008DF80600A169C97A11B140F0100001E06B
:107A600020F010008DF80600A169097A19B140F0E4
:107A7000010002E00DE020F001008DF80600A16990
:107A8000897B09B1022100E0012161F342008DF8F8
:107A90000600E06900B10590434609AA02A94846DC
:107AA000AADF11B0BDE8F08300280BD0A0F540514B
:107AB000023907D0082805D043F20141884201D09D
:107AC000FFF7E8B87047000070B5084C050009D012
:107AD00010342168002907D00868206049682846CA
:107AE0008847F6E70834F4E770BD0000C0250020A1
:107AF000054A012120B1012805D19170FFF7E4BFAB
:107B000051700020FAE77047C025002010B5D0E979
:107B10000234D1E90220D11AA04101D3012010BDC5
:107B2000002010BD73B58CB00646002000900D9863
:107B300080B100246D4621460DA800F024FE30B12E
:107B4000009805EB400084800098401C0090641C65
:107B5000142CF0D32C2269463046FEF747FC0EB0B9
:107B600070BD2DE9F04117880646B81D14460D4634
:107B7000984202D90C20BDE8F081318807220629FD
:107B80000AD34FF4486C4FF6FF73614501D999420F
:107B900002D17088062801D21046ECE7604501D971
:107BA0009842F9D1994203D0984201D08142F3D84A
:107BB0000520E85520881221401C80B220802954DD
:107BC0002088401C80B220804119308803F041FC9D
:107BD0002188084480B220804119708803F039FC64
:107BE0002188084420800020C5E7FFF753B8000033
:107BF00000B587B01C216846FEF711FC00204FF449
:107C0000A021CDE900018910029103218DF80C100B
:107C1000ADF80E008DF81000064805900648069055
:107C20006846FFF7EFFA002801D0FFF733F807B0F6
:107C300000BD000091A50200EB7B020038B54A7A36
:107C40000F4B62B100220A725969002906D0012245
:107C50008DF80020ADF802006846884738BD0A7AE2
:107C600062B19B684C68024619462046FFF75EF8F1
:107C70000028F3D0BDE8384002F0A0BF5B68F1E710
:107C8000E424002010B50A4A01210A48FFF714F83D
:107C900008B1FEF7FFFF0748002207490068FFF719
:107CA00045F8002803D0BDE81040FEF7F3BF10BD33
:107CB000456B020074B602000000605410B50B4A18
:107CC00001210B48FEF7F8FF08B1FEF7E3FF084873
:107CD00000224FF480410068FFF728F8002803D005
:107CE000BDE81040FEF7D6BF10BD0000A1AE0200F7
:107CF00088B6020070B588B0064600200590069050
:107D0000ADF81410ADF816100190029001AA05A963
:107D1000304690DF050021D001F0D2FE0346114825
:107D200011493246401AC108012000EB01400446C7
:107D30000E4901F0AAFABDF8042012B9BDF80600F8
:107D400028B1BDF80630204609A101F09EFABDF821
:107D500008201AB12046164901F090FA08B02846CA
:107D600070BD0000F8C00200F8C002009CB902001B
:107D70005468652072657175657374656420545824
:107D80002F5258207061636B6574206C656E677448
:107D90006820697320746F6F206C6F6E6720627942
:107DA0002025752F2575206F63746574732E000070
:107DB000E8B9020010B50021024800F010FD80F380
:107DC000100010BDE42C00204FF480328A4001687E
:107DD000C1F848230068C0F8082370474FF4A07228
:107DE00002EB810189B200F02CB92DE9F041054682
:107DF0000E464FF4A07000EB860081B228684FF465
:107E00008034B440984622F07F47C0F80843286881
:107E1000C0F84843286801F0F3FB286800EB8600AF
:107E2000C0F840752868C0F84443B8F1000F02D08C
:107E30002868C0F80443BDE8F0810068D0F8040564
:107E40007047000070B54379224C44F823204279F2
:107E5000241D04EBC202204B1579204A9A1AD3083C
:107E60002DB10824022000EB03401DA12EE0026882
:107E70000D88C2F8085590F904208978002A4FEA45
:107E8000411106DA02F00F0202F1E02282F8141D1D
:107E900003E002F1E02282F8001490F904100122BC
:107EA00001F01F0502FA05F54909890001F1E021F9
:107EB000C1F80051417904EBC1010A71417944F8DC
:107EC00031000320002400EB03400EA101F0D2F9A1
:107ED000204670BDA423002040C10200F8C002006B
:107EE00052544320696E7374616E636520616C72D5
:107EF0006561647920696E697469616C697A656429
:107F00002E0000005254433A20696E697469616C16
:107F1000697A65642E00000090F90400012100F0E8
:107F20001F0291404009800000F1E020C0F80012DB
:107F300070470A46022100F07BB84FF4827100F0CE
:107F400080B800680121016070470068012141602C
:107F500070472DE9F05F07460C464FF4A07000EB28
:107F600084001FFA80FA38684FF48036A6409B469A
:107F700022F07F45C0F848633868C0F80863386865
:107F8000D0F8048500EB8402D2F84095C2F8408511
:107F90005146386801F034FBA9EB080020F07F401F
:107FA000012806D1102001F0EDFD5146386801F09E
:107FB00027FB3868D0F80485C0F84463A5EB0801B6
:107FC00021F07F413868012900EB840010D0C0F80F
:107FD00040553868D0F804156FF07F4C6A1A521E6D
:107FE00022F07F42ACEB0B03934217D362B118E04F
:107FF0006D1CC0F84055102001F0C4FD3868D0F861
:10800000040540450AD10CE000EB84006D1CC0F86B
:1080100040553868D0F80405884202D00D20BDE8EC
:10802000F09F01223146384600F002F80020F6E7C2
:108030000368C3F84413002A02D00068C0F8041390
:10804000704710B5006842581AB101F0D9FA012002
:1080500010BD002010BD0AB100F0A0BB00F088BB2D
:108060000EB513A19DF8080020F00F00401C20F071
:10807000F00010308DF80800042202A87CDF08B15F
:10808000FEF708FE0020009001905021ADF804009A
:10809000ADF800104FF4C870A021ADF80600ADF89F
:1080A000021068467ADF002801D0FEF7F3FD0EBD0E
:1080B000446F6F720000000010B5002100F004FC56
:1080C000002803D0BDE81040FEF7E4BD10BD00005D
:1080D00010B50B48FFF7B1FE094A083AD2E904345B
:1080E000C018D2E9063244F10001C31A71EB020252
:1080F00004D24FF08072801841F1000110BD0000E1
:10810000882300204FF0A040D0F810050D4B800BC5
:1081100010F0010F0A480949A0EB03004FEAD00014
:108120004FF0030303EB004003D001220A7106A1C4
:1081300002E000220A7106A101F09CB85823002039
:1081400058C10200F8C00200434420310D0A00006B
:10815000434420300D0A00004FF0A040D0F8100535
:108160000D4BC00B10F0010F0A480949A0EB0300AA
:108170004FEAD0004FF0030303EB004003D001228D
:108180000A7106A102E000220A7106A101F072B88C
:108190005823002058C10200F8C002004344203197
:1081A0000D0A0000434420300D0A00000C48012154
:1081B0004FF0A042C170D2F81025520B12F0010FFF
:1081C00002D0002141717047417106480649401AAA
:1081D000C008032101EB004004A101F04BB80000EE
:1081E0005823002058C10200F8C00200436F206EDF
:1081F000616D206368616D0D0A000000014603484F
:1082000002888A4200D0002070470000D02400205D
:108210002DE9FC5F0E008346DDE90C47C6F1000046
:1082200098469246814600D40846012503E000BFE7
:1082300090FBFAF06D1C5045FADAA84500D9454686
:1082400024B1002E01DB780700D5641EB80702D5E3
:10825000B8F1000F0AD0F80708D13CB1A54205D209
:1082600020215846641EFFF7CBFAF6E7002E02DA0B
:108270004E462D2102E0780703D52B215846FFF703
:10828000BFFA07F0030002280BD1B8F1000F08D1A4
:108290003CB1A54205D230215846641EFFF7B0FA22
:1082A000F6E7CDE90047434652463146584603F0CB
:1082B000D5F8BDE8FC9F10B501F026FD02F0F6FEF2
:1082C00002F01EFABDE8104002F032BA70B50D4659
:1082D000044600684FF4887101F012FC4FF490716D
:1082E000206801F00DFC4FF49271206801F008FC49
:1082F0004FF4A271206801F003FC4FF4AC712068C8
:1083000001F0FEFB20681149C0F8041320686907DA
:1083100040F30730090E002806DA00F00F0000F1E4
:10832000E02080F8141D03E000F1E02080F8001444
:108330002068012140F3073000F01F0291404009FE
:10834000800000F1E020C0F8001170BD1003420071
:10835000024600201268530713D502F003000128DB
:1083600002D002280CD105E0C2F383100B68801CF8
:10837000184404E00223086803EB9252104408609A
:1083800001207047F0B58488A518944200D8224691
:10839000A41AC288D6189A4200D81346D21A4B881B
:1083A0000788BB420CD34088834209D88888A04202
:1083B00006D3A84204D8C888904201D3B04201D95C
:1083C0000020F0BD0120F0BD172101804180002177
:1083D000017141711B218171C171704710B54FF45A
:1083E0008041002000F0B2FF08B1FEF753FCBDE869
:1083F000104000F017BE00002DE9FF410026234881
:1084000000F0D9F92148001F074600F0D4F9204CAC
:1084100060680090A56800E000986946284004EB79
:1084200080000C30FFF794FF0028F5D101AA0099D5
:1084300001EA050304EB8303491CDB6842F82030A2
:10844000401C00910228F2D3019800F0030001289B
:108450000BD0022810D10198032101EB9050009914
:10846000BDF80A6001EB900005E00198BDF80A60D4
:10847000C0F3831008440090384600F099F908B121
:108480000098606004B03046BDE8F081E02C002028
:10849000C828002002F02CFCFFF7A0FFFEF718FC14
:1084A00008B1FEF7F7FBFFF7EDFBFFF707FC01F064
:1084B00063F808B1FEF7EEFBFFF7FDFE02F0FAFAF3
:1084C000FFF73FF9FFF7CCFD1448FFF7F5FD134820
:1084D000143002F0DFFB11481430FEF73DFBFFF7CC
:1084E00087FB01F0C9FD0E480E49401AC008032160
:1084F00001EB00400CA100F0BDFEFEF77DFB00BFCC
:1085000002F03AFD02F0F2FC02F0D2FC00F098FD1D
:108510000028FBD101F044F8F2E700002C240020F1
:1085200058C10200F8C00200434243442073746102
:10853000727465642E00000070B5144682880E4681
:1085400005462088111D0144921C994201D8FE2A3B
:1085500001D90C2070BD521C32542088FF21401CD0
:1085600080B2208031542088401C80B22080811944
:10857000288802F06EFF2188084480B22080AA88F3
:1085800042B1A96841B13044FDF730FF2088A98885
:1085900008442080002070BD072070BD2DE9F04701
:1085A000C5881E1DB6FBF5F78946B6FBF5F10446F6
:1085B00005FB176C407916686843DDF820A0F718B2
:1085C000001F874200D9C61A166001E02468491EC0
:1085D0000029FBD1A5EB0C078846B74216D818E056
:1085E00004EB0C00001D09EB0803BAF1000F3A463A
:1085F00002D00146184600E01946FDF7F7FE246850
:10860000F61B4FF0000CB844B54201D9374600E0E4
:108610002F46002EE4D1BDE8F087000030B50246B9
:1086200051B100F0B1FE0021074C08E034F82130D0
:108630001568AB4202D11160002030BD491C814257
:10864000F4D3052030BD000000000000F8B50F464F
:10865000017814460546012901D1687830B1208897
:10866000821C9A4232D8012902D006E00720F8BDC8
:1086700069780144891C994228D8181A801E86B24C
:10868000ADF800602188B81C084469467DDF0028E9
:10869000EDD12978022904D06878BDF800209042F5
:1086A00005D3BDF80000B04201D809200AE0082037
:1086B000012905D16978B14202D8ADF8001001E076
:1086C000ADF80060BDF80010FE2901D90C20F8BDFE
:1086D0002288491CB9542188491C89B221807854C8
:1086E0002088401C2080BDF8001008442080002015
:1086F000F8BD10B531B1B2FBF3F403FB14241CB187
:10870000092010BD0E2010BD016000214160816074
:108710008281C381084610BD70B50C460546FDF741
:1087200079FD002802D021882868084470BD10B562
:108730000A8849888A4203D1FDF7AEFD012010BDA9
:10874000002010BD70B50C460546FDF788FD0028D9
:1087500002D061882868084470BD10B50A8849882D
:108760008A4203D1FDF772FD012010BD002010BD2B
:1087700001F01F0301229A40D243490900EB810016
:10878000114600F021B84A0950F8220001F01F02FA
:1087900001219140084000D00120704701F01F03E3
:1087A00001229A40490900EB8100114600F01CB8F3
:1087B000002100F00FB8012100F016B808B56A4694
:1087C000FDF7BFFD009808BD08B56A46FDF79FFD9F
:1087D000009808BD08B56A46FDF799FD08BD08B5C3
:1087E0006A46FDF77BFD08BD08B56A46FDF782FDC8
:1087F000009808BD08B56A46FDF7B0FD009808BDB1
:1088000038B5044600258DF800506846FEF7ACFAEE
:1088100021686268086890420ED9401E086001789D
:10882000238AE26801FB0325227A2168101AC0B26C
:108830000A79824200D208719DF80000FEF7B8FA6A
:10884000284638BD38B5054600208DF800000C4696
:108850006846FEF789FAE868298A201AB0FBF1F128
:108860002A681068431C136001709DF80000FEF731
:108870009FFA38BD10B530B1017A42680368891A91
:10888000C9B21A6006E00E2010BD03681A68541CB5
:108890001C601170491EC9B2F7D200680021017135
:1088A000084610BDC20800F007030120895C98400B
:1088B0000840704710B5C20800F00703885C012427
:1088C0009C402043885410BD10B560B10161172150
:1088D00020F8021B20F8021B1B2100F8021BFFF7E7
:1088E00073FD002010BD0E2010BD0000F0B585887E
:1088F00093B00C46002D39D1018800263F4F242922
:108900003BD006DC102909D011290CD0232958D1DD
:108910004FE03A290BD0552953D129E00146204692
:1089200001F044FE4DE0A01DFFF74EFD49E0224658
:10893000408934F8061F814200D808466080172815
:1089400000D217206080106970B1607960B1D7E9FA
:108950000001CDE90301ADF80E506088ADF81000BC
:10896000136903A9104698476671267113B0F0BDCC
:108970000146204601F06EFE23E0011D2C2206A8D0
:10898000FDF734FDBDF81800BDF81C2004EBC00154
:108990004A732269AAB1D7E90423CDE90423ADF8CB
:1089A0001200487B8DF814002269204604A99047E4
:1089B00007E0017A207B884200D201462846FFF773
:1089C00099F9A07A0028D1D0E1882846A5DF0125B1
:1089D00080B11128CAD001F073F80246084809494D
:1089E00013B0401AC00805EB0040BDE8F04006A1F6
:1089F00000F044BCA672E572B8E7000048B6020079
:108A0000F8C00200F8C0020073645F626C655F67C3
:108A1000617474635F65786368616E67655F6D74C8
:108A2000755F726571756573742829207265747538
:108A3000726E65642025732E0000000000F18040F6
:108A40000068002800D00120704708B500F1804080
:108A5000002101600068009008BD000070B50B4C5B
:108A6000207808B185250FE00020A06060602061BB
:108A7000E060074801F060F8054600F08FFF08B994
:108A800001F044F801202070284670BDC025002068
:108A9000F17A020038B500258DF800506846FEF7DF
:108AA00063F9074CE068401EE060E06810B901F02F
:108AB00053F8A5709DF80000FEF77AF938BD000064
:108AC000C0250020F0B505460478154889B0164643
:108AD00040F82420124A0869121DA2F1080742F842
:108AE0002400487F385520226846FDF77FFC049417
:108AF0002878385C48B10EB10A4A00E00022694685
:108B0000281D01F03BFC09B0F0BD0EB1064A00E0A3
:108B10000022694605F10C0001F002FBF3E70000BA
:108B20006823002011B3020059B102000FB408B548
:108B30000399002904D004AA00926A4600F00FF8B5
:108B400001B05DF814FB10B582680446002A05D018
:108B5000D4E90403216898470020A06010BD2DE9E6
:108B6000FC4791460C00804676D014F8011B39B1C1
:108B700025290ED04046FEF743FE20780028F4D188
:108B800098F80C00002867D04046BDE8FC47FFF786
:108B9000DABF0020012221782B291BD02D2902D0F9
:108BA000302908D102E040F0010001E040F002006D
:108BB000641C002AEFD100252A290ED02178A1F1CA
:108BC00030020A2A11D205EB850201EB4205641C32
:108BD000303DF1E740F00400EAE7D9F800100B1D42
:108BE000C9F800300968641C0D44217800232E293F
:108BF0000BD114F8011FA1F130020A2A05D203EBB0
:108C0000830201EB4203303BF3E76C290DD0682966
:108C10000BD0692921D00BDC252918D0582931D057
:108C200063290ED0642915D117E014F8011FECE771
:108C3000702969D0732932D075291BD0782909D1C0
:108C400020E0D9F80000011DC9F800100178404665
:108C5000FEF7D6FD641C90E76CE0D9F800100A1D01
:108C6000C9F800200968CDE900500A224046FFF704
:108C7000CFFAEFE7D9F800100A1DC9F800200968FB
:108C80000A2206E0D9F800100A1DC9F80020096878
:108C90001022CDE90050404602F0E0FBDAE7D9F8B7
:108CA000001000270A1DC9F800200E68C00705D172
:108CB00012E04046761C7F1CFEF7A2FD31780029A9
:108CC000F7D104E0202140466D1EFEF799FDBD421C
:108CD000C0D9002DF6D1BDE74EB13046FDF7AAFB55
:108CE000074604E0202140466D1EFEF789FDBD4287
:108CF00006D9002DF6D103E04046761CFEF780FD34
:108D000031780029F8D1A5E7D9F80000011DC9F88C
:108D10000010056830214046FEF772FD782140467C
:108D2000FEF76EFD08200021CDE900010346102268
:108D30002946B0E7BDE8FC8770B541EA4201DDE9AC
:108D400004564FF0A04441EA830141EA052104EBB7
:108D5000800041EA0641C0F8001770BD70B541EAD5
:108D60004201DDE904564FF0A04441EA830141EAA3
:108D7000052104EB800041EA0641C0F8001770BDF0
:108D800070B541EA4201DDE904564FF0A04441EAE2
:108D9000830141EA052104EB800041EA0641C0F865
:108DA000001770BD1CB5002100910B4601220191F6
:108DB000FFF7D4FF1CBD1CB5002100910B4601221A
:108DC0000191FFF7DDFF1CBD1CB500220B46009290
:108DD00011460192FFF7C2FF1CBD1CB500220B46D5
:108DE000009211460192FFF7CBFF1CBD1CB500217C
:108DF00000910B46012201911146FFF7AFFF1CBD08
:108E00001CB5002100910B46012201911146FFF78C
:108E1000B7FF1CBD4FF0A04202EB8000D0F8002746
:108E200022F44032C0F80027D0F8002742EA01417E
:108E3000C0F800177047000018B5084B6C46014495
:108E40001B68009306E000BF54F82030D3F81035BB
:108E5000401C08C28142F7D818BD00008CB6020041
:108E6000034908B50844002101600068009008BD6E
:108E70000060004002494058012800D0002070479F
:108E80000060004030B5154A01460020D2F8104479
:108E900023460AE0DB681D79854205D1401C0A287B
:108EA000F6DB4FF0FF3030BD1B68002BF2D1431CC6
:108EB000F9D0CB681871D2F8103443B1DB68CC68B4
:108EC0001B682360D2F81024D268116030BDC2F84C
:108ED0001014C96800220A6030BD0000C8280020B4
:108EE000F0B595B01C4615460F4608461A9E00F090
:108EF0001DFB182109A8FDF792FA0E96CDE9095439
:108F00000023082203A9384600F025FB05980690A7
:108F1000BDF81000ADF81C00BDF81200ADF81E0041
:108F200000208DF821000398082600F00300012896
:108F300002D0022818D032E003983346850AC0F3E5
:108F4000C2008DF8200003980FA9C0F38314A2007B
:108F5000384600F000FB09A8009006AB22460FA996
:108F6000284600F03FFA1AE00398840DC0F3C200CF
:108F70008DF82000082C01D2254600E00825334654
:108F80002A460FA9384600F0E6FA2E44641B09ABC6
:108F900006AA29460FA800F081F9002CEAD138462C
:108FA00000F0CAFA15B0F0BD7047012002F0F2B827
:108FB000084810B50178084A515C19B1001D01F04C
:108FC00077FA02E00C3001F077F9BDE8104000209C
:108FD00002F0E0B8BC2300206423002008B5034A57
:108FE00000924023024AFFF77BFF08BDCDAB020091
:108FF000302700200A4A012902EBC00007D00229CD
:1090000007D0032907D0042907D000207047022089
:10901000704704207047007970474079704700001E
:10902000F8C0020010B5FFF7C0FF04210348FFF7A6
:1090300029FF02490120C968487110BDE8C002003B
:109040002DE9F04F8DB0FEF7F3FB18B100200DB005
:10905000BDE8F08F7E4C4FF0000BC4F818B4BFF39E
:109060004F8F60680290A568D846284004EB8000C6
:109070000CE000BFD4F8180470B92168029881424E
:1090800001D86160E2E7284004EB80000C3002A9BF
:10909000FFF75EF90028EDD1002005AA029901EA48
:1090A000050304EB8303491CDB6842F82030401CB5
:1090B00002910228F2D3059800F00300022802D0A2
:1090C00001284DD0AAE005985022810D8946B2EBC7
:1090D000905F00D850210E4666F39F5005900831EE
:1090E0005C4800F0DAF9070078D000F01FFA434638
:1090F000082205A9384600F036FA029908F1080A54
:109100002940681A8000001D864222D9504D0C3536
:1091100030B1C2B204EB8101301A90460C3104E048
:109120002946F2B2002590462846C6B25346384634
:1091300000F019FA0AEB080325B1324629463846F1
:1091400000F011FA029909F1030001EB900002907E
:109150003BE004EB81015346324638460C31EFE7E1
:109160000598C0F38310062800D30620059960F304
:109170008911C1F38310801C05918100354800F0EE
:109180008CF907004AD000F0D1F94346082205A91E
:10919000384600F0E8F908F1080800260FE00298C8
:1091A000434600EA0501401C04EB810102900422C1
:1091B00038460C3100F0D7F908F10408761C059800
:1091C000C0F38310B042EAD847B1D4F81054D4F8B1
:1091D000180478B1384600F0AFF934E01EE0E868D2
:1091E0004079012804D12A682846394612689047F8
:1091F000E8680568002DF2D1384600F09DF98DF839
:1092000000B06846FDF7B0FDD4F8180408B902981C
:1092100060609DF80000FDF7CBFD14E0D4F8104429
:1092200005E02168204689688847E0680468002CCA
:10923000F7D109480949401AC008022101EB004052
:1092400007A100F017F8FEF7F3FA80F00100FEE640
:10925000C828002078C1020058C10200F8C00200EE
:109260004261636B656E647320666C7573686564D8
:109270000000000000231A4601F0AABD08B5012332
:1092800000926A4601F0A4FD08BD1CB5CDE900239B
:1092900002236A4601F09CFD1CBD00002DE9F04749
:1092A0000E4680461C469246082940D894F80C90F9
:1092B000002020731946104601F0A2FA0025B5429D
:1092C00006D218F805201BA12046FFF72FFC03E06B
:1092D0001AA12046FFF72AFC6D1C082DEFD318A118
:1092E0002046FFF723FC0025B54212D218F805707E
:1092F0007E2F08D8FDF776F80068C05D10F03E0FAD
:1093000001D03A4600E02E220EA12046FFF70EFCC7
:1093100003E00DA12046FFF709FC6D1C082DE3D3E7
:1093200001222146504601F04DFA84F80C90BDE828
:10933000F087000020253032780000002020200037
:109340007C00000025630000200000000B4810B5E1
:10935000FF218160002101604160C0F81814C0F84D
:10936000141480F82014064800F0E4F8002803D113
:10937000044800F037F9002010BD0000C828002084
:1093800078C1020064B8020002480349401AC008CC
:109390007047000078C10200F8C0020013B56846AB
:1093A000FFF73CF908B100201CBD0248009950F8B5
:1093B00031001CBDF8C0020070B509480125D0F885
:1093C000104480F8205407E0E06845712168204689
:1093D00049688847E0680468002CF5D170BD00003A
:1093E000C82800202DE9FF4781460C9D00200C462F
:1093F0002F7B2873984616462946184601F000FA36
:10940000072E42D2DFE806F004090F161F2A3600A5
:1094100049462846FFF78AFB37E049462846226836
:10942000FFF784FB31E0D4E9002349462846FFF7E3
:109430007DFB2AE0A0680090D4E900234946284635
:10944000FFF774FB21E0D4E90201CDE90001D4E982
:10945000002349462846FFF769FB16E004F108009F
:1094600007C88DE80700D4E9002349462846FFF7DE
:109470005DFB0AE004F108000FC88DE80F00D4E995
:10948000002349462846FFF751FB00222946404663
:1094900001F098F92F73BDE8FF872DE9F041058AA7
:1094A00080462D1F4819C01CB0FBF5F0C6B24046DF
:1094B000FFF7A6F9041E19D0002020710120607169
:1094C000E58000272546761EC4F800800BE0404664
:1094D000FFF796F960B16179491C61712860054612
:1094E0007F1CC0F80080B742F1D32046BDE8F08170
:1094F000204600F002F80020F8E72DE9F041457918
:1095000001466B1E002201E00968521C9A42FBD3FF
:109510000F680146002605E038460C68FFF792F90F
:109520002146761CAE42F7D3BDE8F0810121001D33
:10953000FFF744B9FFF79EB910B504460121001D9D
:10954000FFF758F910F0FF0F04D12046BDE8104096
:10955000FFF7D3BF10BD1CB501920122009201AAF2
:10956000FFF71CF81CBD1CB501920022009201AA55
:10957000FFF714F81CBD0000064910B50020487024
:10958000091D0860BFF35F8F0349044800F02AFA01
:10959000002010BDB0230020F0B6020024270020D8
:1095A00008B500208DF800006846FDF7DDFBF1EE00
:1095B000100A20F09F00E1EE100ABFF35F8F084908
:1095C0004020C1F880029DF80000FDF7F1FB00F09B
:1095D000E5F908B141DF08BD20BF40BF20BF08BD8D
:1095E00004E000E082680021916082681161826875
:1095F00051618268D1608268516080680160704703
:1096000008B5002242504058009008BD024A106040
:10961000101D0160704700002C76004003010348D4
:109620001844C0F81425C0F81015704700700040A9
:1096300002494058002800D00120704700700040C7
:10964000034908B50844002202600068009008BD84
:1096500000700040024619B1402051008840704718
:109660008020FAE720B103490968016000207047B3
:109670000E207047E8B80200FEB502460E460846C6
:10968000FFF7F0FF002868D100240094019401271F
:1096900006208DF80020ADF8040002948DF80270C9
:1096A00069462020326869DF2C492D4A891AC90889
:1096B000012202EB014530B100F002FA02462846D1
:1096C0002849FFF7DBFD00948DF801708DF802400A
:1096D000019402948DF8034069464020326869DFA6
:1096E00030B100F0EDF9024628461F49FFF7C6FDEC
:1096F00000940A208DF8000001940294694601202C
:10970000326869DF30B100F0DBF9024628461749BC
:10971000FFF7B4FD4FF4B0600090019402946946E5
:10972000A120326869DF30B100F0CAF9024628464C
:109730000F49FFF7A3FD0094019402948DF80040B7
:109740006946A020326869DF30B100F0B9F90246FD
:1097500028460849FFF792FD0020FEBD68C10200BF
:10976000F8C0020088BF0200D0BF0200E8BE0200BD
:1097700034BF020094BE02002DE9F041054607689F
:1097800060DF804619491A482A68081AC608BA4292
:1097900019D9022000EB064416A12046FFF76AFD06
:1097A00020463A461FA12B68FFF76FFD4FF080500F
:1097B000D0F80C012968800200F10050421A2046BE
:1097C00025A1FFF75BFDB8F100004FF001040AD0BE
:1097D00000F076F9024604EB06402AA1FFF74EFDA1
:1097E0004046BDE8F0812F480470F9E768C10200E7
:1097F000F8C00200496E73756666696369656E74C8
:109800002052414D20616C6C6F6361746564206609
:109810006F722074686520536F667444657669635F
:10982000652E00004368616E67652074686520528C
:10983000414D207374617274206C6F636174696F41
:109840006E2066726F6D203078257820746F20301E
:109850007825782E000000004D6178696D756D20C7
:1098600052414D2073697A6520666F722061707075
:109870006C69636174696F6E206973203078257834
:109880002E00000073645F626C655F656E61626CE0
:109890006528292072657475726E65642025732EA3
:1098A000000000002B24002030B5144891B000784F
:1098B000002820D05FF03405ADF8405010A903A86F
:1098C00061DF30B1052816D011B0BDE83040FDF79A
:1098D000E1B903AC0A49684600F084F807E000BF2C
:1098E000D0E9002120469047684600F092F802989F
:1098F0000028E1D0F4E711B030BD00002B24002097
:10990000ECB802007CB5194C207808B108207CBD69
:109910000120A070002001F023F9112819D00020A7
:1099200001F036F912480026006801908DF80060B9
:109930006846FDF719FA0F4901A810DF05000AD0A3
:10994000002020709DF80000FDF732FA2DB1284666
:109950007CBD00207CBD0120F3E7A670667001F09D
:1099600005FA012001F014F9F3E700002824002093
:1099700080B80200116C02000EB50749684600F07D
:1099800031F805E0D0E900108847684600F041F85A
:1099900002980028F6D10EBD9CB80200014800785C
:1099A00070470000282400201FB568464BDF30B107
:1099B000052814D004B0BDE81040FDF76BB9084984
:1099C00001A800F00FF806E0D0E9002100989047C8
:1099D00001A800F01EF803980028E6D0F4E71FBDA8
:1099E00008B90200016009684160AFF3008010B55A
:1099F000D0E900215368994201D1002104E0D1E966
:109A00000034A34202D01946816010BD0831416084
:109A1000F0E7816800290BD0026892680A448260EE
:109A200041684B689A4203D108314160FFF7DFBFBC
:109A3000704770B50D460646446804E0B268294692
:109A4000904718B1246820680028F7D12068286062
:109A5000256070BD4068006870474168086800284C
:109A600001D002680A60704702460020526806E092
:109A70008B4203D108681060012070471A461368B2
:109A8000002BF5D1704700000C4A10B502F5947315
:109A90000EE0991AC91001EBD171491002EBC10116
:109AA0000C68844201D90B4602E005D201F108029C
:109AB0009A42EED3002010BD486810BD10B70200D6
:109AC00000B5FFF7E1FF002800D1014800BD00000C
:109AD000FCB602004058002800D00120704708B5AD
:109AE000002242504058009008BDD0F804030840BE
:109AF00000D0012070474058002800D00120704756
:109B000008B5002242504058009008BD084800683F
:109B1000012110F0010F06D14FF0E020C02280F8A3
:109B20000024C0F8001103490120086070470000BC
:109B300000E100E0180500400649024600200B79CC
:109B40000BB1852070470A6001220A7100224A7118
:109B50007047000070230020044901200860044879
:109B60000168C1F300410029FAD170470C000040A0
:109B700018040040002802D00149800108477047BE
:109B8000A1B60200002802D00149800108477047B1
:109B9000C1B602002DE9F0418846054600F0E0FD1F
:109BA000234E002828461AD0FDF77EFE304490F858
:109BB00048008009032802D001280ED007E04FF0AA
:109BC000A040D0F81005E84010F0010F05D00321A7
:109BD0002846BDE8F041FFF71DB90221F8E700F083
:109BE000CBFD002822D02846FDF75EFE04464FF448
:109BF000807000EB84000F4F81B207EB8400D0F837
:109C0000102542F00102C0F810250846FFF728F998
:109C1000B8F1000F0AD02846FDF746FE56F820009E
:109C2000002803D00120A040C7F80403BDE8F0815C
:109C3000D4250020006000402DE9FC41DFF8BC8005
:109C4000044608EB0400002790F930001346C017C3
:109C50000E46401C01D008274CE0B0781946C0F3EE
:109C600040022046FDF7FCFD0546401C41D0B0787F
:109C7000410719D4C0070AD04FF0A04000EB84017F
:109C8000D1F8000720F00200C1F8000707E000212A
:109C90007378204600910A460191FFF74DF8174965
:109CA00020465431FEF706FEB078800718D51448D8
:109CB000317800EB8500D0F81025124B1A40C0F81F
:109CC00010254FF4F8524FF4403302EA042203EA1D
:109CD00001410A43D0F810150A43C0F8102509E0E5
:109CE00008EB0500327810F8481F41EA8211017034
:109CF00000E004273846BDE8FC810000D4250020A0
:109D000000600040FFE0FCFF70B5174D95F858006B
:109D100008B1082070BD0020411E2A18401CC0B2A6
:109D200082F830102028F8D300242046FDF78AFD61
:109D3000641CE4B20C2CF8D300240C49C0206C65E0
:109D400081F8000401264020891FC1F800014FF46A
:109D5000BE70FFF785F80649F007C1F8040385F8DF
:109D60005860204670BD0000D425002006E000E0C9
:109D7000006000400121B1EB507F01D1012070470C
:109D80000020704738B50D4600F086FD040014D061
:109D900000208DF800006846FCF7E6FF207928B126
:109DA0009DF80000FDF704F8112038BD0120256062
:109DB00020719DF80000FCF7FBFF002038BD10B5B6
:109DC00000F06AFD002802D000210160017110BD81
:109DD0002DE9F041254C064612200D46C4F8080333
:109DE0002348017C022918D0027C01464FF4807878
:109DF00091F82E10012A12D00222C4F80423012760
:109E00000774466005810022C26021B3458390F843
:109E10002D103046FFF7FAFB25E0122002E0C26861
:109E20002AB10220C4F804031120BDE8F081C66005
:109E3000058361B947463846FFF7FAFB0028FAD098
:109E40003846FFF7FDFB29463046FFF7DFFB0220CF
:109E5000C4F8040307E029463046FFF7D7FB404625
:109E6000FFF7EEFB27600020DFE7000000700040F6
:109E70008026002070B50C4626490A7C0AB11120C4
:109E800070BD2279244D0AB1012A01D100222A6035
:109E900001EB4002137F1BB911F82D3F5B1C0B70C7
:109EA000E1791177217A517721786278302301F0B6
:109EB000030103EA02121143A2784FF4E06303EABC
:109EC00002221143E2784FF4805303EA0232114335
:109ED00022794FF4E02303EA0242114362794FF4FE
:109EE000801303EA02521143A2791B0103EA0262C2
:109EF0000A4B114303EB0012C2F81815227AE179DC
:109F0000FFF78CFB207908B1012801D101202860DE
:109F1000002070BD802600200075004000700040C9
:109F200070B505460E48017C09B1112070BD00EBEB
:109F300045010A7F1AB110F82D2F521E027000241D
:109F40000C774C77224621462846FFF767FB40F204
:109F5000FF72D143284600F04FF8204670BD000044
:109F6000802600202DE9F0411F4C054694F82C0076
:109F700010B10820BDE8F08144F8101B1B49287877
:109F80000860091D68780860E878A07701272777BE
:109F90000020207060776060154EE0776FF0004021
:109FA000C6F808034FF48270FFF74AFBB015FFF7BD
:109FB00047FB4FF48A70FFF743FBA8780D49400137
:109FC00081F800048020C91FC1F800010220C6F8F2
:109FD0000403A07F10B10120C6F804030348F03841
:109FE00007600020C6E7000080260020F0750040D2
:109FF0000070004007E000E02DE9F04117460C46F4
:10A000000546C1EA07401A4E06EB0511C1F81C05CA
:10A0100000212846FFF71EFB2346012101EB4502E4
:10A02000144CC907D140626913F5006F1BD00A4375
:10A030006261C6F8040301212846FFF70BFB6A00A2
:10A040004FF00041D140A7F5E0636269FF3B05D0C6
:10A050000A436261C6F80403BDE8F0818A43626185
:10A06000C6F80803F8E78A436261C6F80803E2E726
:10A070000070004080260020084900200A7C012A48
:10A0800001D00820704791F82E30054A01210BB10C
:10A0900011607047024A121DFAE700008026002076
:10A0A0000070004070B517496FF00040C1F8080318
:10A0B00080214FF0E02201200025C2F880111149D3
:10A0C0000831086042F210744FF48A763046FFF788
:10A0D000AFFA20B90020FFF74DFD641EF6D10A4803
:10A0E00005600A4E3574002406EB4400007F10B171
:10A0F000E0B2FFF715FF641C082CF5D386F82C504E
:10A1000070BD0000007000400075004080260020F7
:10A110000149024801F066B83026002000200040C6
:10A120002DE9F0410546007916460F4600EB400147
:10A130002C4A01EBC00102EB810494F82A1011B102
:10A140000820BDE8F081284951F820102868FFF761
:10A1500019FE08B11120F4E739462846FCF742FE03
:10A1600066603869206030004FF001062DD03F7FD7
:10A170004FF48E712868FFF7B2FC4FF4A271286883
:10A18000FFF7ADFC28681949C0F8041328684FEAA6
:10A19000471140F30730002806DA00F00F0000F105
:10A1A000E02080F8141D03E000F1E02080F80014A6
:10A1B000286840F3073000F01F0106FA01F140095A
:10A1C000800000F1E020C0F8001128680421C0F8E8
:10A1D00000150020A061E06184F8290044F8140F04
:10A1E000A675AEE73026002090B60200800002007F
:10A1F0002DE9F05F054600790B4600EB400101EBCD
:10A20000C000244901EB8004284600F045F810B155
:10A210001120BDE8F09F62614FF00009C4F8209062
:10A22000A36084F828904FF48E784E464146286803
:10A23000FFF755FC28684FF0010AC0F808A0214636
:10A24000286800F05FFF606808BBD5F800B0676958
:10A250000FE000BF94F8280008B10F2615E0414632
:10A260005846FFF737FC0028F4D02146584600F046
:10A2700049FF206AB842F2D3574641462868FFF7A3
:10A2800029FC0028F9D02868C760C4F8149030462B
:10A29000BFE7000030260020007900EB400101EB11
:10A2A000C000044901EB80004069002800D0012073
:10A2B00070470000302600202DE9F0470446007961
:10A2C0004FF0000900EB400101EBC000254901EB14
:10A2D00080072068C0F80095786880B1206822491E
:10A2E000C0F808132068012140F3073000F01F0276
:10A2F00091404009800000F1E020C0F88011206802
:10A30000D0F80C25D0F81485D0F80865D0F8105591
:10A310004FF0FF31C0F81415C0F80C152068C0F8D4
:10A320000815C0F81015501C02D01046FEF73AFD73
:10A33000B8F1FF3F02D04046FEF734FD681C02D062
:10A340002846FEF72FFD701C02D03046FEF72AFD8E
:10A350002068FFF734FD87F82A90C7F80490BDE81D
:10A36000F0870000302600208402020001490248E4
:10A3700000F0E6BF5C260020002000402DE9F041FF
:10A380000546164600790F46154A00EBC00102EB60
:10A39000810494F8201011B10820BDE8F081114922
:10A3A00051F820102868FFF7EDFC08B11120F4E700
:10A3B00039462846FCF75AFD6660386920601EB1B0
:10A3C000397F2846FDF782FF28680821C0F800156C
:10A3D0000020A061E0616061012184F82010DCE7C9
:10A3E0005C26002094B602002DE9F04704460E4694
:10A3F0000079274900EBC00001EB80051746304685
:10A40000FFF7B8FC30B1204600F044F820B111202D
:10A41000BDE8F0871020FBE76F61AE604FF49077E6
:10A420004FF0000839462068FFF76AFB4FF4AC761E
:10A4300031462068FFF764FB2068AA686969C0F8A4
:10A440004425C0F8481520684FF00109C0F808906D
:10A450006868D0B9BA4651462068FFF74CFB0746FA
:10A4600031462068FFF747FB0743F4D010B14FF0A7
:10A470000F0808E02068C0F80C9031462068FFF70C
:10A480003AFB0028F9D0002068614046C0E7000090
:10A490005C2600200079054900EBC00001EB80003C
:10A4A0004069002800D00120704700005C26002091
:10A4B0002DE9F04704460079334900EBC00001EB79
:10A4C00080070125786880B120683049C0F80813FA
:10A4D000206840F3073000F01F0105FA01F1400940
:10A4E000800000F1E020C0F880112068D0F8001250
:10A4F00021F02001C0F80012206845604FF4AC76CE
:10A5000031462068FFF7FCFA2068C56031462068B4
:10A51000FFF7F1FA0028F9D020684FF00009C0F8E1
:10A5200000952068D0F80C25D0F81485D0F808657F
:10A53000D0F810554FF0FF31C0F80C15C0F81415C5
:10A540002068C0F80815C0F81015501C02D010463D
:10A55000FEF731FCB8F1FF3F02D04046FEF72BFC7E
:10A56000681C02D02846FEF726FC701C02D030463C
:10A57000FEF721FC2068FFF722FC87F82090C7F83F
:10A580000490BDE8F08700005C2600201003420024
:10A590000078002807D104483B21008876DF002896
:10A5A00001D0FCF777BB7047F622002070B58D888C
:10A5B000027900EBC5042273C97BA41D012902D0D6
:10A5C000022904D101E0008800E040882080218831
:10A5D0006088814211D92846A5DF0126B0B1112833
:10A5E00016D0FFF76DFA02460B480C49401AC00816
:10A5F00006EB00400AA1FEF741FEA179E079814215
:10A6000008D92846BDE87040FDF774BB6671F4E7D1
:10A610002671F2E770BD0000F8C00200F8C0020029
:10A6200073645F626C655F67617474635F657863B0
:10A6300068616E67655F6D74755F7265717565736E
:10A640007428292072657475726E65642025732ED6
:10A65000000000007CB506468D88C88806EBC5045E
:10A66000A41D172800D217202188814200D808464F
:10A6700060800020207121882846B5DF60B1FFF797
:10A680001FFA02460F481049401AC008012101EB89
:10A6900000400EA1FEF7F2FD6079002810D130696C
:10A6A00000280DD01549D1E90201CDE90001ADF82E
:10A6B00002506088ADF80400326969463046904720
:10A6C0007CBD0000F8C00200F8C0020073645F6245
:10A6D0006C655F67617474735F65786368616E67EA
:10A6E000655F6D74755F7265706C7928292072657D
:10A6F0007475726E65642025732E000048B60200E2
:10A7000008B503208DF801008DF800009DF80200C7
:10A71000064A20F003008DF8020069460E20FFF77C
:10A720008BFA01210E20FFF735FA08BD05810200E2
:10A7300008B503208DF801008DF800009DF8020097
:10A74000064A20F003008DF8020069460F20FFF74B
:10A7500073FA01210F20FFF71DFA08BD598102008D
:10A760000449084490F93000082801DB01207047B3
:10A7700000207047D42500200449084490F9300097
:10A78000082801D20120704700207047D4250020FE
:10A7900070B50D00044602D10020FCF77BFA14B915
:10A7A0000020FCF777FA2878207069886170090A20
:10A7B000A170A988E170090A2171E8886071000A16
:10A7C000A07170BD10B50C46017A052908D0407AF9
:10A7D00038B1084808A102682046FEF7A7F900E052
:10A7E0001AB106A12046FEF7A1F92046BDE81040A7
:10A7F000FEF7A9B904240020257300000D0A00000B
:10A8000038B5C3880D46044633B114A0009015A294
:10A8100016A12846FEF78AF9217A05291CD0607A0C
:10A8200048B1A088FEF7E6FB164951F8202016A192
:10A830002846FEF77BF9A0880021FEF7AFFD03460E
:10A840001049207A143951F8202001B02846BDE87B
:10A8500030400EA1FEF76AB938BD00001B5B306DB9
:10A86000000000001B5B313B33316D0025734C6FE2
:10A8700067732064726F70706564202825642925D1
:10A88000730D0A0004240020257300003C25733E4C
:10A890002025733A200000000349884201D1034873
:10A8A00070470020704700000020004078230020FF
:10A8B00070B50546FDF741FB134C40B1D4E90402E5
:10A8C0004FF08071411842F10000C4E904100021EA
:10A8D0002846FDF783FA30B1606820B1606800F067
:10A8E00061FB0020606001212846FDF777FA18B16E
:10A8F000FDF7EEFBC4E90601284600F07FFB284681
:10A90000BDE8704000F034B88023002070B50546E3
:10A9100000200C460870FDF7DBFBD5E90223101A76
:10A9200063EB010300263146361A994112DAB0F57D
:10A93000350F03D3FCF7BAF90B4942184FF49603CD
:10A9400000210A48FDF705FB10B10D2806D009E0EB
:10A95000012070BD00210548FDF736FA284600F0B9
:10A9600021FB2070002070BDFFFFB4008823002071
:10A97000F8B51A4C074600261948FFF76BF8D0B116
:10A98000616871B1D0E902106268D2E90232C91A75
:10A99000904120D26068007F18B161681048FFF7CD
:10A9A00048F800F00FFA05466946FFF7AFFF98B187
:10A9B000606840B10AE0606800280CD13846BDE804
:10A9C000F840FDF7C2BA3846FDF7BBFA65609DF85E
:10A9D00000000028D0D1F8BD6660CDE780230020BC
:10A9E000B0B6020070B5054688690C4600284FF4E1
:10A9F000847128460AD0FFF772F8D5F81805626A04
:10AA0000E1688854606A401C606270BDFFF767F8B7
:10AA1000D5F8180570BD1FB501238DF80030CDE9BC
:10AA20000121D0E90012684690471FBD1FB50123E0
:10AA30008DF80030CDE90121D0E900126846904739
:10AA40001FBD000010B504460078002825D1012163
:10AA50006068FFF7BDF908B1FCF71CF901216068D7
:10AA6000FFF7B6F908B1FCF715F9606832210088E4
:10AA700010FB01F0CD2190FBF1F20848426008483C
:10AA8000027008480849BDE81040401AC008032178
:10AA900001EB004005A1FEF7F1BB10BD042300202F
:10AAA000F922002058C10200F8C0020025640D0AF6
:10AAB000000000003EB5124A07CA8DE807000420D6
:10AAC0008DF802000E480F49001FFFF74BFA08B13E
:10AAD000FCF7E0F869460220FFF7CCF9041E04D029
:10AAE000FCF7D8F82046FCF7D5F801210648FFF717
:10AAF0006FF908B1FCF7CEF80449012008703EBD9B
:10AB00007CB6020045AA020004230020F4220020A3
:10AB100038B50021012548B101280CD0032809D1FE
:10AB2000FEF7F4FFBDE83840FDF7B4BF4FF0E0207A
:10AB3000C0F8805138BD8DF800106846FCF714F954
:10AB4000064C207808B9FDF789FFE068401CE060FA
:10AB5000A5709DF80000FCF72BF938BDC02500203A
:10AB60003EB5044609496846FEF73CFF08E000BFD1
:10AB7000D0E900212046904730B16846FEF749FFF2
:10AB800002980028F4D13EBD11203EBD84B80200D9
:10AB90003EB5044608496846FEF724FF07E000BFBB
:10ABA000D0E90021204690476846FEF732FF029820
:10ABB0000028F5D13EBD000090B802000249896925
:10ABC000002900D008477047E424002070B50D4CE0
:10ABD0000020D2B22070201D0B4D0378EB5C1BB11E
:10ABE000001DFFF701FC02E00C30FFF701FB08B18C
:10ABF000FCF750F86078002802D021780029FAD0BC
:10AC000070BD0000B8230020642300202DE9F0412E
:10AC10000746806A14468846C8B3002531E000BF65
:10AC2000B96A05EB450001EB8006B088801CFE2860
:10AC300002D90C20BDE8F0812288401C08F80200EF
:10AC400020881622401C80B2208008F8002020882E
:10AC5000401C80B2208000EB0801308800F0F9FB36
:10AC60002188084480B22080B28842B1B16871B1B5
:10AC70004044FBF7BBFB2088B188084420806D1C52
:10AC8000EDB297F82C00A842CAD80020D2E7FFE71F
:10AC90000720CFE700B591B0FCF71CFA08B1FBF72D
:10ACA000F9FF40216846FBF7BAFB0AA16846FCF7AA
:10ACB0003BFD0BA102A8FCF737FD01208DF83C00FD
:10ACC0006846FCF703FB002801D0FBF7E3FF11B057
:10ACD00000BD00004D616B69686F6D65000000008C
:10ACE0004D4B505F446F6F725F3030303100000069
:10ACF00007494FF6FF700A4A08800649FF2008708E
:10AD00000648054901601F2181808260818170476A
:10AD1000F6220020F82200205C2400209C24002041
:10AD20007B2400200A78062822F0FF020A7010D245
:10AD3000DFE800F0030507090B0D002008E01120F3
:10AD400006E0212004E0312002E0122000E0222071
:10AD500008707047002805D1034901204870002081
:10AD6000FCF7B2BE70470000C025002010B51620C9
:10AD7000FBF7D6FEA0B1114890F80004400908285E
:10AD800011D20121814011F0EC0F0CD00C488268E7
:10AD90004FF480016AB1016841F48001016010BD87
:10ADA00042F2010001E042F20200BDE81040FBF770
:10ADB00071BF4FF0E020C0F8001110BD16E000E0B8
:10ADC000182700200148FEF748BE0000B0B6020078
:10ADD0002DE9F84F204D92468946064698460122B5
:10ADE00069461846AF68FCF7C3FC58B300980021C9
:10ADF0000446801C09E000BF00EA07035AF821203E
:10AE000005EB8303401C491CDA604145F4D34FEA4B
:10AE1000164AFCF7CFFF4AEA0041601C384005EBB8
:10AE200080003C4005EB8402C160D06866F3C50039
:10AE300068F3891069F39F2020F00300401C20F084
:10AE40000400D06095F8200402E000BFFEF7F8F897
:10AE50000028FBD1BDE8F88FC828002070B50C0091
:10AE6000054602D10020FBF715FF15B90020FBF7BE
:10AE700011FF207828702088000A68702068000C74
:10AE8000A8702068000EE87020792871207A687117
:10AE90002089000AA871A068000CE87170BD00004C
:10AEA00002488168491C81607047000058230020D7
:10AEB00010B5FFF7E1F80948007800280CD00848E1
:10AEC0000278094807490088FCF7D5F8FCF7ECFD43
:10AED000BDE8104000F002B910BD0000F4220020CF
:10AEE000F922002040240020F622002070B5194CE1
:10AEF000A0680A2819D91848184A2179801AC00868
:10AF0000032202EB004551B902206070284614A1CB
:10AF1000FEF7B0F9A0680A2807D9207928B10120E6
:10AF20006070284610A1FEF7A5F9A07861788842E4
:10AF300007D0104822790E490088FCF7B3F8FCF7D7
:10AF4000B3FD207908B10021A16020706078A07065
:10AF500070BD00005823002058C10200F8C0020054
:10AF60007461736B203200007461736B20310000D8
:10AF700040240020F622002010B5074CE07800287D
:10AF800009D00748627905490088FCF723F9FCF7E6
:10AF90008BFD0020E07010BD5823002040240020CD
:10AFA000F622002070B50446124800250078F8B15A
:10AFB000F4B1207FE0B1FDF78BF8D4E90223801AC9
:10AFC000994110D32069002600B92677D4E90510ED
:10AFD0008847206960B1217F51B1D4E9022110185E
:10AFE0007141C4E9020121460348FEF722FD012513
:10AFF000284670BD80230020B0B60200F8B51B4C77
:10B0000069462068FDF79EFB00260127184D29E0C0
:10B01000017821B101290CD002291BD114E041682B
:10B020000A7FBAB90F77416810480830FEF701FD72
:10B0300010E041686868814201D16E600AE00B4807
:10B040000830FEF711FD05E0FFF7BCFE08B10677FA
:10B05000FAE72F7069462068FDF769FB69462068AA
:10B06000FDF770FB0028D3D1F8BD0000A8B60200A0
:10B0700080230020F8B50B4C0D4606466946206833
:10B08000FDF74AFB58B10670456069462068FDF738
:10B0900064FB10B10448FCF73FFF0020F8BD04201A
:10B0A000F8BD0000A8B602008823002008B50320E0
:10B0B0008DF801008DF800009DF80200064A20F08E
:10B0C00003008DF8020069460D20FEF7B5FD012151
:10B0D0000D20FEF75FFD08BDAD81020010B5FEF743
:10B0E000E1FF06490220C1F8080380214FF0E02269
:10B0F0000020C2F880120249087010BD00700040A4
:10B10000F422002070B50C4605464FF48E71FEF710
:10B11000E6FC216AA068415C206A401C2062C5F8F8
:10B120001C1570BD1FB500228DF8002002918168AA
:10B1300001914261D0E90012684690471FBD1FB5DA
:10B1400000228DF800200291816801914261D0E9CE
:10B150000012684690471FBD1FB50A4601788DF85A
:10B16000001041680191017A8DF80810C0680390C1
:10B17000044850F82210001F50F8222068469047DB
:10B180001FBD00006C23002001490120087070479A
:10B19000B823002010B588B0044620220E49684626
:10B1A000FBF724F906200090C01F01900290039045
:10B1B0004FF0EB7006900CB1084A00E0002269469F
:10B1C0000748FDF77FFC08B1FBF764FD0448001F4A
:10B1D000447008B010BD000044B8020089B10200FC
:10B1E000BC2300202DE9FF470C4605464FF40071B3
:10B1F000FEF77BFC01274FF40178002618B34FF4CB
:10B20000927949462846FEF765FCE0B14946284652
:10B21000FEF765FCC5F8088394F8290000B96F6053
:10B2200002208DF80000D5F88004C5F88004039052
:10B23000A0690290E0680190A661E661D4E900127D
:10B240006846904728E004212846FEF74EFC18B3D4
:10B250004FF484712846FEF73DFCE8B121462846AC
:10B26000FFF7C0FB616AA069884215D1E06938B177
:10B27000E268616AA0612069E6616662E06008E0F8
:10B2800094F8290000B96F60C5F80883A661E268E8
:10B29000616A2046FFF7BFFB4FF48E78414628468F
:10B2A000FEF718FC80B16069216A814202D294F8ED
:10B2B000280028B341462846FEF711FC606918B102
:10B2C00061692046FFF72EFF4FF4A27841462846D9
:10B2D000FEF700FC002818D041462846FEF7FFFB89
:10B2E00094F8290000B12F60A06900280DD0A66154
:10B2F000E268616A04B02046BDE8F047FFF78BBB07
:10B3000021462846FFF7FEFEDEE7BDE8FF87000086
:10B310001FB50A4601788DF8001041680191017A45
:10B320008DF80810C0680390044850F82210001FE0
:10B3300050F82220684690471FBD00006C23002073
:10B340002DE9FF410C464FF4927705463946FEF74A
:10B35000D2FB0026B8B139462846FEF7D1FB0220C1
:10B360008DF80000D5F88004C5F880040390D5F866
:10B370003C050290E0680190A661E661D4E9001204
:10B380006846904723E04FF4887739462846FEF711
:10B39000B2FBE0B139462846FEF7B2FBD5F83C15C2
:10B3A000A069884213D1E06960B1E268D5F8000273
:10B3B00020F02000C5F80002E069A0612069E66184
:10B3C000E06001E0A661E2682046FFF72FFB4FF442
:10B3D000A27739462846FEF78EFB68B139462846E3
:10B3E000FEF78EFBA06938B1A661E661D5F83C1581
:10B3F0002046E268FFF71AFB4FF490763146284664
:10B40000FEF779FB60B131462846FEF779FB012053
:10B41000E860606920B1D5F84C152046FFF78FFE33
:10B420004FF4AC7631462846FEF765FB00280ED077
:10B4300031462846FEF764FB6069002807D0D5F83E
:10B440004C1504B02046BDE8F041FFF778BEBDE8DA
:10B45000FF810870000A4870022070472DE9F05FF4
:10B460008346DDE90A4A994690460D46084601277B
:10B4700003E000BFB0FBF8F07F1C4045FAD2B945AD
:10B4800000D94F465FEACA7012D18CB15FEA8A7068
:10B4900002D5B9F1000F01D0202607E0302605E0E3
:10B4A00031465846641EFCF7ABF90CB1A742F7D3FE
:10B4B0005FF00106B9F1010F02D9A9F1010903E01A
:10B4C000B5FBF6F0404502D306FB08F6F2E7DFF8DD
:10B4D0003C9000BFB5FBF6F000FB165519F80010C4
:10B4E0005846FCF78DF9B6FBF8F6002EF2D15FEA6C
:10B4F000CA7009D0002C07D0A74205D22021584697
:10B50000641EFCF77DF9F5E7BDE8F09FC6B60200C2
:10B51000F8B5054680B2FCF771FE040013D0154E55
:10B52000207A0027317B88420ED2A8B204F10A01AA
:10B5300075DF28B1112806D0BDE8F840FFF73EBB03
:10B54000207A401C2072F8BD2772307C38B1A8B236
:10B550003B2176DF18B1082801D0FFF72FFB716976
:10B560000029F0D08DF80070ADF802506846884789
:10B57000F8BD0000E42400202DE9FC411646DDE979
:10B580000854CDE900541F468046022200F00CF812
:10B59000002807D1CDE900543B46102231464046F1
:10B5A00000F002F8BDE8FC812DE9FC5F0026DDE932
:10B5B0000C4B994692468E4680462788354630E0A9
:10B5C000D8F80400002200EB85006946006801906D
:10B5D00001A864DF002830D19DF8000050451FD13C
:10B5E0000EB1002100E002212288084411185945BB
:10B5F00022D846B9521C90B2208009F800E0208879
:10B60000401C20800126218801A801EB090269461F
:10B6100064DF002811D120889DF8001008442080A4
:10B620006D1CB8F80000A842CADC56B12088C01BC7
:10B63000401E80B2FF2802D90C20BDE8FC9F09F80B
:10B6400007000020F9E70000770A00000000000072
:10B65000770A0000000000007ADA00000000000015
:10B66000FB349B5F8000008000100000341200005B
:10B6700034120000802500200100060000000000B8
:10B680000200000400000000A0250020000000507F
:10B6900011A102006DA302000000000000000000E4
:10B6A0000338FDD870470000B026002001000600D6
:10B6B00000000000A02300200D7B0200000000001D
:10B6C0000338FDD8704730313233343536373839A6
:10B6D00041424344454600000000000000000000D5
:10B6E000000000000000000000000000000000005A
:10B6F000D8B60200F0B6020004000000556E6B6E72
:10B700006F776E206572726F7220636F64650000E0
:10B7100000000000B8BD02000100000064BC02008F
:10B720000200000058BA020003000000D8BC02006A
:10B73000040000002CBD0200050000000CBC02004B
:10B7400006000000A8BB02000700000014BD0200B4
:10B750000800000020BC02000900000084BC0200B8
:10B760000A000000A0BD02000B00000040BA020069
:10B770000C00000038BC02000D00000008BE0200F2
:10B780000E00000004BD02000F00000040BD0200DA
:10B790001000000074BD0200110000001CBE020079
:10B7A00012000000F0BD0200130000008CBD02007A
:10B7B00080000000C0BB020081000000FCBA020053
:10B7C00082000000BCBA0200830000009CBA0200A4
:10B7D00084000000D8BA020085000000E4BB02002B
:10B7E00086000000ECBC02009000000088BB020054
:10B7F000910000007CBA0200920000004CBC0200E4
:10B800000082000054BD020001820000A0BC0200C2
:10B8100002820000BCBC02000084000018BB0200D1
:10B8200001840000C4BD02000284000060BB02006D
:10B83000038400003CBB0200DD8F0200B18F0200D8
:10B84000A98F0200FFFFFFFFFFFFFFFFFFFFFFFFCA
:10B85000FFFFFFFF00000000000000000000D60115
:10B8600006010000302800207F000000B0280020E2
:10B8700000000000000000000000000000000000C8
:10B880000100000770B8020080B802000800000044
:10B89000A8B80200B8B8020008000000B8B802005A
:10B8A000C8B8020008000000C4C10200CCC10200F8
:10B8B0000000000000000000B4C10200C4C102008A
:10B8C00000000000000000008CC1020094C10200D2
:10B8D00094C10200A4C102000000000000000000AA
:10B8E000A4C10200ACC10200F0220020C8B80200CE
:10B8F000E8B8020008000000ACC10200B4C10200B8
:10B900000000000000000000F8B8020008B90200C2
:10B91000080000000040404040404040404041415D
:10B920004141414040404040404040404040404014
:10B9300040404040400502020202020202020202AE
:10B9400002020202022020202020202020202002AB
:10B95000020202020202909090909090101010103B
:10B9600010101010101010101010101010101010D7
:10B97000020202020202888888888888080808086B
:10B980000808080808080808080808080808080837
:10B99000020202024000000015B9020073645F62F7
:10B9A0006C655F6761705F646174615F6C656E6731
:10B9B00074685F75706461746528292028726571E8
:10B9C0007565737429206F6E20636F6E6E65637486
:10B9D000696F6E20307825782072657475726E6597
:10B9E000642025732E00000054686520726571750F
:10B9F000657374656420636F6D62696E6174696FED
:10BA00006E206F6620545820616E6420525820705A
:10BA100061636B6574206C656E677468732069730D
:10BA200020746F6F206C6F6E6720627920257520FF
:10BA30006D6963726F7365636F6E64732E000000CF
:10BA40004E52465F4552524F525F494E56414C4905
:10BA5000445F4441544100004E52465F4552524FAC
:10BA6000525F534F46544445564943455F4E4F54E9
:10BA70005F454E41424C4544000000004E52465F37
:10BA80004552524F525F464541545552455F4E4FC5
:10BA9000545F454E41424C45440000004E52465FC3
:10BAA0004552524F525F4D555445585F554E4C4F7D
:10BAB000434B5F4641494C45440000004E52465FAF
:10BAC0004552524F525F4D555445585F4C4F434B72
:10BAD0005F4641494C4544004E52465F4552524FE5
