:020000040002F8
:10600000F84C0020C1630200C9630200CB630200A8
:10601000CD630200CF630200D163020000000000E4
:10602000000000000000000000000000D363020038
:10603000D563020000000000D7630200D9630200AC
:10604000856C0200DB6302003D740200DB6302002A
:10605000DB630200DB630200216B0200ED6C0200D7
:10606000DB630200DB630200DB630200DB63020030
:10607000DB630200DB630200DB630200DB63020020
:10608000DB630200DD6C0200DB630200DB63020005
:10609000DB630200DB6302001D710200DB630200B0
:1060A000DB630200DB630200DB630200DB630200F0
:1060B000DB630200DB630200000000000000000060
:1060C000DB630200DB630200DB630200DB630200D0
:1060D000DB630200DB630200DB6302000000000000
:1060E00000000000000000000000000000000000B0
:1060F00000000000000000000000000000000000A0
:10610000000000000000000000000000000000008F
:10611000000000000000000000000000000000007F
:10612000000000000000000000000000000000006F
:10613000000000000000000000000000000000005F
:10614000000000000000000000000000000000004F
:10615000000000000000000000000000000000003F
:10616000000000000000000000000000000000002F
:10617000000000000000000000000000000000001F
:10618000000000000000000000000000000000000F
:1061900000000000000000000000000000000000FF
:1061A00000000000000000000000000000000000EF
:1061B00000000000000000000000000000000000DF
:1061C00000000000000000000000000000000000CF
:1061D00000000000000000000000000000000000BF
:1061E00000000000000000000000000000000000AF
:1061F000000000000000000000000000000000009F
:10620000DFF80CD000F01EF900480047F1870200CB
:10621000F84C002030B450E8012F93B2C4892344D5
:106220008489A34228BF1B1B0489A34202BFBFF37A
:106230002F8F002007E0C3EA020340E80134002C5E
:10624000E9D14FF001000A6030BC704750E8012FDF
:10625000C2EA024240E801210029F7D1704730B478
:1062600050E8022F1FFAA2F3C488A34202BFBFF373
:106270002F8F00200DE0C48923448489A34228BFC6
:106280001B1BC2EA034340E80234002CE8D14FF064
:1062900001000A6030BC704750E8022FC2EA224277
:1062A00040E802210029F7D17047034653E8022F46
:1062B000D988B2EB324F4FF0000017BF92B241EADB
:1062C000014142EA014104E05A68B2EB324F08BF93
:1062D000012043E80212002AE8D1704730B4044696
:1062E00054E8000F0D4644E80053002BF8D1156028
:1062F00030BC704730B4044654E8000F40EA010552
:1063000044E80053002BF7D1156030BC704730B41F
:10631000044654E8000F00EA010544E80053002B4E
:10632000F7D1156030BC704730B4044654E8000F14
:1063300080EA010544E80053002BF7D1156030BC1A
:10634000704730B4044654E8000F00EB010544E800
:106350000053002BF7D1156030BC704730B40446B1
:1063600054E8000FA0EB010544E80053002BF7D1DF
:10637000156030BC704770B404464FF0000054E81C
:10638000006F0D68AE4207BF44E80023012044E8D7
:1063900000630E60002B1CBF0020F0E770BC70474C
:1063A00030B4044654E8000F88422CBF451A054615
:1063B00044E80053002BF5D1156030BC7047000055
:1063C0000648804706480047FEE7FEE7FEE7FEE78F
:1063D000FEE7FEE7FEE7FEE7FEE7FEE721710200CB
:1063E0000162020000487047D8B9020040EA010388
:1063F0009B0703D009E008C9121F08C0042AFAD27B
:1064000003E011F8013B00F8013B521EF9D270473E
:10641000D2B201E000F8012B491EFBD270470022E6
:10642000F6E710B513460A4604461946FFF7F0FF93
:10643000204610BD421C10F8011B0029FBD1801A18
:1064400070470000064C074D06E0E06840F001038D
:1064500094E8070098471034AC42F6D3FFF7D4FE17
:1064600008C1020028C1020070B58C1810F8015B49
:1064700015F0070301D110F8013B2A1106D110F8DD
:10648000012B03E010F8016B01F8016B5B1EF9D1E1
:106490002B0705D40023521E0DD401F8013BFAE767
:1064A00010F8013BCB1A921C03E013F8015B01F8D2
:1064B000015B521EF9D5A142D8D3002070BD000067
:1064C00070B504460078002825D10221606803F0E9
:1064D00027FE08B101F01CF80F4810490025401AAA
:1064E000C008032101EB004660680DA130F91520BA
:1064F000304603F06BF86D1C022DF5DB60684FF43D
:106500001671008810FB01F04FF4904190FBF1F000
:1065100005494860487070BD98C1020038C102004A
:1065200025640D0A000000001023002010B50B4A5E
:1065300001210B4800F0FEFF08B100F0E9FF084818
:1065400000224FF4A031006801F02EF8002803D09B
:10655000BDE8104000F0DCBF10BD00008D650200FA
:10656000A4B6020010B503F045FF06490220C1F8A9
:10657000080380214FF0E0220020C2F88012024977
:10658000087010BD00700040102300200348007800
:10659000002801D100F004B870470000102300204B
:1065A00000B51B4887B00EC88DE80E0005218DF898
:1065B000021007C803AB83E8070015481549001F00
:1065C00003F078FE08B100F0A3FF6946032003F052
:1065D000F9FD08B100F09CFF03A9002003F0F2FDD3
:1065E00008B100F095FF02210B4803F099FD08B1B6
:1065F00000F08EFF08480221001D03F091FD08B154
:1066000000F086FF044901200839087007B000BD7A
:10661000ACB60200C16402001823002010B503F0DC
:10662000D3FE0848017800290BD042780748064974
:10663000008800F00DF800F022F8BDE81040FFF7E8
:1066400091BF10BD1023002058240020FE220020FE
:1066500007B586B0012200230093ADF81020019306
:10666000029303938DF80220498AADF8001008A91F
:10667000039104A902916946AEDF09B000BD00286C
:106680000BD0A0F54051023907D0082805D043F2BD
:106690000141884201D000F03BBF704730B53E4B0E
:1066A00004468DB00FCB08AD85E80F0004F11A0148
:1066B00008A862DF00286DD1A07E8DF8320041F27B
:1066C0003420ADF8300022460CA90120A8DF0028B4
:1066D00060D120216846FFF7A2FE41F23620ADF8D6
:1066E0000000A07E8DF8020001259DF80D00ADF898
:1066F000065040F012008DF81150ADF804508DF89E
:106700000D008DF81350208804F10A02694601F04B
:10671000DFFB00283ED120216846FFF780FE41F2D2
:106720003520ADF80000A07E8DF802009DF80D0028
:10673000ADF8065040F012008DF81150ADF804503D
:106740008DF80D008DF813502088A21C694601F0C9
:10675000BFFB00281ED120216846FFF760FE41F2F2
:106760003820ADF80000A07E8DF802009DF80D00E5
:10677000ADF8065040F012008DF81150ADF80450FD
:106780008DF80D008DF81350208804F1120269462F
:1067900001F09EFB0DB030BD90B6020007B586B08B
:1067A000012200230093ADF810200193029303937C
:1067B0008DF802204988ADF8001008A9039104A9BA
:1067C00002916946AEDF09B000BD07B586B001226F
:1067D00000230093ADF810200193029303938DF8EA
:1067E00002204989ADF8001008A9039104A902917B
:1067F0006946AEDF09B000BD30B52449A5B00968CF
:106800002491807E8DF892003C216846FFF707FEB8
:1068100002208DF8000001248DF8024006208DF83A
:1068200003003C210FA8FFF7FAFD24A8184D14908F
:10683000ADF84C402A1D6846296800F099FF08B160
:1068400000F066FE124A0FA80C32A96800F090FF13
:1068500008B100F05DFE18211EA8FFF7E0FD002042
:106860008DF88D408DF87840ADF884001F908DF83C
:106870008C004FF42070064920901EAA081F72DF7A
:10688000002801D000F044FE25B030BDA0B60200C3
:106890000023002004480121007873DF002801D084
:1068A00000F036BE70470000FC22002000F030BE31
:1068B00000B587B01C216846FFF7B1FD00204FF4FA
:1068C000A021CDE900018910029103218DF80C105F
:1068D000ADF80E008DF810000648059006480690A9
:1068E000684601F007F8002801D000F011FE07B05B
:1068F00000BD0000796A0200AD680200F8B5344DB1
:10690000018804466E88212948D015DC3148324A76
:106910001029A0EB02004FEAD0004FF0030202EB77
:10692000004013D011292FD0132940D100231A463B
:10693000852130467FDF40E03B2944D0522937D0C3
:10694000562934D18088132176DF36E023A102F066
:1069500039FE2549A08868800A782449FFF778FE27
:10696000FFF78DFE2248027820496888FFF72DFF47
:10697000FFF785FE1F4802781C496888FFF768FE0C
:10698000BDE8F840FFF77BBE1BA102F01BFE4FF6EF
:10699000FF706880BDE8F840FFF77CBF00200090E2
:1069A000A08869468FDF002801D000F0B1FDF8BD56
:1069B00000231A4619463046B1DF0028F7D0BDE85B
:1069C000F84000F0A5BD8088132176DFF5E70000D0
:1069D000FC22002098C1020038C10200436F6E6E95
:1069E00065637465640000001123002058240020B2
:1069F0006E2300206F230020446973636F6E6E6501
:106A000063746564000000000EB513A19DF80800D2
:106A100020F00F00401C20F0F00010308DF808002E
:106A2000042202A87CDF08B100F072FD0020009073
:106A300001905021ADF80400ADF800104FF4C8707B
:106A4000A021ADF80600ADF8021068467ADF0028F4
:106A500001D000F05DFD0EBD446F6F7200000000BC
:106A600010B5002102F0D8F8002803D0BDE810408E
:106A700000F04EBD10BD00000078002807D104488A
:106A80003B21408876DF002801D000F041BD7047EF
:106A9000FC22002000B591B0FFF700FE08B100F025
:106AA00037FD40216846FFF7BAFC0AA1684601F0AD
:106AB0002DF90BA102A801F029F901208DF83C0065
:106AC000684600F07BFF002801D000F021FD11B0E6
:106AD00000BD00004D616B69686F6D6500000000CE
:106AE0004D4B505F446F6F725F30303031000000AB
:106AF00008B503F0AFF808B100F00AFD00200090DF
:106B00006946012002F060FF08B100F001FD68460F
:106B100002F0DAFF002801D000F0FAFC08BD000006
:106B20002DE9F04700268AB0DFF85091B0464FF4C7
:106B30008075012437460696284602F043FB38B19B
:106B4000D9F80403204203D0284602F031FB264343
:106B50002D1D64007F1CADB2082FEDD34FF4BE7421
:106B6000204602F02FFB48B1204602F021FB46F000
:106B7000004606AA0121002002F006FB404D16F057
:106B8000FF0F15D00127002437420DD009EB8401F7
:106B9000D1F81005D1F81015C0F3042055F82420C1
:106BA000C1F3014102B190477F00641C082CEBD374
:106BB000002E5FDA4FF0FF30CDF8108054E0281936
:106BC00010F8507F90F9000027F0C008401C3BD01F
:106BD00007A9404602F00EF810B34FEA9719404655
:106BE00001F03EF955F820701FB1B9F1030F03D041
:106BF00006E0B9F1030F27D104A9404602F002F8DC
:106C00004FF0A04101EB8800D0F8000706A9C0F3BF
:106C1000014A404601F0EEFF18B1BAF1020F03D06D
:106C200012E0BAF1030F0FD1B9F1030F08D1BAF195
:106C3000020F1DD00221404602F094FA761CF6B2F3
:106C400017B149464046B847641C042CB7D3002E00
:106C500010D06A460121002002F096FA06990098A9
:106C6000884207D006900498002634460790A6E78D
:106C70000321E0E70AB0BDE8F087000000600040B3
:106C8000DC25002070B54FF48076304602F07EF8A7
:106C9000114CB50560B1304602F07FF80120C5F80F
:106CA0000803607920B901206071216800208847BD
:106CB0004FF48276304602F069F800280AD0304658
:106CC00002F06BF80220C5F808032168BDE87040A7
:106CD0000120084770BD00008823002002490248B7
:106CE000091F096800680847C02300202DE9FE43FA
:106CF0004FF48278404602F043FE4C4F00254C4C46
:106D0000012600B3404602F043FE94F82E0010B175
:106D100094F82F10D1B18DF800506168019121894C
:106D2000ADF80810E26832B1218B61836260218185
:106D3000E56010B102E0257400E03E60216868461D
:106D4000884784F82F5094F82E0060B34FF4807772
:106D5000384602F015FE30B3384602F019FE628B59
:106D600094F82D108A420AD9A2EB010080B2608308
:106D70002289A2EB0000626802EB400005E007D127
:106D8000E06828B184F82F60658302F0E7FD04E035
:106D90008A4202D184F82F606583404602F0F8FDF4
:106DA0002248001D06604FF48877384602F0E8FD5F
:106DB00048B1384602F0ECFD257402208DF8000041
:106DC0002168684688474FF48A77384602F0D8FD34
:106DD00028B1384602F0DCFD2574BDE8FE834FF093
:106DE00000484FF48C7967691DE000BFB7FA87F05F
:106DF00028FA00F109EB80058F43284602F0C0FD18
:106E000088B1284602F0C4FDA5F58C75E8088DF818
:106E1000040045F38000401C8DF800608DF80500EB
:106E2000216868468847002FE0D1D6E7007000400F
:106E30008826002010B50B4A01210B4800F07AFB90
:106E400008B100F065FB0848002240F26661006866
:106E500000F0AAFB002803D0BDE8104000F058BBAA
:106E600010BD000009710200C4B6020010B503F0A5
:106E7000F3F800F02FF800F093F8BDE8104000F0B0
:106E8000A7B800000C4801214FF0A0420170D2F8D1
:106E90001025520B12F0010F02D00021C170704773
:106EA000C17006480649401AC008032101EB0040A2
:106EB00004A102F087BB00006C23002098C10200EF
:106EC00038C10200436F206E616D206368616D0DF3
:106ED0000A00000008B503208DF801008DF80000BD
:106EE0009DF80200064A20F003008DF80200694672
:106EF0000D2003F049F801210D2002F0F3FF08BD39
:106F0000856E02002DE9F0411B4C1C4D207818B312
:106F1000E068002605280BD9A079E178884207D0DF
:106F2000E27817492888FFF739FCFFF7A8FBE660ED
:106F300014481549A279401AC108032000EB01400A
:106F4000074612A102F042FBE278384611A102F096
:106F50003DFBE078A0712670E068801F022808D20F
:106F6000E27807492888FFF719FCFFF788FB09201A
:106F7000E060BDE8F08100006C230020FE220020CC
:106F80005824002098C1020038C1020070726520A8
:106F900025640A006C6F6769632025640A0000009D
:106FA00008B503208DF801008DF800009DF802005F
:106FB000064A20F003008DF8020069460E2002F018
:106FC000E3FF01210E2002F08DFF08BD01700200D9
:106FD00008B503208DF801008DF800009DF802002F
:106FE000064A20F003008DF8020069460F2002F0E7
:106FF000CBFF01210F2002F075FF08BD5D7002007C
:107000000F4930B401224FF0A0404A70D0F810056B
:107010000D4C800B10F0010F0A48A0EB04004FEA62
:10702000D0004FF0030404EB004002D00A7107A126
:1070300002E000220A7107A130BC02F0C3BA0000CE
:107040006C23002098C1020038C102004344203163
:107050000D0A0000434420300D0A00000F4930B4EF
:1070600001224FF0A0404A70D0F810050D4CC00B23
:1070700010F0010F0A48A0EB04004FEAD0004FF0D7
:10708000030404EB004002D00A7107A102E00022D1
:107090000A7107A130BC02F095BA00006C230020F1
:1070A00098C1020038C10200434420310D0A00009B
:1070B000434420300D0A000070B5104C6078002861
:1070C0001AD0A06800256428207902D910B9A570CB
:1070D00003E010B10120A070A5606079A17888421A
:1070E00007D0A278074806490088FFF76EFBFFF734
:1070F000C6FAA0786071657070BD00006C23002036
:1071000058240020FE22002003488168491C816029
:10711000C168491CC16070476C23002002F0D4BDD7
:10712000F0B5B5480023021D0178101D01254FF070
:10713000805406290BD11678360708D10678C6F395
:107140000316032E06D0042E04D0052E02D00629E5
:1071500007D00EE0B4F82463A84FC6F304263E60BF
:1071600002E01678360704D10678C6F30316032E1C
:1071700002D0062904D00FE0A24FA14E7E670EE098
:107180001678360708D10678C6F30316032E06D004
:10719000042E04D0052E02D0062907D00EE0D4F824
:1071A0004462994FC6F342363E6002E016783607D5
:1071B00004D10678C6F30316032E02D0062906D0A2
:1071C00011E0924E376827F0807737600EE016782E
:1071D000360708D10678C6F30316032E06D0042E10
:1071E00004D0052E02D006290AD011E04FF08046C7
:1071F000C6F80C31C6F81031834E361F336002E0FA
:107200001678360704D10678C6F30316032E02D08B
:10721000062905D00CE07C4F032664373E600AE067
:107220001678360704D10678C6F30316032E02D06B
:1072300006290DD014E0764F05263E60744E783650
:107240003560734E083633603F263F1D3E6002E0D6
:107250001678360704D10678C6F30316052E02D039
:10726000062957D062E06B4E36686B4F3E60694E20
:10727000361D36683F1D3E60664E083636683F1D37
:107280003E60644E0C3636683F1D3E60614E1036DF
:1072900036683F1D3E605F4E143636683F1D3E60C7
:1072A0005C4E183636685C4F20373E60594E1C36AF
:1072B00036683F1D3E60574E203636683F1D3E60A3
:1072C000544E243636683F1D3E60524E283636688E
:1072D0003F1D3E604F4E2C3636683F1D3E604D4E82
:1072E000303636684C4F40373E604A4E343636684A
:1072F0003F1D3E60474E383636683F1D3E60454E66
:107300003C3636683F1D3E60424E403636683F1D73
:107310003E6002E01678360708D10678C6F30316F9
:10732000032E06D0042E04D0052E02D0062907D045
:1073300019E0D4F85812394A01F04F01116002E007
:10734000117809070FD10078C0F30310032803D088
:10735000042801D0052806D131480168C90702D0A8
:107360006FF001010160D4F83001062808D1D4F88B
:107370003401062804D12B48016841F48061016082
:1073800022487438016841F470010160BFF34F8FE7
:10739000BFF36F8F4FF01021D1F80002002803DBFC
:1073A000D1F80402002822DA1F4A15601F48046839
:1073B000002CFCD01524C1F800420568002DFCD03B
:1073C000C1F8044201680029FCD01360016800295B
:1073D000FCD0BFF34F8F0D48F0380168144A01F418
:1073E000E06111430160BFF34F8F00BFFDE7124919
:1073F00010480860F0BD0000E00F00F0403501408B
:107400000DF0ADBA00C007403C050040FCED00E0C7
:10741000105600400404001020C50040E40E004057
:10742000000400403C17004004E5014000E4014036
:107430000400FA050090D003F02200200148006803
:10744000004700009023002002E008C8121F08C176
:10745000002AFAD170477047002001E001C1121FD5
:10746000002AFBD1704700000121202803DA814067
:107470000548014003E0402802DA2038814009B184
:107480000120704700207047FC06FFBD72B602F075
:107490003BF900BF01F07CFF0028FBD111481249E5
:1074A000401AC408012000EB044010A102F08AF841
:1074B00011480068C00700D000BE022000EB044065
:1074C0000EA102F07FF8BFF34F8F0B48E43801683C
:1074D0000E4A01F4E06111430160BFF34F8F00BF1A
:1074E000FDE7000098C1020038C1020046617461E6
:1074F0006C206572726F7200F0ED00E05379737466
:10750000656D207265736574000000000400FA0563
:107510000EB500210091CDE901106A4644F2010048
:10752000FFF7B4FF0EBD0000014800F0F2BE0000FE
:10753000A02300203AB100680129426100D0002157
:1075400001610020704707207047000038B51148DE
:1075500008235822416800910F49006801F071FA30
:10756000002815D10D4A69460D4800F0D7FE0400E9
:107570000ED101210A4800F048FF0123094A1946AB
:10758000074800F09EFE0649012008390870204691
:1075900038BD0000E8B60200C826002099AB020002
:1075A000A0230020FFFF7F0070B50446007F0D463A
:1075B00008B1002070BDA26100F0BEFF401941F18A
:1075C0000001C4E90201206900B125612146BDE83E
:1075D0007040002003F092BD014600200877012092
:1075E00003F08CBD30B5EFF3108172B60D4A94688C
:1075F000012324B10370002900D162B630BD93602D
:107600004FF0E023D3F88051074C25401560C3F8B4
:107610008041D3F8844154605A17C3F88421002272
:107620000270E8E720270020FC06FFBD0B498A68AE
:10763000002A11D000280FD1EFF3108072B60B682A
:107640004FF0E022C2F800314B68C2F8043100224A
:107650008A60002800D162B6704700002027002011
:107660002DE9F041064608680C46411C4FF0A04742
:107670004FF0010506D005FA00F1C7F8081520689B
:1076800001F05CFD6068411C02D0002101F044FD66
:107690003168A069C1F82405607D227D31681043FE
:1076A000C1F86C05D4E900123068C0F81425C0F8A0
:1076B0000C15207D012815D1A068411C02D00021A5
:1076C00001F02AFDE068411C05D08540C7F8085547
:1076D000E06801F033FDD4E902123068C0F80825F3
:1076E000C0F81015BDE8F0812DE9F04106460868A4
:1076F0000C46411C4FF0A0474FF0010506D005FA9B
:1077000000F1C7F80815206801F022FD6068411CEF
:1077100002D0002101F009FD3168A069C1F82405FB
:10772000607D217D32680843C2F86C05D4E90012FF
:107730003068C0F80C15C0F81425207D012815D13B
:10774000A068411C02D0002101F0EFFCE068411C60
:1077500005D08540C7F80855E06801F0F9FCD4E988
:1077600002123068C0F80825C0F81015BDE8F08195
:107770002DE9FC47002517880646158090F82D0056
:107780001446894630B13A462146484600F0E6F8AC
:10779000051E09D1B0784FF00C0A18B32088C846EE
:1077A000001DB84202D95046BDE8FC87684679DF23
:1077B0000028F9D12088032108F800102088192119
:1077C000401C80B2208008F800102088401C80B245
:1077D000208000EB0801BDF8000003F052FE218874
:1077E00008442080F0780222C8B1218896F903303D
:1077F00001F1030C4846BC45D5D8425421884FF0CE
:10780000010C491C89B2218000F801C02188491C63
:1078100089B2218009F801302088401C20807068DE
:10782000B8B1218890F9003001F1030C4846BC45FD
:10783000B9D8425421880A22491C89B22180425475
:107840002188491C89B2218009F801302088401C18
:107850002080308950B1CDE900474B4606220221F5
:1078600006F1080003F0A0FE051E9DD1308A50B13C
:10787000CDE900474B460722032106F1100003F033
:1078800093FE051E90D1308B50B1CDE900474B4699
:107890001522142106F1180003F086FE051E83D17F
:1078A000306A30B13B462246494600F026FC051EB0
:1078B000DBD1706A30B13B462246494600F0E4FF16
:1078C000051ED2D196F82C0038B13B4622464946D7
:1078D000304603F0A9FA051EC7D1307838B13B46CF
:1078E00022464946304601F059F8051EBDD12846CA
:1078F0005AE7000070B5040012D001461C2214485B
:10790000FEF774FD1248134D0560206850B17ADF10
:10791000002806D12068016829604068686005E099
:107920000E2070BD0B487BDF0028FAD108484FF6C7
:10793000FF711438084A20F8041B054934390160E6
:107940000021FFF7F7FD0028EBD0032070BD0000F9
:10795000AC240020F422002041B502007CB505468D
:1079600008880C460930904201D90C207CBD68463D
:107970006DDF0028FAD121880820685420881B2157
:10798000401C80B2208029542088401C80B2208076
:107990002844DDF801100160BDF8051081802088C1
:1079A000801D80B220809DF80010490800D0012180
:1079B00029542088401C208000207CBD1FB504462F
:1079C00001208DF8060041F60A00ADF80400494A8E
:1079D00001A90120A8DF00287DD122885AB145489D
:1079E000801C009094F83C3042F62920616800F039
:1079F0003FFA00287BD122895AB13E480A300090D4
:107A000094F83C3042F62420E16800F031FA002876
:107A10006DD1228A5AB137481230009094F83C3028
:107A200042F62520616900F023FA00285FD1228BFD
:107A30005AB130481A30009094F83C3042F6272072
:107A4000E16900F015FA002851D1228C5AB1294879
:107A50002230009094F83C3042F62620616A00F013
:107A600007FA002843D1228D5AB122482A300090CB
:107A700094F83C3042F62820E16A00F0F9F9002839
:107A800035D1216B79B102A803F0AEFA194808226A
:107A90003230009094F83C3002A942F6232000F0E6
:107AA000E7F9002823D1606B60B112493A310091A7
:107AB0000279016894F83C3042F62A2000F0D8F9A7
:107AC000002814D1A16B89B102A802F0CBFF0948AC
:107AD0004230009000E00AE094F83C30072202A90E
:107AE00042F6502000F0C4F9002800D1002004B074
:107AF00010BD0000202300202DE9F04701883B4EF7
:107B000040F2F3194FF6FF7510291BD011293ED012
:107B1000122954D0502946D1C188F289841D91423E
:107B200041D1618902293ED18688304600F01EFD90
:107B3000050038D004F10C0000F0F1F8A8B3294694
:107B400030464EE0C17B8788044601292BD1A846E8
:107B5000284600F00BFD050017D02F80002028726A
:107B6000234843464A460168C5F80A104068C5F8EC
:107B70000E0004F1100105F10A0000F0B1FD687279
:107B8000F08900280FD129462AE0042013E08088DC
:107B900000F0ECFC040006D06068FFF71DFD08B1A2
:107BA00003F01AF92580BDE8F087FFE76868FFF762
:107BB00013FD0028F7D0BDE8F04703F00DB9878822
:107BC0000646384600F0D2FC0400ECD02B464A466C
:107BD00006F1080104F10A0000F082FD60722146FE
:107BE0003846BDE8F04700F0CDBA0000AC240020D4
:107BF000F42200202DE9F04F04468688018842488F
:107C000097B0834610290CD0112950D01030192973
:107C10006AD01A2974D1217A0C09042C4DD301227F
:107C20004CE0394D083DA868C0430B9069680BA82B
:107C300000F072FF0B990CA800F040FA2C220CA95E
:107C40006846FEF7D3FB0027E946A84610E000BFD0
:107C500009EB47005FF00005B0F804A008EB8500D1
:107C60005146001D00F02CFF6D1C1E2DF6D37F1C0D
:107C70000098B842ECD8142E05D317B00420BDE804
:107C8000F04FFFF745BC3146584600F02FFF314614
:107C900008F1040000F02AFFE07B012830D017B083
:107CA0003146BDE8F04F1848001D00F01FBF17B067
:107CB0003146BDE8F04F00F003BF0022314600F02E
:107CC00036FC032C01D3012200E000220E4831468D
:107CD0000C3000F02CFC022C01D3012200E0002229
:107CE00009483146083006E0217A002908D1617A36
:107CF000C1F3C002314617B0BDE8F04F00F017BC29
:107D000017B0BDE8F08F0000D024002070B5044605
:107D10000D460846FEF78EFB2080656070BD00783A
:107D200000F00100704700002DE9F8430546861C6D
:107D300000208DF8000090460F464FF0010968467C
:107D4000FFF750FC1B4C20683860D4E90001401A52
:107D5000A16804F21C47081A0EE00121384600F021
:107D6000D5FE00F0F7FC0146384600F0CFFED4E91E
:107D70000001401AA168081A401C8642EDD8B8F1EB
:107D8000000F03D0052065F3891002E0062065F39B
:107D90009F50A2682168114004EB8101C8602068EF
:107DA000304420609DF80000FFF740FC4846BDE8E5
:107DB000F8830000D028002070B50D4604460A293B
:107DC00002D10D21FFF7F8FFA0682268411CA160D5
:107DD0001554D4E90101814204D32046BDE8704026
:107DE00001F059B870BD0000034803C8814201D1B9
:107DF0000120704700207047D028002005494FF02F
:107E0000FF32082841F8202002D3084480F8482097
:107E100070470000DC250020F0B54FF0FF3512B1AF
:107E20000023082601E008230C260C4C05E000BFC7
:107E300054F823707F1C04D05B1CB342F8D328464F
:107E4000F0BD26185DB286F8305044F82310002AA1
:107E5000F5D1E11881F84800F1E70000DC250020A9
:107E60000249084490F9300070470000DC250020EA
:107E70002DE9F04188B01E46DDF8388014460D002B
:107E8000074602D10020FFF743FB14B90020FFF79B
:107E90003FFB20216846FEF7C2FA9DF80D00ADF8C1
:107EA000044040F002008DF80D000848ADF8007065
:107EB000ADF8064002958DF811604246694600888B
:107EC00000F006F808B0BDE8F08100002023002093
:107ED0002DE9F0438146887891B090460C4600B970
:107EE00001208DF83E002088ADF83C00002500956B
:107EF000607C694602F0DCFF6E46A07C711C02F0DB
:107F0000D7FFE07B00289DF8020002D040F0080077
:107F100001E020F008008DF80200217C11B140F052
:107F2000100001E020F010008DF80200217B11B15B
:107F300040F0010001E020F001008DF80200217DF9
:107F400009B1022100E0012161F342008DF8020035
:107F50001C2102A8FEF763FA607BC10601D48006EB
:107F600017D50E950EAFE07C791C02F0A1FF9DF8AD
:107F70003800079720F00F00401C20F0F000103070
:107F80008DF838009DF83A0020F00600801C8DF82E
:107F90003A00607B8DF80800A07B8DF80900142161
:107FA00009A8FEF73CFA0FA8CDE90906A088ADF8AC
:107FB0003000A06820B1E088ADF82C00A0680D90DA
:107FC000A06998B301950088ADF81000A06901ADD3
:107FD00001A94088ADF81200A06940680695039099
:107FE000A069007B02F064FFA069691C407B02F07D
:107FF0005FFFA069807A00289DF8060002D040F05B
:10800000080001E020F008008DF80600A169C97A97
:1080100011B140F0100001E020F010008DF80600D2
:10802000A169097A19B140F0010002E00DE020F0E9
:1080300001008DF80600A169897B09B1022100E0E9
:10804000012161F342008DF80600E06900B105905E
:10805000434609AA02A94846AADF11B0BDE8F08349
:1080600070B5084C050009D010342168002907D0EC
:1080700008682060496828468847F6E70834F4E72E
:1080800070BD0000C8250020054A012120B101284B
:1080900005D19170FFF7E4BF51700020FAE77047F7
:1080A000C825002010B5D0E90234D1E90220D11A48
:1080B000A04101D3012010BD002010BD73B58CB0CC
:1080C0000646002000900D9880B100246D462146A0
:1080D0000DA800F000FD30B1009805EB4000848051
:1080E0000098401C0090641C142CF0D32C2269468C
:1080F0003046FEF77BF90EB070BD2DE9F0411788D0
:108100000646B81D14460D46984202D90C20BDE81B
:10811000F0813188072206290AD34FF4486C4FF6C4
:10812000FF73614501D9994202D17088062801D2B6
:108130001046ECE7604501D99842F9D1994203D045
:10814000984201D08142F3D80520E85520881221B9
:10815000401C80B2208029542088401C80B220809E
:108160004119308803F08DF92188084480B22080BD
:108170004119708803F085F9218808442080002087
:10818000C5E7000038B54A7A0F4B62B100220A7287
:108190005969002906D001228DF80020ADF80200AF
:1081A0006846884738BD0A7A62B19B684C680246C7
:1081B00019462046FFF7F8F90028F3D0BDE838400B
:1081C00002F00ABE5B68F1E7AC24002070B588B00D
:1081D0000646002005900690ADF81410ADF8161074
:1081E0000190029001AA05A9304690DF050021D038
:1081F00001F00EFE0346114811493246401AC108EB
:10820000012000EB014004460E4901F0E6F9BDF8FB
:10821000042012B9BDF8060028B1BDF8063020468A
:1082200009A101F0DAF9BDF808201AB12046164973
:1082300001F0CCF908B0284670BD000038C102003A
:1082400038C10200DCB9020054686520726571759E
:1082500065737465642054582F5258207061636BA5
:108260006574206C656E67746820697320746F6F25
:10827000206C6F6E672062792025752F2575206F21
:1082800063746574732E000028BA020010B50021D3
:10829000024800F04CFC80F3100010BDEC2C0020D4
:1082A0004FF480328A400168C1F848230068C0F862
:1082B000082370474FF4A07202EB810189B200F0ED
:1082C0002CB92DE9F04105460E464FF4A07000EBA5
:1082D000860081B228684FF48034B440984622F07A
:1082E0007F47C0F808432868C0F84843286801F071
:1082F0002FFB286800EB8600C0F840752868C0F89E
:108300004443B8F1000F02D02868C0F80443BDE828
:10831000F0810068D0F804057047000070B543791B
:10832000224C44F823204279241D04EBC202204B46
:108330001579204A9A1AD3082DB10824022000EB9F
:1083400003401DA12EE002680D88C2F8085590F97F
:1083500004208978002A4FEA411106DA02F00F0260
:1083600002F1E02282F8141D03E002F1E02282F81B
:10837000001490F90410012201F01F0502FA05F51E
:108380004909890001F1E021C1F80051417904EB6C
:10839000C1010A71417944F831000320002400EB47
:1083A00003400EA101F00EF9204670BDBC23002051
:1083B00080C1020038C1020052544320696E7374B8
:1083C000616E636520616C726561647920696E69B4
:1083D0007469616C697A65642E0000005254433AF6
:1083E00020696E697469616C697A65642E000000A9
:1083F00090F90400012100F01F0291404009800023
:1084000000F1E020C0F8001270470A46022100F097
:108410007BB84FF4827100F080B8006801210160E0
:10842000704700680121416070472DE9F05F074601
:108430000C464FF4A07000EB84001FFA80FA3868F5
:108440004FF48036A6409B4622F07F45C0F8486333
:108450003868C0F808633868D0F8048500EB8402F7
:10846000D2F84095C2F840855146386801F070FA5C
:10847000A9EB080020F07F40012806D1102001F070
:1084800029FD5146386801F063FA3868D0F8048550
:10849000C0F84463A5EB080121F07F413868012949
:1084A00000EB840010D0C0F840553868D0F80415AF
:1084B0006FF07F4C6A1A521E22F07F42ACEB0B0326
:1084C000934217D362B118E06D1CC0F840551020DC
:1084D00001F000FD3868D0F8040540450AD10CE0F1
:1084E00000EB84006D1CC0F840553868D0F80405D6
:1084F000884202D00D20BDE8F09F01223146384667
:1085000000F002F80020F6E70368C3F84413002ADD
:1085100002D00068C0F80413704710B500684258D4
:108520001AB101F015FA012010BD002010BD0AB1EA
:1085300000F0DCBA00F0C4BA10B50B48FFF7E9FE52
:10854000094A083AD2E90434C018D2E9063244F1A3
:108550000001C31A71EB020204D24FF0807280183E
:1085600041F1000110BD0000A02300200146034896
:1085700002888A4200D00020704700009824002022
:108580002DE9FC5F0E008346DDE90C47C6F10000D3
:1085900098469246814600D40846012503E000BF74
:1085A00090FBFAF06D1C5045FADAA84500D9454613
:1085B00024B1002E01DB780700D5641EB80702D570
:1085C000B8F1000F0AD0F80708D13CB1A54205D296
:1085D00020215846641EFFF7EFFBF6E7002E02DA73
:1085E0004E462D2102E0780703D52B215846FFF790
:1085F000E3FB07F0030002280BD1B8F1000F08D10C
:108600003CB1A54205D230215846641EFFF7D4FB89
:10861000F6E7CDE90047434652463146584602F058
:1086200035FFBDE8FC9F000070B50D4604460068AC
:108630004FF4887101F00CFC4FF49071206801F048
:1086400007FC4FF49271206801F002FC4FF4A27114
:10865000206801F0FDFB4FF4AC71206801F0F8FBDD
:1086600020681149C0F804132068690740F30730F7
:10867000090E002806DA00F00F0000F1E02080F873
:10868000141D03E000F1E02080F8001420680121AF
:1086900040F3073000F01F0291404009800000F1D4
:1086A000E020C0F8001170BD100342000246002017
:1086B0001268530713D502F00300012802D00228E4
:1086C0000CD105E0C2F383100B68801C184404E051
:1086D0000223086803EB925210440860012070479F
:1086E000F0B58488A518944200D82246A41AC288FE
:1086F000D6189A4200D81346D21A4B880788BB4234
:108700000CD34088834209D88888A04206D3A84267
:1087100004D8C888904201D3B04201D90020F0BDEE
:108720000120F0BD172101804180002101714171BC
:108730001B218171C171704710B54FF48041002039
:1087400000F0ACFF08B1FEF7E3FEBDE8104000F01A
:1087500011BE00002DE9FF410026234800F0D3F9A7
:108760002148001F074600F0CEF9204C60680090B9
:10877000A56800E000986946284004EB80000C30B2
:10878000FFF794FF0028F5D101AA009901EA05033B
:1087900004EB8303491CDB6842F82030401C009145
:1087A0000228F2D3019800F0030001280BD0022820
:1087B00010D10198032101EB90500099BDF80A6097
:1087C00001EB900005E00198BDF80A60C0F383104A
:1087D00008440090384600F093F908B100986060B2
:1087E00004B03046BDE8F081E82C0020D0280020FD
:1087F000FFF7A2FFFEF7AAFE08B1FEF789FEFDF71C
:1088000095FEFEF717FB02F065F9FEF72FFBFDF76B
:10881000C7FEFEF76DF9FEF7F7F81448FEF720F9EA
:1088200012481430FEF736F910481430FDF7E4FF13
:10883000FEF73EF8FEF72EF801F0C6FD0C480D4994
:10884000401AC008032101EB00400BA100F0BAFE62
:10885000FEF758FBFEF730FCFDF7E0FE00F098FD58
:108860000028FBD101F044F8F2E700004424002086
:1088700098C1020038C1020043424344207374612E
:10888000727465642E00000070B5144682880E462E
:1088900005462088111D0144921C994201D8FE2AE8
:1088A00001D90C2070BD521C32542088FF21401C7D
:1088B00080B2208031542088401C80B220808119F1
:1088C000288802F0DEFD2188084480B22080AA8832
:1088D00042B1A96841B13044FDF788FD2088A988DC
:1088E00008442080002070BD072070BD2DE9F047AE
:1088F000C5881E1DB6FBF5F78946B6FBF5F10446A3
:1089000005FB176C407916686843DDF820A0F7185E
:10891000001F874200D9C61A166001E02468491E6C
:108920000029FBD1A5EB0C078846B74216D818E002
:1089300004EB0C00001D09EB0803BAF1000F3A46E6
:1089400002D00146184600E01946FDF74FFD2468A5
:10895000F61B4FF0000CB844B54201D9374600E091
:108960002F46002EE4D1BDE8F087000030B5024666
:1089700051B100F0B1FE0021074C08E034F821307D
:108980001568AB4202D11160002030BD491C814204
:10899000F4D3052030BD000000000000F8B50F46FC
:1089A000017814460546012901D1687830B1208844
:1089B000821C9A4232D8012902D006E00720F8BD75
:1089C00069780144891C994228D8181A801E86B2F9
:1089D000ADF800602188B81C084469467DDF002896
:1089E000EDD12978022904D06878BDF800209042A2
:1089F00005D3BDF80000B04201D809200AE00820E4
:108A0000012905D16978B14202D8ADF8001001E022
:108A1000ADF80060BDF80010FE2901D90C20F8BDAA
:108A20002288491CB9542188491C89B22180785474
:108A30002088401C2080BDF80010084420800020C1
:108A4000F8BD10B531B1B2FBF3F403FB14241CB133
:108A5000092010BD0E2010BD016000214160816021
:108A60008281C381084610BD70B50C460546FDF7EE
:108A7000D1FB002802D021882868084470BD10B5B9
:108A80000A8849888A4203D1FDF706FC012010BDFF
:108A9000002010BD70B50C460546FDF7E0FB002830
:108AA00002D061882868084470BD10B50A884988DA
:108AB0008A4203D1FDF7CAFB012010BD002010BD82
:108AC00001F01F0301229A40D243490900EB8100C3
:108AD000114600F021B84A0950F8220001F01F02A7
:108AE00001219140084000D00120704701F01F0390
:108AF00001229A40490900EB8100114600F01CB8A0
:108B0000002100F00FB8012100F016B808B56A4640
:108B1000FDF717FC009808BD08B56A46FDF7F7FB9E
:108B2000009808BD08B56A46FDF7F1FB08BD08B519
:108B30006A46FDF7D3FB08BD08B56A46FDF7DAFBC8
:108B4000009808BD08B56A46FDF708FC009808BD06
:108B500038B5044600258DF800506846FEF742FD02
:108B600021686268086890420ED9401E086001784A
:108B7000238AE26801FB0325227A2168101AC0B219
:108B80000A79824200D208719DF80000FEF74EFD7E
:108B9000284638BD38B5054600208DF800000C4643
:108BA0006846FEF71FFDE868298A201AB0FBF1F13C
:108BB0002A681068431C136001709DF80000FEF7DE
:108BC00035FD38BD10B530B1017A42680368891AA5
:108BD000C9B21A6006E00E2010BD03681A68541C62
:108BE0001C601170491EC9B2F7D2006800210171E2
:108BF000084610BDC20800F007030120895C9840B8
:108C00000840704710B5C20800F00703885C0124D3
:108C10009C402043885410BD10B560B101611721FC
:108C200020F8021B20F8021B1B2100F8021BFFF793
:108C300079FD002010BD0E2010BD0000F0B5858824
:108C400093B00C46002D39D1018800263F4F2429CE
:108C50003BD006DC102909D011290CD0232958D18A
:108C60004FE03A290BD0552953D129E0014620463F
:108C700001F036FE4DE0A01DFFF754FD49E022460D
:108C8000408934F8061F814200D8084660801728C2
:108C900000D217206080106970B1607960B1D7E9A7
:108CA0000001CDE90301ADF80E506088ADF8100069
:108CB000136903A9104698476671267113B0F0BD79
:108CC0000146204601F060FE23E0011D2C2206A88B
:108CD000FDF78CFBBDF81800BDF81C2004EBC001AB
:108CE0004A732269AAB1D7E90423CDE90423ADF878
:108CF0001200487B8DF814002269204604A9904791
:108D000007E0017A207B884200D201462846FFF71F
:108D10005DFAA07A0028D1D0E1882846A5DF012598
:108D200080B11128CAD001F073F8024608480949F9
:108D300013B0401AC00805EB0040BDE8F04006A1A2
:108D400000F044BCA672E572B8E7000078B60200F5
:108D500038C1020038C1020073645F626C655F67EE
:108D6000617474635F65786368616E67655F6D7475
:108D7000755F7265717565737428292072657475E5
:108D8000726E65642025732E0000000000F18040A3
:108D90000068002800D00120704708B500F180402D
:108DA000002101600068009008BD000070B50B4C08
:108DB000207808B185250FE00020A0606060206168
:108DC000E060074801F060F8054600F08FFF08B941
:108DD00001F044F801202070284670BDC82500200D
:108DE0008980020038B500258DF800506846FEF7EE
:108DF000F9FB074CE068401EE060E06810B901F044
:108E000053F8A5709DF80000FEF710FC38BD000077
:108E1000C8250020F0B505460478154889B01646E7
:108E200040F82420124A0869121DA2F1080742F8EE
:108E30002400487F385520226846FDF7D7FA04946D
:108E40002878385C48B10EB10A4A00E00022694631
:108E5000281D01F03BFC09B0F0BD0EB1064A00E050
:108E60000022694605F10C0001F002FBF3E7000067
:108E70008023002041B3020089B102000FB408B57D
:108E80000399002904D004AA00926A4600F00FF862
:108E900001B05DF814FB10B582680446002A05D0C5
:108EA000D4E90403216898470020A06010BD2DE993
:108EB000FC4791460C00804676D014F8011B39B16E
:108EC00025290ED04046FEF777FF20780028F4D100
:108ED00098F80C00002867D04046BDE8FC47FFF733
:108EE000DABF0020012221782B291BD02D2902D0A6
:108EF000302908D102E040F0010001E040F002001A
:108F0000641C002AEFD100252A290ED02178A1F176
:108F100030020A2A11D205EB850201EB4205641CDE
:108F2000303DF1E740F00400EAE7D9F800100B1DEE
:108F3000C9F800300968641C0D44217800232E29EB
:108F40000BD114F8011FA1F130020A2A05D203EB5C
:108F5000830201EB4203303BF3E76C290DD0682913
:108F60000BD0692921D00BDC252918D0582931D004
:108F700063290ED0642915D117E014F8011FECE71E
:108F8000702969D0732932D075291BD0782909D16D
:108F900020E0D9F80000011DC9F800100178404612
:108FA000FEF70AFF641C90E76CE0D9F800100A1D78
:108FB000C9F800200968CDE900500A224046FFF7B1
:108FC000DFFAEFE7D9F800100A1DC9F80020096898
:108FD0000A2206E0D9F800100A1DC9F80020096825
:108FE0001022CDE90050404602F050FADAE7D9F8F5
:108FF000001000270A1DC9F800200E68C00705D11F
:1090000012E04046761C7F1CFEF7D6FE3178002920
:10901000F7D104E0202140466D1EFEF7CDFEBD4293
:10902000C0D9002DF6D1BDE74EB13046FDF702FAAA
:10903000074604E0202140466D1EFEF7BDFEBD42FE
:1090400006D9002DF6D103E04046761CFEF7B4FEAB
:1090500031780029F8D1A5E7D9F80000011DC9F839
:109060000010056830214046FEF7A6FE78214046F4
:10907000FEF7A2FE08200021CDE9000103461022E0
:109080002946B0E7BDE8FC8770B541EA4201DDE959
:1090900004564FF0A04441EA830141EA052104EB64
:1090A000800041EA0641C0F8001770BD70B541EA82
:1090B0004201DDE904564FF0A04441EA830141EA50
:1090C000052104EB800041EA0641C0F8001770BD9D
:1090D00070B541EA4201DDE904564FF0A04441EA8F
:1090E000830141EA052104EB800041EA0641C0F812
:1090F000001770BD1CB5002100910B4601220191A3
:10910000FFF7D4FF1CBD1CB5002100910B460122C6
:109110000191FFF7DDFF1CBD1CB500220B4600923C
:1091200011460192FFF7C2FF1CBD1CB500220B4681
:10913000009211460192FFF7CBFF1CBD1CB5002128
:1091400000910B46012201911146FFF7AFFF1CBDB4
:109150001CB5002100910B46012201911146FFF739
:10916000B7FF1CBD4FF0A04202EB8000D0F80027F3
:1091700022F44032C0F80027D0F8002742EA01412B
:10918000C0F800177047000018B5084B6C46014442
:109190001B68009306E000BF54F82030D3F8103568
:1091A000401C08C28142F7D818BD0000C8B60200B2
:1091B000034908B50844002101600068009008BD1B
:1091C0000060004002494058012800D0002070474C
:1091D0000060004030B5154A01460020D2F8104426
:1091E00023460AE0DB681D79854205D1401C0A2828
:1091F000F6DB4FF0FF3030BD1B68002BF2D1431C73
:10920000F9D0CB681871D2F8103443B1DB68CC6860
:109210001B682360D2F81024D268116030BDC2F8F8
:109220001014C96800220A6030BD0000D028002058
:10923000F0B595B01C4615460F4608461A9E00F03C
:109240001DFB182109A8FDF7EAF80E96CDE909548F
:109250000023082203A9384600F025FB0598069054
:10926000BDF81000ADF81C00BDF81200ADF81E00EE
:1092700000208DF821000398082600F00300012843
:1092800002D0022818D032E003983346850AC0F392
:10929000C2008DF8200003980FA9C0F38314A20028
:1092A000384600F000FB09A8009006AB22460FA943
:1092B000284600F03FFA1AE00398840DC0F3C2007C
:1092C0008DF82000082C01D2254600E00825334601
:1092D0002A460FA9384600F0E6FA2E44641B09AB73
:1092E00006AA29460FA800F081F9002CEAD13846D9
:1092F00000F0CAFA15B0F0BD7047012001F062BF5E
:10930000084810B50178084A515C19B1001D01F0F8
:1093100077FA02E00C3001F077F9BDE81040002048
:1093200001F050BFD42300207C23002008B5034A5D
:1093300000924023024AFFF77BFF08BDE9AD02001F
:10934000382700200A4A012902EBC00007D0022971
:1093500007D0032907D0042907D000207047022036
:1093600070470420704700797047407970470000CB
:1093700038C1020010B5FFF7C0FF04210348FFF712
:1093800029FF02490120C968487110BD28C10200A7
:109390002DE9F04F8DB0FEF727FD18B100200DB07C
:1093A000BDE8F08F7E4C4FF0000BC4F818B4BFF34B
:1093B0004F8F60680290A568D846284004EB800073
:1093C0000CE000BFD4F8180470B9216802988142FB
:1093D00001D86160E2E7284004EB80000C3002A96C
:1093E000FFF764F90028EDD1002005AA029901EAEF
:1093F000050304EB8303491CDB6842F82030401C62
:1094000002910228F2D3059800F00300022802D04E
:1094100001284DD0AAE005985022810D8946B2EB73
:10942000905F00D850210E4666F39F50059008319A
:109430005C4800F0DAF9070078D000F01FFA4346E4
:10944000082205A9384600F036FA029908F1080A00
:109450002940681A8000001D864222D9504D0C35E3
:1094600030B1C2B204EB8101301A90460C3104E0F5
:109470002946F2B2002590462846C6B253463846E1
:1094800000F019FA0AEB080325B13246294638469E
:1094900000F011FA029909F1030001EB900002902B
:1094A0003BE004EB81015346324638460C31EFE78E
:1094B0000598C0F38310062800D30620059960F3B1
:1094C0008911C1F38310801C05918100354800F09B
:1094D0008CF907004AD000F0D1F94346082205A9CB
:1094E000384600F0E8F908F1080800260FE0029875
:1094F000434600EA0501401C04EB8101029004226E
:1095000038460C3100F0D7F908F10408761C0598AC
:10951000C0F38310B042EAD847B1D4F81054D4F85D
:10952000180478B1384600F0AFF934E01EE0E8687E
:109530004079012804D12A682846394612689047A4
:10954000E8680568002DF2D1384600F09DF98DF8E5
:1095500000B06846FEF746F8D4F8180408B9029837
:1095600060609DF80000FEF761F814E0D4F8104444
:1095700005E02168204689688847E0680468002C77
:10958000F7D109480949401AC008022101EB0040FF
:1095900007A100F017F8FEF727FC80F00100FEE6B7
:1095A000D0280020B8C1020098C1020038C10200D2
:1095B0004261636B656E647320666C757368656485
:1095C0000000000000231A4601F0C8BC08B50123C2
:1095D00000926A4601F0C2FC08BD1CB5CDE900232B
:1095E00002236A4601F0BAFC1CBD00002DE9F047D9
:1095F0000E4680461C469246082940D894F80C90A6
:10960000002020731946104601F06EFA0025B5427D
:1096100006D218F805201BA12046FFF72FFC03E017
:109620001AA12046FFF72AFC6D1C082DEFD318A1C4
:109630002046FFF723FC0025B54212D218F805702A
:109640007E2F08D8FCF7CEFE0068C05D10F03E0FFC
:1096500001D03A4600E02E220EA12046FFF70EFC74
:1096600003E00DA12046FFF709FC6D1C082DE3D394
:1096700001222146504601F00FFA84F80C90BDE813
:10968000F0870000202530327800000020202000E4
:109690007C00000025630000200000000B4810B58E
:1096A000FF218160002101604160C0F81814C0F8FA
:1096B000141480F82014064800F0E4F8002803D1C0
:1096C000044800F037F9002010BD0000D028002029
:1096D000B8C10200A4B8020002480349401AC008F9
:1096E00070470000B8C1020038C1020013B56846D7
:1096F000FFF73CF908B100201CBD0248009950F862
:1097000031001CBD38C1020070B509480125D0F8F0
:10971000104480F8205407E0E06845712168204635
:1097200049688847E0680468002CF5D170BD0000E6
:10973000D02800202DE9FF4781460C9D00200C46D3
:109740002F7B2873984616462946184601F0CCF917
:10975000072E42D2DFE806F004090F161F2A360052
:1097600049462846FFF78AFB37E0494628462268E3
:10977000FFF784FB31E0D4E9002349462846FFF790
:109780007DFB2AE0A0680090D4E9002349462846E2
:10979000FFF774FB21E0D4E90201CDE90001D4E92F
:1097A000002349462846FFF769FB16E004F108004C
:1097B00007C88DE80700D4E9002349462846FFF78B
:1097C0005DFB0AE004F108000FC88DE80F00D4E942
:1097D000002349462846FFF751FB00222946404610
:1097E00001F05AF92F73BDE8FF872DE9F041058A92
:1097F00080462D1F4819C01CB0FBF5F0C6B240468C
:10980000FFF7A6F9041E19D0002020710120607115
:10981000E58000272546761EC4F800800BE0404610
:10982000FFF796F960B16179491C617128600546BE
:109830007F1CC0F80080B742F1D32046BDE8F0811C
:10984000204600F002F80020F8E72DE9F0414579C4
:1098500001466B1E002201E00968521C9A42FBD3AC
:109860000F680146002605E038460C68FFF792F9BC
:109870002146761CAE42F7D3BDE8F0810121001DE0
:10988000FFF744B9FFF79EB910B504460121001D4A
:10989000FFF758F910F0FF0F04D12046BDE8104043
:1098A000FFF7D3BF10BD1CB501920122009201AA9F
:1098B000FFF71CF81CBD1CB501920022009201AA02
:1098C000FFF714F81CBD0000064910B500204870D1
:1098D000091D0860BFF35F8F0349044800F02AFAAE
:1098E000002010BDC823002030B702002C27002024
:1098F00008B500208DF800006846FDF773FEF1EE14
:10990000100A20F09F00E1EE100ABFF35F8F0849B4
:109910004020C1F880029DF80000FDF787FE00F0AE
:10992000E5F908B141DF08BD20BF40BF20BF08BD39
:1099300004E000E082680021916082681161826821
:1099400051618268D16082685160806801607047AF
:1099500008B5002242504058009008BD024A1060ED
:10996000101D0160704700002C7600400301034881
:109970001844C0F81425C0F8101570470070004056
:1099800002494058002800D0012070470070004074
:10999000034908B50844002202600068009008BD31
:1099A00000700040024619B14020510088407047C5
:1099B0008020FAE720B10349096801600020704760
:1099C0000E20704728B90200FEB502460E46084632
:1099D000FFF7F0FF002868D10024009401940127CC
:1099E00006208DF80020ADF8040002948DF8027076
:1099F00069462020326869DF2C492D4A891AC90836
:109A0000012202EB014530B100F002FA024628467D
:109A10002849FFF7DBFD00948DF801708DF80240B6
:109A2000019402948DF8034069464020326869DF52
:109A300030B100F0EDF9024628461F49FFF7C6FD98
:109A400000940A208DF800000194029469460120D8
:109A5000326869DF30B100F0DBF902462846174969
:109A6000FFF7B4FD4FF4B060009001940294694692
:109A7000A120326869DF30B100F0CAF902462846F9
:109A80000F49FFF7A3FD0094019402948DF8004064
:109A90006946A020326869DF30B100F0B9F90246AA
:109AA00028460849FFF792FD0020FEBDA8C102002C
:109AB00038C10200C8BF020010C0020028BF020067
:109AC00074BF0200D4BE02002DE9F04105460768CC
:109AD00060DF804619491A482A68081AC608BA423F
:109AE00019D9022000EB064416A12046FFF76AFDB3
:109AF00020463A461FA12B68FFF76FFD4FF08050BC
:109B0000D0F80C012968800200F10050421A20466A
:109B100025A1FFF75BFDB8F100004FF001040AD06A
:109B200000F076F9024604EB06402AA1FFF74EFD4D
:109B30004046BDE8F0812F480470F9E7A8C1020053
:109B400038C10200496E73756666696369656E7433
:109B50002052414D20616C6C6F63617465642066B6
:109B60006F722074686520536F667444657669630C
:109B7000652E00004368616E676520746865205239
:109B8000414D207374617274206C6F636174696FEE
:109B90006E2066726F6D203078257820746F2030CB
:109BA0007825782E000000004D6178696D756D2074
:109BB00052414D2073697A6520666F722061707022
:109BC0006C69636174696F6E2069732030782578E1
:109BD0002E00000073645F626C655F656E61626C8D
:109BE0006528292072657475726E65642025732E50
:109BF000000000004324002030B5144891B00078E4
:109C0000002820D05FF03405ADF8405010A903A81B
:109C100061DF30B1052816D011B0BDE83040FDF746
:109C200077BC03AC0A49684600F084F807E000BF3F
:109C3000D0E9002120469047684600F092F802984B
:109C40000028E1D0F4E711B030BD0000432400202B
:109C50002CB902007CB5194C207808B108207CBDD5
:109C60000120A070002001F089F8112819D00020EF
:109C700001F09CF812480026006801908DF8006001
:109C80006846FDF7AFFC0F4901A810DF05000AD0B8
:109C9000002020709DF80000FDF7C8FC2DB128467B
:109CA0007CBD00207CBD0120F3E7A670667001F04A
:109CB00023F9012001F07AF8F3E7000040240020A6
:109CC000C0B802008D7402000EB50749684600F066
:109CD00031F805E0D0E900108847684600F041F807
:109CE00002980028F6D10EBDDCB8020001480078C9
:109CF00070470000402400201FB568464BDF30B19C
:109D0000052814D004B0BDE81040FDF701BC084997
:109D100001A800F00FF806E0D0E900210098904774
:109D200001A800F01EF803980028E6D0F4E71FBD54
:109D300048B90200016009684160AFF3008010B5C6
:109D4000D0E900215368994201D1002104E0D1E912
:109D50000034A34202D01946816010BD0831416031
:109D6000F0E7816800290BD0026892680A4482609B
:109D700041684B689A4203D108314160FFF7DFBF69
:109D8000704770B50D460646446804E0B26829463F
:109D9000904718B1246820680028F7D1206828600F
:109DA000256070BD406800687047416808680028F9
:109DB00001D002680A60704702460020526806E03F
:109DC0008B4203D108681060012070471A4613685F
:109DD000002BF5D1704700000C4A10B502F59473C2
:109DE0000EE0991AC91001EBD171491002EBC101C3
:109DF0000C68844201D90B4602E005D201F1080249
:109E00009A42EED3002010BD486810BD50B7020042
:109E100000B5FFF7E1FF002800D1014800BD0000B8
:109E20003CB702004058002800D00120704708B518
:109E3000002242504058009008BDD0F8040308406A
:109E400000D0012070474058002800D00120704702
:109E500008B5002242504058009008BD08480068EC
:109E6000012110F0010F06D14FF0E020C02280F850
:109E70000024C0F800110349012008607047000069
:109E800000E100E0180500400649024600200B7979
:109E90000BB1852070470A6001220A7100224A71C5
:109EA000704700008823002004490120086004480E
:109EB0000168C1F300410029FAD170470C0000404D
:109EC00018040040002802D001498001084770476B
:109ED000E1B60200002802D001498001084770471E
:109EE00001B702002DE9F0418846054600F0A2FDC9
:109EF000234E002828461AD0FDF7B2FF304490F8D0
:109F000048008009032802D001280ED007E04FF056
:109F1000A040D0F81005E84010F0010F05D0032153
:109F20002846BDE8F041FFF71DB90221F8E700F02F
:109F30008DFD002822D02846FDF792FF04464FF4FD
:109F4000807000EB84000F4F81B207EB8400D0F8E3
:109F5000102542F00102C0F810250846FFF728F945
:109F6000B8F1000F0AD02846FDF77AFF56F8200016
:109F7000002803D00120A040C7F80403BDE8F08109
:109F8000DC250020006000402DE9FC41DFF8BC80AA
:109F9000044608EB0400002790F930001346C01770
:109FA0000E46401C01D008274CE0B0781946C0F39B
:109FB00040022046FDF730FF0546401C41D0B078F6
:109FC000410719D4C0070AD04FF0A04000EB84012C
:109FD000D1F8000720F00200C1F8000707E00021D7
:109FE0007378204600910A460191FFF74DF8174912
:109FF00020465431FEF706FEB078800718D5144885
:10A00000317800EB8500D0F81025124B1A40C0F8CB
:10A0100010254FF4F8524FF4403302EA042203EAC9
:10A0200001410A43D0F810150A43C0F8102509E091
:10A0300008EB0500327810F8481F41EA82110170E0
:10A0400000E004273846BDE8FC810000DC25002044
:10A0500000600040FFE0FCFF70B5174D95F8580018
:10A0600008B1082070BD0020411E2A18401CC0B253
:10A0700082F830102028F8D300242046FDF7BEFED9
:10A08000641CE4B20C2CF8D300240C49C0206C658D
:10A0900081F8000401264020891FC1F800014FF417
:10A0A000BE70FFF785F80649F007C1F8040385F88C
:10A0B0005860204670BD0000DC25002006E000E06E
:10A0C000006000400121B1EB507F01D101207047B9
:10A0D0000020704738B50D4600F052FD040014D042
:10A0E00000208DF800006846FDF77CFA207928B141
:10A0F0009DF80000FDF79AFA112038BD0120256077
:10A1000020719DF80000FDF791FA002038BD10B5D0
:10A1100000F036FD002802D000210160017110BD61
:10A120002DE9F041254C064612200D46C4F80803DF
:10A130002348017C022918D0027C01464FF4807824
:10A1400091F82E10012A12D00222C4F8042301270C
:10A150000774466005810022C26021B3458390F8F0
:10A160002D103046FFF7FAFB25E0122002E0C2680E
:10A170002AB10220C4F804031120BDE8F081C660B2
:10A18000058361B947463846FFF7FAFB0028FAD045
:10A190003846FFF7FDFB29463046FFF7DFFB02207C
:10A1A000C4F8040307E029463046FFF7D7FB4046D2
:10A1B000FFF7EEFB27600020DFE7000000700040A3
:10A1C0008826002070B50C4626490A7C0AB1112069
:10A1D00070BD2279244D0AB1012A01D100222A60E2
:10A1E00001EB4002137F1BB911F82D3F5B1C0B7074
:10A1F000E1791177217A517721786278302301F063
:10A20000030103EA02121143A2784FF4E06303EA68
:10A2100002221143E2784FF4805303EA02321143E1
:10A2200022794FF4E02303EA0242114362794FF4AA
:10A23000801303EA02521143A2791B0103EA02626E
:10A240000A4B114303EB0012C2F81815227AE17988
:10A25000FFF78CFB207908B1012801D1012028608B
:10A26000002070BD8826002000750040007000406E
:10A2700070B505460E48017C09B1112070BD00EB98
:10A2800045010A7F1AB110F82D2F521E02700024CA
:10A290000C774C77224621462846FFF767FB40F2B1
:10A2A000FF72D143284600F04FF8204670BD0000F1
:10A2B000882600202DE9F0411F4C054694F82C001B
:10A2C00010B10820BDE8F08144F8101B1B49287824
:10A2D0000860091D68780860E878A077012727776B
:10A2E0000020207060776060154EE0776FF00040CE
:10A2F000C6F808034FF48270FFF74AFBB015FFF76A
:10A3000047FB4FF48A70FFF743FBA8780D494001E3
:10A3100081F800048020C91FC1F800010220C6F89E
:10A320000403A07F10B10120C6F804030348F038ED
:10A3300007600020C6E7000088260020F075004076
:10A340000070004007E000E02DE9F04117460C46A0
:10A350000546C1EA07401A4E06EB0511C1F81C0577
:10A3600000212846FFF71EFB2346012101EB450291
:10A37000144CC907D140626913F5006F1BD00A4322
:10A380006261C6F8040301212846FFF70BFB6A004F
:10A390004FF00041D140A7F5E0636269FF3B05D073
:10A3A0000A436261C6F80403BDE8F0818A43626132
:10A3B000C6F80803F8E78A436261C6F80803E2E7D3
:10A3C0000070004088260020084900200A7C012AED
:10A3D00001D00820704791F82E30054A01210BB1B9
:10A3E00011607047024A121DFAE70000882600201B
:10A3F0000070004070B517496FF00040C1F80803C5
:10A4000080214FF0E02201200025C2F8801111497F
:10A410000831086042F210744FF48A763046FFF734
:10A42000AFFA20B90020FFF74DFD641EF6D10A48AF
:10A4300005600A4E3574002406EB4400007F10B11D
:10A44000E0B2FFF715FF641C082CF5D386F82C50FA
:10A4500070BD00000070004000750040882600209C
:10A460000149024800F0D6BE3826002000200040F6
:10A470002DE9F0410546007916460F4600EB4001F4
:10A480002C4A01EBC00102EB810494F82A1011B1AF
:10A490000820BDE8F081284951F820102868FFF70E
:10A4A00019FE08B11120F4E739462846FDF7D8F81F
:10A4B00066603869206030004FF001062DD03F7F84
:10A4C0004FF48E712868FFF7B2FC4FF4A271286830
:10A4D000FFF7ADFC28681949C0F8041328684FEA53
:10A4E000471140F30730002806DA00F00F0000F1B2
:10A4F000E02080F8141D03E000F1E02080F8001453
:10A50000286840F3073000F01F0106FA01F1400906
:10A51000800000F1E020C0F8001128680421C0F894
:10A5200000150020A061E06184F8290044F8140FB0
:10A53000A675AEE738260020CCB6020080000200E7
:10A540002DE9F05F054600790B4600EB400101EB79
:10A55000C000244901EB8004284600F045F810B102
:10A560001120BDE8F09F62614FF00009C4F820900F
:10A57000A36084F828904FF48E784E4641462868B0
:10A58000FFF755FC28684FF0010AC0F808A02146E3
:10A59000286800F0CFFD606808BBD5F800B0676997
:10A5A0000FE000BF94F8280008B10F2615E04146DF
:10A5B0005846FFF737FC0028F4D02146584600F0F3
:10A5C000B9FD206AB842F2D3574641462868FFF7E2
:10A5D00029FC0028F9D02868C760C4F814903046D8
:10A5E000BFE7000038260020007900EB400101EBB6
:10A5F000C000044901EB80004069002800D0012020
:10A6000070470000382600202DE9F0470446007905
:10A610004FF0000900EB400101EBC000254901EBC0
:10A6200080072068C0F80095786880B120682249CA
:10A63000C0F808132068012140F3073000F01F0222
:10A6400091404009800000F1E020C0F880112068AE
:10A65000D0F80C25D0F81485D0F80865D0F810553E
:10A660004FF0FF31C0F81415C0F80C152068C0F881
:10A670000815C0F81015501C02D01046FEF73AFD20
:10A68000B8F1FF3F02D04046FEF734FD681C02D00F
:10A690002846FEF72FFD701C02D03046FEF72AFD3B
:10A6A0002068FFF734FD87F82A90C7F80490BDE8CA
:10A6B000F087000038260020840202000149024889
:10A6C00000F056BE64260020002000402DE9F04135
:10A6D0000546164600790F46154A00EBC00102EB0D
:10A6E000810494F8201011B10820BDE8F0811149CF
:10A6F00051F820102868FFF7EDFC08B11120F4E7AD
:10A7000039462846FCF7F0FF6660386920601EB1C4
:10A71000397F2846FDF788FF28680821C0F8001512
:10A720000020A061E0616061012184F82010DCE775
:10A7300064260020D0B602002DE9F04704460E46FC
:10A740000079274900EBC00001EB80051746304631
:10A75000FFF7B8FC30B1204600F044F820B11120DA
:10A76000BDE8F0871020FBE76F61AE604FF4907793
:10A770004FF0000839462068FFF76AFB4FF4AC76CB
:10A7800031462068FFF764FB2068AA686969C0F851
:10A790004425C0F8481520684FF00109C0F808901A
:10A7A0006868D0B9BA4651462068FFF74CFB0746A7
:10A7B00031462068FFF747FB0743F4D010B14FF054
:10A7C0000F0808E02068C0F80C9031462068FFF7B9
:10A7D0003AFB0028F9D0002068614046C0E700003D
:10A7E000642600200079054900EBC00001EB8000E1
:10A7F0004069002800D00120704700006426002036
:10A800002DE9F04704460079334900EBC00001EB25
:10A8100080070125786880B120683049C0F80813A6
:10A82000206840F3073000F01F0105FA01F14009EC
:10A83000800000F1E020C0F880112068D0F80012FC
:10A8400021F02001C0F80012206845604FF4AC767A
:10A8500031462068FFF7FCFA2068C5603146206861
:10A86000FFF7F1FA0028F9D020684FF00009C0F88E
:10A8700000952068D0F80C25D0F81485D0F808652C
:10A88000D0F810554FF0FF31C0F80C15C0F8141572
:10A890002068C0F80815C0F81015501C02D01046EA
:10A8A000FEF731FCB8F1FF3F02D04046FEF72BFC2B
:10A8B000681C02D02846FEF726FC701C02D03046E9
:10A8C000FEF721FC2068FFF722FC87F82090C7F8EC
:10A8D0000490BDE8F08700006426002010034200C9
:10A8E00070B58D88027900EBC5042273C97BA41D65
:10A8F000012902D0022904D101E0008800E040884B
:10A90000208021886088814211D92846A5DF012650
:10A91000B0B1112816D0FFF77BFA02460B480C495C
:10A92000401AC00806EB00400AA1FEF74FFEA179CD
:10A93000E079814208D92846BDE87040FDF746BC61
:10A940006671F4E72671F2E770BD000038C10200BD
:10A9500038C1020073645F626C655F676174746321
:10A960005F65786368616E67655F6D74755F72655A
:10A97000717565737428292072657475726E6564CB
:10A980002025732E000000007CB506468D88C888FF
:10A9900006EBC504A41D172800D217202188814288
:10A9A00000D8084660800020207121882846B5DF45
:10A9B00060B1FFF72DFA02460F481049401AC0084F
:10A9C000012101EB00400EA1FEF700FE6079002896
:10A9D00010D1306900280DD01549D1E90201CDE927
:10A9E0000001ADF802506088ADF804003269694694
:10A9F000304690477CBD000038C1020038C10200DB
:10AA000073645F626C655F67617474735F657863BC
:10AA100068616E67655F6D74755F7265706C7928CB
:10AA2000292072657475726E65642025732E00008E
:10AA300078B602000449084490F93000082801DB88
:10AA40000120704700207047DC250020044908449D
:10AA500090F93000082801D201207047002070478B
:10AA6000DC25002070B50D00044602D10020FCF763
:10AA70004FFD14B90020FCF74BFD28782070698841
:10AA80006170090AA170A988E170090A2171E8883A
:10AA90006071000AA07170BD10B50C46017A0529DD
:10AAA00008D0407A38B1084808A102682046FEF76D
:10AAB000E5F900E01AB106A12046FEF7DFF92046CD
:10AAC000BDE81040FEF7E7B91C2400202573000004
:10AAD0000D0A000010B5FEF7F7FE002803D0BDE810
:10AAE0001040FCF715BD10BD38B5C3880D460446AF
:10AAF00033B114A0009015A216A12846FEF7BEF9A6
:10AB0000217A05291CD0607A48B1A088FEF71AFC8A
:10AB1000164951F8202016A12846FEF7AFF9A08863
:10AB20000021FEF7E3FD03461049207A143951F85D
:10AB3000202001B02846BDE830400EA1FEF79EB9A6
:10AB400038BD00001B5B306D000000001B5B313B1B
:10AB500033316D0025734C6F67732064726F7070B2
:10AB60006564202825642925730D0A001C24002013
:10AB7000257300003C25733E2025733A2000000019
:10AB80000349884201D10348704700207047000004
:10AB9000002000409023002070B50546FDF739FCE9
:10ABA000134C40B1D4E904024FF08071411842F1D6
:10ABB0000000C4E9041000212846FDF77BFB30B1FA
:10ABC000606820B1606800F031FA00206060012107
:10ABD0002846FDF76FFB18B1FDF7AEFCC4E906018E
:10ABE000284600F04FFA2846BDE8704000F034B81F
:10ABF0009823002070B5054600200C460870FDF72C
:10AC00009BFCD5E90223101A63EB010300263146B1
:10AC1000361A994112DAB0F5350F03D3FCF784FCEC
:10AC20000B4942184FF4960300210A48FDF7FDFB3B
:10AC300010B10D2806D009E0012070BD00210548A3
:10AC4000FDF72EFB284600F0F1F92070002070BDC2
:10AC5000FFFFB400A0230020F8B51A4C07460026D9
:10AC60001948FFF79FF8D0B1616871B1D0E90210BF
:10AC70006268D2E90232C91A904120D26068007F2E
:10AC800018B161681048FFF77CF800F061F90546DB
:10AC90006946FFF7AFFF98B1606840B10AE06068AD
:10ACA00000280CD13846BDE8F840FDF7BABB38465D
:10ACB000FDF7B3FB65609DF800000028D0D1F8BD1A
:10ACC0006660CDE798230020F0B6020070B5054617
:10ACD00088690C4600284FF4847128460AD0FFF793
:10ACE000A6F8D5F81805626AE1688854606A401CC5
:10ACF000606270BDFFF79BF8D5F8180570BD1FB5F1
:10AD000001238DF80030CDE90121D0E90012684619
:10AD100090471FBD1FB501238DF80030CDE90121FB
:10AD2000D0E90012684690471FBD000038B50021E9
:10AD3000012548B101280CD0032809D1FFF78EF86E
:10AD4000BDE83840FEF74EB84FF0E020C0F8805123
:10AD500038BD8DF800106846FCF744FC064C20789E
:10AD600008B9FEF723F8E068401CE060A5709DF884
:10AD70000000FCF75BFC38BDC82500203EB504464A
:10AD800009496846FEF7D6FF08E000BFD0E9002178
:10AD90002046904730B16846FEF7E3FF029800284E
:10ADA000F4D13EBD11203EBDC4B802003EB50446FC
:10ADB00008496846FEF7BEFF07E000BFD0E9002162
:10ADC000204690476846FEF7CCFF02980028F5D150
:10ADD0003EBD0000D0B8020002498969002900D0B8
:10ADE00008477047AC24002070B50D4C0020D2B24B
:10ADF0002070201D0B4D0378EB5C1BB1001DFFF78D
:10AE00009BFC02E00C30FFF79BFB08B1FCF780FBDA
:10AE10006078002802D021780029FAD070BD0000A7
:10AE2000D02300207C2300202DE9F0410746806AD2
:10AE300014468846C8B3002531E000BFB96A05EB67
:10AE4000450001EB8006B088801CFE2802D90C204A
:10AE5000BDE8F0812288401C08F8020020881622F4
:10AE6000401C80B2208008F800202088401C80B25E
:10AE7000208000EB0801308800F003FB21880844A3
:10AE800080B22080B28842B1B16871B14044FBF712
:10AE9000ADFA2088B188084420806D1CEDB297F887
:10AEA0002C00A842CAD80020D2E7FFE70720CFE74E
:10AEB0000A78062822F0FF020A7010D2DFE800F0BC
:10AEC000030507090B0D002008E0112006E02120F2
:10AED00004E0312002E0122000E0222008707047D8
:10AEE000002805D10349012048700020FDF7B8B8BB
:10AEF00070470000C825002010B51620FCF7B4FAF2
:10AF0000A0B1114890F800044009082811D201218D
:10AF1000814011F0EC0F0CD00C4882684FF4800196
:10AF20006AB1016841F48001016010BD42F2010084
:10AF300001E042F20200BDE81040FCF7E9BA4FF030
:10AF4000E020C0F8001110BD16E000E0202700202E
:10AF50000148FEF72ABF0000F0B602002DE9F84FC5
:10AF6000204D924689460646984601226946184673
:10AF7000AF68FCF7D9FE58B3009800210446801C46
:10AF800009E000BF00EA07035AF8212005EB83031C
:10AF9000401C491CDA604145F4D34FEA164AFDF7DC
:10AFA00075F94AEA0041601C384005EB80003C40DE
:10AFB00005EB8402C160D06866F3C50068F38910B0
:10AFC00069F39F2020F00300401C20F00400D060B3
:10AFD00095F8200402E000BFFEF7DAF90028FBD163
:10AFE000BDE8F88FD028002070B50C00054602D1CE
:10AFF0000020FCF78DFA15B90020FCF789FA2078BB
:10B0000028702088000A68702068000CA8702068EA
:10B01000000EE87020792871207A68712089000A72
:10B02000A871A068000CE87170BD000070B50446FE
:10B03000124800250078F8B1F4B1207FE0B1FDF7A7
:10B040007BFAD4E90223801A994110D320690026A3
:10B0500000B92677D4E905108847206960B1217FBF
:10B0600051B1D4E9022110187141C4E9020121460D
:10B070000348FEF786FE0125284670BD9823002070
:10B08000F0B60200F8B51B4C69462068FDF702FDDA
:10B0900000260127184D29E0017821B101290CD0A3
:10B0A00002291BD114E041680A7FBAB90F774168C1
:10B0B00010480830FEF765FE10E04168686881427C
:10B0C00001D16E600AE00B480830FEF775FE05E01E
:10B0D000FFF73EFF08B10677FAE72F706946206850
:10B0E000FDF7CDFC69462068FDF7D4FC0028D3D1DC
:10B0F000F8BD0000E8B6020098230020F8B50B4C1C
:10B100000D46064669462068FDF7AEFC58B106704C
:10B11000456069462068FDF7C8FC10B10448FDF79A
:10B1200067F90020F8BD0420F8BD0000E8B6020071
:10B13000A023002070B50C4605464FF48E71FEF733
:10B1400076FE216AA068415C206A401C2062C5F836
:10B150001C1570BD1FB500228DF80020029181687A
:10B1600001914261D0E90012684690471FBD1FB5AA
:10B1700000228DF800200291816801914261D0E99E
:10B180000012684690471FBD1FB50A4601788DF82A
:10B19000001041680191017A8DF80810C068039091
:10B1A000044850F82210001F50F8222068469047AB
:10B1B0001FBD000084230020014901200870704752
:10B1C000D023002010B588B0044620220E496846DE
:10B1D000FBF70CF906200090C01F0190029003902D
:10B1E0004FF0EB7006900CB1084A00E0002269466F
:10B1F0000748FDF70FFE08B1FCF78AF90448001F65
:10B20000447008B010BD000084B80200B9B102005B
:10B21000D42300202DE9FF470C4605464FF400716A
:10B22000FEF70BFE01274FF40178002618B34FF408
:10B23000927949462846FEF7F5FDE0B14946284691
:10B24000FEF7F5FDC5F8088394F8290000B96F6092
:10B2500002208DF80000D5F88004C5F88004039022
:10B26000A0690290E0680190A661E661D4E900124D
:10B270006846904728E004212846FEF7DEFD18B313
:10B280004FF484712846FEF7CDFDE8B121462846EB
:10B29000FFF71CFD616AA069884215D1E06938B1E9
:10B2A000E268616AA0612069E6616662E06008E0C8
:10B2B00094F8290000B96F60C5F80883A661E268B8
:10B2C000616A2046FFF71BFD4FF48E784146284601
:10B2D000FEF7A8FD80B16069216A814202D294F82C
:10B2E000280028B341462846FEF7A1FD606918B141
:10B2F00061692046FFF72EFF4FF4A27841462846A9
:10B30000FEF790FD002818D041462846FEF78FFD35
:10B3100094F8290000B12F60A06900280DD0A66123
:10B32000E268616A04B02046BDE8F047FFF7E7BC79
:10B3300021462846FFF7FEFEDEE7BDE8FF87000056
:10B340001FB50A4601788DF8001041680191017A15
:10B350008DF80810C0680390044850F82210001FB0
:10B3600050F82220684690471FBD0000842300202B
:10B370002DE9FF410C464FF4927705463946FEF71A
:10B3800062FD0026B8B139462846FEF761FD02206D
:10B390008DF80000D5F88004C5F880040390D5F836
:10B3A0003C050290E0680190A661E661D4E90012D4
:10B3B0006846904723E04FF4887739462846FEF7E1
:10B3C00042FDE0B139462846FEF742FDD5F83C156E
:10B3D000A069884213D1E06960B1E268D5F8000243
:10B3E00020F02000C5F80002E069A0612069E66154
:10B3F000E06001E0A661E2682046FFF78BFC4FF4B5
:10B40000A27739462846FEF71EFD68B13946284620
:10B41000FEF71EFDA06938B1A661E661D5F83C15BE
:10B420002046E268FFF776FC4FF4907631462846D6
:10B43000FEF709FD60B131462846FEF709FD0120FF
:10B44000E860606920B1D5F84C152046FFF78FFE03
:10B450004FF4AC7631462846FEF7F5FC00280ED0B6
:10B4600031462846FEF7F4FC6069002807D0D5F87D
:10B470004C1504B02046BDE8F041FFF778BEBDE8AA
:10B48000FF810870000A4870022070472DE9F05FC4
:10B490008346DDE90A4A994690460D46084601274B
:10B4A00003E000BFB0FBF8F07F1C4045FAD2B9457D
:10B4B00000D94F465FEACA7012D18CB15FEA8A7038
:10B4C00002D5B9F1000F01D0202607E0302605E0B3
:10B4D00031465846641EFCF76FFC0CB1A742F7D307
:10B4E0005FF00106B9F1010F02D9A9F1010903E0EA
:10B4F000B5FBF6F0404502D306FB08F6F2E7DFF8AD
:10B500003C9000BFB5FBF6F000FB165519F8001093
:10B510005846FCF751FCB6FBF8F6002EF2D15FEA74
:10B52000CA7009D0002C07D0A74205D22021584666
:10B53000641EFCF741FCF5E7BDE8F09F06B702008A
:10B54000F8B5054680B2FDF711F8040013D0154E8A
:10B55000207A0027317B88420ED2A8B204F10A017A
:10B5600075DF28B1112806D0BDE8F840FFF734BCDC
:10B57000207A401C2072F8BD2772307C38B1A8B206
:10B580003B2176DF18B1082801D0FFF725FC71694F
:10B590000029F0D08DF80070ADF802506846884759
:10B5A000F8BD0000AC2400202DE9FC411646DDE981
:10B5B0000854CDE900541F468046022200F00CF8E2
:10B5C000002807D1CDE900543B46102231464046C1
:10B5D00000F002F8BDE8FC812DE9FC5F0026DDE902
:10B5E0000C4B994692468E4680462788354630E079
:10B5F000D8F80400002200EB85006946006801903D
:10B6000001A864DF002830D19DF8000050451FD10B
:10B610000EB1002100E0022122880844111859458A
:10B6200022D846B9521C90B2208009F800E0208848
:10B63000401C20800126218801A801EB09026946EF
:10B6400064DF002811D120889DF800100844208074
:10B650006D1CB8F80000A842CADC56B12088C01B97
:10B66000401E80B2FF2802D90C20BDE8FC9F09F8DB
:10B6700007000020F9E70000770A00000000000042
:10B68000770A0000000000007ADA000000000000E5
:10B69000FB349B5F8000008000100000341200002B
:10B6A0003412000088250020010006000000000080
:10B6B0000200000400000000000000000200000181
:10B6C00000000000A82500200000005061A4020036
:10B6D000BDA6020000000000000000000000000005
:10B6E0000338FDD870470000B8260020010006008E
:10B6F00000000000B8230020A58002000000000028
:10B700000338FDD870473031323334353637383965
:10B710004142434445460000000000000000000094
:10B720000000000000000000000000000000000019
:10B7300018B7020030B7020004000000556E6B6EAF
:10B740006F776E206572726F7220636F64650000A0
:10B7500000000000F8BD020001000000A4BC0200CF
:10B760000200000098BA02000300000018BD0200A9
:10B77000040000006CBD0200050000004CBC02008B
:10B7800006000000E8BB02000700000054BD0200F4
:10B790000800000060BC020009000000C4BC0200F8
:10B7A0000A000000E0BD02000B00000080BA0200A9
:10B7B0000C00000078BC02000D00000048BE020032
:10B7C0000E00000044BD02000F00000080BD02001A
:10B7D00010000000B4BD0200110000005CBE0200B9
:10B7E0001200000030BE020013000000CCBD0200B9
:10B7F0008000000000BC0200810000003CBB020091
:10B8000082000000FCBA020083000000DCBA0200E3
:10B810008400000018BB02008500000024BC020068
:10B82000860000002CBD020090000000C8BB020092
:10B8300091000000BCBA0200920000008CBC020023
:10B840000082000094BD020001820000E0BC020002
:10B8500002820000FCBC02000084000058BB020011
:10B860000184000004BE020002840000A0BB0200AC
:10B87000038400007CBB02002D93020001930200B0
:10B88000F9920200FFFFFFFFFFFFFFFFFFFFFFFF37
:10B89000FFFFFFFF00000000000000000000D601D5
:10B8A00006010000382800207F000000B828002092
:10B8B0000000000000000000000000000000000088
:10B8C00001000007B0B80200C0B802000800000084
:10B8D000E8B80200F8B8020008000000F8B802005A
:10B8E00008B902000800000004C202000CC20200F5
:10B8F0000000000000000000F4C1020004C20200C9
:10B900000000000000000000CCC10200D4C1020011
:10B91000D4C10200E4C102000000000000000000E9
:10B92000E4C10200ECC10200F022002008B90200CC
:10B9300028B9020008000000ECC10200F4C10200B6
:10B94000000000000000000038B9020048B9020001
:10B95000080000000040404040404040404041411D
:10B9600041414140404040404040404040404040D4
:10B97000404040404005020202020202020202026E
:10B98000020202020220202020202020202020026B
:10B9900002020202020290909090909010101010FB
:10B9A0001010101010101010101010101010101097
:10B9B000020202020202888888888888080808082B
:10B9C00008080808080808080808080808080808F7
:10B9D000020202024000000055B9020073645F6277
:10B9E0006C655F6761705F646174615F6C656E67F1
:10B9F00074685F75706461746528292028726571A8
:10BA00007565737429206F6E20636F6E6E65637445
:10BA1000696F6E20307825782072657475726E6556
:10BA2000642025732E0000005468652072657175CE
:10BA3000657374656420636F6D62696E6174696FAC
:10BA40006E206F6620545820616E6420525820701A
:10BA500061636B6574206C656E67746873206973CD
:10BA600020746F6F206C6F6E6720627920257520BF
:10BA70006D6963726F7365636F6E64732E0000008F
:10BA80004E52465F4552524F525F494E56414C49C5
:10BA9000445F4441544100004E52465F4552524F6C
:10BAA000525F534F46544445564943455F4E4F54A9
:10BAB0005F454E41424C4544000000004E52465FF7
:10BAC0004552524F525F464541545552455F4E4F85
:10BAD000545F454E41424C45440000004E52465F83
